{"contracts/KeelUsageLedger.sol":{"KeelUsageLedger":{"abi":[{"inputs":[],"stateMutability":"nonpayable","type":"constructor"},{"inputs":[],"name":"AccessControlBadConfirmation","type":"error"},{"inputs":[{"internalType":"address","name":"account","type":"address"},{"internalType":"bytes32","name":"neededRole","type":"bytes32"}],"name":"AccessControlUnauthorizedAccount","type":"error"},{"inputs":[{"internalType":"address","name":"target","type":"address"}],"name":"AddressEmptyCode","type":"error"},{"inputs":[{"internalType":"address","name":"implementation","type":"address"}],"name":"ERC1967InvalidImplementation","type":"error"},{"inputs":[],"name":"ERC1967NonPayable","type":"error"},{"inputs":[],"name":"FailedCall","type":"error"},{"inputs":[],"name":"InvalidInitialization","type":"error"},{"inputs":[],"name":"NotInitializing","type":"error"},{"inputs":[],"name":"UUPSUnauthorizedCallContext","type":"error"},{"inputs":[{"internalType":"bytes32","name":"slot","type":"bytes32"}],"name":"UUPSUnsupportedProxiableUUID","type":"error"},{"anonymous":false,"inputs":[{"indexed":false,"internalType":"uint64","name":"version","type":"uint64"}],"name":"Initialized","type":"event"},{"anonymous":false,"inputs":[{"indexed":true,"internalType":"address","name":"member","type":"address"},{"indexed":false,"internalType":"string","name":"displayName","type":"string"}],"name":"MemberProfileUpdated","type":"event"},{"anonymous":false,"inputs":[{"indexed":true,"internalType":"bytes32","name":"role","type":"bytes32"},{"indexed":true,"internalType":"bytes32","name":"previousAdminRole","type":"bytes32"},{"indexed":true,"internalType":"bytes32","name":"newAdminRole","type":"bytes32"}],"name":"RoleAdminChanged","type":"event"},{"anonymous":false,"inputs":[{"indexed":true,"internalType":"bytes32","name":"role","type":"bytes32"},{"indexed":true,"internalType":"address","name":"account","type":"address"},{"indexed":true,"internalType":"address","name":"sender","type":"address"}],"name":"RoleGranted","type":"event"},{"anonymous":false,"inputs":[{"indexed":true,"internalType":"bytes32","name":"role","type":"bytes32"},{"indexed":true,"internalType":"address","name":"account","type":"address"},{"indexed":true,"internalType":"address","name":"sender","type":"address"}],"name":"RoleRevoked","type":"event"},{"anonymous":false,"inputs":[{"indexed":true,"internalType":"bytes32","name":"tripId","type":"bytes32"},{"indexed":true,"internalType":"address","name":"member","type":"address"},{"indexed":true,"internalType":"uint16","name":"boatId","type":"uint16"},{"indexed":false,"internalType":"uint256","name":"refundAmount","type":"uint256"},{"indexed":false,"internalType":"bool","name":"refunded","type":"bool"}],"name":"TripCancelled","type":"event"},{"anonymous":false,"inputs":[{"indexed":true,"internalType":"bytes32","name":"tripId","type":"bytes32"},{"indexed":true,"internalType":"address","name":"member","type":"address"},{"indexed":true,"internalType":"uint16","name":"boatId","type":"uint16"},{"indexed":false,"internalType":"uint256","name":"tokensBurned","type":"uint256"},{"indexed":false,"internalType":"uint32","name":"totalTenths","type":"uint32"},{"indexed":false,"internalType":"uint64","name":"startTs","type":"uint64"},{"indexed":false,"internalType":"uint64","name":"endTs","type":"uint64"}],"name":"TripSettled","type":"event"},{"anonymous":false,"inputs":[{"indexed":true,"internalType":"address","name":"implementation","type":"address"}],"name":"Upgraded","type":"event"},{"inputs":[],"name":"DEFAULT_ADMIN_ROLE","outputs":[{"internalType":"bytes32","name":"","type":"bytes32"}],"stateMutability":"view","type":"function"},{"inputs":[],"name":"OPERATOR_ROLE","outputs":[{"internalType":"bytes32","name":"","type":"bytes32"}],"stateMutability":"view","type":"function"},{"inputs":[],"name":"UPGRADE_INTERFACE_VERSION","outputs":[{"internalType":"string","name":"","type":"string"}],"stateMutability":"view","type":"function"},{"inputs":[{"internalType":"uint16","name":"boatId","type":"uint16"}],"name":"boatTripCount","outputs":[{"internalType":"uint256","name":"","type":"uint256"}],"stateMutability":"view","type":"function"},{"inputs":[{"internalType":"uint16","name":"","type":"uint16"},{"internalType":"uint256","name":"","type":"uint256"}],"name":"boatTrips","outputs":[{"internalType":"bytes32","name":"","type":"bytes32"}],"stateMutability":"view","type":"function"},{"inputs":[{"internalType":"bytes32","name":"tripId","type":"bytes32"}],"name":"cancelTrip","outputs":[],"stateMutability":"nonpayable","type":"function"},{"inputs":[{"internalType":"uint256","name":"","type":"uint256"}],"name":"competitiveMultiplierBps","outputs":[{"internalType":"uint16","name":"","type":"uint16"}],"stateMutability":"view","type":"function"},{"inputs":[],"name":"getMemberCount","outputs":[{"internalType":"uint256","name":"","type":"uint256"}],"stateMutability":"view","type":"function"},{"inputs":[{"internalType":"bytes32","name":"role","type":"bytes32"}],"name":"getRoleAdmin","outputs":[{"internalType":"bytes32","name":"","type":"bytes32"}],"stateMutability":"view","type":"function"},{"inputs":[{"internalType":"bytes32","name":"role","type":"bytes32"},{"internalType":"address","name":"account","type":"address"}],"name":"grantRole","outputs":[],"stateMutability":"nonpayable","type":"function"},{"inputs":[{"internalType":"bytes32","name":"role","type":"bytes32"},{"internalType":"address","name":"account","type":"address"}],"name":"hasRole","outputs":[{"internalType":"bool","name":"","type":"bool"}],"stateMutability":"view","type":"function"},{"inputs":[{"internalType":"uint256","name":"","type":"uint256"}],"name":"holidayMultiplierBps","outputs":[{"internalType":"uint16","name":"","type":"uint16"}],"stateMutability":"view","type":"function"},{"inputs":[{"internalType":"address","name":"admin","type":"address"},{"internalType":"address","name":"token","type":"address"}],"name":"initialize","outputs":[],"stateMutability":"nonpayable","type":"function"},{"inputs":[{"internalType":"uint16","name":"boatId","type":"uint16"},{"internalType":"uint64","name":"startTs","type":"uint64"},{"internalType":"uint64","name":"endTs","type":"uint64"}],"name":"isAvailable","outputs":[{"internalType":"bool","name":"","type":"bool"}],"stateMutability":"view","type":"function"},{"inputs":[],"name":"keelToken","outputs":[{"internalType":"contract IKeelToken","name":"","type":"address"}],"stateMutability":"view","type":"function"},{"inputs":[{"internalType":"address","name":"member","type":"address"},{"internalType":"uint16","name":"boatId","type":"uint16"},{"internalType":"uint64","name":"startTs","type":"uint64"},{"internalType":"uint64","name":"endTs","type":"uint64"},{"internalType":"uint32[8]","name":"h","type":"uint32[8]"},{"internalType":"bool","name":"competitive","type":"bool"}],"name":"logAndSettle","outputs":[{"internalType":"bytes32","name":"tripId","type":"bytes32"}],"stateMutability":"nonpayable","type":"function"},{"inputs":[{"internalType":"uint256","name":"","type":"uint256"}],"name":"memberList","outputs":[{"internalType":"address","name":"","type":"address"}],"stateMutability":"view","type":"function"},{"inputs":[{"internalType":"address","name":"","type":"address"}],"name":"memberProfiles","outputs":[{"internalType":"string","name":"displayName","type":"string"},{"internalType":"string","name":"experienceLevel","type":"string"},{"internalType":"uint64","name":"memberSince","type":"uint64"}],"stateMutability":"view","type":"function"},{"inputs":[],"name":"proxiableUUID","outputs":[{"internalType":"bytes32","name":"","type":"bytes32"}],"stateMutability":"view","type":"function"},{"inputs":[{"internalType":"uint32[8]","name":"h","type":"uint32[8]"},{"internalType":"bool","name":"competitive","type":"bool"}],"name":"quoteHundredths","outputs":[{"internalType":"uint256","name":"burnHundredths","type":"uint256"},{"internalType":"uint32","name":"totalTenths","type":"uint32"}],"stateMutability":"view","type":"function"},{"inputs":[{"internalType":"uint256","name":"","type":"uint256"},{"internalType":"uint256","name":"","type":"uint256"}],"name":"rateGrid","outputs":[{"internalType":"uint16","name":"","type":"uint16"}],"stateMutability":"view","type":"function"},{"inputs":[{"internalType":"bytes32","name":"role","type":"bytes32"},{"internalType":"address","name":"callerConfirmation","type":"address"}],"name":"renounceRole","outputs":[],"stateMutability":"nonpayable","type":"function"},{"inputs":[{"internalType":"bytes32","name":"role","type":"bytes32"},{"internalType":"address","name":"account","type":"address"}],"name":"revokeRole","outputs":[],"stateMutability":"nonpayable","type":"function"},{"inputs":[{"internalType":"uint8","name":"slot","type":"uint8"},{"internalType":"uint16","name":"bps","type":"uint16"}],"name":"setCompetitiveMultiplier","outputs":[],"stateMutability":"nonpayable","type":"function"},{"inputs":[{"internalType":"uint8","name":"slot","type":"uint8"},{"internalType":"uint16","name":"bps","type":"uint16"}],"name":"setHolidayMultiplier","outputs":[],"stateMutability":"nonpayable","type":"function"},{"inputs":[{"internalType":"address","name":"member","type":"address"},{"internalType":"string","name":"displayName","type":"string"},{"internalType":"string","name":"experienceLevel","type":"string"}],"name":"setMemberProfile","outputs":[],"stateMutability":"nonpayable","type":"function"},{"inputs":[{"internalType":"uint8","name":"period","type":"uint8"},{"internalType":"uint16","name":"dayRate","type":"uint16"},{"internalType":"uint16","name":"eveningRate","type":"uint16"}],"name":"setRate","outputs":[],"stateMutability":"nonpayable","type":"function"},{"inputs":[{"internalType":"bytes4","name":"interfaceId","type":"bytes4"}],"name":"supportsInterface","outputs":[{"internalType":"bool","name":"","type":"bool"}],"stateMutability":"view","type":"function"},{"inputs":[],"name":"tripCount","outputs":[{"internalType":"uint256","name":"","type":"uint256"}],"stateMutability":"view","type":"function"},{"inputs":[{"internalType":"uint256","name":"","type":"uint256"}],"name":"tripIds","outputs":[{"internalType":"bytes32","name":"","type":"bytes32"}],"stateMutability":"view","type":"function"},{"inputs":[{"internalType":"bytes32","name":"","type":"bytes32"}],"name":"trips","outputs":[{"internalType":"address","name":"member","type":"address"},{"internalType":"uint64","name":"startTs","type":"uint64"},{"internalType":"uint64","name":"endTs","type":"uint64"},{"internalType":"uint32","name":"totalTenths","type":"uint32"},{"internalType":"bool","name":"competitive","type":"bool"},{"internalType":"bool","name":"cancelled","type":"bool"},{"internalType":"uint16","name":"boatId","type":"uint16"},{"internalType":"uint256","name":"burnHundredths","type":"uint256"},{"internalType":"uint256","name":"tokensBurned","type":"uint256"}],"stateMutability":"view","type":"function"},{"inputs":[{"internalType":"address","name":"newImplementation","type":"address"},{"internalType":"bytes","name":"data","type":"bytes"}],"name":"upgradeToAndCall","outputs":[],"stateMutability":"payable","type":"function"}],"evm":{"bytecode":{"linkReferences":{},"object":"60a0604052306080523480156200001557600080fd5b506200002062000026565b620000da565b7ff0c57e16840df040f15088dc2f81fe391c3923bec73e23a9662efc9c229c6a00805468010000000000000000900460ff1615620000775760405163f92ee8a960e01b815260040160405180910390fd5b80546001600160401b0390811614620000d75780546001600160401b0319166001600160401b0390811782556040519081527fc7f505b2f371ae2175ee4913f4499e1f2633a7b5936321eed1cdaeb6115181d29060200160405180910390a15b50565b6080516129af6200010460003960008181611c1201528181611c3b0152611d7f01526129af6000f3fe6080604052600436106101e35760003560e01c806390cdbaf811610102578063bf73bceb11610095578063d8f66fa911610064578063d8f66fa914610695578063f5b541a6146106b5578063f5ffe485146106d7578063fa6258ed146106f757600080fd5b8063bf73bceb1461053d578063cf6a019d1461055d578063d3bbcfbd1461057d578063d547741f1461067557600080fd5b8063ad3cb1cc116100d1578063ad3cb1cc1461047f578063b077f29f146104bd578063b307fc6d146104ee578063b6f2056c1461050e57600080fd5b806390cdbaf8146103fd57806391d1485414610435578063997072f714610455578063a217fddf1461046a57600080fd5b8063485cc9551161017a5780635f757bb2116101495780635f757bb21461038857806364773636146103a857806369fc6cbe146103c857806383b202d7146103dd57600080fd5b8063485cc955146103205780634f1ef2861461034057806352d1902d1461035357806355ef7f971461036857600080fd5b80632f2ff15d116101b65780632f2ff15d146102a057806330bc2875146102c057806336568abe146102e05780633747d9871461030057600080fd5b806301ffc9a7146101e8578063248a9ca31461021d57806326dadad91461024b5780632c81a3181461027e575b600080fd5b3480156101f457600080fd5b506102086102033660046121b7565b610731565b60405190151581526020015b60405180910390f35b34801561022957600080fd5b5061023d6102383660046121e1565b610768565b604051908152602001610214565b34801561025757600080fd5b5061026b6102663660046121e1565b61078a565b60405161ffff9091168152602001610214565b34801561028a57600080fd5b5061029e610299366004612222565b6107b8565b005b3480156102ac57600080fd5b5061029e6102bb36600461226c565b610890565b3480156102cc57600080fd5b5061029e6102db36600461228f565b6108b2565b3480156102ec57600080fd5b5061029e6102fb36600461226c565b610964565b34801561030c57600080fd5b5061023d61031b3660046122d2565b61099c565b34801561032c57600080fd5b5061029e61033b3660046122fc565b6109cd565b61029e61034e36600461233c565b610b97565b34801561035f57600080fd5b5061023d610bb6565b34801561037457600080fd5b5061026b6103833660046121e1565b610bd3565b34801561039457600080fd5b5061029e6103a3366004612445565b610be3565b3480156103b457600080fd5b5061023d6103c33660046124fe565b610d49565b3480156103d457600080fd5b5060065461023d565b3480156103e957600080fd5b506102086103f8366004612575565b611296565b34801561040957600080fd5b5060005461041d906001600160a01b031681565b6040516001600160a01b039091168152602001610214565b34801561044157600080fd5b5061020861045036600461226c565b611360565b34801561046157600080fd5b5060095461023d565b34801561047657600080fd5b5061023d600081565b34801561048b57600080fd5b506104b0604051806040016040528060058152602001640352e302e360dc1b81525081565b60405161021491906125f5565b3480156104c957600080fd5b5061023d6104d8366004612608565b61ffff1660009081526007602052604090205490565b3480156104fa57600080fd5b5061041d6105093660046121e1565b611398565b34801561051a57600080fd5b5061052e610529366004612623565b6113c2565b6040516102149392919061263e565b34801561054957600080fd5b5061029e6105583660046121e1565b6114fd565b34801561056957600080fd5b5061023d6105783660046121e1565b611719565b34801561058957600080fd5b5061060e6105983660046121e1565b60056020526000908152604090208054600182015460028301546003909301546001600160a01b038316936001600160401b03600160a01b90940484169383169263ffffffff600160401b8204169260ff600160601b8304811693600160681b84049091169261ffff600160701b909104169189565b604080516001600160a01b039a909a168a526001600160401b0398891660208b0152969097169588019590955263ffffffff9390931660608701529015156080860152151560a085015261ffff1660c084015260e083015261010082015261012001610214565b34801561068157600080fd5b5061029e61069036600461226c565b61173a565b3480156106a157600080fd5b5061026b6106b036600461267d565b611756565b3480156106c157600080fd5b5061023d60008051602061293a83398151915281565b3480156106e357600080fd5b5061029e6106f2366004612222565b611796565b34801561070357600080fd5b5061071761071236600461269f565b61183f565b6040805192835263ffffffff909116602083015201610214565b60006001600160e01b03198216637965db0b60e01b148061076257506301ffc9a760e01b6001600160e01b03198316145b92915050565b600090815260008051602061295a833981519152602052604090206001015490565b6004816002811061079a57600080fd5b60109182820401919006600202915054906101000a900461ffff1681565b60006107c381611a9f565b60028360ff16106108065760405162461bcd60e51b8152602060048201526008602482015267189859081cdb1bdd60c21b60448201526064015b60405180910390fd5b6127108261ffff16101561084f5760405162461bcd60e51b815260206004820152601060248201526f0daeae6e840c4ca407c7a40625c6060f60831b60448201526064016107fd565b8160038460ff1660028110610866576108666126cc565b601091828204019190066002026101000a81548161ffff021916908361ffff160217905550505050565b61089982610768565b6108a281611a9f565b6108ac8383611aac565b50505050565b60006108bd81611a9f565b60028460ff16106108fd5760405162461bcd60e51b815260206004820152600a602482015269189859081c195c9a5bd960b21b60448201526064016107fd565b8260018560ff1660028110610914576109146126cc565b01805461ffff191661ffff9290921691909117905581600160ff861660028110610940576109406126cc565b01805461ffff92909216620100000263ffff00001990921691909117905550505050565b6001600160a01b038116331461098d5760405163334bd91960e11b815260040160405180910390fd5b6109978282611b58565b505050565b600760205281600052604060002081815481106109b857600080fd5b90600052602060002001600091509150505481565b60006109d7611bd4565b805490915060ff600160401b82041615906001600160401b03166000811580156109fe5750825b90506000826001600160401b03166001148015610a1a5750303b155b905081158015610a28575080155b15610a465760405163f92ee8a960e01b815260040160405180910390fd5b845467ffffffffffffffff191660011785558315610a7057845460ff60401b1916600160401b1785555b610a78611bfd565b610a83600088611aac565b50610a9c60008051602061293a83398151915288611aac565b50600080546001600160a01b0319166001600160a01b0388161790556040805160808101825260c881830181815260646060840152825282518084019093526101908352602080840191909152810191909152610afd9060019060026120b3565b5060408051808201909152612cec8152612af86020820152610b239060039060026120fd565b5060408051808201909152612af88082526020820152610b479060049060026120fd565b508315610b8e57845460ff60401b19168555604051600181527fc7f505b2f371ae2175ee4913f4499e1f2633a7b5936321eed1cdaeb6115181d29060200160405180910390a15b50505050505050565b610b9f611c07565b610ba882611cac565b610bb28282611cb7565b5050565b6000610bc0611d74565b5060008051602061291a83398151915290565b6003816002811061079a57600080fd5b6001600160a01b038516331480610c0d5750610c0d60008051602061293a83398151915233611360565b610c475760405162461bcd60e51b815260206004820152600b60248201526a1b9bdd08185b1b1bddd95960aa1b60448201526064016107fd565b6001600160a01b0385166000908152600860205260408120600281015490916001600160401b039091169003610ce15760028101805467ffffffffffffffff1916426001600160401b0316179055600980546001810182556000919091527f6e1540171b6c0c960b71a7020d9f60077f6af931a8bbf590da0223dacf75c7af0180546001600160a01b0319166001600160a01b0388161790555b80610ced85878361276c565b5060018101610cfd83858361276c565b50856001600160a01b03167f7f2ba702ec91844c5877a1ef0d30c0928b2b2ebd6a93e70d85d591a17544d2078686604051610d3992919061282c565b60405180910390a2505050505050565b60006001600160a01b038716331480610d755750610d7560008051602061293a83398151915233611360565b610dba5760405162461bcd60e51b81526020600482015260166024820152753737ba1036b2b6b132b91037b91037b832b930ba37b960511b60448201526064016107fd565b846001600160401b0316846001600160401b031611610e0c5760405162461bcd60e51b815260206004820152600e60248201526d6261642074696d652072616e676560901b60448201526064016107fd565b610e17868686611296565b610e565760405162461bcd60e51b815260206004820152601060248201526f736c6f7420756e617661696c61626c6560801b60448201526064016107fd565b600080610e63858561183f565b9150915060008163ffffffff1611610ea85760405162461bcd60e51b81526020600482015260086024820152676e6f20686f75727360c01b60448201526064016107fd565b6000610ebb83662386f26fc10000612871565b6040516bffffffffffffffffffffffff1960608d901b1660208201526001600160f01b031960f08c901b1660348201526001600160c01b031960c08b811b821660368401528a901b16603e82015242604682015290915060660160408051601f198184030181529181528151602092830120600081815260059093529120549094506001600160a01b031615610f7e5760405162461bcd60e51b8152602060048201526008602482015267064757020747269760c41b60448201526064016107fd565b6040518061012001604052808b6001600160a01b03168152602001896001600160401b03168152602001886001600160401b031681526020018363ffffffff16815260200186151581526020016000151581526020018a61ffff168152602001848152602001828152506005600086815260200190815260200160002060008201518160000160006101000a8154816001600160a01b0302191690836001600160a01b0316021790555060208201518160000160146101000a8154816001600160401b0302191690836001600160401b0316021790555060408201518160010160006101000a8154816001600160401b0302191690836001600160401b0316021790555060608201518160010160086101000a81548163ffffffff021916908363ffffffff160217905550608082015181600101600c6101000a81548160ff02191690831515021790555060a082015181600101600d6101000a81548160ff02191690831515021790555060c082015181600101600e6101000a81548161ffff021916908361ffff16021790555060e0820151816002015561010082015181600301559050506006849080600181540180825580915050600190039060005260206000200160009091909190915055600760008a61ffff1661ffff16815260200190815260200160002084908060018154018082558091505060019003906000526020600020016000909190919091505560008054906101000a90046001600160a01b03166001600160a01b031663e023b7e58b83876040518463ffffffff1660e01b81526004016111ee939291906001600160a01b039390931683526020830191909152604082015260600190565b600060405180830381600087803b15801561120857600080fd5b505af115801561121c573d6000803e3d6000fd5b50506040805184815263ffffffff861660208201526001600160401b038c8116828401528b166060820152905161ffff8d1693506001600160a01b038e16925087917f072c19ae8e66cbeddcb6cb1bb44264be531a305de9739338948c0dfc01e37783919081900360800190a45050509695505050505050565b61ffff83166000908152600760205260408120815b8154811015611352576000600560008484815481106112cc576112cc6126cc565b90600052602060002001548152602001908152602001600020905080600101600d9054906101000a900460ff1615611304575061134a565b60018101546001600160401b03908116908716108015611337575080546001600160401b03808716600160a01b90920416105b156113485760009350505050611359565b505b6001016112ab565b5060019150505b9392505050565b600091825260008051602061295a833981519152602090815260408084206001600160a01b0393909316845291905290205460ff1690565b600981815481106113a857600080fd5b6000918252602090912001546001600160a01b0316905081565b6008602052600090815260409020805481906113dd906126e2565b80601f0160208091040260200160405190810160405280929190818152602001828054611409906126e2565b80156114565780601f1061142b57610100808354040283529160200191611456565b820191906000526020600020905b81548152906001019060200180831161143957829003601f168201915b50505050509080600101805461146b906126e2565b80601f0160208091040260200160405190810160405280929190818152602001828054611497906126e2565b80156114e45780601f106114b9576101008083540402835291602001916114e4565b820191906000526020600020905b8154815290600101906020018083116114c757829003601f168201915b505050600290930154919250506001600160401b031683565b600081815260056020526040902080546001600160a01b03166115515760405162461bcd60e51b815260206004820152600c60248201526b06e6f207375636820747269760a41b60448201526064016107fd565b80546001600160a01b031633148061157c575061157c60008051602061293a83398151915233611360565b6115b65760405162461bcd60e51b815260206004820152600b60248201526a1b9bdd08185b1b1bddd95960aa1b60448201526064016107fd565b6001810154600160681b900460ff16156116065760405162461bcd60e51b8152602060048201526011602482015270185b1c9958591e4818d85b98d95b1b1959607a1b60448201526064016107fd565b60018101805460ff60681b1916600160681b17905580546001600160401b03600160a01b90910416421080156116ab576000548254600384015460405163133cb42f60e21b81526001600160a01b039283166004820152602481019190915260448101869052911690634cf2d0bc90606401600060405180830381600087803b15801561169257600080fd5b505af11580156116a6573d6000803e3d6000fd5b505050505b60018201548254600160701b90910461ffff16906001600160a01b0316847f752cc8aebf0b6894e3cfe2a0d5464ab0561856e1142da75f3a783898d641cb93846116f65760006116fc565b85600301545b6040805191825286151560208301520160405180910390a4505050565b6006818154811061172957600080fd5b600091825260209091200154905081565b61174382610768565b61174c81611a9f565b6108ac8383611b58565b6001826002811061176657600080fd5b01816002811061177557600080fd5b60109182820401919006600202915091509054906101000a900461ffff1681565b60006117a181611a9f565b60028360ff16106117df5760405162461bcd60e51b8152602060048201526008602482015267189859081cdb1bdd60c21b60448201526064016107fd565b6127108261ffff1610156118285760405162461bcd60e51b815260206004820152601060248201526f0daeae6e840c4ca407c7a40625c6060f60831b60448201526064016107fd565b8160048460ff1660028110610866576108666126cc565b600080611853610100850160e08601612888565b61186360e0860160c08701612888565b61187360c0870160a08801612888565b61188360a0880160808901612888565b6118936080890160608a01612888565b6118a360608a0160408b01612888565b6118b360408b0160208c01612888565b6118c060208c018c612888565b6118ca91906128ae565b6118d491906128ae565b6118de91906128ae565b6118e891906128ae565b6118f291906128ae565b6118fc91906128ae565b61190691906128ae565b9050600061192e61191a6020870187612888565b600160005b015461ffff1660008088611dbd565b61193890826128cb565b905061196861194d6040870160208801612888565b600160005b015462010000900461ffff166001600088611dbd565b61197290826128cb565b905061198f6119876060870160408801612888565b60018061191f565b61199990826128cb565b90506119b66119ae6080870160608801612888565b600180611952565b6119c090826128cb565b90506119ea6119d560a0870160808801612888565b600160005b015461ffff166000600188611dbd565b6119f490826128cb565b9050611a23611a0960c0870160a08801612888565b600160005b015462010000900461ffff1660018088611dbd565b611a2d90826128cb565b9050611a4a611a4260e0870160c08801612888565b6001806119da565b611a5490826128cb565b9050611a72611a6a610100870160e08801612888565b600180611a0e565b611a7c90826128cb565b9050600a611a8b8260096128cb565b611a9591906128de565b9250509250929050565b611aa98133611e8a565b50565b600060008051602061295a833981519152611ac78484611360565b611b47576000848152602082815260408083206001600160a01b03871684529091529020805460ff19166001179055611afd3390565b6001600160a01b0316836001600160a01b0316857f2f8788117e7eff1d82e926ec794901d17c78024a50270940304540a733656f0d60405160405180910390a46001915050610762565b6000915050610762565b5092915050565b600060008051602061295a833981519152611b738484611360565b15611b47576000848152602082815260408083206001600160a01b0387168085529252808320805460ff1916905551339287917ff6391f5c32d9c69d2a47ea670b442974b53935d1edc7fd64eb21e047a839171b9190a46001915050610762565b6000807ff0c57e16840df040f15088dc2f81fe391c3923bec73e23a9662efc9c229c6a00610762565b611c05611ec3565b565b306001600160a01b037f0000000000000000000000000000000000000000000000000000000000000000161480611c8e57507f00000000000000000000000000000000000000000000000000000000000000006001600160a01b0316611c8260008051602061291a833981519152546001600160a01b031690565b6001600160a01b031614155b15611c055760405163703e46dd60e11b815260040160405180910390fd5b6000610bb281611a9f565b816001600160a01b03166352d1902d6040518163ffffffff1660e01b8152600401602060405180830381865afa925050508015611d11575060408051601f3d908101601f19168201909252611d0e91810190612900565b60015b611d3957604051634c9c8ce360e01b81526001600160a01b03831660048201526024016107fd565b60008051602061291a8339815191528114611d6a57604051632a87526960e21b8152600481018290526024016107fd565b6109978383611ee8565b306001600160a01b037f00000000000000000000000000000000000000000000000000000000000000001614611c055760405163703e46dd60e11b815260040160405180910390fd5b600080611dd461ffff871663ffffffff8916612871565b90508315611e2b5761271060038660ff1660028110611df557611df56126cc565b601091828204019190066002029054906101000a900461ffff1661ffff1682611e1e9190612871565b611e2891906128de565b90505b8215611e805761271060048660ff1660028110611e4a57611e4a6126cc565b601091828204019190066002029054906101000a900461ffff1661ffff1682611e739190612871565b611e7d91906128de565b90505b9695505050505050565b611e948282611360565b610bb25760405163e2517d3f60e01b81526001600160a01b0382166004820152602481018390526044016107fd565b611ecb611f3e565b611c0557604051631afcd79f60e31b815260040160405180910390fd5b611ef182611f58565b6040516001600160a01b038316907fbc7cd75a20ee27fd9adebab32041f755214dbc6bffa90cc0225b39da2e5c2d3b90600090a2805115611f36576109978282611fbd565b610bb2612059565b6000611f48611bd4565b54600160401b900460ff16919050565b806001600160a01b03163b600003611f8e57604051634c9c8ce360e01b81526001600160a01b03821660048201526024016107fd565b60008051602061291a83398151915280546001600160a01b0319166001600160a01b0392909216919091179055565b60606000611fcb8484612078565b9050808015611fee575060003d1180611fee57506000846001600160a01b03163b115b1561200357611ffb61208d565b915050610762565b801561202d57604051639996b31560e01b81526001600160a01b03851660048201526024016107fd565b3d156120405761203b6120a7565b611b51565b60405163d6bda27560e01b815260040160405180910390fd5b3415611c055760405163b398979f60e01b815260040160405180910390fd5b6000806000835160208501865af49392505050565b6040513d81523d6000602083013e3d602001810160405290565b6040513d6000823e3d81fd5b82600281019282156120ed579160200282015b828111156120ed5782516120dd90839060026120fd565b50916020019190600101906120c6565b506120f992915061218f565b5090565b6001830191839082156121835791602002820160005b8382111561215357835183826101000a81548161ffff021916908361ffff1602179055509260200192600201602081600101049283019260010302612113565b80156121815782816101000a81549061ffff0219169055600201602081600101049283019260010302612153565b505b506120f99291506121a3565b808211156120f9576000815560010161218f565b808211156120f9576000815560010161218f565b6000602082840312156121c957600080fd5b81356001600160e01b03198116811461135957600080fd5b6000602082840312156121f357600080fd5b5035919050565b803560ff8116811461220b57600080fd5b919050565b803561ffff8116811461220b57600080fd5b6000806040838503121561223557600080fd5b61223e836121fa565b915061224c60208401612210565b90509250929050565b80356001600160a01b038116811461220b57600080fd5b6000806040838503121561227f57600080fd5b8235915061224c60208401612255565b6000806000606084860312156122a457600080fd5b6122ad846121fa565b92506122bb60208501612210565b91506122c960408501612210565b90509250925092565b600080604083850312156122e557600080fd5b6122ee83612210565b946020939093013593505050565b6000806040838503121561230f57600080fd5b61231883612255565b915061224c60208401612255565b634e487b7160e01b600052604160045260246000fd5b6000806040838503121561234f57600080fd5b61235883612255565b915060208301356001600160401b038082111561237457600080fd5b818501915085601f83011261238857600080fd5b81358181111561239a5761239a612326565b604051601f8201601f19908116603f011681019083821181831017156123c2576123c2612326565b816040528281528860208487010111156123db57600080fd5b8260208601602083013760006020848301015280955050505050509250929050565b60008083601f84011261240f57600080fd5b5081356001600160401b0381111561242657600080fd5b60208301915083602082850101111561243e57600080fd5b9250929050565b60008060008060006060868803121561245d57600080fd5b61246686612255565b945060208601356001600160401b038082111561248257600080fd5b61248e89838a016123fd565b909650945060408801359150808211156124a757600080fd5b506124b4888289016123fd565b969995985093965092949392505050565b80356001600160401b038116811461220b57600080fd5b80610100810183101561076257600080fd5b8035801515811461220b57600080fd5b6000806000806000806101a0878903121561251857600080fd5b61252187612255565b955061252f60208801612210565b945061253d604088016124c5565b935061254b606088016124c5565b925061255a88608089016124dc565b915061256961018088016124ee565b90509295509295509295565b60008060006060848603121561258a57600080fd5b61259384612210565b92506125a1602085016124c5565b91506122c9604085016124c5565b6000815180845260005b818110156125d5576020818501810151868301820152016125b9565b506000602082860101526020601f19601f83011685010191505092915050565b60208152600061135960208301846125af565b60006020828403121561261a57600080fd5b61135982612210565b60006020828403121561263557600080fd5b61135982612255565b60608152600061265160608301866125af565b828103602084015261266381866125af565b9150506001600160401b0383166040830152949350505050565b6000806040838503121561269057600080fd5b50508035926020909101359150565b60008061012083850312156126b357600080fd5b6126bd84846124dc565b915061224c61010084016124ee565b634e487b7160e01b600052603260045260246000fd5b600181811c908216806126f657607f821691505b60208210810361271657634e487b7160e01b600052602260045260246000fd5b50919050565b601f821115610997576000816000526020600020601f850160051c810160208610156127455750805b601f850160051c820191505b8181101561276457828155600101612751565b505050505050565b6001600160401b0383111561278357612783612326565b6127978361279183546126e2565b8361271c565b6000601f8411600181146127cb57600085156127b35750838201355b600019600387901b1c1916600186901b178355612825565b600083815260209020601f19861690835b828110156127fc57868501358255602094850194600190920191016127dc565b50868210156128195760001960f88860031b161c19848701351681555b505060018560011b0183555b5050505050565b60208152816020820152818360408301376000818301604090810191909152601f909201601f19160101919050565b634e487b7160e01b600052601160045260246000fd5b80820281158282048414176107625761076261285b565b60006020828403121561289a57600080fd5b813563ffffffff8116811461135957600080fd5b63ffffffff818116838216019080821115611b5157611b5161285b565b808201808211156107625761076261285b565b6000826128fb57634e487b7160e01b600052601260045260246000fd5b500490565b60006020828403121561291257600080fd5b505191905056fe360894a13ba1a3210667c828492db98dca3e2076cc3735a920a3ca505d382bbc97667070c54ef182b0f5858b034beac1b6f3089aa2d3188bb1e8929f4fa9b92902dd7bc7dec4dceedda775e58dd541e08a116c6c53815c0bd028192f7b626800a26469706673582212203008d052afed15ee9cb0b84136254322c730c5cbb09f88e9919918da99b01ad264736f6c63430008180033","opcodes":"PUSH1 0xA0 PUSH1 0x40 MSTORE ADDRESS PUSH1 0x80 MSTORE CALLVALUE DUP1 ISZERO PUSH3 0x15 JUMPI PUSH1 0x0 DUP1 REVERT JUMPDEST POP PUSH3 0x20 PUSH3 0x26 JUMP JUMPDEST PUSH3 0xDA JUMP JUMPDEST PUSH32 0xF0C57E16840DF040F15088DC2F81FE391C3923BEC73E23A9662EFC9C229C6A00 DUP1 SLOAD PUSH9 0x10000000000000000 SWAP1 DIV PUSH1 0xFF AND ISZERO PUSH3 0x77 JUMPI PUSH1 0x40 MLOAD PUSH4 0xF92EE8A9 PUSH1 0xE0 SHL DUP2 MSTORE PUSH1 0x4 ADD PUSH1 0x40 MLOAD DUP1 SWAP2 SUB SWAP1 REVERT JUMPDEST DUP1 SLOAD PUSH1 0x1 PUSH1 0x1 PUSH1 0x40 SHL SUB SWAP1 DUP2 AND EQ PUSH3 0xD7 JUMPI DUP1 SLOAD PUSH1 0x1 PUSH1 0x1 PUSH1 0x40 SHL SUB NOT AND PUSH1 0x1 PUSH1 0x1 PUSH1 0x40 SHL SUB SWAP1 DUP2 OR DUP3 SSTORE PUSH1 0x40 MLOAD SWAP1 DUP2 MSTORE PUSH32 0xC7F505B2F371AE2175EE4913F4499E1F2633A7B5936321EED1CDAEB6115181D2 SWAP1 PUSH1 0x20 ADD PUSH1 0x40 MLOAD DUP1 SWAP2 SUB SWAP1 LOG1 JUMPDEST POP JUMP JUMPDEST PUSH1 0x80 MLOAD PUSH2 0x29AF PUSH3 0x104 PUSH1 0x0 CODECOPY PUSH1 0x0 DUP2 DUP2 PUSH2 0x1C12 ADD MSTORE DUP2 DUP2 PUSH2 0x1C3B ADD MSTORE PUSH2 0x1D7F ADD MSTORE PUSH2 0x29AF PUSH1 0x0 RETURN INVALID PUSH1 0x80 PUSH1 0x40 MSTORE PUSH1 0x4 CALLDATASIZE LT PUSH2 0x1E3 JUMPI PUSH1 0x0 CALLDATALOAD PUSH1 0xE0 SHR DUP1 PUSH4 0x90CDBAF8 GT PUSH2 0x102 JUMPI DUP1 PUSH4 0xBF73BCEB GT PUSH2 0x95 JUMPI DUP1 PUSH4 0xD8F66FA9 GT PUSH2 0x64 JUMPI DUP1 PUSH4 0xD8F66FA9 EQ PUSH2 0x695 JUMPI DUP1 PUSH4 0xF5B541A6 EQ PUSH2 0x6B5 JUMPI DUP1 PUSH4 0xF5FFE485 EQ PUSH2 0x6D7 JUMPI DUP1 PUSH4 0xFA6258ED EQ PUSH2 0x6F7 JUMPI PUSH1 0x0 DUP1 REVERT JUMPDEST DUP1 PUSH4 0xBF73BCEB EQ PUSH2 0x53D JUMPI DUP1 PUSH4 0xCF6A019D EQ PUSH2 0x55D JUMPI DUP1 PUSH4 0xD3BBCFBD EQ PUSH2 0x57D JUMPI DUP1 PUSH4 0xD547741F EQ PUSH2 0x675 JUMPI PUSH1 0x0 DUP1 REVERT JUMPDEST DUP1 PUSH4 0xAD3CB1CC GT PUSH2 0xD1 JUMPI DUP1 PUSH4 0xAD3CB1CC EQ PUSH2 0x47F JUMPI DUP1 PUSH4 0xB077F29F EQ PUSH2 0x4BD JUMPI DUP1 PUSH4 0xB307FC6D EQ PUSH2 0x4EE JUMPI DUP1 PUSH4 0xB6F2056C EQ PUSH2 0x50E JUMPI PUSH1 0x0 DUP1 REVERT JUMPDEST DUP1 PUSH4 0x90CDBAF8 EQ PUSH2 0x3FD JUMPI DUP1 PUSH4 0x91D14854 EQ PUSH2 0x435 JUMPI DUP1 PUSH4 0x997072F7 EQ PUSH2 0x455 JUMPI DUP1 PUSH4 0xA217FDDF EQ PUSH2 0x46A JUMPI PUSH1 0x0 DUP1 REVERT JUMPDEST DUP1 PUSH4 0x485CC955 GT PUSH2 0x17A JUMPI DUP1 PUSH4 0x5F757BB2 GT PUSH2 0x149 JUMPI DUP1 PUSH4 0x5F757BB2 EQ PUSH2 0x388 JUMPI DUP1 PUSH4 0x64773636 EQ PUSH2 0x3A8 JUMPI DUP1 PUSH4 0x69FC6CBE EQ PUSH2 0x3C8 JUMPI DUP1 PUSH4 0x83B202D7 EQ PUSH2 0x3DD JUMPI PUSH1 0x0 DUP1 REVERT JUMPDEST DUP1 PUSH4 0x485CC955 EQ PUSH2 0x320 JUMPI DUP1 PUSH4 0x4F1EF286 EQ PUSH2 0x340 JUMPI DUP1 PUSH4 0x52D1902D EQ PUSH2 0x353 JUMPI DUP1 PUSH4 0x55EF7F97 EQ PUSH2 0x368 JUMPI PUSH1 0x0 DUP1 REVERT JUMPDEST DUP1 PUSH4 0x2F2FF15D GT PUSH2 0x1B6 JUMPI DUP1 PUSH4 0x2F2FF15D EQ PUSH2 0x2A0 JUMPI DUP1 PUSH4 0x30BC2875 EQ PUSH2 0x2C0 JUMPI DUP1 PUSH4 0x36568ABE EQ PUSH2 0x2E0 JUMPI DUP1 PUSH4 0x3747D987 EQ PUSH2 0x300 JUMPI PUSH1 0x0 DUP1 REVERT JUMPDEST DUP1 PUSH4 0x1FFC9A7 EQ PUSH2 0x1E8 JUMPI DUP1 PUSH4 0x248A9CA3 EQ PUSH2 0x21D JUMPI DUP1 PUSH4 0x26DADAD9 EQ PUSH2 0x24B JUMPI DUP1 PUSH4 0x2C81A318 EQ PUSH2 0x27E JUMPI JUMPDEST PUSH1 0x0 DUP1 REVERT JUMPDEST CALLVALUE DUP1 ISZERO PUSH2 0x1F4 JUMPI PUSH1 0x0 DUP1 REVERT JUMPDEST POP PUSH2 0x208 PUSH2 0x203 CALLDATASIZE PUSH1 0x4 PUSH2 0x21B7 JUMP JUMPDEST PUSH2 0x731 JUMP JUMPDEST PUSH1 0x40 MLOAD SWAP1 ISZERO ISZERO DUP2 MSTORE PUSH1 0x20 ADD JUMPDEST PUSH1 0x40 MLOAD DUP1 SWAP2 SUB SWAP1 RETURN JUMPDEST CALLVALUE DUP1 ISZERO PUSH2 0x229 JUMPI PUSH1 0x0 DUP1 REVERT JUMPDEST POP PUSH2 0x23D PUSH2 0x238 CALLDATASIZE PUSH1 0x4 PUSH2 0x21E1 JUMP JUMPDEST PUSH2 0x768 JUMP JUMPDEST PUSH1 0x40 MLOAD SWAP1 DUP2 MSTORE PUSH1 0x20 ADD PUSH2 0x214 JUMP JUMPDEST CALLVALUE DUP1 ISZERO PUSH2 0x257 JUMPI PUSH1 0x0 DUP1 REVERT JUMPDEST POP PUSH2 0x26B PUSH2 0x266 CALLDATASIZE PUSH1 0x4 PUSH2 0x21E1 JUMP JUMPDEST PUSH2 0x78A JUMP JUMPDEST PUSH1 0x40 MLOAD PUSH2 0xFFFF SWAP1 SWAP2 AND DUP2 MSTORE PUSH1 0x20 ADD PUSH2 0x214 JUMP JUMPDEST CALLVALUE DUP1 ISZERO PUSH2 0x28A JUMPI PUSH1 0x0 DUP1 REVERT JUMPDEST POP PUSH2 0x29E PUSH2 0x299 CALLDATASIZE PUSH1 0x4 PUSH2 0x2222 JUMP JUMPDEST PUSH2 0x7B8 JUMP JUMPDEST STOP JUMPDEST CALLVALUE DUP1 ISZERO PUSH2 0x2AC JUMPI PUSH1 0x0 DUP1 REVERT JUMPDEST POP PUSH2 0x29E PUSH2 0x2BB CALLDATASIZE PUSH1 0x4 PUSH2 0x226C JUMP JUMPDEST PUSH2 0x890 JUMP JUMPDEST CALLVALUE DUP1 ISZERO PUSH2 0x2CC JUMPI PUSH1 0x0 DUP1 REVERT JUMPDEST POP PUSH2 0x29E PUSH2 0x2DB CALLDATASIZE PUSH1 0x4 PUSH2 0x228F JUMP JUMPDEST PUSH2 0x8B2 JUMP JUMPDEST CALLVALUE DUP1 ISZERO PUSH2 0x2EC JUMPI PUSH1 0x0 DUP1 REVERT JUMPDEST POP PUSH2 0x29E PUSH2 0x2FB CALLDATASIZE PUSH1 0x4 PUSH2 0x226C JUMP JUMPDEST PUSH2 0x964 JUMP JUMPDEST CALLVALUE DUP1 ISZERO PUSH2 0x30C JUMPI PUSH1 0x0 DUP1 REVERT JUMPDEST POP PUSH2 0x23D PUSH2 0x31B CALLDATASIZE PUSH1 0x4 PUSH2 0x22D2 JUMP JUMPDEST PUSH2 0x99C JUMP JUMPDEST CALLVALUE DUP1 ISZERO PUSH2 0x32C JUMPI PUSH1 0x0 DUP1 REVERT JUMPDEST POP PUSH2 0x29E PUSH2 0x33B CALLDATASIZE PUSH1 0x4 PUSH2 0x22FC JUMP JUMPDEST PUSH2 0x9CD JUMP JUMPDEST PUSH2 0x29E PUSH2 0x34E CALLDATASIZE PUSH1 0x4 PUSH2 0x233C JUMP JUMPDEST PUSH2 0xB97 JUMP JUMPDEST CALLVALUE DUP1 ISZERO PUSH2 0x35F JUMPI PUSH1 0x0 DUP1 REVERT JUMPDEST POP PUSH2 0x23D PUSH2 0xBB6 JUMP JUMPDEST CALLVALUE DUP1 ISZERO PUSH2 0x374 JUMPI PUSH1 0x0 DUP1 REVERT JUMPDEST POP PUSH2 0x26B PUSH2 0x383 CALLDATASIZE PUSH1 0x4 PUSH2 0x21E1 JUMP JUMPDEST PUSH2 0xBD3 JUMP JUMPDEST CALLVALUE DUP1 ISZERO PUSH2 0x394 JUMPI PUSH1 0x0 DUP1 REVERT JUMPDEST POP PUSH2 0x29E PUSH2 0x3A3 CALLDATASIZE PUSH1 0x4 PUSH2 0x2445 JUMP JUMPDEST PUSH2 0xBE3 JUMP JUMPDEST CALLVALUE DUP1 ISZERO PUSH2 0x3B4 JUMPI PUSH1 0x0 DUP1 REVERT JUMPDEST POP PUSH2 0x23D PUSH2 0x3C3 CALLDATASIZE PUSH1 0x4 PUSH2 0x24FE JUMP JUMPDEST PUSH2 0xD49 JUMP JUMPDEST CALLVALUE DUP1 ISZERO PUSH2 0x3D4 JUMPI PUSH1 0x0 DUP1 REVERT JUMPDEST POP PUSH1 0x6 SLOAD PUSH2 0x23D JUMP JUMPDEST CALLVALUE DUP1 ISZERO PUSH2 0x3E9 JUMPI PUSH1 0x0 DUP1 REVERT JUMPDEST POP PUSH2 0x208 PUSH2 0x3F8 CALLDATASIZE PUSH1 0x4 PUSH2 0x2575 JUMP JUMPDEST PUSH2 0x1296 JUMP JUMPDEST CALLVALUE DUP1 ISZERO PUSH2 0x409 JUMPI PUSH1 0x0 DUP1 REVERT JUMPDEST POP PUSH1 0x0 SLOAD PUSH2 0x41D SWAP1 PUSH1 0x1 PUSH1 0x1 PUSH1 0xA0 SHL SUB AND DUP2 JUMP JUMPDEST PUSH1 0x40 MLOAD PUSH1 0x1 PUSH1 0x1 PUSH1 0xA0 SHL SUB SWAP1 SWAP2 AND DUP2 MSTORE PUSH1 0x20 ADD PUSH2 0x214 JUMP JUMPDEST CALLVALUE DUP1 ISZERO PUSH2 0x441 JUMPI PUSH1 0x0 DUP1 REVERT JUMPDEST POP PUSH2 0x208 PUSH2 0x450 CALLDATASIZE PUSH1 0x4 PUSH2 0x226C JUMP JUMPDEST PUSH2 0x1360 JUMP JUMPDEST CALLVALUE DUP1 ISZERO PUSH2 0x461 JUMPI PUSH1 0x0 DUP1 REVERT JUMPDEST POP PUSH1 0x9 SLOAD PUSH2 0x23D JUMP JUMPDEST CALLVALUE DUP1 ISZERO PUSH2 0x476 JUMPI PUSH1 0x0 DUP1 REVERT JUMPDEST POP PUSH2 0x23D PUSH1 0x0 DUP2 JUMP JUMPDEST CALLVALUE DUP1 ISZERO PUSH2 0x48B JUMPI PUSH1 0x0 DUP1 REVERT JUMPDEST POP PUSH2 0x4B0 PUSH1 0x40 MLOAD DUP1 PUSH1 0x40 ADD PUSH1 0x40 MSTORE DUP1 PUSH1 0x5 DUP2 MSTORE PUSH1 0x20 ADD PUSH5 0x352E302E3 PUSH1 0xDC SHL DUP2 MSTORE POP DUP2 JUMP JUMPDEST PUSH1 0x40 MLOAD PUSH2 0x214 SWAP2 SWAP1 PUSH2 0x25F5 JUMP JUMPDEST CALLVALUE DUP1 ISZERO PUSH2 0x4C9 JUMPI PUSH1 0x0 DUP1 REVERT JUMPDEST POP PUSH2 0x23D PUSH2 0x4D8 CALLDATASIZE PUSH1 0x4 PUSH2 0x2608 JUMP JUMPDEST PUSH2 0xFFFF AND PUSH1 0x0 SWAP1 DUP2 MSTORE PUSH1 0x7 PUSH1 0x20 MSTORE PUSH1 0x40 SWAP1 KECCAK256 SLOAD SWAP1 JUMP JUMPDEST CALLVALUE DUP1 ISZERO PUSH2 0x4FA JUMPI PUSH1 0x0 DUP1 REVERT JUMPDEST POP PUSH2 0x41D PUSH2 0x509 CALLDATASIZE PUSH1 0x4 PUSH2 0x21E1 JUMP JUMPDEST PUSH2 0x1398 JUMP JUMPDEST CALLVALUE DUP1 ISZERO PUSH2 0x51A JUMPI PUSH1 0x0 DUP1 REVERT JUMPDEST POP PUSH2 0x52E PUSH2 0x529 CALLDATASIZE PUSH1 0x4 PUSH2 0x2623 JUMP JUMPDEST PUSH2 0x13C2 JUMP JUMPDEST PUSH1 0x40 MLOAD PUSH2 0x214 SWAP4 SWAP3 SWAP2 SWAP1 PUSH2 0x263E JUMP JUMPDEST CALLVALUE DUP1 ISZERO PUSH2 0x549 JUMPI PUSH1 0x0 DUP1 REVERT JUMPDEST POP PUSH2 0x29E PUSH2 0x558 CALLDATASIZE PUSH1 0x4 PUSH2 0x21E1 JUMP JUMPDEST PUSH2 0x14FD JUMP JUMPDEST CALLVALUE DUP1 ISZERO PUSH2 0x569 JUMPI PUSH1 0x0 DUP1 REVERT JUMPDEST POP PUSH2 0x23D PUSH2 0x578 CALLDATASIZE PUSH1 0x4 PUSH2 0x21E1 JUMP JUMPDEST PUSH2 0x1719 JUMP JUMPDEST CALLVALUE DUP1 ISZERO PUSH2 0x589 JUMPI PUSH1 0x0 DUP1 REVERT JUMPDEST POP PUSH2 0x60E PUSH2 0x598 CALLDATASIZE PUSH1 0x4 PUSH2 0x21E1 JUMP JUMPDEST PUSH1 0x5 PUSH1 0x20 MSTORE PUSH1 0x0 SWAP1 DUP2 MSTORE PUSH1 0x40 SWAP1 KECCAK256 DUP1 SLOAD PUSH1 0x1 DUP3 ADD SLOAD PUSH1 0x2 DUP4 ADD SLOAD PUSH1 0x3 SWAP1 SWAP4 ADD SLOAD PUSH1 0x1 PUSH1 0x1 PUSH1 0xA0 SHL SUB DUP4 AND SWAP4 PUSH1 0x1 PUSH1 0x1 PUSH1 0x40 SHL SUB PUSH1 0x1 PUSH1 0xA0 SHL SWAP1 SWAP5 DIV DUP5 AND SWAP4 DUP4 AND SWAP3 PUSH4 0xFFFFFFFF PUSH1 0x1 PUSH1 0x40 SHL DUP3 DIV AND SWAP3 PUSH1 0xFF PUSH1 0x1 PUSH1 0x60 SHL DUP4 DIV DUP2 AND SWAP4 PUSH1 0x1 PUSH1 0x68 SHL DUP5 DIV SWAP1 SWAP2 AND SWAP3 PUSH2 0xFFFF PUSH1 0x1 PUSH1 0x70 SHL SWAP1 SWAP2 DIV AND SWAP2 DUP10 JUMP JUMPDEST PUSH1 0x40 DUP1 MLOAD PUSH1 0x1 PUSH1 0x1 PUSH1 0xA0 SHL SUB SWAP11 SWAP1 SWAP11 AND DUP11 MSTORE PUSH1 0x1 PUSH1 0x1 PUSH1 0x40 SHL SUB SWAP9 DUP10 AND PUSH1 0x20 DUP12 ADD MSTORE SWAP7 SWAP1 SWAP8 AND SWAP6 DUP9 ADD SWAP6 SWAP1 SWAP6 MSTORE PUSH4 0xFFFFFFFF SWAP4 SWAP1 SWAP4 AND PUSH1 0x60 DUP8 ADD MSTORE SWAP1 ISZERO ISZERO PUSH1 0x80 DUP7 ADD MSTORE ISZERO ISZERO PUSH1 0xA0 DUP6 ADD MSTORE PUSH2 0xFFFF AND PUSH1 0xC0 DUP5 ADD MSTORE PUSH1 0xE0 DUP4 ADD MSTORE PUSH2 0x100 DUP3 ADD MSTORE PUSH2 0x120 ADD PUSH2 0x214 JUMP JUMPDEST CALLVALUE DUP1 ISZERO PUSH2 0x681 JUMPI PUSH1 0x0 DUP1 REVERT JUMPDEST POP PUSH2 0x29E PUSH2 0x690 CALLDATASIZE PUSH1 0x4 PUSH2 0x226C JUMP JUMPDEST PUSH2 0x173A JUMP JUMPDEST CALLVALUE DUP1 ISZERO PUSH2 0x6A1 JUMPI PUSH1 0x0 DUP1 REVERT JUMPDEST POP PUSH2 0x26B PUSH2 0x6B0 CALLDATASIZE PUSH1 0x4 PUSH2 0x267D JUMP JUMPDEST PUSH2 0x1756 JUMP JUMPDEST CALLVALUE DUP1 ISZERO PUSH2 0x6C1 JUMPI PUSH1 0x0 DUP1 REVERT JUMPDEST POP PUSH2 0x23D PUSH1 0x0 DUP1 MLOAD PUSH1 0x20 PUSH2 0x293A DUP4 CODECOPY DUP2 MLOAD SWAP2 MSTORE DUP2 JUMP JUMPDEST CALLVALUE DUP1 ISZERO PUSH2 0x6E3 JUMPI PUSH1 0x0 DUP1 REVERT JUMPDEST POP PUSH2 0x29E PUSH2 0x6F2 CALLDATASIZE PUSH1 0x4 PUSH2 0x2222 JUMP JUMPDEST PUSH2 0x1796 JUMP JUMPDEST CALLVALUE DUP1 ISZERO PUSH2 0x703 JUMPI PUSH1 0x0 DUP1 REVERT JUMPDEST POP PUSH2 0x717 PUSH2 0x712 CALLDATASIZE PUSH1 0x4 PUSH2 0x269F JUMP JUMPDEST PUSH2 0x183F JUMP JUMPDEST PUSH1 0x40 DUP1 MLOAD SWAP3 DUP4 MSTORE PUSH4 0xFFFFFFFF SWAP1 SWAP2 AND PUSH1 0x20 DUP4 ADD MSTORE ADD PUSH2 0x214 JUMP JUMPDEST PUSH1 0x0 PUSH1 0x1 PUSH1 0x1 PUSH1 0xE0 SHL SUB NOT DUP3 AND PUSH4 0x7965DB0B PUSH1 0xE0 SHL EQ DUP1 PUSH2 0x762 JUMPI POP PUSH4 0x1FFC9A7 PUSH1 0xE0 SHL PUSH1 0x1 PUSH1 0x1 PUSH1 0xE0 SHL SUB NOT DUP4 AND EQ JUMPDEST SWAP3 SWAP2 POP POP JUMP JUMPDEST PUSH1 0x0 SWAP1 DUP2 MSTORE PUSH1 0x0 DUP1 MLOAD PUSH1 0x20 PUSH2 0x295A DUP4 CODECOPY DUP2 MLOAD SWAP2 MSTORE PUSH1 0x20 MSTORE PUSH1 0x40 SWAP1 KECCAK256 PUSH1 0x1 ADD SLOAD SWAP1 JUMP JUMPDEST PUSH1 0x4 DUP2 PUSH1 0x2 DUP2 LT PUSH2 0x79A JUMPI PUSH1 0x0 DUP1 REVERT JUMPDEST PUSH1 0x10 SWAP2 DUP3 DUP3 DIV ADD SWAP2 SWAP1 MOD PUSH1 0x2 MUL SWAP2 POP SLOAD SWAP1 PUSH2 0x100 EXP SWAP1 DIV PUSH2 0xFFFF AND DUP2 JUMP JUMPDEST PUSH1 0x0 PUSH2 0x7C3 DUP2 PUSH2 0x1A9F JUMP JUMPDEST PUSH1 0x2 DUP4 PUSH1 0xFF AND LT PUSH2 0x806 JUMPI PUSH1 0x40 MLOAD PUSH3 0x461BCD PUSH1 0xE5 SHL DUP2 MSTORE PUSH1 0x20 PUSH1 0x4 DUP3 ADD MSTORE PUSH1 0x8 PUSH1 0x24 DUP3 ADD MSTORE PUSH8 0x189859081CDB1BDD PUSH1 0xC2 SHL PUSH1 0x44 DUP3 ADD MSTORE PUSH1 0x64 ADD JUMPDEST PUSH1 0x40 MLOAD DUP1 SWAP2 SUB SWAP1 REVERT JUMPDEST PUSH2 0x2710 DUP3 PUSH2 0xFFFF AND LT ISZERO PUSH2 0x84F JUMPI PUSH1 0x40 MLOAD PUSH3 0x461BCD PUSH1 0xE5 SHL DUP2 MSTORE PUSH1 0x20 PUSH1 0x4 DUP3 ADD MSTORE PUSH1 0x10 PUSH1 0x24 DUP3 ADD MSTORE PUSH16 0xDAEAE6E840C4CA407C7A40625C6060F PUSH1 0x83 SHL PUSH1 0x44 DUP3 ADD MSTORE PUSH1 0x64 ADD PUSH2 0x7FD JUMP JUMPDEST DUP2 PUSH1 0x3 DUP5 PUSH1 0xFF AND PUSH1 0x2 DUP2 LT PUSH2 0x866 JUMPI PUSH2 0x866 PUSH2 0x26CC JUMP JUMPDEST PUSH1 0x10 SWAP2 DUP3 DUP3 DIV ADD SWAP2 SWAP1 MOD PUSH1 0x2 MUL PUSH2 0x100 EXP DUP2 SLOAD DUP2 PUSH2 0xFFFF MUL NOT AND SWAP1 DUP4 PUSH2 0xFFFF AND MUL OR SWAP1 SSTORE POP POP POP POP JUMP JUMPDEST PUSH2 0x899 DUP3 PUSH2 0x768 JUMP JUMPDEST PUSH2 0x8A2 DUP2 PUSH2 0x1A9F JUMP JUMPDEST PUSH2 0x8AC DUP4 DUP4 PUSH2 0x1AAC JUMP JUMPDEST POP POP POP POP JUMP JUMPDEST PUSH1 0x0 PUSH2 0x8BD DUP2 PUSH2 0x1A9F JUMP JUMPDEST PUSH1 0x2 DUP5 PUSH1 0xFF AND LT PUSH2 0x8FD JUMPI PUSH1 0x40 MLOAD PUSH3 0x461BCD PUSH1 0xE5 SHL DUP2 MSTORE PUSH1 0x20 PUSH1 0x4 DUP3 ADD MSTORE PUSH1 0xA PUSH1 0x24 DUP3 ADD MSTORE PUSH10 0x189859081C195C9A5BD9 PUSH1 0xB2 SHL PUSH1 0x44 DUP3 ADD MSTORE PUSH1 0x64 ADD PUSH2 0x7FD JUMP JUMPDEST DUP3 PUSH1 0x1 DUP6 PUSH1 0xFF AND PUSH1 0x2 DUP2 LT PUSH2 0x914 JUMPI PUSH2 0x914 PUSH2 0x26CC JUMP JUMPDEST ADD DUP1 SLOAD PUSH2 0xFFFF NOT AND PUSH2 0xFFFF SWAP3 SWAP1 SWAP3 AND SWAP2 SWAP1 SWAP2 OR SWAP1 SSTORE DUP2 PUSH1 0x1 PUSH1 0xFF DUP7 AND PUSH1 0x2 DUP2 LT PUSH2 0x940 JUMPI PUSH2 0x940 PUSH2 0x26CC JUMP JUMPDEST ADD DUP1 SLOAD PUSH2 0xFFFF SWAP3 SWAP1 SWAP3 AND PUSH3 0x10000 MUL PUSH4 0xFFFF0000 NOT SWAP1 SWAP3 AND SWAP2 SWAP1 SWAP2 OR SWAP1 SSTORE POP POP POP POP JUMP JUMPDEST PUSH1 0x1 PUSH1 0x1 PUSH1 0xA0 SHL SUB DUP2 AND CALLER EQ PUSH2 0x98D JUMPI PUSH1 0x40 MLOAD PUSH4 0x334BD919 PUSH1 0xE1 SHL DUP2 MSTORE PUSH1 0x4 ADD PUSH1 0x40 MLOAD DUP1 SWAP2 SUB SWAP1 REVERT JUMPDEST PUSH2 0x997 DUP3 DUP3 PUSH2 0x1B58 JUMP JUMPDEST POP POP POP JUMP JUMPDEST PUSH1 0x7 PUSH1 0x20 MSTORE DUP2 PUSH1 0x0 MSTORE PUSH1 0x40 PUSH1 0x0 KECCAK256 DUP2 DUP2 SLOAD DUP2 LT PUSH2 0x9B8 JUMPI PUSH1 0x0 DUP1 REVERT JUMPDEST SWAP1 PUSH1 0x0 MSTORE PUSH1 0x20 PUSH1 0x0 KECCAK256 ADD PUSH1 0x0 SWAP2 POP SWAP2 POP POP SLOAD DUP2 JUMP JUMPDEST PUSH1 0x0 PUSH2 0x9D7 PUSH2 0x1BD4 JUMP JUMPDEST DUP1 SLOAD SWAP1 SWAP2 POP PUSH1 0xFF PUSH1 0x1 PUSH1 0x40 SHL DUP3 DIV AND ISZERO SWAP1 PUSH1 0x1 PUSH1 0x1 PUSH1 0x40 SHL SUB AND PUSH1 0x0 DUP2 ISZERO DUP1 ISZERO PUSH2 0x9FE JUMPI POP DUP3 JUMPDEST SWAP1 POP PUSH1 0x0 DUP3 PUSH1 0x1 PUSH1 0x1 PUSH1 0x40 SHL SUB AND PUSH1 0x1 EQ DUP1 ISZERO PUSH2 0xA1A JUMPI POP ADDRESS EXTCODESIZE ISZERO JUMPDEST SWAP1 POP DUP2 ISZERO DUP1 ISZERO PUSH2 0xA28 JUMPI POP DUP1 ISZERO JUMPDEST ISZERO PUSH2 0xA46 JUMPI PUSH1 0x40 MLOAD PUSH4 0xF92EE8A9 PUSH1 0xE0 SHL DUP2 MSTORE PUSH1 0x4 ADD PUSH1 0x40 MLOAD DUP1 SWAP2 SUB SWAP1 REVERT JUMPDEST DUP5 SLOAD PUSH8 0xFFFFFFFFFFFFFFFF NOT AND PUSH1 0x1 OR DUP6 SSTORE DUP4 ISZERO PUSH2 0xA70 JUMPI DUP5 SLOAD PUSH1 0xFF PUSH1 0x40 SHL NOT AND PUSH1 0x1 PUSH1 0x40 SHL OR DUP6 SSTORE JUMPDEST PUSH2 0xA78 PUSH2 0x1BFD JUMP JUMPDEST PUSH2 0xA83 PUSH1 0x0 DUP9 PUSH2 0x1AAC JUMP JUMPDEST POP PUSH2 0xA9C PUSH1 0x0 DUP1 MLOAD PUSH1 0x20 PUSH2 0x293A DUP4 CODECOPY DUP2 MLOAD SWAP2 MSTORE DUP9 PUSH2 0x1AAC JUMP JUMPDEST POP PUSH1 0x0 DUP1 SLOAD PUSH1 0x1 PUSH1 0x1 PUSH1 0xA0 SHL SUB NOT AND PUSH1 0x1 PUSH1 0x1 PUSH1 0xA0 SHL SUB DUP9 AND OR SWAP1 SSTORE PUSH1 0x40 DUP1 MLOAD PUSH1 0x80 DUP2 ADD DUP3 MSTORE PUSH1 0xC8 DUP2 DUP4 ADD DUP2 DUP2 MSTORE PUSH1 0x64 PUSH1 0x60 DUP5 ADD MSTORE DUP3 MSTORE DUP3 MLOAD DUP1 DUP5 ADD SWAP1 SWAP4 MSTORE PUSH2 0x190 DUP4 MSTORE PUSH1 0x20 DUP1 DUP5 ADD SWAP2 SWAP1 SWAP2 MSTORE DUP2 ADD SWAP2 SWAP1 SWAP2 MSTORE PUSH2 0xAFD SWAP1 PUSH1 0x1 SWAP1 PUSH1 0x2 PUSH2 0x20B3 JUMP JUMPDEST POP PUSH1 0x40 DUP1 MLOAD DUP1 DUP3 ADD SWAP1 SWAP2 MSTORE PUSH2 0x2CEC DUP2 MSTORE PUSH2 0x2AF8 PUSH1 0x20 DUP3 ADD MSTORE PUSH2 0xB23 SWAP1 PUSH1 0x3 SWAP1 PUSH1 0x2 PUSH2 0x20FD JUMP JUMPDEST POP PUSH1 0x40 DUP1 MLOAD DUP1 DUP3 ADD SWAP1 SWAP2 MSTORE PUSH2 0x2AF8 DUP1 DUP3 MSTORE PUSH1 0x20 DUP3 ADD MSTORE PUSH2 0xB47 SWAP1 PUSH1 0x4 SWAP1 PUSH1 0x2 PUSH2 0x20FD JUMP JUMPDEST POP DUP4 ISZERO PUSH2 0xB8E JUMPI DUP5 SLOAD PUSH1 0xFF PUSH1 0x40 SHL NOT AND DUP6 SSTORE PUSH1 0x40 MLOAD PUSH1 0x1 DUP2 MSTORE PUSH32 0xC7F505B2F371AE2175EE4913F4499E1F2633A7B5936321EED1CDAEB6115181D2 SWAP1 PUSH1 0x20 ADD PUSH1 0x40 MLOAD DUP1 SWAP2 SUB SWAP1 LOG1 JUMPDEST POP POP POP POP POP POP POP JUMP JUMPDEST PUSH2 0xB9F PUSH2 0x1C07 JUMP JUMPDEST PUSH2 0xBA8 DUP3 PUSH2 0x1CAC JUMP JUMPDEST PUSH2 0xBB2 DUP3 DUP3 PUSH2 0x1CB7 JUMP JUMPDEST POP POP JUMP JUMPDEST PUSH1 0x0 PUSH2 0xBC0 PUSH2 0x1D74 JUMP JUMPDEST POP PUSH1 0x0 DUP1 MLOAD PUSH1 0x20 PUSH2 0x291A DUP4 CODECOPY DUP2 MLOAD SWAP2 MSTORE SWAP1 JUMP JUMPDEST PUSH1 0x3 DUP2 PUSH1 0x2 DUP2 LT PUSH2 0x79A JUMPI PUSH1 0x0 DUP1 REVERT JUMPDEST PUSH1 0x1 PUSH1 0x1 PUSH1 0xA0 SHL SUB DUP6 AND CALLER EQ DUP1 PUSH2 0xC0D JUMPI POP PUSH2 0xC0D PUSH1 0x0 DUP1 MLOAD PUSH1 0x20 PUSH2 0x293A DUP4 CODECOPY DUP2 MLOAD SWAP2 MSTORE CALLER PUSH2 0x1360 JUMP JUMPDEST PUSH2 0xC47 JUMPI PUSH1 0x40 MLOAD PUSH3 0x461BCD PUSH1 0xE5 SHL DUP2 MSTORE PUSH1 0x20 PUSH1 0x4 DUP3 ADD MSTORE PUSH1 0xB PUSH1 0x24 DUP3 ADD MSTORE PUSH11 0x1B9BDD08185B1B1BDDD959 PUSH1 0xAA SHL PUSH1 0x44 DUP3 ADD MSTORE PUSH1 0x64 ADD PUSH2 0x7FD JUMP JUMPDEST PUSH1 0x1 PUSH1 0x1 PUSH1 0xA0 SHL SUB DUP6 AND PUSH1 0x0 SWAP1 DUP2 MSTORE PUSH1 0x8 PUSH1 0x20 MSTORE PUSH1 0x40 DUP2 KECCAK256 PUSH1 0x2 DUP2 ADD SLOAD SWAP1 SWAP2 PUSH1 0x1 PUSH1 0x1 PUSH1 0x40 SHL SUB SWAP1 SWAP2 AND SWAP1 SUB PUSH2 0xCE1 JUMPI PUSH1 0x2 DUP2 ADD DUP1 SLOAD PUSH8 0xFFFFFFFFFFFFFFFF NOT AND TIMESTAMP PUSH1 0x1 PUSH1 0x1 PUSH1 0x40 SHL SUB AND OR SWAP1 SSTORE PUSH1 0x9 DUP1 SLOAD PUSH1 0x1 DUP2 ADD DUP3 SSTORE PUSH1 0x0 SWAP2 SWAP1 SWAP2 MSTORE PUSH32 0x6E1540171B6C0C960B71A7020D9F60077F6AF931A8BBF590DA0223DACF75C7AF ADD DUP1 SLOAD PUSH1 0x1 PUSH1 0x1 PUSH1 0xA0 SHL SUB NOT AND PUSH1 0x1 PUSH1 0x1 PUSH1 0xA0 SHL SUB DUP9 AND OR SWAP1 SSTORE JUMPDEST DUP1 PUSH2 0xCED DUP6 DUP8 DUP4 PUSH2 0x276C JUMP JUMPDEST POP PUSH1 0x1 DUP2 ADD PUSH2 0xCFD DUP4 DUP6 DUP4 PUSH2 0x276C JUMP JUMPDEST POP DUP6 PUSH1 0x1 PUSH1 0x1 PUSH1 0xA0 SHL SUB AND PUSH32 0x7F2BA702EC91844C5877A1EF0D30C0928B2B2EBD6A93E70D85D591A17544D207 DUP7 DUP7 PUSH1 0x40 MLOAD PUSH2 0xD39 SWAP3 SWAP2 SWAP1 PUSH2 0x282C JUMP JUMPDEST PUSH1 0x40 MLOAD DUP1 SWAP2 SUB SWAP1 LOG2 POP POP POP POP POP POP JUMP JUMPDEST PUSH1 0x0 PUSH1 0x1 PUSH1 0x1 PUSH1 0xA0 SHL SUB DUP8 AND CALLER EQ DUP1 PUSH2 0xD75 JUMPI POP PUSH2 0xD75 PUSH1 0x0 DUP1 MLOAD PUSH1 0x20 PUSH2 0x293A DUP4 CODECOPY DUP2 MLOAD SWAP2 MSTORE CALLER PUSH2 0x1360 JUMP JUMPDEST PUSH2 0xDBA JUMPI PUSH1 0x40 MLOAD PUSH3 0x461BCD PUSH1 0xE5 SHL DUP2 MSTORE PUSH1 0x20 PUSH1 0x4 DUP3 ADD MSTORE PUSH1 0x16 PUSH1 0x24 DUP3 ADD MSTORE PUSH22 0x3737BA1036B2B6B132B91037B91037B832B930BA37B9 PUSH1 0x51 SHL PUSH1 0x44 DUP3 ADD MSTORE PUSH1 0x64 ADD PUSH2 0x7FD JUMP JUMPDEST DUP5 PUSH1 0x1 PUSH1 0x1 PUSH1 0x40 SHL SUB AND DUP5 PUSH1 0x1 PUSH1 0x1 PUSH1 0x40 SHL SUB AND GT PUSH2 0xE0C JUMPI PUSH1 0x40 MLOAD PUSH3 0x461BCD PUSH1 0xE5 SHL DUP2 MSTORE PUSH1 0x20 PUSH1 0x4 DUP3 ADD MSTORE PUSH1 0xE PUSH1 0x24 DUP3 ADD MSTORE PUSH14 0x6261642074696D652072616E6765 PUSH1 0x90 SHL PUSH1 0x44 DUP3 ADD MSTORE PUSH1 0x64 ADD PUSH2 0x7FD JUMP JUMPDEST PUSH2 0xE17 DUP7 DUP7 DUP7 PUSH2 0x1296 JUMP JUMPDEST PUSH2 0xE56 JUMPI PUSH1 0x40 MLOAD PUSH3 0x461BCD PUSH1 0xE5 SHL DUP2 MSTORE PUSH1 0x20 PUSH1 0x4 DUP3 ADD MSTORE PUSH1 0x10 PUSH1 0x24 DUP3 ADD MSTORE PUSH16 0x736C6F7420756E617661696C61626C65 PUSH1 0x80 SHL PUSH1 0x44 DUP3 ADD MSTORE PUSH1 0x64 ADD PUSH2 0x7FD JUMP JUMPDEST PUSH1 0x0 DUP1 PUSH2 0xE63 DUP6 DUP6 PUSH2 0x183F JUMP JUMPDEST SWAP2 POP SWAP2 POP PUSH1 0x0 DUP2 PUSH4 0xFFFFFFFF AND GT PUSH2 0xEA8 JUMPI PUSH1 0x40 MLOAD PUSH3 0x461BCD PUSH1 0xE5 SHL DUP2 MSTORE PUSH1 0x20 PUSH1 0x4 DUP3 ADD MSTORE PUSH1 0x8 PUSH1 0x24 DUP3 ADD MSTORE PUSH8 0x6E6F20686F757273 PUSH1 0xC0 SHL PUSH1 0x44 DUP3 ADD MSTORE PUSH1 0x64 ADD PUSH2 0x7FD JUMP JUMPDEST PUSH1 0x0 PUSH2 0xEBB DUP4 PUSH7 0x2386F26FC10000 PUSH2 0x2871 JUMP JUMPDEST PUSH1 0x40 MLOAD PUSH12 0xFFFFFFFFFFFFFFFFFFFFFFFF NOT PUSH1 0x60 DUP14 SWAP1 SHL AND PUSH1 0x20 DUP3 ADD MSTORE PUSH1 0x1 PUSH1 0x1 PUSH1 0xF0 SHL SUB NOT PUSH1 0xF0 DUP13 SWAP1 SHL AND PUSH1 0x34 DUP3 ADD MSTORE PUSH1 0x1 PUSH1 0x1 PUSH1 0xC0 SHL SUB NOT PUSH1 0xC0 DUP12 DUP2 SHL DUP3 AND PUSH1 0x36 DUP5 ADD MSTORE DUP11 SWAP1 SHL AND PUSH1 0x3E DUP3 ADD MSTORE TIMESTAMP PUSH1 0x46 DUP3 ADD MSTORE SWAP1 SWAP2 POP PUSH1 0x66 ADD PUSH1 0x40 DUP1 MLOAD PUSH1 0x1F NOT DUP2 DUP5 SUB ADD DUP2 MSTORE SWAP2 DUP2 MSTORE DUP2 MLOAD PUSH1 0x20 SWAP3 DUP4 ADD KECCAK256 PUSH1 0x0 DUP2 DUP2 MSTORE PUSH1 0x5 SWAP1 SWAP4 MSTORE SWAP2 KECCAK256 SLOAD SWAP1 SWAP5 POP PUSH1 0x1 PUSH1 0x1 PUSH1 0xA0 SHL SUB AND ISZERO PUSH2 0xF7E JUMPI PUSH1 0x40 MLOAD PUSH3 0x461BCD PUSH1 0xE5 SHL DUP2 MSTORE PUSH1 0x20 PUSH1 0x4 DUP3 ADD MSTORE PUSH1 0x8 PUSH1 0x24 DUP3 ADD MSTORE PUSH8 0x647570207472697 PUSH1 0xC4 SHL PUSH1 0x44 DUP3 ADD MSTORE PUSH1 0x64 ADD PUSH2 0x7FD JUMP JUMPDEST PUSH1 0x40 MLOAD DUP1 PUSH2 0x120 ADD PUSH1 0x40 MSTORE DUP1 DUP12 PUSH1 0x1 PUSH1 0x1 PUSH1 0xA0 SHL SUB AND DUP2 MSTORE PUSH1 0x20 ADD DUP10 PUSH1 0x1 PUSH1 0x1 PUSH1 0x40 SHL SUB AND DUP2 MSTORE PUSH1 0x20 ADD DUP9 PUSH1 0x1 PUSH1 0x1 PUSH1 0x40 SHL SUB AND DUP2 MSTORE PUSH1 0x20 ADD DUP4 PUSH4 0xFFFFFFFF AND DUP2 MSTORE PUSH1 0x20 ADD DUP7 ISZERO ISZERO DUP2 MSTORE PUSH1 0x20 ADD PUSH1 0x0 ISZERO ISZERO DUP2 MSTORE PUSH1 0x20 ADD DUP11 PUSH2 0xFFFF AND DUP2 MSTORE PUSH1 0x20 ADD DUP5 DUP2 MSTORE PUSH1 0x20 ADD DUP3 DUP2 MSTORE POP PUSH1 0x5 PUSH1 0x0 DUP7 DUP2 MSTORE PUSH1 0x20 ADD SWAP1 DUP2 MSTORE PUSH1 0x20 ADD PUSH1 0x0 KECCAK256 PUSH1 0x0 DUP3 ADD MLOAD DUP2 PUSH1 0x0 ADD PUSH1 0x0 PUSH2 0x100 EXP DUP2 SLOAD DUP2 PUSH1 0x1 PUSH1 0x1 PUSH1 0xA0 SHL SUB MUL NOT AND SWAP1 DUP4 PUSH1 0x1 PUSH1 0x1 PUSH1 0xA0 SHL SUB AND MUL OR SWAP1 SSTORE POP PUSH1 0x20 DUP3 ADD MLOAD DUP2 PUSH1 0x0 ADD PUSH1 0x14 PUSH2 0x100 EXP DUP2 SLOAD DUP2 PUSH1 0x1 PUSH1 0x1 PUSH1 0x40 SHL SUB MUL NOT AND SWAP1 DUP4 PUSH1 0x1 PUSH1 0x1 PUSH1 0x40 SHL SUB AND MUL OR SWAP1 SSTORE POP PUSH1 0x40 DUP3 ADD MLOAD DUP2 PUSH1 0x1 ADD PUSH1 0x0 PUSH2 0x100 EXP DUP2 SLOAD DUP2 PUSH1 0x1 PUSH1 0x1 PUSH1 0x40 SHL SUB MUL NOT AND SWAP1 DUP4 PUSH1 0x1 PUSH1 0x1 PUSH1 0x40 SHL SUB AND MUL OR SWAP1 SSTORE POP PUSH1 0x60 DUP3 ADD MLOAD DUP2 PUSH1 0x1 ADD PUSH1 0x8 PUSH2 0x100 EXP DUP2 SLOAD DUP2 PUSH4 0xFFFFFFFF MUL NOT AND SWAP1 DUP4 PUSH4 0xFFFFFFFF AND MUL OR SWAP1 SSTORE POP PUSH1 0x80 DUP3 ADD MLOAD DUP2 PUSH1 0x1 ADD PUSH1 0xC PUSH2 0x100 EXP DUP2 SLOAD DUP2 PUSH1 0xFF MUL NOT AND SWAP1 DUP4 ISZERO ISZERO MUL OR SWAP1 SSTORE POP PUSH1 0xA0 DUP3 ADD MLOAD DUP2 PUSH1 0x1 ADD PUSH1 0xD PUSH2 0x100 EXP DUP2 SLOAD DUP2 PUSH1 0xFF MUL NOT AND SWAP1 DUP4 ISZERO ISZERO MUL OR SWAP1 SSTORE POP PUSH1 0xC0 DUP3 ADD MLOAD DUP2 PUSH1 0x1 ADD PUSH1 0xE PUSH2 0x100 EXP DUP2 SLOAD DUP2 PUSH2 0xFFFF MUL NOT AND SWAP1 DUP4 PUSH2 0xFFFF AND MUL OR SWAP1 SSTORE POP PUSH1 0xE0 DUP3 ADD MLOAD DUP2 PUSH1 0x2 ADD SSTORE PUSH2 0x100 DUP3 ADD MLOAD DUP2 PUSH1 0x3 ADD SSTORE SWAP1 POP POP PUSH1 0x6 DUP5 SWAP1 DUP1 PUSH1 0x1 DUP2 SLOAD ADD DUP1 DUP3 SSTORE DUP1 SWAP2 POP POP PUSH1 0x1 SWAP1 SUB SWAP1 PUSH1 0x0 MSTORE PUSH1 0x20 PUSH1 0x0 KECCAK256 ADD PUSH1 0x0 SWAP1 SWAP2 SWAP1 SWAP2 SWAP1 SWAP2 POP SSTORE PUSH1 0x7 PUSH1 0x0 DUP11 PUSH2 0xFFFF AND PUSH2 0xFFFF AND DUP2 MSTORE PUSH1 0x20 ADD SWAP1 DUP2 MSTORE PUSH1 0x20 ADD PUSH1 0x0 KECCAK256 DUP5 SWAP1 DUP1 PUSH1 0x1 DUP2 SLOAD ADD DUP1 DUP3 SSTORE DUP1 SWAP2 POP POP PUSH1 0x1 SWAP1 SUB SWAP1 PUSH1 0x0 MSTORE PUSH1 0x20 PUSH1 0x0 KECCAK256 ADD PUSH1 0x0 SWAP1 SWAP2 SWAP1 SWAP2 SWAP1 SWAP2 POP SSTORE PUSH1 0x0 DUP1 SLOAD SWAP1 PUSH2 0x100 EXP SWAP1 DIV PUSH1 0x1 PUSH1 0x1 PUSH1 0xA0 SHL SUB AND PUSH1 0x1 PUSH1 0x1 PUSH1 0xA0 SHL SUB AND PUSH4 0xE023B7E5 DUP12 DUP4 DUP8 PUSH1 0x40 MLOAD DUP5 PUSH4 0xFFFFFFFF AND PUSH1 0xE0 SHL DUP2 MSTORE PUSH1 0x4 ADD PUSH2 0x11EE SWAP4 SWAP3 SWAP2 SWAP1 PUSH1 0x1 PUSH1 0x1 PUSH1 0xA0 SHL SUB SWAP4 SWAP1 SWAP4 AND DUP4 MSTORE PUSH1 0x20 DUP4 ADD SWAP2 SWAP1 SWAP2 MSTORE PUSH1 0x40 DUP3 ADD MSTORE PUSH1 0x60 ADD SWAP1 JUMP JUMPDEST PUSH1 0x0 PUSH1 0x40 MLOAD DUP1 DUP4 SUB DUP2 PUSH1 0x0 DUP8 DUP1 EXTCODESIZE ISZERO DUP1 ISZERO PUSH2 0x1208 JUMPI PUSH1 0x0 DUP1 REVERT JUMPDEST POP GAS CALL ISZERO DUP1 ISZERO PUSH2 0x121C JUMPI RETURNDATASIZE PUSH1 0x0 DUP1 RETURNDATACOPY RETURNDATASIZE PUSH1 0x0 REVERT JUMPDEST POP POP PUSH1 0x40 DUP1 MLOAD DUP5 DUP2 MSTORE PUSH4 0xFFFFFFFF DUP7 AND PUSH1 0x20 DUP3 ADD MSTORE PUSH1 0x1 PUSH1 0x1 PUSH1 0x40 SHL SUB DUP13 DUP2 AND DUP3 DUP5 ADD MSTORE DUP12 AND PUSH1 0x60 DUP3 ADD MSTORE SWAP1 MLOAD PUSH2 0xFFFF DUP14 AND SWAP4 POP PUSH1 0x1 PUSH1 0x1 PUSH1 0xA0 SHL SUB DUP15 AND SWAP3 POP DUP8 SWAP2 PUSH32 0x72C19AE8E66CBEDDCB6CB1BB44264BE531A305DE9739338948C0DFC01E37783 SWAP2 SWAP1 DUP2 SWAP1 SUB PUSH1 0x80 ADD SWAP1 LOG4 POP POP POP SWAP7 SWAP6 POP POP POP POP POP POP JUMP JUMPDEST PUSH2 0xFFFF DUP4 AND PUSH1 0x0 SWAP1 DUP2 MSTORE PUSH1 0x7 PUSH1 0x20 MSTORE PUSH1 0x40 DUP2 KECCAK256 DUP2 JUMPDEST DUP2 SLOAD DUP2 LT ISZERO PUSH2 0x1352 JUMPI PUSH1 0x0 PUSH1 0x5 PUSH1 0x0 DUP5 DUP5 DUP2 SLOAD DUP2 LT PUSH2 0x12CC JUMPI PUSH2 0x12CC PUSH2 0x26CC JUMP JUMPDEST SWAP1 PUSH1 0x0 MSTORE PUSH1 0x20 PUSH1 0x0 KECCAK256 ADD SLOAD DUP2 MSTORE PUSH1 0x20 ADD SWAP1 DUP2 MSTORE PUSH1 0x20 ADD PUSH1 0x0 KECCAK256 SWAP1 POP DUP1 PUSH1 0x1 ADD PUSH1 0xD SWAP1 SLOAD SWAP1 PUSH2 0x100 EXP SWAP1 DIV PUSH1 0xFF AND ISZERO PUSH2 0x1304 JUMPI POP PUSH2 0x134A JUMP JUMPDEST PUSH1 0x1 DUP2 ADD SLOAD PUSH1 0x1 PUSH1 0x1 PUSH1 0x40 SHL SUB SWAP1 DUP2 AND SWAP1 DUP8 AND LT DUP1 ISZERO PUSH2 0x1337 JUMPI POP DUP1 SLOAD PUSH1 0x1 PUSH1 0x1 PUSH1 0x40 SHL SUB DUP1 DUP8 AND PUSH1 0x1 PUSH1 0xA0 SHL SWAP1 SWAP3 DIV AND LT JUMPDEST ISZERO PUSH2 0x1348 JUMPI PUSH1 0x0 SWAP4 POP POP POP POP PUSH2 0x1359 JUMP JUMPDEST POP JUMPDEST PUSH1 0x1 ADD PUSH2 0x12AB JUMP JUMPDEST POP PUSH1 0x1 SWAP2 POP POP JUMPDEST SWAP4 SWAP3 POP POP POP JUMP JUMPDEST PUSH1 0x0 SWAP2 DUP3 MSTORE PUSH1 0x0 DUP1 MLOAD PUSH1 0x20 PUSH2 0x295A DUP4 CODECOPY DUP2 MLOAD SWAP2 MSTORE PUSH1 0x20 SWAP1 DUP2 MSTORE PUSH1 0x40 DUP1 DUP5 KECCAK256 PUSH1 0x1 PUSH1 0x1 PUSH1 0xA0 SHL SUB SWAP4 SWAP1 SWAP4 AND DUP5 MSTORE SWAP2 SWAP1 MSTORE SWAP1 KECCAK256 SLOAD PUSH1 0xFF AND SWAP1 JUMP JUMPDEST PUSH1 0x9 DUP2 DUP2 SLOAD DUP2 LT PUSH2 0x13A8 JUMPI PUSH1 0x0 DUP1 REVERT JUMPDEST PUSH1 0x0 SWAP2 DUP3 MSTORE PUSH1 0x20 SWAP1 SWAP2 KECCAK256 ADD SLOAD PUSH1 0x1 PUSH1 0x1 PUSH1 0xA0 SHL SUB AND SWAP1 POP DUP2 JUMP JUMPDEST PUSH1 0x8 PUSH1 0x20 MSTORE PUSH1 0x0 SWAP1 DUP2 MSTORE PUSH1 0x40 SWAP1 KECCAK256 DUP1 SLOAD DUP2 SWAP1 PUSH2 0x13DD SWAP1 PUSH2 0x26E2 JUMP JUMPDEST DUP1 PUSH1 0x1F ADD PUSH1 0x20 DUP1 SWAP2 DIV MUL PUSH1 0x20 ADD PUSH1 0x40 MLOAD SWAP1 DUP2 ADD PUSH1 0x40 MSTORE DUP1 SWAP3 SWAP2 SWAP1 DUP2 DUP2 MSTORE PUSH1 0x20 ADD DUP3 DUP1 SLOAD PUSH2 0x1409 SWAP1 PUSH2 0x26E2 JUMP JUMPDEST DUP1 ISZERO PUSH2 0x1456 JUMPI DUP1 PUSH1 0x1F LT PUSH2 0x142B JUMPI PUSH2 0x100 DUP1 DUP4 SLOAD DIV MUL DUP4 MSTORE SWAP2 PUSH1 0x20 ADD SWAP2 PUSH2 0x1456 JUMP JUMPDEST DUP3 ADD SWAP2 SWAP1 PUSH1 0x0 MSTORE PUSH1 0x20 PUSH1 0x0 KECCAK256 SWAP1 JUMPDEST DUP2 SLOAD DUP2 MSTORE SWAP1 PUSH1 0x1 ADD SWAP1 PUSH1 0x20 ADD DUP1 DUP4 GT PUSH2 0x1439 JUMPI DUP3 SWAP1 SUB PUSH1 0x1F AND DUP3 ADD SWAP2 JUMPDEST POP POP POP POP POP SWAP1 DUP1 PUSH1 0x1 ADD DUP1 SLOAD PUSH2 0x146B SWAP1 PUSH2 0x26E2 JUMP JUMPDEST DUP1 PUSH1 0x1F ADD PUSH1 0x20 DUP1 SWAP2 DIV MUL PUSH1 0x20 ADD PUSH1 0x40 MLOAD SWAP1 DUP2 ADD PUSH1 0x40 MSTORE DUP1 SWAP3 SWAP2 SWAP1 DUP2 DUP2 MSTORE PUSH1 0x20 ADD DUP3 DUP1 SLOAD PUSH2 0x1497 SWAP1 PUSH2 0x26E2 JUMP JUMPDEST DUP1 ISZERO PUSH2 0x14E4 JUMPI DUP1 PUSH1 0x1F LT PUSH2 0x14B9 JUMPI PUSH2 0x100 DUP1 DUP4 SLOAD DIV MUL DUP4 MSTORE SWAP2 PUSH1 0x20 ADD SWAP2 PUSH2 0x14E4 JUMP JUMPDEST DUP3 ADD SWAP2 SWAP1 PUSH1 0x0 MSTORE PUSH1 0x20 PUSH1 0x0 KECCAK256 SWAP1 JUMPDEST DUP2 SLOAD DUP2 MSTORE SWAP1 PUSH1 0x1 ADD SWAP1 PUSH1 0x20 ADD DUP1 DUP4 GT PUSH2 0x14C7 JUMPI DUP3 SWAP1 SUB PUSH1 0x1F AND DUP3 ADD SWAP2 JUMPDEST POP POP POP PUSH1 0x2 SWAP1 SWAP4 ADD SLOAD SWAP2 SWAP3 POP POP PUSH1 0x1 PUSH1 0x1 PUSH1 0x40 SHL SUB AND DUP4 JUMP JUMPDEST PUSH1 0x0 DUP2 DUP2 MSTORE PUSH1 0x5 PUSH1 0x20 MSTORE PUSH1 0x40 SWAP1 KECCAK256 DUP1 SLOAD PUSH1 0x1 PUSH1 0x1 PUSH1 0xA0 SHL SUB AND PUSH2 0x1551 JUMPI PUSH1 0x40 MLOAD PUSH3 0x461BCD PUSH1 0xE5 SHL DUP2 MSTORE PUSH1 0x20 PUSH1 0x4 DUP3 ADD MSTORE PUSH1 0xC PUSH1 0x24 DUP3 ADD MSTORE PUSH12 0x6E6F2073756368207472697 PUSH1 0xA4 SHL PUSH1 0x44 DUP3 ADD MSTORE PUSH1 0x64 ADD PUSH2 0x7FD JUMP JUMPDEST DUP1 SLOAD PUSH1 0x1 PUSH1 0x1 PUSH1 0xA0 SHL SUB AND CALLER EQ DUP1 PUSH2 0x157C JUMPI POP PUSH2 0x157C PUSH1 0x0 DUP1 MLOAD PUSH1 0x20 PUSH2 0x293A DUP4 CODECOPY DUP2 MLOAD SWAP2 MSTORE CALLER PUSH2 0x1360 JUMP JUMPDEST PUSH2 0x15B6 JUMPI PUSH1 0x40 MLOAD PUSH3 0x461BCD PUSH1 0xE5 SHL DUP2 MSTORE PUSH1 0x20 PUSH1 0x4 DUP3 ADD MSTORE PUSH1 0xB PUSH1 0x24 DUP3 ADD MSTORE PUSH11 0x1B9BDD08185B1B1BDDD959 PUSH1 0xAA SHL PUSH1 0x44 DUP3 ADD MSTORE PUSH1 0x64 ADD PUSH2 0x7FD JUMP JUMPDEST PUSH1 0x1 DUP2 ADD SLOAD PUSH1 0x1 PUSH1 0x68 SHL SWAP1 DIV PUSH1 0xFF AND ISZERO PUSH2 0x1606 JUMPI PUSH1 0x40 MLOAD PUSH3 0x461BCD PUSH1 0xE5 SHL DUP2 MSTORE PUSH1 0x20 PUSH1 0x4 DUP3 ADD MSTORE PUSH1 0x11 PUSH1 0x24 DUP3 ADD MSTORE PUSH17 0x185B1C9958591E4818D85B98D95B1B1959 PUSH1 0x7A SHL PUSH1 0x44 DUP3 ADD MSTORE PUSH1 0x64 ADD PUSH2 0x7FD JUMP JUMPDEST PUSH1 0x1 DUP2 ADD DUP1 SLOAD PUSH1 0xFF PUSH1 0x68 SHL NOT AND PUSH1 0x1 PUSH1 0x68 SHL OR SWAP1 SSTORE DUP1 SLOAD PUSH1 0x1 PUSH1 0x1 PUSH1 0x40 SHL SUB PUSH1 0x1 PUSH1 0xA0 SHL SWAP1 SWAP2 DIV AND TIMESTAMP LT DUP1 ISZERO PUSH2 0x16AB JUMPI PUSH1 0x0 SLOAD DUP3 SLOAD PUSH1 0x3 DUP5 ADD SLOAD PUSH1 0x40 MLOAD PUSH4 0x133CB42F PUSH1 0xE2 SHL DUP2 MSTORE PUSH1 0x1 PUSH1 0x1 PUSH1 0xA0 SHL SUB SWAP3 DUP4 AND PUSH1 0x4 DUP3 ADD MSTORE PUSH1 0x24 DUP2 ADD SWAP2 SWAP1 SWAP2 MSTORE PUSH1 0x44 DUP2 ADD DUP7 SWAP1 MSTORE SWAP2 AND SWAP1 PUSH4 0x4CF2D0BC SWAP1 PUSH1 0x64 ADD PUSH1 0x0 PUSH1 0x40 MLOAD DUP1 DUP4 SUB DUP2 PUSH1 0x0 DUP8 DUP1 EXTCODESIZE ISZERO DUP1 ISZERO PUSH2 0x1692 JUMPI PUSH1 0x0 DUP1 REVERT JUMPDEST POP GAS CALL ISZERO DUP1 ISZERO PUSH2 0x16A6 JUMPI RETURNDATASIZE PUSH1 0x0 DUP1 RETURNDATACOPY RETURNDATASIZE PUSH1 0x0 REVERT JUMPDEST POP POP POP POP JUMPDEST PUSH1 0x1 DUP3 ADD SLOAD DUP3 SLOAD PUSH1 0x1 PUSH1 0x70 SHL SWAP1 SWAP2 DIV PUSH2 0xFFFF AND SWAP1 PUSH1 0x1 PUSH1 0x1 PUSH1 0xA0 SHL SUB AND DUP5 PUSH32 0x752CC8AEBF0B6894E3CFE2A0D5464AB0561856E1142DA75F3A783898D641CB93 DUP5 PUSH2 0x16F6 JUMPI PUSH1 0x0 PUSH2 0x16FC JUMP JUMPDEST DUP6 PUSH1 0x3 ADD SLOAD JUMPDEST PUSH1 0x40 DUP1 MLOAD SWAP2 DUP3 MSTORE DUP7 ISZERO ISZERO PUSH1 0x20 DUP4 ADD MSTORE ADD PUSH1 0x40 MLOAD DUP1 SWAP2 SUB SWAP1 LOG4 POP POP POP JUMP JUMPDEST PUSH1 0x6 DUP2 DUP2 SLOAD DUP2 LT PUSH2 0x1729 JUMPI PUSH1 0x0 DUP1 REVERT JUMPDEST PUSH1 0x0 SWAP2 DUP3 MSTORE PUSH1 0x20 SWAP1 SWAP2 KECCAK256 ADD SLOAD SWAP1 POP DUP2 JUMP JUMPDEST PUSH2 0x1743 DUP3 PUSH2 0x768 JUMP JUMPDEST PUSH2 0x174C DUP2 PUSH2 0x1A9F JUMP JUMPDEST PUSH2 0x8AC DUP4 DUP4 PUSH2 0x1B58 JUMP JUMPDEST PUSH1 0x1 DUP3 PUSH1 0x2 DUP2 LT PUSH2 0x1766 JUMPI PUSH1 0x0 DUP1 REVERT JUMPDEST ADD DUP2 PUSH1 0x2 DUP2 LT PUSH2 0x1775 JUMPI PUSH1 0x0 DUP1 REVERT JUMPDEST PUSH1 0x10 SWAP2 DUP3 DUP3 DIV ADD SWAP2 SWAP1 MOD PUSH1 0x2 MUL SWAP2 POP SWAP2 POP SWAP1 SLOAD SWAP1 PUSH2 0x100 EXP SWAP1 DIV PUSH2 0xFFFF AND DUP2 JUMP JUMPDEST PUSH1 0x0 PUSH2 0x17A1 DUP2 PUSH2 0x1A9F JUMP JUMPDEST PUSH1 0x2 DUP4 PUSH1 0xFF AND LT PUSH2 0x17DF JUMPI PUSH1 0x40 MLOAD PUSH3 0x461BCD PUSH1 0xE5 SHL DUP2 MSTORE PUSH1 0x20 PUSH1 0x4 DUP3 ADD MSTORE PUSH1 0x8 PUSH1 0x24 DUP3 ADD MSTORE PUSH8 0x189859081CDB1BDD PUSH1 0xC2 SHL PUSH1 0x44 DUP3 ADD MSTORE PUSH1 0x64 ADD PUSH2 0x7FD JUMP JUMPDEST PUSH2 0x2710 DUP3 PUSH2 0xFFFF AND LT ISZERO PUSH2 0x1828 JUMPI PUSH1 0x40 MLOAD PUSH3 0x461BCD PUSH1 0xE5 SHL DUP2 MSTORE PUSH1 0x20 PUSH1 0x4 DUP3 ADD MSTORE PUSH1 0x10 PUSH1 0x24 DUP3 ADD MSTORE PUSH16 0xDAEAE6E840C4CA407C7A40625C6060F PUSH1 0x83 SHL PUSH1 0x44 DUP3 ADD MSTORE PUSH1 0x64 ADD PUSH2 0x7FD JUMP JUMPDEST DUP2 PUSH1 0x4 DUP5 PUSH1 0xFF AND PUSH1 0x2 DUP2 LT PUSH2 0x866 JUMPI PUSH2 0x866 PUSH2 0x26CC JUMP JUMPDEST PUSH1 0x0 DUP1 PUSH2 0x1853 PUSH2 0x100 DUP6 ADD PUSH1 0xE0 DUP7 ADD PUSH2 0x2888 JUMP JUMPDEST PUSH2 0x1863 PUSH1 0xE0 DUP7 ADD PUSH1 0xC0 DUP8 ADD PUSH2 0x2888 JUMP JUMPDEST PUSH2 0x1873 PUSH1 0xC0 DUP8 ADD PUSH1 0xA0 DUP9 ADD PUSH2 0x2888 JUMP JUMPDEST PUSH2 0x1883 PUSH1 0xA0 DUP9 ADD PUSH1 0x80 DUP10 ADD PUSH2 0x2888 JUMP JUMPDEST PUSH2 0x1893 PUSH1 0x80 DUP10 ADD PUSH1 0x60 DUP11 ADD PUSH2 0x2888 JUMP JUMPDEST PUSH2 0x18A3 PUSH1 0x60 DUP11 ADD PUSH1 0x40 DUP12 ADD PUSH2 0x2888 JUMP JUMPDEST PUSH2 0x18B3 PUSH1 0x40 DUP12 ADD PUSH1 0x20 DUP13 ADD PUSH2 0x2888 JUMP JUMPDEST PUSH2 0x18C0 PUSH1 0x20 DUP13 ADD DUP13 PUSH2 0x2888 JUMP JUMPDEST PUSH2 0x18CA SWAP2 SWAP1 PUSH2 0x28AE JUMP JUMPDEST PUSH2 0x18D4 SWAP2 SWAP1 PUSH2 0x28AE JUMP JUMPDEST PUSH2 0x18DE SWAP2 SWAP1 PUSH2 0x28AE JUMP JUMPDEST PUSH2 0x18E8 SWAP2 SWAP1 PUSH2 0x28AE JUMP JUMPDEST PUSH2 0x18F2 SWAP2 SWAP1 PUSH2 0x28AE JUMP JUMPDEST PUSH2 0x18FC SWAP2 SWAP1 PUSH2 0x28AE JUMP JUMPDEST PUSH2 0x1906 SWAP2 SWAP1 PUSH2 0x28AE JUMP JUMPDEST SWAP1 POP PUSH1 0x0 PUSH2 0x192E PUSH2 0x191A PUSH1 0x20 DUP8 ADD DUP8 PUSH2 0x2888 JUMP JUMPDEST PUSH1 0x1 PUSH1 0x0 JUMPDEST ADD SLOAD PUSH2 0xFFFF AND PUSH1 0x0 DUP1 DUP9 PUSH2 0x1DBD JUMP JUMPDEST PUSH2 0x1938 SWAP1 DUP3 PUSH2 0x28CB JUMP JUMPDEST SWAP1 POP PUSH2 0x1968 PUSH2 0x194D PUSH1 0x40 DUP8 ADD PUSH1 0x20 DUP9 ADD PUSH2 0x2888 JUMP JUMPDEST PUSH1 0x1 PUSH1 0x0 JUMPDEST ADD SLOAD PUSH3 0x10000 SWAP1 DIV PUSH2 0xFFFF AND PUSH1 0x1 PUSH1 0x0 DUP9 PUSH2 0x1DBD JUMP JUMPDEST PUSH2 0x1972 SWAP1 DUP3 PUSH2 0x28CB JUMP JUMPDEST SWAP1 POP PUSH2 0x198F PUSH2 0x1987 PUSH1 0x60 DUP8 ADD PUSH1 0x40 DUP9 ADD PUSH2 0x2888 JUMP JUMPDEST PUSH1 0x1 DUP1 PUSH2 0x191F JUMP JUMPDEST PUSH2 0x1999 SWAP1 DUP3 PUSH2 0x28CB JUMP JUMPDEST SWAP1 POP PUSH2 0x19B6 PUSH2 0x19AE PUSH1 0x80 DUP8 ADD PUSH1 0x60 DUP9 ADD PUSH2 0x2888 JUMP JUMPDEST PUSH1 0x1 DUP1 PUSH2 0x1952 JUMP JUMPDEST PUSH2 0x19C0 SWAP1 DUP3 PUSH2 0x28CB JUMP JUMPDEST SWAP1 POP PUSH2 0x19EA PUSH2 0x19D5 PUSH1 0xA0 DUP8 ADD PUSH1 0x80 DUP9 ADD PUSH2 0x2888 JUMP JUMPDEST PUSH1 0x1 PUSH1 0x0 JUMPDEST ADD SLOAD PUSH2 0xFFFF AND PUSH1 0x0 PUSH1 0x1 DUP9 PUSH2 0x1DBD JUMP JUMPDEST PUSH2 0x19F4 SWAP1 DUP3 PUSH2 0x28CB JUMP JUMPDEST SWAP1 POP PUSH2 0x1A23 PUSH2 0x1A09 PUSH1 0xC0 DUP8 ADD PUSH1 0xA0 DUP9 ADD PUSH2 0x2888 JUMP JUMPDEST PUSH1 0x1 PUSH1 0x0 JUMPDEST ADD SLOAD PUSH3 0x10000 SWAP1 DIV PUSH2 0xFFFF AND PUSH1 0x1 DUP1 DUP9 PUSH2 0x1DBD JUMP JUMPDEST PUSH2 0x1A2D SWAP1 DUP3 PUSH2 0x28CB JUMP JUMPDEST SWAP1 POP PUSH2 0x1A4A PUSH2 0x1A42 PUSH1 0xE0 DUP8 ADD PUSH1 0xC0 DUP9 ADD PUSH2 0x2888 JUMP JUMPDEST PUSH1 0x1 DUP1 PUSH2 0x19DA JUMP JUMPDEST PUSH2 0x1A54 SWAP1 DUP3 PUSH2 0x28CB JUMP JUMPDEST SWAP1 POP PUSH2 0x1A72 PUSH2 0x1A6A PUSH2 0x100 DUP8 ADD PUSH1 0xE0 DUP9 ADD PUSH2 0x2888 JUMP JUMPDEST PUSH1 0x1 DUP1 PUSH2 0x1A0E JUMP JUMPDEST PUSH2 0x1A7C SWAP1 DUP3 PUSH2 0x28CB JUMP JUMPDEST SWAP1 POP PUSH1 0xA PUSH2 0x1A8B DUP3 PUSH1 0x9 PUSH2 0x28CB JUMP JUMPDEST PUSH2 0x1A95 SWAP2 SWAP1 PUSH2 0x28DE JUMP JUMPDEST SWAP3 POP POP SWAP3 POP SWAP3 SWAP1 POP JUMP JUMPDEST PUSH2 0x1AA9 DUP2 CALLER PUSH2 0x1E8A JUMP JUMPDEST POP JUMP JUMPDEST PUSH1 0x0 PUSH1 0x0 DUP1 MLOAD PUSH1 0x20 PUSH2 0x295A DUP4 CODECOPY DUP2 MLOAD SWAP2 MSTORE PUSH2 0x1AC7 DUP5 DUP5 PUSH2 0x1360 JUMP JUMPDEST PUSH2 0x1B47 JUMPI PUSH1 0x0 DUP5 DUP2 MSTORE PUSH1 0x20 DUP3 DUP2 MSTORE PUSH1 0x40 DUP1 DUP4 KECCAK256 PUSH1 0x1 PUSH1 0x1 PUSH1 0xA0 SHL SUB DUP8 AND DUP5 MSTORE SWAP1 SWAP2 MSTORE SWAP1 KECCAK256 DUP1 SLOAD PUSH1 0xFF NOT AND PUSH1 0x1 OR SWAP1 SSTORE PUSH2 0x1AFD CALLER SWAP1 JUMP JUMPDEST PUSH1 0x1 PUSH1 0x1 PUSH1 0xA0 SHL SUB AND DUP4 PUSH1 0x1 PUSH1 0x1 PUSH1 0xA0 SHL SUB AND DUP6 PUSH32 0x2F8788117E7EFF1D82E926EC794901D17C78024A50270940304540A733656F0D PUSH1 0x40 MLOAD PUSH1 0x40 MLOAD DUP1 SWAP2 SUB SWAP1 LOG4 PUSH1 0x1 SWAP2 POP POP PUSH2 0x762 JUMP JUMPDEST PUSH1 0x0 SWAP2 POP POP PUSH2 0x762 JUMP JUMPDEST POP SWAP3 SWAP2 POP POP JUMP JUMPDEST PUSH1 0x0 PUSH1 0x0 DUP1 MLOAD PUSH1 0x20 PUSH2 0x295A DUP4 CODECOPY DUP2 MLOAD SWAP2 MSTORE PUSH2 0x1B73 DUP5 DUP5 PUSH2 0x1360 JUMP JUMPDEST ISZERO PUSH2 0x1B47 JUMPI PUSH1 0x0 DUP5 DUP2 MSTORE PUSH1 0x20 DUP3 DUP2 MSTORE PUSH1 0x40 DUP1 DUP4 KECCAK256 PUSH1 0x1 PUSH1 0x1 PUSH1 0xA0 SHL SUB DUP8 AND DUP1 DUP6 MSTORE SWAP3 MSTORE DUP1 DUP4 KECCAK256 DUP1 SLOAD PUSH1 0xFF NOT AND SWAP1 SSTORE MLOAD CALLER SWAP3 DUP8 SWAP2 PUSH32 0xF6391F5C32D9C69D2A47EA670B442974B53935D1EDC7FD64EB21E047A839171B SWAP2 SWAP1 LOG4 PUSH1 0x1 SWAP2 POP POP PUSH2 0x762 JUMP JUMPDEST PUSH1 0x0 DUP1 PUSH32 0xF0C57E16840DF040F15088DC2F81FE391C3923BEC73E23A9662EFC9C229C6A00 PUSH2 0x762 JUMP JUMPDEST PUSH2 0x1C05 PUSH2 0x1EC3 JUMP JUMPDEST JUMP JUMPDEST ADDRESS PUSH1 0x1 PUSH1 0x1 PUSH1 0xA0 SHL SUB PUSH32 0x0 AND EQ DUP1 PUSH2 0x1C8E JUMPI POP PUSH32 0x0 PUSH1 0x1 PUSH1 0x1 PUSH1 0xA0 SHL SUB AND PUSH2 0x1C82 PUSH1 0x0 DUP1 MLOAD PUSH1 0x20 PUSH2 0x291A DUP4 CODECOPY DUP2 MLOAD SWAP2 MSTORE SLOAD PUSH1 0x1 PUSH1 0x1 PUSH1 0xA0 SHL SUB AND SWAP1 JUMP JUMPDEST PUSH1 0x1 PUSH1 0x1 PUSH1 0xA0 SHL SUB AND EQ ISZERO JUMPDEST ISZERO PUSH2 0x1C05 JUMPI PUSH1 0x40 MLOAD PUSH4 0x703E46DD PUSH1 0xE1 SHL DUP2 MSTORE PUSH1 0x4 ADD PUSH1 0x40 MLOAD DUP1 SWAP2 SUB SWAP1 REVERT JUMPDEST PUSH1 0x0 PUSH2 0xBB2 DUP2 PUSH2 0x1A9F JUMP JUMPDEST DUP2 PUSH1 0x1 PUSH1 0x1 PUSH1 0xA0 SHL SUB AND PUSH4 0x52D1902D PUSH1 0x40 MLOAD DUP2 PUSH4 0xFFFFFFFF AND PUSH1 0xE0 SHL DUP2 MSTORE PUSH1 0x4 ADD PUSH1 0x20 PUSH1 0x40 MLOAD DUP1 DUP4 SUB DUP2 DUP7 GAS STATICCALL SWAP3 POP POP POP DUP1 ISZERO PUSH2 0x1D11 JUMPI POP PUSH1 0x40 DUP1 MLOAD PUSH1 0x1F RETURNDATASIZE SWAP1 DUP2 ADD PUSH1 0x1F NOT AND DUP3 ADD SWAP1 SWAP3 MSTORE PUSH2 0x1D0E SWAP2 DUP2 ADD SWAP1 PUSH2 0x2900 JUMP JUMPDEST PUSH1 0x1 JUMPDEST PUSH2 0x1D39 JUMPI PUSH1 0x40 MLOAD PUSH4 0x4C9C8CE3 PUSH1 0xE0 SHL DUP2 MSTORE PUSH1 0x1 PUSH1 0x1 PUSH1 0xA0 SHL SUB DUP4 AND PUSH1 0x4 DUP3 ADD MSTORE PUSH1 0x24 ADD PUSH2 0x7FD JUMP JUMPDEST PUSH1 0x0 DUP1 MLOAD PUSH1 0x20 PUSH2 0x291A DUP4 CODECOPY DUP2 MLOAD SWAP2 MSTORE DUP2 EQ PUSH2 0x1D6A JUMPI PUSH1 0x40 MLOAD PUSH4 0x2A875269 PUSH1 0xE2 SHL DUP2 MSTORE PUSH1 0x4 DUP2 ADD DUP3 SWAP1 MSTORE PUSH1 0x24 ADD PUSH2 0x7FD JUMP JUMPDEST PUSH2 0x997 DUP4 DUP4 PUSH2 0x1EE8 JUMP JUMPDEST ADDRESS PUSH1 0x1 PUSH1 0x1 PUSH1 0xA0 SHL SUB PUSH32 0x0 AND EQ PUSH2 0x1C05 JUMPI PUSH1 0x40 MLOAD PUSH4 0x703E46DD PUSH1 0xE1 SHL DUP2 MSTORE PUSH1 0x4 ADD PUSH1 0x40 MLOAD DUP1 SWAP2 SUB SWAP1 REVERT JUMPDEST PUSH1 0x0 DUP1 PUSH2 0x1DD4 PUSH2 0xFFFF DUP8 AND PUSH4 0xFFFFFFFF DUP10 AND PUSH2 0x2871 JUMP JUMPDEST SWAP1 POP DUP4 ISZERO PUSH2 0x1E2B JUMPI PUSH2 0x2710 PUSH1 0x3 DUP7 PUSH1 0xFF AND PUSH1 0x2 DUP2 LT PUSH2 0x1DF5 JUMPI PUSH2 0x1DF5 PUSH2 0x26CC JUMP JUMPDEST PUSH1 0x10 SWAP2 DUP3 DUP3 DIV ADD SWAP2 SWAP1 MOD PUSH1 0x2 MUL SWAP1 SLOAD SWAP1 PUSH2 0x100 EXP SWAP1 DIV PUSH2 0xFFFF AND PUSH2 0xFFFF AND DUP3 PUSH2 0x1E1E SWAP2 SWAP1 PUSH2 0x2871 JUMP JUMPDEST PUSH2 0x1E28 SWAP2 SWAP1 PUSH2 0x28DE JUMP JUMPDEST SWAP1 POP JUMPDEST DUP3 ISZERO PUSH2 0x1E80 JUMPI PUSH2 0x2710 PUSH1 0x4 DUP7 PUSH1 0xFF AND PUSH1 0x2 DUP2 LT PUSH2 0x1E4A JUMPI PUSH2 0x1E4A PUSH2 0x26CC JUMP JUMPDEST PUSH1 0x10 SWAP2 DUP3 DUP3 DIV ADD SWAP2 SWAP1 MOD PUSH1 0x2 MUL SWAP1 SLOAD SWAP1 PUSH2 0x100 EXP SWAP1 DIV PUSH2 0xFFFF AND PUSH2 0xFFFF AND DUP3 PUSH2 0x1E73 SWAP2 SWAP1 PUSH2 0x2871 JUMP JUMPDEST PUSH2 0x1E7D SWAP2 SWAP1 PUSH2 0x28DE JUMP JUMPDEST SWAP1 POP JUMPDEST SWAP7 SWAP6 POP POP POP POP POP POP JUMP JUMPDEST PUSH2 0x1E94 DUP3 DUP3 PUSH2 0x1360 JUMP JUMPDEST PUSH2 0xBB2 JUMPI PUSH1 0x40 MLOAD PUSH4 0xE2517D3F PUSH1 0xE0 SHL DUP2 MSTORE PUSH1 0x1 PUSH1 0x1 PUSH1 0xA0 SHL SUB DUP3 AND PUSH1 0x4 DUP3 ADD MSTORE PUSH1 0x24 DUP2 ADD DUP4 SWAP1 MSTORE PUSH1 0x44 ADD PUSH2 0x7FD JUMP JUMPDEST PUSH2 0x1ECB PUSH2 0x1F3E JUMP JUMPDEST PUSH2 0x1C05 JUMPI PUSH1 0x40 MLOAD PUSH4 0x1AFCD79F PUSH1 0xE3 SHL DUP2 MSTORE PUSH1 0x4 ADD PUSH1 0x40 MLOAD DUP1 SWAP2 SUB SWAP1 REVERT JUMPDEST PUSH2 0x1EF1 DUP3 PUSH2 0x1F58 JUMP JUMPDEST PUSH1 0x40 MLOAD PUSH1 0x1 PUSH1 0x1 PUSH1 0xA0 SHL SUB DUP4 AND SWAP1 PUSH32 0xBC7CD75A20EE27FD9ADEBAB32041F755214DBC6BFFA90CC0225B39DA2E5C2D3B SWAP1 PUSH1 0x0 SWAP1 LOG2 DUP1 MLOAD ISZERO PUSH2 0x1F36 JUMPI PUSH2 0x997 DUP3 DUP3 PUSH2 0x1FBD JUMP JUMPDEST PUSH2 0xBB2 PUSH2 0x2059 JUMP JUMPDEST PUSH1 0x0 PUSH2 0x1F48 PUSH2 0x1BD4 JUMP JUMPDEST SLOAD PUSH1 0x1 PUSH1 0x40 SHL SWAP1 DIV PUSH1 0xFF AND SWAP2 SWAP1 POP JUMP JUMPDEST DUP1 PUSH1 0x1 PUSH1 0x1 PUSH1 0xA0 SHL SUB AND EXTCODESIZE PUSH1 0x0 SUB PUSH2 0x1F8E JUMPI PUSH1 0x40 MLOAD PUSH4 0x4C9C8CE3 PUSH1 0xE0 SHL DUP2 MSTORE PUSH1 0x1 PUSH1 0x1 PUSH1 0xA0 SHL SUB DUP3 AND PUSH1 0x4 DUP3 ADD MSTORE PUSH1 0x24 ADD PUSH2 0x7FD JUMP JUMPDEST PUSH1 0x0 DUP1 MLOAD PUSH1 0x20 PUSH2 0x291A DUP4 CODECOPY DUP2 MLOAD SWAP2 MSTORE DUP1 SLOAD PUSH1 0x1 PUSH1 0x1 PUSH1 0xA0 SHL SUB NOT AND PUSH1 0x1 PUSH1 0x1 PUSH1 0xA0 SHL SUB SWAP3 SWAP1 SWAP3 AND SWAP2 SWAP1 SWAP2 OR SWAP1 SSTORE JUMP JUMPDEST PUSH1 0x60 PUSH1 0x0 PUSH2 0x1FCB DUP5 DUP5 PUSH2 0x2078 JUMP JUMPDEST SWAP1 POP DUP1 DUP1 ISZERO PUSH2 0x1FEE JUMPI POP PUSH1 0x0 RETURNDATASIZE GT DUP1 PUSH2 0x1FEE JUMPI POP PUSH1 0x0 DUP5 PUSH1 0x1 PUSH1 0x1 PUSH1 0xA0 SHL SUB AND EXTCODESIZE GT JUMPDEST ISZERO PUSH2 0x2003 JUMPI PUSH2 0x1FFB PUSH2 0x208D JUMP JUMPDEST SWAP2 POP POP PUSH2 0x762 JUMP JUMPDEST DUP1 ISZERO PUSH2 0x202D JUMPI PUSH1 0x40 MLOAD PUSH4 0x9996B315 PUSH1 0xE0 SHL DUP2 MSTORE PUSH1 0x1 PUSH1 0x1 PUSH1 0xA0 SHL SUB DUP6 AND PUSH1 0x4 DUP3 ADD MSTORE PUSH1 0x24 ADD PUSH2 0x7FD JUMP JUMPDEST RETURNDATASIZE ISZERO PUSH2 0x2040 JUMPI PUSH2 0x203B PUSH2 0x20A7 JUMP JUMPDEST PUSH2 0x1B51 JUMP JUMPDEST PUSH1 0x40 MLOAD PUSH4 0xD6BDA275 PUSH1 0xE0 SHL DUP2 MSTORE PUSH1 0x4 ADD PUSH1 0x40 MLOAD DUP1 SWAP2 SUB SWAP1 REVERT JUMPDEST CALLVALUE ISZERO PUSH2 0x1C05 JUMPI PUSH1 0x40 MLOAD PUSH4 0xB398979F PUSH1 0xE0 SHL DUP2 MSTORE PUSH1 0x4 ADD PUSH1 0x40 MLOAD DUP1 SWAP2 SUB SWAP1 REVERT JUMPDEST PUSH1 0x0 DUP1 PUSH1 0x0 DUP4 MLOAD PUSH1 0x20 DUP6 ADD DUP7 GAS DELEGATECALL SWAP4 SWAP3 POP POP POP JUMP JUMPDEST PUSH1 0x40 MLOAD RETURNDATASIZE DUP2 MSTORE RETURNDATASIZE PUSH1 0x0 PUSH1 0x20 DUP4 ADD RETURNDATACOPY RETURNDATASIZE PUSH1 0x20 ADD DUP2 ADD PUSH1 0x40 MSTORE SWAP1 JUMP JUMPDEST PUSH1 0x40 MLOAD RETURNDATASIZE PUSH1 0x0 DUP3 RETURNDATACOPY RETURNDATASIZE DUP2 REVERT JUMPDEST DUP3 PUSH1 0x2 DUP2 ADD SWAP3 DUP3 ISZERO PUSH2 0x20ED JUMPI SWAP2 PUSH1 0x20 MUL DUP3 ADD JUMPDEST DUP3 DUP2 GT ISZERO PUSH2 0x20ED JUMPI DUP3 MLOAD PUSH2 0x20DD SWAP1 DUP4 SWAP1 PUSH1 0x2 PUSH2 0x20FD JUMP JUMPDEST POP SWAP2 PUSH1 0x20 ADD SWAP2 SWAP1 PUSH1 0x1 ADD SWAP1 PUSH2 0x20C6 JUMP JUMPDEST POP PUSH2 0x20F9 SWAP3 SWAP2 POP PUSH2 0x218F JUMP JUMPDEST POP SWAP1 JUMP JUMPDEST PUSH1 0x1 DUP4 ADD SWAP2 DUP4 SWAP1 DUP3 ISZERO PUSH2 0x2183 JUMPI SWAP2 PUSH1 0x20 MUL DUP3 ADD PUSH1 0x0 JUMPDEST DUP4 DUP3 GT ISZERO PUSH2 0x2153 JUMPI DUP4 MLOAD DUP4 DUP3 PUSH2 0x100 EXP DUP2 SLOAD DUP2 PUSH2 0xFFFF MUL NOT AND SWAP1 DUP4 PUSH2 0xFFFF AND MUL OR SWAP1 SSTORE POP SWAP3 PUSH1 0x20 ADD SWAP3 PUSH1 0x2 ADD PUSH1 0x20 DUP2 PUSH1 0x1 ADD DIV SWAP3 DUP4 ADD SWAP3 PUSH1 0x1 SUB MUL PUSH2 0x2113 JUMP JUMPDEST DUP1 ISZERO PUSH2 0x2181 JUMPI DUP3 DUP2 PUSH2 0x100 EXP DUP2 SLOAD SWAP1 PUSH2 0xFFFF MUL NOT AND SWAP1 SSTORE PUSH1 0x2 ADD PUSH1 0x20 DUP2 PUSH1 0x1 ADD DIV SWAP3 DUP4 ADD SWAP3 PUSH1 0x1 SUB MUL PUSH2 0x2153 JUMP JUMPDEST POP JUMPDEST POP PUSH2 0x20F9 SWAP3 SWAP2 POP PUSH2 0x21A3 JUMP JUMPDEST DUP1 DUP3 GT ISZERO PUSH2 0x20F9 JUMPI PUSH1 0x0 DUP2 SSTORE PUSH1 0x1 ADD PUSH2 0x218F JUMP JUMPDEST DUP1 DUP3 GT ISZERO PUSH2 0x20F9 JUMPI PUSH1 0x0 DUP2 SSTORE PUSH1 0x1 ADD PUSH2 0x218F JUMP JUMPDEST PUSH1 0x0 PUSH1 0x20 DUP3 DUP5 SUB SLT ISZERO PUSH2 0x21C9 JUMPI PUSH1 0x0 DUP1 REVERT JUMPDEST DUP2 CALLDATALOAD PUSH1 0x1 PUSH1 0x1 PUSH1 0xE0 SHL SUB NOT DUP2 AND DUP2 EQ PUSH2 0x1359 JUMPI PUSH1 0x0 DUP1 REVERT JUMPDEST PUSH1 0x0 PUSH1 0x20 DUP3 DUP5 SUB SLT ISZERO PUSH2 0x21F3 JUMPI PUSH1 0x0 DUP1 REVERT JUMPDEST POP CALLDATALOAD SWAP2 SWAP1 POP JUMP JUMPDEST DUP1 CALLDATALOAD PUSH1 0xFF DUP2 AND DUP2 EQ PUSH2 0x220B JUMPI PUSH1 0x0 DUP1 REVERT JUMPDEST SWAP2 SWAP1 POP JUMP JUMPDEST DUP1 CALLDATALOAD PUSH2 0xFFFF DUP2 AND DUP2 EQ PUSH2 0x220B JUMPI PUSH1 0x0 DUP1 REVERT JUMPDEST PUSH1 0x0 DUP1 PUSH1 0x40 DUP4 DUP6 SUB SLT ISZERO PUSH2 0x2235 JUMPI PUSH1 0x0 DUP1 REVERT JUMPDEST PUSH2 0x223E DUP4 PUSH2 0x21FA JUMP JUMPDEST SWAP2 POP PUSH2 0x224C PUSH1 0x20 DUP5 ADD PUSH2 0x2210 JUMP JUMPDEST SWAP1 POP SWAP3 POP SWAP3 SWAP1 POP JUMP JUMPDEST DUP1 CALLDATALOAD PUSH1 0x1 PUSH1 0x1 PUSH1 0xA0 SHL SUB DUP2 AND DUP2 EQ PUSH2 0x220B JUMPI PUSH1 0x0 DUP1 REVERT JUMPDEST PUSH1 0x0 DUP1 PUSH1 0x40 DUP4 DUP6 SUB SLT ISZERO PUSH2 0x227F JUMPI PUSH1 0x0 DUP1 REVERT JUMPDEST DUP3 CALLDATALOAD SWAP2 POP PUSH2 0x224C PUSH1 0x20 DUP5 ADD PUSH2 0x2255 JUMP JUMPDEST PUSH1 0x0 DUP1 PUSH1 0x0 PUSH1 0x60 DUP5 DUP7 SUB SLT ISZERO PUSH2 0x22A4 JUMPI PUSH1 0x0 DUP1 REVERT JUMPDEST PUSH2 0x22AD DUP5 PUSH2 0x21FA JUMP JUMPDEST SWAP3 POP PUSH2 0x22BB PUSH1 0x20 DUP6 ADD PUSH2 0x2210 JUMP JUMPDEST SWAP2 POP PUSH2 0x22C9 PUSH1 0x40 DUP6 ADD PUSH2 0x2210 JUMP JUMPDEST SWAP1 POP SWAP3 POP SWAP3 POP SWAP3 JUMP JUMPDEST PUSH1 0x0 DUP1 PUSH1 0x40 DUP4 DUP6 SUB SLT ISZERO PUSH2 0x22E5 JUMPI PUSH1 0x0 DUP1 REVERT JUMPDEST PUSH2 0x22EE DUP4 PUSH2 0x2210 JUMP JUMPDEST SWAP5 PUSH1 0x20 SWAP4 SWAP1 SWAP4 ADD CALLDATALOAD SWAP4 POP POP POP JUMP JUMPDEST PUSH1 0x0 DUP1 PUSH1 0x40 DUP4 DUP6 SUB SLT ISZERO PUSH2 0x230F JUMPI PUSH1 0x0 DUP1 REVERT JUMPDEST PUSH2 0x2318 DUP4 PUSH2 0x2255 JUMP JUMPDEST SWAP2 POP PUSH2 0x224C PUSH1 0x20 DUP5 ADD PUSH2 0x2255 JUMP JUMPDEST PUSH4 0x4E487B71 PUSH1 0xE0 SHL PUSH1 0x0 MSTORE PUSH1 0x41 PUSH1 0x4 MSTORE PUSH1 0x24 PUSH1 0x0 REVERT JUMPDEST PUSH1 0x0 DUP1 PUSH1 0x40 DUP4 DUP6 SUB SLT ISZERO PUSH2 0x234F JUMPI PUSH1 0x0 DUP1 REVERT JUMPDEST PUSH2 0x2358 DUP4 PUSH2 0x2255 JUMP JUMPDEST SWAP2 POP PUSH1 0x20 DUP4 ADD CALLDATALOAD PUSH1 0x1 PUSH1 0x1 PUSH1 0x40 SHL SUB DUP1 DUP3 GT ISZERO PUSH2 0x2374 JUMPI PUSH1 0x0 DUP1 REVERT JUMPDEST DUP2 DUP6 ADD SWAP2 POP DUP6 PUSH1 0x1F DUP4 ADD SLT PUSH2 0x2388 JUMPI PUSH1 0x0 DUP1 REVERT JUMPDEST DUP2 CALLDATALOAD DUP2 DUP2 GT ISZERO PUSH2 0x239A JUMPI PUSH2 0x239A PUSH2 0x2326 JUMP JUMPDEST PUSH1 0x40 MLOAD PUSH1 0x1F DUP3 ADD PUSH1 0x1F NOT SWAP1 DUP2 AND PUSH1 0x3F ADD AND DUP2 ADD SWAP1 DUP4 DUP3 GT DUP2 DUP4 LT OR ISZERO PUSH2 0x23C2 JUMPI PUSH2 0x23C2 PUSH2 0x2326 JUMP JUMPDEST DUP2 PUSH1 0x40 MSTORE DUP3 DUP2 MSTORE DUP9 PUSH1 0x20 DUP5 DUP8 ADD ADD GT ISZERO PUSH2 0x23DB JUMPI PUSH1 0x0 DUP1 REVERT JUMPDEST DUP3 PUSH1 0x20 DUP7 ADD PUSH1 0x20 DUP4 ADD CALLDATACOPY PUSH1 0x0 PUSH1 0x20 DUP5 DUP4 ADD ADD MSTORE DUP1 SWAP6 POP POP POP POP POP POP SWAP3 POP SWAP3 SWAP1 POP JUMP JUMPDEST PUSH1 0x0 DUP1 DUP4 PUSH1 0x1F DUP5 ADD SLT PUSH2 0x240F JUMPI PUSH1 0x0 DUP1 REVERT JUMPDEST POP DUP2 CALLDATALOAD PUSH1 0x1 PUSH1 0x1 PUSH1 0x40 SHL SUB DUP2 GT ISZERO PUSH2 0x2426 JUMPI PUSH1 0x0 DUP1 REVERT JUMPDEST PUSH1 0x20 DUP4 ADD SWAP2 POP DUP4 PUSH1 0x20 DUP3 DUP6 ADD ADD GT ISZERO PUSH2 0x243E JUMPI PUSH1 0x0 DUP1 REVERT JUMPDEST SWAP3 POP SWAP3 SWAP1 POP JUMP JUMPDEST PUSH1 0x0 DUP1 PUSH1 0x0 DUP1 PUSH1 0x0 PUSH1 0x60 DUP7 DUP9 SUB SLT ISZERO PUSH2 0x245D JUMPI PUSH1 0x0 DUP1 REVERT JUMPDEST PUSH2 0x2466 DUP7 PUSH2 0x2255 JUMP JUMPDEST SWAP5 POP PUSH1 0x20 DUP7 ADD CALLDATALOAD PUSH1 0x1 PUSH1 0x1 PUSH1 0x40 SHL SUB DUP1 DUP3 GT ISZERO PUSH2 0x2482 JUMPI PUSH1 0x0 DUP1 REVERT JUMPDEST PUSH2 0x248E DUP10 DUP4 DUP11 ADD PUSH2 0x23FD JUMP JUMPDEST SWAP1 SWAP7 POP SWAP5 POP PUSH1 0x40 DUP9 ADD CALLDATALOAD SWAP2 POP DUP1 DUP3 GT ISZERO PUSH2 0x24A7 JUMPI PUSH1 0x0 DUP1 REVERT JUMPDEST POP PUSH2 0x24B4 DUP9 DUP3 DUP10 ADD PUSH2 0x23FD JUMP JUMPDEST SWAP7 SWAP10 SWAP6 SWAP9 POP SWAP4 SWAP7 POP SWAP3 SWAP5 SWAP4 SWAP3 POP POP POP JUMP JUMPDEST DUP1 CALLDATALOAD PUSH1 0x1 PUSH1 0x1 PUSH1 0x40 SHL SUB DUP2 AND DUP2 EQ PUSH2 0x220B JUMPI PUSH1 0x0 DUP1 REVERT JUMPDEST DUP1 PUSH2 0x100 DUP2 ADD DUP4 LT ISZERO PUSH2 0x762 JUMPI PUSH1 0x0 DUP1 REVERT JUMPDEST DUP1 CALLDATALOAD DUP1 ISZERO ISZERO DUP2 EQ PUSH2 0x220B JUMPI PUSH1 0x0 DUP1 REVERT JUMPDEST PUSH1 0x0 DUP1 PUSH1 0x0 DUP1 PUSH1 0x0 DUP1 PUSH2 0x1A0 DUP8 DUP10 SUB SLT ISZERO PUSH2 0x2518 JUMPI PUSH1 0x0 DUP1 REVERT JUMPDEST PUSH2 0x2521 DUP8 PUSH2 0x2255 JUMP JUMPDEST SWAP6 POP PUSH2 0x252F PUSH1 0x20 DUP9 ADD PUSH2 0x2210 JUMP JUMPDEST SWAP5 POP PUSH2 0x253D PUSH1 0x40 DUP9 ADD PUSH2 0x24C5 JUMP JUMPDEST SWAP4 POP PUSH2 0x254B PUSH1 0x60 DUP9 ADD PUSH2 0x24C5 JUMP JUMPDEST SWAP3 POP PUSH2 0x255A DUP9 PUSH1 0x80 DUP10 ADD PUSH2 0x24DC JUMP JUMPDEST SWAP2 POP PUSH2 0x2569 PUSH2 0x180 DUP9 ADD PUSH2 0x24EE JUMP JUMPDEST SWAP1 POP SWAP3 SWAP6 POP SWAP3 SWAP6 POP SWAP3 SWAP6 JUMP JUMPDEST PUSH1 0x0 DUP1 PUSH1 0x0 PUSH1 0x60 DUP5 DUP7 SUB SLT ISZERO PUSH2 0x258A JUMPI PUSH1 0x0 DUP1 REVERT JUMPDEST PUSH2 0x2593 DUP5 PUSH2 0x2210 JUMP JUMPDEST SWAP3 POP PUSH2 0x25A1 PUSH1 0x20 DUP6 ADD PUSH2 0x24C5 JUMP JUMPDEST SWAP2 POP PUSH2 0x22C9 PUSH1 0x40 DUP6 ADD PUSH2 0x24C5 JUMP JUMPDEST PUSH1 0x0 DUP2 MLOAD DUP1 DUP5 MSTORE PUSH1 0x0 JUMPDEST DUP2 DUP2 LT ISZERO PUSH2 0x25D5 JUMPI PUSH1 0x20 DUP2 DUP6 ADD DUP2 ADD MLOAD DUP7 DUP4 ADD DUP3 ADD MSTORE ADD PUSH2 0x25B9 JUMP JUMPDEST POP PUSH1 0x0 PUSH1 0x20 DUP3 DUP7 ADD ADD MSTORE PUSH1 0x20 PUSH1 0x1F NOT PUSH1 0x1F DUP4 ADD AND DUP6 ADD ADD SWAP2 POP POP SWAP3 SWAP2 POP POP JUMP JUMPDEST PUSH1 0x20 DUP2 MSTORE PUSH1 0x0 PUSH2 0x1359 PUSH1 0x20 DUP4 ADD DUP5 PUSH2 0x25AF JUMP JUMPDEST PUSH1 0x0 PUSH1 0x20 DUP3 DUP5 SUB SLT ISZERO PUSH2 0x261A JUMPI PUSH1 0x0 DUP1 REVERT JUMPDEST PUSH2 0x1359 DUP3 PUSH2 0x2210 JUMP JUMPDEST PUSH1 0x0 PUSH1 0x20 DUP3 DUP5 SUB SLT ISZERO PUSH2 0x2635 JUMPI PUSH1 0x0 DUP1 REVERT JUMPDEST PUSH2 0x1359 DUP3 PUSH2 0x2255 JUMP JUMPDEST PUSH1 0x60 DUP2 MSTORE PUSH1 0x0 PUSH2 0x2651 PUSH1 0x60 DUP4 ADD DUP7 PUSH2 0x25AF JUMP JUMPDEST DUP3 DUP2 SUB PUSH1 0x20 DUP5 ADD MSTORE PUSH2 0x2663 DUP2 DUP7 PUSH2 0x25AF JUMP JUMPDEST SWAP2 POP POP PUSH1 0x1 PUSH1 0x1 PUSH1 0x40 SHL SUB DUP4 AND PUSH1 0x40 DUP4 ADD MSTORE SWAP5 SWAP4 POP POP POP POP JUMP JUMPDEST PUSH1 0x0 DUP1 PUSH1 0x40 DUP4 DUP6 SUB SLT ISZERO PUSH2 0x2690 JUMPI PUSH1 0x0 DUP1 REVERT JUMPDEST POP POP DUP1 CALLDATALOAD SWAP3 PUSH1 0x20 SWAP1 SWAP2 ADD CALLDATALOAD SWAP2 POP JUMP JUMPDEST PUSH1 0x0 DUP1 PUSH2 0x120 DUP4 DUP6 SUB SLT ISZERO PUSH2 0x26B3 JUMPI PUSH1 0x0 DUP1 REVERT JUMPDEST PUSH2 0x26BD DUP5 DUP5 PUSH2 0x24DC JUMP JUMPDEST SWAP2 POP PUSH2 0x224C PUSH2 0x100 DUP5 ADD PUSH2 0x24EE JUMP JUMPDEST PUSH4 0x4E487B71 PUSH1 0xE0 SHL PUSH1 0x0 MSTORE PUSH1 0x32 PUSH1 0x4 MSTORE PUSH1 0x24 PUSH1 0x0 REVERT JUMPDEST PUSH1 0x1 DUP2 DUP2 SHR SWAP1 DUP3 AND DUP1 PUSH2 0x26F6 JUMPI PUSH1 0x7F DUP3 AND SWAP2 POP JUMPDEST PUSH1 0x20 DUP3 LT DUP2 SUB PUSH2 0x2716 JUMPI PUSH4 0x4E487B71 PUSH1 0xE0 SHL PUSH1 0x0 MSTORE PUSH1 0x22 PUSH1 0x4 MSTORE PUSH1 0x24 PUSH1 0x0 REVERT JUMPDEST POP SWAP2 SWAP1 POP JUMP JUMPDEST PUSH1 0x1F DUP3 GT ISZERO PUSH2 0x997 JUMPI PUSH1 0x0 DUP2 PUSH1 0x0 MSTORE PUSH1 0x20 PUSH1 0x0 KECCAK256 PUSH1 0x1F DUP6 ADD PUSH1 0x5 SHR DUP2 ADD PUSH1 0x20 DUP7 LT ISZERO PUSH2 0x2745 JUMPI POP DUP1 JUMPDEST PUSH1 0x1F DUP6 ADD PUSH1 0x5 SHR DUP3 ADD SWAP2 POP JUMPDEST DUP2 DUP2 LT ISZERO PUSH2 0x2764 JUMPI DUP3 DUP2 SSTORE PUSH1 0x1 ADD PUSH2 0x2751 JUMP JUMPDEST POP POP POP POP POP POP JUMP JUMPDEST PUSH1 0x1 PUSH1 0x1 PUSH1 0x40 SHL SUB DUP4 GT ISZERO PUSH2 0x2783 JUMPI PUSH2 0x2783 PUSH2 0x2326 JUMP JUMPDEST PUSH2 0x2797 DUP4 PUSH2 0x2791 DUP4 SLOAD PUSH2 0x26E2 JUMP JUMPDEST DUP4 PUSH2 0x271C JUMP JUMPDEST PUSH1 0x0 PUSH1 0x1F DUP5 GT PUSH1 0x1 DUP2 EQ PUSH2 0x27CB JUMPI PUSH1 0x0 DUP6 ISZERO PUSH2 0x27B3 JUMPI POP DUP4 DUP3 ADD CALLDATALOAD JUMPDEST PUSH1 0x0 NOT PUSH1 0x3 DUP8 SWAP1 SHL SHR NOT AND PUSH1 0x1 DUP7 SWAP1 SHL OR DUP4 SSTORE PUSH2 0x2825 JUMP JUMPDEST PUSH1 0x0 DUP4 DUP2 MSTORE PUSH1 0x20 SWAP1 KECCAK256 PUSH1 0x1F NOT DUP7 AND SWAP1 DUP4 JUMPDEST DUP3 DUP2 LT ISZERO PUSH2 0x27FC JUMPI DUP7 DUP6 ADD CALLDATALOAD DUP3 SSTORE PUSH1 0x20 SWAP5 DUP6 ADD SWAP5 PUSH1 0x1 SWAP1 SWAP3 ADD SWAP2 ADD PUSH2 0x27DC JUMP JUMPDEST POP DUP7 DUP3 LT ISZERO PUSH2 0x2819 JUMPI PUSH1 0x0 NOT PUSH1 0xF8 DUP9 PUSH1 0x3 SHL AND SHR NOT DUP5 DUP8 ADD CALLDATALOAD AND DUP2 SSTORE JUMPDEST POP POP PUSH1 0x1 DUP6 PUSH1 0x1 SHL ADD DUP4 SSTORE JUMPDEST POP POP POP POP POP JUMP JUMPDEST PUSH1 0x20 DUP2 MSTORE DUP2 PUSH1 0x20 DUP3 ADD MSTORE DUP2 DUP4 PUSH1 0x40 DUP4 ADD CALLDATACOPY PUSH1 0x0 DUP2 DUP4 ADD PUSH1 0x40 SWAP1 DUP2 ADD SWAP2 SWAP1 SWAP2 MSTORE PUSH1 0x1F SWAP1 SWAP3 ADD PUSH1 0x1F NOT AND ADD ADD SWAP2 SWAP1 POP JUMP JUMPDEST PUSH4 0x4E487B71 PUSH1 0xE0 SHL PUSH1 0x0 MSTORE PUSH1 0x11 PUSH1 0x4 MSTORE PUSH1 0x24 PUSH1 0x0 REVERT JUMPDEST DUP1 DUP3 MUL DUP2 ISZERO DUP3 DUP3 DIV DUP5 EQ OR PUSH2 0x762 JUMPI PUSH2 0x762 PUSH2 0x285B JUMP JUMPDEST PUSH1 0x0 PUSH1 0x20 DUP3 DUP5 SUB SLT ISZERO PUSH2 0x289A JUMPI PUSH1 0x0 DUP1 REVERT JUMPDEST DUP2 CALLDATALOAD PUSH4 0xFFFFFFFF DUP2 AND DUP2 EQ PUSH2 0x1359 JUMPI PUSH1 0x0 DUP1 REVERT JUMPDEST PUSH4 0xFFFFFFFF DUP2 DUP2 AND DUP4 DUP3 AND ADD SWAP1 DUP1 DUP3 GT ISZERO PUSH2 0x1B51 JUMPI PUSH2 0x1B51 PUSH2 0x285B JUMP JUMPDEST DUP1 DUP3 ADD DUP1 DUP3 GT ISZERO PUSH2 0x762 JUMPI PUSH2 0x762 PUSH2 0x285B JUMP JUMPDEST PUSH1 0x0 DUP3 PUSH2 0x28FB JUMPI PUSH4 0x4E487B71 PUSH1 0xE0 SHL PUSH1 0x0 MSTORE PUSH1 0x12 PUSH1 0x4 MSTORE PUSH1 0x24 PUSH1 0x0 REVERT JUMPDEST POP DIV SWAP1 JUMP JUMPDEST PUSH1 0x0 PUSH1 0x20 DUP3 DUP5 SUB SLT ISZERO PUSH2 0x2912 JUMPI PUSH1 0x0 DUP1 REVERT JUMPDEST POP MLOAD SWAP2 SWAP1 POP JUMP INVALID CALLDATASIZE ADDMOD SWAP5 LOG1 EXTCODESIZE LOG1 LOG3 0x21 MOD PUSH8 0xC828492DB98DCA3E KECCAK256 PUSH23 0xCC3735A920A3CA505D382BBC97667070C54EF182B0F585 DUP12 SUB 0x4B 0xEA 0xC1 0xB6 RETURN ADDMOD SWAP11 LOG2 0xD3 XOR DUP12 0xB1 0xE8 SWAP3 SWAP16 0x4F 0xA9 0xB9 0x29 MUL 0xDD PUSH28 0xC7DEC4DCEEDDA775E58DD541E08A116C6C53815C0BD028192F7B6268 STOP LOG2 PUSH5 0x6970667358 0x22 SLT KECCAK256 ADDRESS ADDMOD 0xD0 MSTORE 0xAF 0xED ISZERO 0xEE SWAP13 0xB0 0xB8 COINBASE CALLDATASIZE 0x25 NUMBER 0x22 0xC7 ADDRESS 0xC5 0xCB 0xB0 SWAP16 DUP9 0xE9 SWAP2 SWAP10 XOR 0xDA SWAP10 0xB0 BYTE 0xD2 PUSH5 0x736F6C6343 STOP ADDMOD XOR STOP CALLER "},"methodIdentifiers":{"DEFAULT_ADMIN_ROLE()":"a217fddf","OPERATOR_ROLE()":"f5b541a6","UPGRADE_INTERFACE_VERSION()":"ad3cb1cc","boatTripCount(uint16)":"b077f29f","boatTrips(uint16,uint256)":"3747d987","cancelTrip(bytes32)":"bf73bceb","competitiveMultiplierBps(uint256)":"26dadad9","getMemberCount()":"997072f7","getRoleAdmin(bytes32)":"248a9ca3","grantRole(bytes32,address)":"2f2ff15d","hasRole(bytes32,address)":"91d14854","holidayMultiplierBps(uint256)":"55ef7f97","initialize(address,address)":"485cc955","isAvailable(uint16,uint64,uint64)":"83b202d7","keelToken()":"90cdbaf8","logAndSettle(address,uint16,uint64,uint64,uint32[8],bool)":"64773636","memberList(uint256)":"b307fc6d","memberProfiles(address)":"b6f2056c","proxiableUUID()":"52d1902d","quoteHundredths(uint32[8],bool)":"fa6258ed","rateGrid(uint256,uint256)":"d8f66fa9","renounceRole(bytes32,address)":"36568abe","revokeRole(bytes32,address)":"d547741f","setCompetitiveMultiplier(uint8,uint16)":"f5ffe485","setHolidayMultiplier(uint8,uint16)":"2c81a318","setMemberProfile(address,string,string)":"5f757bb2","setRate(uint8,uint16,uint16)":"30bc2875","supportsInterface(bytes4)":"01ffc9a7","tripCount()":"69fc6cbe","tripIds(uint256)":"cf6a019d","trips(bytes32)":"d3bbcfbd","upgradeToAndCall(address,bytes)":"4f1ef286"}},"storageLayout":{"storage":[{"astId":3218,"contract":"contracts/KeelUsageLedger.sol:KeelUsageLedger","label":"keelToken","offset":0,"slot":"0","type":"t_contract(IKeelToken)3203"},{"astId":3224,"contract":"contracts/KeelUsageLedger.sol:KeelUsageLedger","label":"rateGrid","offset":0,"slot":"1","type":"t_array(t_array(t_uint16)2_storage)2_storage"},{"astId":3228,"contract":"contracts/KeelUsageLedger.sol:KeelUsageLedger","label":"holidayMultiplierBps","offset":0,"slot":"3","type":"t_array(t_uint16)2_storage"},{"astId":3232,"contract":"contracts/KeelUsageLedger.sol:KeelUsageLedger","label":"competitiveMultiplierBps","offset":0,"slot":"4","type":"t_array(t_uint16)2_storage"},{"astId":3256,"contract":"contracts/KeelUsageLedger.sol:KeelUsageLedger","label":"trips","offset":0,"slot":"5","type":"t_mapping(t_bytes32,t_struct(TripRecord)3251_storage)"},{"astId":3259,"contract":"contracts/KeelUsageLedger.sol:KeelUsageLedger","label":"tripIds","offset":0,"slot":"6","type":"t_array(t_bytes32)dyn_storage"},{"astId":3264,"contract":"contracts/KeelUsageLedger.sol:KeelUsageLedger","label":"boatTrips","offset":0,"slot":"7","type":"t_mapping(t_uint16,t_array(t_bytes32)dyn_storage)"},{"astId":3276,"contract":"contracts/KeelUsageLedger.sol:KeelUsageLedger","label":"memberProfiles","offset":0,"slot":"8","type":"t_mapping(t_address,t_struct(MemberProfile)3271_storage)"},{"astId":3279,"contract":"contracts/KeelUsageLedger.sol:KeelUsageLedger","label":"memberList","offset":0,"slot":"9","type":"t_array(t_address)dyn_storage"}],"types":{"t_address":{"encoding":"inplace","label":"address","numberOfBytes":"20"},"t_array(t_address)dyn_storage":{"base":"t_address","encoding":"dynamic_array","label":"address[]","numberOfBytes":"32"},"t_array(t_array(t_uint16)2_storage)2_storage":{"base":"t_array(t_uint16)2_storage","encoding":"inplace","label":"uint16[2][2]","numberOfBytes":"64"},"t_array(t_bytes32)dyn_storage":{"base":"t_bytes32","encoding":"dynamic_array","label":"bytes32[]","numberOfBytes":"32"},"t_array(t_uint16)2_storage":{"base":"t_uint16","encoding":"inplace","label":"uint16[2]","numberOfBytes":"32"},"t_bool":{"encoding":"inplace","label":"bool","numberOfBytes":"1"},"t_bytes32":{"encoding":"inplace","label":"bytes32","numberOfBytes":"32"},"t_contract(IKeelToken)3203":{"encoding":"inplace","label":"contract IKeelToken","numberOfBytes":"20"},"t_mapping(t_address,t_struct(MemberProfile)3271_storage)":{"encoding":"mapping","key":"t_address","label":"mapping(address => struct KeelUsageLedger.MemberProfile)","numberOfBytes":"32","value":"t_struct(MemberProfile)3271_storage"},"t_mapping(t_bytes32,t_struct(TripRecord)3251_storage)":{"encoding":"mapping","key":"t_bytes32","label":"mapping(bytes32 => struct KeelUsageLedger.TripRecord)","numberOfBytes":"32","value":"t_struct(TripRecord)3251_storage"},"t_mapping(t_uint16,t_array(t_bytes32)dyn_storage)":{"encoding":"mapping","key":"t_uint16","label":"mapping(uint16 => bytes32[])","numberOfBytes":"32","value":"t_array(t_bytes32)dyn_storage"},"t_string_storage":{"encoding":"bytes","label":"string","numberOfBytes":"32"},"t_struct(MemberProfile)3271_storage":{"encoding":"inplace","label":"struct KeelUsageLedger.MemberProfile","members":[{"astId":3266,"contract":"contracts/KeelUsageLedger.sol:KeelUsageLedger","label":"displayName","offset":0,"slot":"0","type":"t_string_storage"},{"astId":3268,"contract":"contracts/KeelUsageLedger.sol:KeelUsageLedger","label":"experienceLevel","offset":0,"slot":"1","type":"t_string_storage"},{"astId":3270,"contract":"contracts/KeelUsageLedger.sol:KeelUsageLedger","label":"memberSince","offset":0,"slot":"2","type":"t_uint64"}],"numberOfBytes":"96"},"t_struct(TripRecord)3251_storage":{"encoding":"inplace","label":"struct KeelUsageLedger.TripRecord","members":[{"astId":3234,"contract":"contracts/KeelUsageLedger.sol:KeelUsageLedger","label":"member","offset":0,"slot":"0","type":"t_address"},{"astId":3236,"contract":"contracts/KeelUsageLedger.sol:KeelUsageLedger","label":"startTs","offset":20,"slot":"0","type":"t_uint64"},{"astId":3238,"contract":"contracts/KeelUsageLedger.sol:KeelUsageLedger","label":"endTs","offset":0,"slot":"1","type":"t_uint64"},{"astId":3240,"contract":"contracts/KeelUsageLedger.sol:KeelUsageLedger","label":"totalTenths","offset":8,"slot":"1","type":"t_uint32"},{"astId":3242,"contract":"contracts/KeelUsageLedger.sol:KeelUsageLedger","label":"competitive","offset":12,"slot":"1","type":"t_bool"},{"astId":3244,"contract":"contracts/KeelUsageLedger.sol:KeelUsageLedger","label":"cancelled","offset":13,"slot":"1","type":"t_bool"},{"astId":3246,"contract":"contracts/KeelUsageLedger.sol:KeelUsageLedger","label":"boatId","offset":14,"slot":"1","type":"t_uint16"},{"astId":3248,"contract":"contracts/KeelUsageLedger.sol:KeelUsageLedger","label":"burnHundredths","offset":0,"slot":"2","type":"t_uint256"},{"astId":3250,"contract":"contracts/KeelUsageLedger.sol:KeelUsageLedger","label":"tokensBurned","offset":0,"slot":"3","type":"t_uint256"}],"numberOfBytes":"128"},"t_uint16":{"encoding":"inplace","label":"uint16","numberOfBytes":"2"},"t_uint256":{"encoding":"inplace","label":"uint256","numberOfBytes":"32"},"t_uint32":{"encoding":"inplace","label":"uint32","numberOfBytes":"4"},"t_uint64":{"encoding":"inplace","label":"uint64","numberOfBytes":"8"}}}}}}