{"contracts/KeelUsageLedger.sol":{"KeelUsageLedger":{"abi":[{"inputs":[],"stateMutability":"nonpayable","type":"constructor"},{"inputs":[],"name":"AccessControlBadConfirmation","type":"error"},{"inputs":[{"internalType":"address","name":"account","type":"address"},{"internalType":"bytes32","name":"neededRole","type":"bytes32"}],"name":"AccessControlUnauthorizedAccount","type":"error"},{"inputs":[{"internalType":"address","name":"target","type":"address"}],"name":"AddressEmptyCode","type":"error"},{"inputs":[{"internalType":"address","name":"implementation","type":"address"}],"name":"ERC1967InvalidImplementation","type":"error"},{"inputs":[],"name":"ERC1967NonPayable","type":"error"},{"inputs":[],"name":"FailedCall","type":"error"},{"inputs":[],"name":"InvalidInitialization","type":"error"},{"inputs":[],"name":"NotInitializing","type":"error"},{"inputs":[],"name":"UUPSUnauthorizedCallContext","type":"error"},{"inputs":[{"internalType":"bytes32","name":"slot","type":"bytes32"}],"name":"UUPSUnsupportedProxiableUUID","type":"error"},{"anonymous":false,"inputs":[{"indexed":false,"internalType":"uint64","name":"version","type":"uint64"}],"name":"Initialized","type":"event"},{"anonymous":false,"inputs":[{"indexed":true,"internalType":"address","name":"member","type":"address"},{"indexed":false,"internalType":"string","name":"displayName","type":"string"}],"name":"MemberProfileUpdated","type":"event"},{"anonymous":false,"inputs":[{"indexed":true,"internalType":"bytes32","name":"role","type":"bytes32"},{"indexed":true,"internalType":"bytes32","name":"previousAdminRole","type":"bytes32"},{"indexed":true,"internalType":"bytes32","name":"newAdminRole","type":"bytes32"}],"name":"RoleAdminChanged","type":"event"},{"anonymous":false,"inputs":[{"indexed":true,"internalType":"bytes32","name":"role","type":"bytes32"},{"indexed":true,"internalType":"address","name":"account","type":"address"},{"indexed":true,"internalType":"address","name":"sender","type":"address"}],"name":"RoleGranted","type":"event"},{"anonymous":false,"inputs":[{"indexed":true,"internalType":"bytes32","name":"role","type":"bytes32"},{"indexed":true,"internalType":"address","name":"account","type":"address"},{"indexed":true,"internalType":"address","name":"sender","type":"address"}],"name":"RoleRevoked","type":"event"},{"anonymous":false,"inputs":[{"indexed":true,"internalType":"bytes32","name":"tripId","type":"bytes32"},{"indexed":true,"internalType":"address","name":"member","type":"address"},{"indexed":true,"internalType":"uint16","name":"boatId","type":"uint16"},{"indexed":false,"internalType":"uint256","name":"refundAmount","type":"uint256"},{"indexed":false,"internalType":"bool","name":"refunded","type":"bool"}],"name":"TripCancelled","type":"event"},{"anonymous":false,"inputs":[{"indexed":true,"internalType":"bytes32","name":"tripId","type":"bytes32"},{"indexed":true,"internalType":"address","name":"member","type":"address"},{"indexed":true,"internalType":"uint16","name":"boatId","type":"uint16"},{"indexed":false,"internalType":"uint256","name":"tokensBurned","type":"uint256"},{"indexed":false,"internalType":"uint32","name":"totalTenths","type":"uint32"},{"indexed":false,"internalType":"uint64","name":"startTs","type":"uint64"},{"indexed":false,"internalType":"uint64","name":"endTs","type":"uint64"}],"name":"TripSettled","type":"event"},{"anonymous":false,"inputs":[{"indexed":true,"internalType":"address","name":"implementation","type":"address"}],"name":"Upgraded","type":"event"},{"inputs":[],"name":"DEFAULT_ADMIN_ROLE","outputs":[{"internalType":"bytes32","name":"","type":"bytes32"}],"stateMutability":"view","type":"function"},{"inputs":[],"name":"OPERATOR_ROLE","outputs":[{"internalType":"bytes32","name":"","type":"bytes32"}],"stateMutability":"view","type":"function"},{"inputs":[],"name":"UPGRADE_INTERFACE_VERSION","outputs":[{"internalType":"string","name":"","type":"string"}],"stateMutability":"view","type":"function"},{"inputs":[{"internalType":"uint16","name":"boatId","type":"uint16"}],"name":"boatTripCount","outputs":[{"internalType":"uint256","name":"","type":"uint256"}],"stateMutability":"view","type":"function"},{"inputs":[{"internalType":"uint16","name":"","type":"uint16"},{"internalType":"uint256","name":"","type":"uint256"}],"name":"boatTrips","outputs":[{"internalType":"bytes32","name":"","type":"bytes32"}],"stateMutability":"view","type":"function"},{"inputs":[{"internalType":"bytes32","name":"tripId","type":"bytes32"}],"name":"cancelTrip","outputs":[],"stateMutability":"nonpayable","type":"function"},{"inputs":[{"internalType":"uint256","name":"","type":"uint256"}],"name":"competitiveMultiplierBps","outputs":[{"internalType":"uint16","name":"","type":"uint16"}],"stateMutability":"view","type":"function"},{"inputs":[],"name":"getMemberCount","outputs":[{"internalType":"uint256","name":"","type":"uint256"}],"stateMutability":"view","type":"function"},{"inputs":[{"internalType":"bytes32","name":"role","type":"bytes32"}],"name":"getRoleAdmin","outputs":[{"internalType":"bytes32","name":"","type":"bytes32"}],"stateMutability":"view","type":"function"},{"inputs":[{"internalType":"bytes32","name":"role","type":"bytes32"},{"internalType":"address","name":"account","type":"address"}],"name":"grantRole","outputs":[],"stateMutability":"nonpayable","type":"function"},{"inputs":[{"internalType":"bytes32","name":"role","type":"bytes32"},{"internalType":"address","name":"account","type":"address"}],"name":"hasRole","outputs":[{"internalType":"bool","name":"","type":"bool"}],"stateMutability":"view","type":"function"},{"inputs":[{"internalType":"uint256","name":"","type":"uint256"}],"name":"holidayMultiplierBps","outputs":[{"internalType":"uint16","name":"","type":"uint16"}],"stateMutability":"view","type":"function"},{"inputs":[{"internalType":"address","name":"admin","type":"address"},{"internalType":"address","name":"token","type":"address"}],"name":"initialize","outputs":[],"stateMutability":"nonpayable","type":"function"},{"inputs":[{"internalType":"uint16","name":"boatId","type":"uint16"},{"internalType":"uint64","name":"startTs","type":"uint64"},{"internalType":"uint64","name":"endTs","type":"uint64"}],"name":"isAvailable","outputs":[{"internalType":"bool","name":"","type":"bool"}],"stateMutability":"view","type":"function"},{"inputs":[],"name":"keelToken","outputs":[{"internalType":"contract IKeelToken","name":"","type":"address"}],"stateMutability":"view","type":"function"},{"inputs":[{"internalType":"address","name":"member","type":"address"},{"internalType":"uint16","name":"boatId","type":"uint16"},{"internalType":"uint64","name":"startTs","type":"uint64"},{"internalType":"uint64","name":"endTs","type":"uint64"},{"internalType":"uint32[8]","name":"h","type":"uint32[8]"},{"internalType":"bool","name":"competitive","type":"bool"}],"name":"logAndSettle","outputs":[{"internalType":"bytes32","name":"tripId","type":"bytes32"}],"stateMutability":"nonpayable","type":"function"},{"inputs":[{"internalType":"uint256","name":"","type":"uint256"}],"name":"memberList","outputs":[{"internalType":"address","name":"","type":"address"}],"stateMutability":"view","type":"function"},{"inputs":[{"internalType":"address","name":"","type":"address"}],"name":"memberProfiles","outputs":[{"internalType":"string","name":"displayName","type":"string"},{"internalType":"string","name":"experienceLevel","type":"string"},{"internalType":"uint64","name":"memberSince","type":"uint64"}],"stateMutability":"view","type":"function"},{"inputs":[],"name":"proxiableUUID","outputs":[{"internalType":"bytes32","name":"","type":"bytes32"}],"stateMutability":"view","type":"function"},{"inputs":[{"internalType":"uint32[8]","name":"h","type":"uint32[8]"},{"internalType":"bool","name":"competitive","type":"bool"}],"name":"quoteHundredths","outputs":[{"internalType":"uint256","name":"burnHundredths","type":"uint256"},{"internalType":"uint32","name":"totalTenths","type":"uint32"}],"stateMutability":"view","type":"function"},{"inputs":[{"internalType":"uint256","name":"","type":"uint256"},{"internalType":"uint256","name":"","type":"uint256"}],"name":"rateGrid","outputs":[{"internalType":"uint16","name":"","type":"uint16"}],"stateMutability":"view","type":"function"},{"inputs":[{"internalType":"bytes32","name":"role","type":"bytes32"},{"internalType":"address","name":"callerConfirmation","type":"address"}],"name":"renounceRole","outputs":[],"stateMutability":"nonpayable","type":"function"},{"inputs":[{"internalType":"bytes32","name":"role","type":"bytes32"},{"internalType":"address","name":"account","type":"address"}],"name":"revokeRole","outputs":[],"stateMutability":"nonpayable","type":"function"},{"inputs":[{"internalType":"uint8","name":"slot","type":"uint8"},{"internalType":"uint16","name":"bps","type":"uint16"}],"name":"setCompetitiveMultiplier","outputs":[],"stateMutability":"nonpayable","type":"function"},{"inputs":[{"internalType":"uint8","name":"slot","type":"uint8"},{"internalType":"uint16","name":"bps","type":"uint16"}],"name":"setHolidayMultiplier","outputs":[],"stateMutability":"nonpayable","type":"function"},{"inputs":[{"internalType":"address","name":"member","type":"address"},{"internalType":"string","name":"displayName","type":"string"},{"internalType":"string","name":"experienceLevel","type":"string"}],"name":"setMemberProfile","outputs":[],"stateMutability":"nonpayable","type":"function"},{"inputs":[{"internalType":"uint8","name":"period","type":"uint8"},{"internalType":"uint16","name":"dayRate","type":"uint16"},{"internalType":"uint16","name":"eveningRate","type":"uint16"}],"name":"setRate","outputs":[],"stateMutability":"nonpayable","type":"function"},{"inputs":[{"internalType":"bytes4","name":"interfaceId","type":"bytes4"}],"name":"supportsInterface","outputs":[{"internalType":"bool","name":"","type":"bool"}],"stateMutability":"view","type":"function"},{"inputs":[],"name":"tripCount","outputs":[{"internalType":"uint256","name":"","type":"uint256"}],"stateMutability":"view","type":"function"},{"inputs":[{"internalType":"uint256","name":"","type":"uint256"}],"name":"tripIds","outputs":[{"internalType":"bytes32","name":"","type":"bytes32"}],"stateMutability":"view","type":"function"},{"inputs":[{"internalType":"bytes32","name":"","type":"bytes32"}],"name":"trips","outputs":[{"internalType":"address","name":"member","type":"address"},{"internalType":"uint64","name":"startTs","type":"uint64"},{"internalType":"uint64","name":"endTs","type":"uint64"},{"internalType":"uint32","name":"totalTenths","type":"uint32"},{"internalType":"bool","name":"competitive","type":"bool"},{"internalType":"bool","name":"cancelled","type":"bool"},{"internalType":"uint16","name":"boatId","type":"uint16"},{"internalType":"uint256","name":"burnHundredths","type":"uint256"},{"internalType":"uint256","name":"tokensBurned","type":"uint256"},{"internalType":"uint64","name":"refundExpiresAt","type":"uint64"}],"stateMutability":"view","type":"function"},{"inputs":[{"internalType":"address","name":"newImplementation","type":"address"},{"internalType":"bytes","name":"data","type":"bytes"}],"name":"upgradeToAndCall","outputs":[],"stateMutability":"payable","type":"function"}],"evm":{"bytecode":{"linkReferences":{},"object":"60a0604052306080523480156200001557600080fd5b506200002062000026565b620000da565b7ff0c57e16840df040f15088dc2f81fe391c3923bec73e23a9662efc9c229c6a00805468010000000000000000900460ff1615620000775760405163f92ee8a960e01b815260040160405180910390fd5b80546001600160401b0390811614620000d75780546001600160401b0319166001600160401b0390811782556040519081527fc7f505b2f371ae2175ee4913f4499e1f2633a7b5936321eed1cdaeb6115181d29060200160405180910390a15b50565b608051612a3f6200010460003960008181611c7401528181611c9d0152611de10152612a3f6000f3fe6080604052600436106101e35760003560e01c806390cdbaf811610102578063bf73bceb11610095578063d8f66fa911610064578063d8f66fa9146106a5578063f5b541a6146106c5578063f5ffe485146106e7578063fa6258ed1461070757600080fd5b8063bf73bceb1461053d578063cf6a019d1461055d578063d3bbcfbd1461057d578063d547741f1461068557600080fd5b8063ad3cb1cc116100d1578063ad3cb1cc1461047f578063b077f29f146104bd578063b307fc6d146104ee578063b6f2056c1461050e57600080fd5b806390cdbaf8146103fd57806391d1485414610435578063997072f714610455578063a217fddf1461046a57600080fd5b8063485cc9551161017a5780635f757bb2116101495780635f757bb21461038857806364773636146103a857806369fc6cbe146103c857806383b202d7146103dd57600080fd5b8063485cc955146103205780634f1ef2861461034057806352d1902d1461035357806355ef7f971461036857600080fd5b80632f2ff15d116101b65780632f2ff15d146102a057806330bc2875146102c057806336568abe146102e05780633747d9871461030057600080fd5b806301ffc9a7146101e8578063248a9ca31461021d57806326dadad91461024b5780632c81a3181461027e575b600080fd5b3480156101f457600080fd5b50610208610203366004612219565b610741565b60405190151581526020015b60405180910390f35b34801561022957600080fd5b5061023d610238366004612243565b610778565b604051908152602001610214565b34801561025757600080fd5b5061026b610266366004612243565b61079a565b60405161ffff9091168152602001610214565b34801561028a57600080fd5b5061029e610299366004612284565b6107c8565b005b3480156102ac57600080fd5b5061029e6102bb3660046122ce565b6108a0565b3480156102cc57600080fd5b5061029e6102db3660046122f1565b6108c2565b3480156102ec57600080fd5b5061029e6102fb3660046122ce565b610974565b34801561030c57600080fd5b5061023d61031b366004612334565b6109ac565b34801561032c57600080fd5b5061029e61033b36600461235e565b6109dd565b61029e61034e36600461239e565b610ba7565b34801561035f57600080fd5b5061023d610bc6565b34801561037457600080fd5b5061026b610383366004612243565b610be3565b34801561039457600080fd5b5061029e6103a33660046124a7565b610bf3565b3480156103b457600080fd5b5061023d6103c336600461255e565b610d59565b3480156103d457600080fd5b5060065461023d565b3480156103e957600080fd5b506102086103f83660046125d9565b6112e0565b34801561040957600080fd5b5060005461041d906001600160a01b031681565b6040516001600160a01b039091168152602001610214565b34801561044157600080fd5b506102086104503660046122ce565b6113aa565b34801561046157600080fd5b5060095461023d565b34801561047657600080fd5b5061023d600081565b34801561048b57600080fd5b506104b0604051806040016040528060058152602001640352e302e360dc1b81525081565b6040516102149190612668565b3480156104c957600080fd5b5061023d6104d836600461267b565b61ffff1660009081526007602052604090205490565b3480156104fa57600080fd5b5061041d610509366004612243565b6113e2565b34801561051a57600080fd5b5061052e610529366004612696565b61140c565b604051610214939291906126b1565b34801561054957600080fd5b5061029e610558366004612243565b611547565b34801561056957600080fd5b5061023d610578366004612243565b61177b565b34801561058957600080fd5b50610619610598366004612243565b600560205260009081526040902080546001820154600283015460038401546004909401546001600160a01b03841694600160a01b9094046001600160401b039081169481851694600160401b810463ffffffff1694600160601b820460ff90811695600160681b840490911694600160701b90930461ffff16939192168a565b604080516001600160a01b03909b168b526001600160401b03998a1660208c0152978916978a019790975263ffffffff9095166060890152921515608088015290151560a087015261ffff1660c086015260e08501526101008401521661012082015261014001610214565b34801561069157600080fd5b5061029e6106a03660046122ce565b61179c565b3480156106b157600080fd5b5061026b6106c03660046126f0565b6117b8565b3480156106d157600080fd5b5061023d6000805160206129ca83398151915281565b3480156106f357600080fd5b5061029e610702366004612284565b6117f8565b34801561071357600080fd5b50610727610722366004612712565b6118a1565b6040805192835263ffffffff909116602083015201610214565b60006001600160e01b03198216637965db0b60e01b148061077257506301ffc9a760e01b6001600160e01b03198316145b92915050565b60009081526000805160206129ea833981519152602052604090206001015490565b600481600281106107aa57600080fd5b60109182820401919006600202915054906101000a900461ffff1681565b60006107d381611b01565b60028360ff16106108165760405162461bcd60e51b8152602060048201526008602482015267189859081cdb1bdd60c21b60448201526064015b60405180910390fd5b6127108261ffff16101561085f5760405162461bcd60e51b815260206004820152601060248201526f0daeae6e840c4ca407c7a40625c6060f60831b604482015260640161080d565b8160038460ff16600281106108765761087661273f565b601091828204019190066002026101000a81548161ffff021916908361ffff160217905550505050565b6108a982610778565b6108b281611b01565b6108bc8383611b0e565b50505050565b60006108cd81611b01565b60028460ff161061090d5760405162461bcd60e51b815260206004820152600a602482015269189859081c195c9a5bd960b21b604482015260640161080d565b8260018560ff16600281106109245761092461273f565b01805461ffff191661ffff9290921691909117905581600160ff8616600281106109505761095061273f565b01805461ffff92909216620100000263ffff00001990921691909117905550505050565b6001600160a01b038116331461099d5760405163334bd91960e11b815260040160405180910390fd5b6109a78282611bba565b505050565b600760205281600052604060002081815481106109c857600080fd5b90600052602060002001600091509150505481565b60006109e7611c36565b805490915060ff600160401b82041615906001600160401b0316600081158015610a0e5750825b90506000826001600160401b03166001148015610a2a5750303b155b905081158015610a38575080155b15610a565760405163f92ee8a960e01b815260040160405180910390fd5b845467ffffffffffffffff191660011785558315610a8057845460ff60401b1916600160401b1785555b610a88611c5f565b610a93600088611b0e565b50610aac6000805160206129ca83398151915288611b0e565b50600080546001600160a01b0319166001600160a01b0388161790556040805160808101825260c881830181815260646060840152825282518084019093526101908352602080840191909152810191909152610b0d906001906002612115565b5060408051808201909152612cec8152612af86020820152610b3390600390600261215f565b5060408051808201909152612af88082526020820152610b5790600490600261215f565b508315610b9e57845460ff60401b19168555604051600181527fc7f505b2f371ae2175ee4913f4499e1f2633a7b5936321eed1cdaeb6115181d29060200160405180910390a15b50505050505050565b610baf611c69565b610bb882611d0e565b610bc28282611d19565b5050565b6000610bd0611dd6565b506000805160206129aa83398151915290565b600381600281106107aa57600080fd5b6001600160a01b038516331480610c1d5750610c1d6000805160206129ca833981519152336113aa565b610c575760405162461bcd60e51b815260206004820152600b60248201526a1b9bdd08185b1b1bddd95960aa1b604482015260640161080d565b6001600160a01b0385166000908152600860205260408120600281015490916001600160401b039091169003610cf15760028101805467ffffffffffffffff1916426001600160401b0316179055600980546001810182556000919091527f6e1540171b6c0c960b71a7020d9f60077f6af931a8bbf590da0223dacf75c7af0180546001600160a01b0319166001600160a01b0388161790555b80610cfd8587836127df565b5060018101610d0d8385836127df565b50856001600160a01b03167f7f2ba702ec91844c5877a1ef0d30c0928b2b2ebd6a93e70d85d591a17544d2078686604051610d4992919061289f565b60405180910390a2505050505050565b60006001600160a01b038716331480610d855750610d856000805160206129ca833981519152336113aa565b610dca5760405162461bcd60e51b81526020600482015260166024820152753737ba1036b2b6b132b91037b91037b832b930ba37b960511b604482015260640161080d565b846001600160401b0316846001600160401b031611610e1c5760405162461bcd60e51b815260206004820152600e60248201526d6261642074696d652072616e676560901b604482015260640161080d565b610e278686866112e0565b610e665760405162461bcd60e51b815260206004820152601060248201526f736c6f7420756e617661696c61626c6560801b604482015260640161080d565b600080610e7385856118a1565b9150915060008163ffffffff1611610eb85760405162461bcd60e51b81526020600482015260086024820152676e6f20686f75727360c01b604482015260640161080d565b6000610ecb83662386f26fc100006128e4565b6040516bffffffffffffffffffffffff1960608d901b1660208201526001600160f01b031960f08c901b1660348201526001600160c01b031960c08b811b821660368401528a901b16603e82015242604682015290915060660160408051601f198184030181529181528151602092830120600081815260059093529120549094506001600160a01b031615610f8e5760405162461bcd60e51b8152602060048201526008602482015267064757020747269760c41b604482015260640161080d565b6000805460405163e023b7e560e01b81526001600160a01b038d8116600483015260248201859052604482018890529091169063e023b7e5906064016020604051808303816000875af1158015610fe9573d6000803e3d6000fd5b505050506040513d601f19601f8201168201806040525081019061100d91906128fb565b90506040518061014001604052808c6001600160a01b031681526020018a6001600160401b03168152602001896001600160401b031681526020018463ffffffff16815260200187151581526020016000151581526020018b61ffff168152602001858152602001838152602001826001600160401b03168152506005600087815260200190815260200160002060008201518160000160006101000a8154816001600160a01b0302191690836001600160a01b0316021790555060208201518160000160146101000a8154816001600160401b0302191690836001600160401b0316021790555060408201518160010160006101000a8154816001600160401b0302191690836001600160401b0316021790555060608201518160010160086101000a81548163ffffffff021916908363ffffffff160217905550608082015181600101600c6101000a81548160ff02191690831515021790555060a082015181600101600d6101000a81548160ff02191690831515021790555060c082015181600101600e6101000a81548161ffff021916908361ffff16021790555060e0820151816002015561010082015181600301556101208201518160040160006101000a8154816001600160401b0302191690836001600160401b031602179055509050506006859080600181540180825580915050600190039060005260206000200160009091909190915055600760008b61ffff1661ffff1681526020019081526020016000208590806001815401808255809150506001900390600052602060002001600090919091909150558961ffff168b6001600160a01b0316867f072c19ae8e66cbeddcb6cb1bb44264be531a305de9739338948c0dfc01e3778385878e8e6040516112ca949392919093845263ffffffff9290921660208401526001600160401b03908116604084015216606082015260800190565b60405180910390a4505050509695505050505050565b61ffff83166000908152600760205260408120815b815481101561139c576000600560008484815481106113165761131661273f565b90600052602060002001548152602001908152602001600020905080600101600d9054906101000a900460ff161561134e5750611394565b60018101546001600160401b03908116908716108015611381575080546001600160401b03808716600160a01b90920416105b1561139257600093505050506113a3565b505b6001016112f5565b5060019150505b9392505050565b60009182526000805160206129ea833981519152602090815260408084206001600160a01b0393909316845291905290205460ff1690565b600981815481106113f257600080fd5b6000918252602090912001546001600160a01b0316905081565b60086020526000908152604090208054819061142790612755565b80601f016020809104026020016040519081016040528092919081815260200182805461145390612755565b80156114a05780601f10611475576101008083540402835291602001916114a0565b820191906000526020600020905b81548152906001019060200180831161148357829003601f168201915b5050505050908060010180546114b590612755565b80601f01602080910402602001604051908101604052809291908181526020018280546114e190612755565b801561152e5780601f106115035761010080835404028352916020019161152e565b820191906000526020600020905b81548152906001019060200180831161151157829003601f168201915b505050600290930154919250506001600160401b031683565b600081815260056020526040902080546001600160a01b031661159b5760405162461bcd60e51b815260206004820152600c60248201526b06e6f207375636820747269760a41b604482015260640161080d565b80546001600160a01b03163314806115c657506115c66000805160206129ca833981519152336113aa565b6116005760405162461bcd60e51b815260206004820152600b60248201526a1b9bdd08185b1b1bddd95960aa1b604482015260640161080d565b6001810154600160681b900460ff16156116505760405162461bcd60e51b8152602060048201526011602482015270185b1c9958591e4818d85b98d95b1b1959607a1b604482015260640161080d565b60018101805460ff60681b1916600160681b17905580546001600160401b03600160a01b909104164210801561170d5760005482546003840154600480860154604051630b2ad61360e11b81526001600160a01b03948516928101929092526024820192909252604481018790526001600160401b039091166064820152911690631655ac2690608401600060405180830381600087803b1580156116f457600080fd5b505af1158015611708573d6000803e3d6000fd5b505050505b60018201548254600160701b90910461ffff16906001600160a01b0316847f752cc8aebf0b6894e3cfe2a0d5464ab0561856e1142da75f3a783898d641cb938461175857600061175e565b85600301545b6040805191825286151560208301520160405180910390a4505050565b6006818154811061178b57600080fd5b600091825260209091200154905081565b6117a582610778565b6117ae81611b01565b6108bc8383611bba565b600182600281106117c857600080fd5b0181600281106117d757600080fd5b60109182820401919006600202915091509054906101000a900461ffff1681565b600061180381611b01565b60028360ff16106118415760405162461bcd60e51b8152602060048201526008602482015267189859081cdb1bdd60c21b604482015260640161080d565b6127108261ffff16101561188a5760405162461bcd60e51b815260206004820152601060248201526f0daeae6e840c4ca407c7a40625c6060f60831b604482015260640161080d565b8160048460ff16600281106108765761087661273f565b6000806118b5610100850160e08601612918565b6118c560e0860160c08701612918565b6118d560c0870160a08801612918565b6118e560a0880160808901612918565b6118f56080890160608a01612918565b61190560608a0160408b01612918565b61191560408b0160208c01612918565b61192260208c018c612918565b61192c919061293e565b611936919061293e565b611940919061293e565b61194a919061293e565b611954919061293e565b61195e919061293e565b611968919061293e565b9050600061199061197c6020870187612918565b600160005b015461ffff1660008088611e1f565b61199a908261295b565b90506119ca6119af6040870160208801612918565b600160005b015462010000900461ffff166001600088611e1f565b6119d4908261295b565b90506119f16119e96060870160408801612918565b600180611981565b6119fb908261295b565b9050611a18611a106080870160608801612918565b6001806119b4565b611a22908261295b565b9050611a4c611a3760a0870160808801612918565b600160005b015461ffff166000600188611e1f565b611a56908261295b565b9050611a85611a6b60c0870160a08801612918565b600160005b015462010000900461ffff1660018088611e1f565b611a8f908261295b565b9050611aac611aa460e0870160c08801612918565b600180611a3c565b611ab6908261295b565b9050611ad4611acc610100870160e08801612918565b600180611a70565b611ade908261295b565b9050600a611aed82600961295b565b611af7919061296e565b9250509250929050565b611b0b8133611eec565b50565b60006000805160206129ea833981519152611b2984846113aa565b611ba9576000848152602082815260408083206001600160a01b03871684529091529020805460ff19166001179055611b5f3390565b6001600160a01b0316836001600160a01b0316857f2f8788117e7eff1d82e926ec794901d17c78024a50270940304540a733656f0d60405160405180910390a46001915050610772565b6000915050610772565b5092915050565b60006000805160206129ea833981519152611bd584846113aa565b15611ba9576000848152602082815260408083206001600160a01b0387168085529252808320805460ff1916905551339287917ff6391f5c32d9c69d2a47ea670b442974b53935d1edc7fd64eb21e047a839171b9190a46001915050610772565b6000807ff0c57e16840df040f15088dc2f81fe391c3923bec73e23a9662efc9c229c6a00610772565b611c67611f25565b565b306001600160a01b037f0000000000000000000000000000000000000000000000000000000000000000161480611cf057507f00000000000000000000000000000000000000000000000000000000000000006001600160a01b0316611ce46000805160206129aa833981519152546001600160a01b031690565b6001600160a01b031614155b15611c675760405163703e46dd60e11b815260040160405180910390fd5b6000610bc281611b01565b816001600160a01b03166352d1902d6040518163ffffffff1660e01b8152600401602060405180830381865afa925050508015611d73575060408051601f3d908101601f19168201909252611d7091810190612990565b60015b611d9b57604051634c9c8ce360e01b81526001600160a01b038316600482015260240161080d565b6000805160206129aa8339815191528114611dcc57604051632a87526960e21b81526004810182905260240161080d565b6109a78383611f4a565b306001600160a01b037f00000000000000000000000000000000000000000000000000000000000000001614611c675760405163703e46dd60e11b815260040160405180910390fd5b600080611e3661ffff871663ffffffff89166128e4565b90508315611e8d5761271060038660ff1660028110611e5757611e5761273f565b601091828204019190066002029054906101000a900461ffff1661ffff1682611e8091906128e4565b611e8a919061296e565b90505b8215611ee25761271060048660ff1660028110611eac57611eac61273f565b601091828204019190066002029054906101000a900461ffff1661ffff1682611ed591906128e4565b611edf919061296e565b90505b9695505050505050565b611ef682826113aa565b610bc25760405163e2517d3f60e01b81526001600160a01b03821660048201526024810183905260440161080d565b611f2d611fa0565b611c6757604051631afcd79f60e31b815260040160405180910390fd5b611f5382611fba565b6040516001600160a01b038316907fbc7cd75a20ee27fd9adebab32041f755214dbc6bffa90cc0225b39da2e5c2d3b90600090a2805115611f98576109a7828261201f565b610bc26120bb565b6000611faa611c36565b54600160401b900460ff16919050565b806001600160a01b03163b600003611ff057604051634c9c8ce360e01b81526001600160a01b038216600482015260240161080d565b6000805160206129aa83398151915280546001600160a01b0319166001600160a01b0392909216919091179055565b6060600061202d84846120da565b9050808015612050575060003d118061205057506000846001600160a01b03163b115b156120655761205d6120ef565b915050610772565b801561208f57604051639996b31560e01b81526001600160a01b038516600482015260240161080d565b3d156120a25761209d612109565b611bb3565b60405163d6bda27560e01b815260040160405180910390fd5b3415611c675760405163b398979f60e01b815260040160405180910390fd5b6000806000835160208501865af49392505050565b6040513d81523d6000602083013e3d602001810160405290565b6040513d6000823e3d81fd5b826002810192821561214f579160200282015b8281111561214f57825161213f908390600261215f565b5091602001919060010190612128565b5061215b9291506121f1565b5090565b6001830191839082156121e55791602002820160005b838211156121b557835183826101000a81548161ffff021916908361ffff1602179055509260200192600201602081600101049283019260010302612175565b80156121e35782816101000a81549061ffff02191690556002016020816001010492830192600103026121b5565b505b5061215b929150612205565b8082111561215b57600081556001016121f1565b8082111561215b57600081556001016121f1565b60006020828403121561222b57600080fd5b81356001600160e01b0319811681146113a357600080fd5b60006020828403121561225557600080fd5b5035919050565b803560ff8116811461226d57600080fd5b919050565b803561ffff8116811461226d57600080fd5b6000806040838503121561229757600080fd5b6122a08361225c565b91506122ae60208401612272565b90509250929050565b80356001600160a01b038116811461226d57600080fd5b600080604083850312156122e157600080fd5b823591506122ae602084016122b7565b60008060006060848603121561230657600080fd5b61230f8461225c565b925061231d60208501612272565b915061232b60408501612272565b90509250925092565b6000806040838503121561234757600080fd5b61235083612272565b946020939093013593505050565b6000806040838503121561237157600080fd5b61237a836122b7565b91506122ae602084016122b7565b634e487b7160e01b600052604160045260246000fd5b600080604083850312156123b157600080fd5b6123ba836122b7565b915060208301356001600160401b03808211156123d657600080fd5b818501915085601f8301126123ea57600080fd5b8135818111156123fc576123fc612388565b604051601f8201601f19908116603f0116810190838211818310171561242457612424612388565b8160405282815288602084870101111561243d57600080fd5b8260208601602083013760006020848301015280955050505050509250929050565b60008083601f84011261247157600080fd5b5081356001600160401b0381111561248857600080fd5b6020830191508360208285010111156124a057600080fd5b9250929050565b6000806000806000606086880312156124bf57600080fd5b6124c8866122b7565b945060208601356001600160401b03808211156124e457600080fd5b6124f089838a0161245f565b9096509450604088013591508082111561250957600080fd5b506125168882890161245f565b969995985093965092949392505050565b6001600160401b0381168114611b0b57600080fd5b80610100810183101561077257600080fd5b8035801515811461226d57600080fd5b6000806000806000806101a0878903121561257857600080fd5b612581876122b7565b955061258f60208801612272565b9450604087013561259f81612527565b935060608701356125af81612527565b92506125be886080890161253c565b91506125cd610180880161254e565b90509295509295509295565b6000806000606084860312156125ee57600080fd5b6125f784612272565b9250602084013561260781612527565b9150604084013561261781612527565b809150509250925092565b6000815180845260005b818110156126485760208185018101518683018201520161262c565b506000602082860101526020601f19601f83011685010191505092915050565b6020815260006113a36020830184612622565b60006020828403121561268d57600080fd5b6113a382612272565b6000602082840312156126a857600080fd5b6113a3826122b7565b6060815260006126c46060830186612622565b82810360208401526126d68186612622565b9150506001600160401b0383166040830152949350505050565b6000806040838503121561270357600080fd5b50508035926020909101359150565b600080610120838503121561272657600080fd5b612730848461253c565b91506122ae610100840161254e565b634e487b7160e01b600052603260045260246000fd5b600181811c9082168061276957607f821691505b60208210810361278957634e487b7160e01b600052602260045260246000fd5b50919050565b601f8211156109a7576000816000526020600020601f850160051c810160208610156127b85750805b601f850160051c820191505b818110156127d7578281556001016127c4565b505050505050565b6001600160401b038311156127f6576127f6612388565b61280a836128048354612755565b8361278f565b6000601f84116001811461283e57600085156128265750838201355b600019600387901b1c1916600186901b178355612898565b600083815260209020601f19861690835b8281101561286f578685013582556020948501946001909201910161284f565b508682101561288c5760001960f88860031b161c19848701351681555b505060018560011b0183555b5050505050565b60208152816020820152818360408301376000818301604090810191909152601f909201601f19160101919050565b634e487b7160e01b600052601160045260246000fd5b8082028115828204841417610772576107726128ce565b60006020828403121561290d57600080fd5b81516113a381612527565b60006020828403121561292a57600080fd5b813563ffffffff811681146113a357600080fd5b63ffffffff818116838216019080821115611bb357611bb36128ce565b80820180821115610772576107726128ce565b60008261298b57634e487b7160e01b600052601260045260246000fd5b500490565b6000602082840312156129a257600080fd5b505191905056fe360894a13ba1a3210667c828492db98dca3e2076cc3735a920a3ca505d382bbc97667070c54ef182b0f5858b034beac1b6f3089aa2d3188bb1e8929f4fa9b92902dd7bc7dec4dceedda775e58dd541e08a116c6c53815c0bd028192f7b626800a2646970667358221220865aa9ebe6a6f369f98a7a72ef7d1c646296bfccb1545faea6377d922dcef45164736f6c63430008180033","opcodes":"PUSH1 0xA0 PUSH1 0x40 MSTORE ADDRESS PUSH1 0x80 MSTORE CALLVALUE DUP1 ISZERO PUSH3 0x15 JUMPI PUSH1 0x0 DUP1 REVERT JUMPDEST POP PUSH3 0x20 PUSH3 0x26 JUMP JUMPDEST PUSH3 0xDA JUMP JUMPDEST PUSH32 0xF0C57E16840DF040F15088DC2F81FE391C3923BEC73E23A9662EFC9C229C6A00 DUP1 SLOAD PUSH9 0x10000000000000000 SWAP1 DIV PUSH1 0xFF AND ISZERO PUSH3 0x77 JUMPI PUSH1 0x40 MLOAD PUSH4 0xF92EE8A9 PUSH1 0xE0 SHL DUP2 MSTORE PUSH1 0x4 ADD PUSH1 0x40 MLOAD DUP1 SWAP2 SUB SWAP1 REVERT JUMPDEST DUP1 SLOAD PUSH1 0x1 PUSH1 0x1 PUSH1 0x40 SHL SUB SWAP1 DUP2 AND EQ PUSH3 0xD7 JUMPI DUP1 SLOAD PUSH1 0x1 PUSH1 0x1 PUSH1 0x40 SHL SUB NOT AND PUSH1 0x1 PUSH1 0x1 PUSH1 0x40 SHL SUB SWAP1 DUP2 OR DUP3 SSTORE PUSH1 0x40 MLOAD SWAP1 DUP2 MSTORE PUSH32 0xC7F505B2F371AE2175EE4913F4499E1F2633A7B5936321EED1CDAEB6115181D2 SWAP1 PUSH1 0x20 ADD PUSH1 0x40 MLOAD DUP1 SWAP2 SUB SWAP1 LOG1 JUMPDEST POP JUMP JUMPDEST PUSH1 0x80 MLOAD PUSH2 0x2A3F PUSH3 0x104 PUSH1 0x0 CODECOPY PUSH1 0x0 DUP2 DUP2 PUSH2 0x1C74 ADD MSTORE DUP2 DUP2 PUSH2 0x1C9D ADD MSTORE PUSH2 0x1DE1 ADD MSTORE PUSH2 0x2A3F PUSH1 0x0 RETURN INVALID PUSH1 0x80 PUSH1 0x40 MSTORE PUSH1 0x4 CALLDATASIZE LT PUSH2 0x1E3 JUMPI PUSH1 0x0 CALLDATALOAD PUSH1 0xE0 SHR DUP1 PUSH4 0x90CDBAF8 GT PUSH2 0x102 JUMPI DUP1 PUSH4 0xBF73BCEB GT PUSH2 0x95 JUMPI DUP1 PUSH4 0xD8F66FA9 GT PUSH2 0x64 JUMPI DUP1 PUSH4 0xD8F66FA9 EQ PUSH2 0x6A5 JUMPI DUP1 PUSH4 0xF5B541A6 EQ PUSH2 0x6C5 JUMPI DUP1 PUSH4 0xF5FFE485 EQ PUSH2 0x6E7 JUMPI DUP1 PUSH4 0xFA6258ED EQ PUSH2 0x707 JUMPI PUSH1 0x0 DUP1 REVERT JUMPDEST DUP1 PUSH4 0xBF73BCEB EQ PUSH2 0x53D JUMPI DUP1 PUSH4 0xCF6A019D EQ PUSH2 0x55D JUMPI DUP1 PUSH4 0xD3BBCFBD EQ PUSH2 0x57D JUMPI DUP1 PUSH4 0xD547741F EQ PUSH2 0x685 JUMPI PUSH1 0x0 DUP1 REVERT JUMPDEST DUP1 PUSH4 0xAD3CB1CC GT PUSH2 0xD1 JUMPI DUP1 PUSH4 0xAD3CB1CC EQ PUSH2 0x47F JUMPI DUP1 PUSH4 0xB077F29F EQ PUSH2 0x4BD JUMPI DUP1 PUSH4 0xB307FC6D EQ PUSH2 0x4EE JUMPI DUP1 PUSH4 0xB6F2056C EQ PUSH2 0x50E JUMPI PUSH1 0x0 DUP1 REVERT JUMPDEST DUP1 PUSH4 0x90CDBAF8 EQ PUSH2 0x3FD JUMPI DUP1 PUSH4 0x91D14854 EQ PUSH2 0x435 JUMPI DUP1 PUSH4 0x997072F7 EQ PUSH2 0x455 JUMPI DUP1 PUSH4 0xA217FDDF EQ PUSH2 0x46A JUMPI PUSH1 0x0 DUP1 REVERT JUMPDEST DUP1 PUSH4 0x485CC955 GT PUSH2 0x17A JUMPI DUP1 PUSH4 0x5F757BB2 GT PUSH2 0x149 JUMPI DUP1 PUSH4 0x5F757BB2 EQ PUSH2 0x388 JUMPI DUP1 PUSH4 0x64773636 EQ PUSH2 0x3A8 JUMPI DUP1 PUSH4 0x69FC6CBE EQ PUSH2 0x3C8 JUMPI DUP1 PUSH4 0x83B202D7 EQ PUSH2 0x3DD JUMPI PUSH1 0x0 DUP1 REVERT JUMPDEST DUP1 PUSH4 0x485CC955 EQ PUSH2 0x320 JUMPI DUP1 PUSH4 0x4F1EF286 EQ PUSH2 0x340 JUMPI DUP1 PUSH4 0x52D1902D EQ PUSH2 0x353 JUMPI DUP1 PUSH4 0x55EF7F97 EQ PUSH2 0x368 JUMPI PUSH1 0x0 DUP1 REVERT JUMPDEST DUP1 PUSH4 0x2F2FF15D GT PUSH2 0x1B6 JUMPI DUP1 PUSH4 0x2F2FF15D EQ PUSH2 0x2A0 JUMPI DUP1 PUSH4 0x30BC2875 EQ PUSH2 0x2C0 JUMPI DUP1 PUSH4 0x36568ABE EQ PUSH2 0x2E0 JUMPI DUP1 PUSH4 0x3747D987 EQ PUSH2 0x300 JUMPI PUSH1 0x0 DUP1 REVERT JUMPDEST DUP1 PUSH4 0x1FFC9A7 EQ PUSH2 0x1E8 JUMPI DUP1 PUSH4 0x248A9CA3 EQ PUSH2 0x21D JUMPI DUP1 PUSH4 0x26DADAD9 EQ PUSH2 0x24B JUMPI DUP1 PUSH4 0x2C81A318 EQ PUSH2 0x27E JUMPI JUMPDEST PUSH1 0x0 DUP1 REVERT JUMPDEST CALLVALUE DUP1 ISZERO PUSH2 0x1F4 JUMPI PUSH1 0x0 DUP1 REVERT JUMPDEST POP PUSH2 0x208 PUSH2 0x203 CALLDATASIZE PUSH1 0x4 PUSH2 0x2219 JUMP JUMPDEST PUSH2 0x741 JUMP JUMPDEST PUSH1 0x40 MLOAD SWAP1 ISZERO ISZERO DUP2 MSTORE PUSH1 0x20 ADD JUMPDEST PUSH1 0x40 MLOAD DUP1 SWAP2 SUB SWAP1 RETURN JUMPDEST CALLVALUE DUP1 ISZERO PUSH2 0x229 JUMPI PUSH1 0x0 DUP1 REVERT JUMPDEST POP PUSH2 0x23D PUSH2 0x238 CALLDATASIZE PUSH1 0x4 PUSH2 0x2243 JUMP JUMPDEST PUSH2 0x778 JUMP JUMPDEST PUSH1 0x40 MLOAD SWAP1 DUP2 MSTORE PUSH1 0x20 ADD PUSH2 0x214 JUMP JUMPDEST CALLVALUE DUP1 ISZERO PUSH2 0x257 JUMPI PUSH1 0x0 DUP1 REVERT JUMPDEST POP PUSH2 0x26B PUSH2 0x266 CALLDATASIZE PUSH1 0x4 PUSH2 0x2243 JUMP JUMPDEST PUSH2 0x79A JUMP JUMPDEST PUSH1 0x40 MLOAD PUSH2 0xFFFF SWAP1 SWAP2 AND DUP2 MSTORE PUSH1 0x20 ADD PUSH2 0x214 JUMP JUMPDEST CALLVALUE DUP1 ISZERO PUSH2 0x28A JUMPI PUSH1 0x0 DUP1 REVERT JUMPDEST POP PUSH2 0x29E PUSH2 0x299 CALLDATASIZE PUSH1 0x4 PUSH2 0x2284 JUMP JUMPDEST PUSH2 0x7C8 JUMP JUMPDEST STOP JUMPDEST CALLVALUE DUP1 ISZERO PUSH2 0x2AC JUMPI PUSH1 0x0 DUP1 REVERT JUMPDEST POP PUSH2 0x29E PUSH2 0x2BB CALLDATASIZE PUSH1 0x4 PUSH2 0x22CE JUMP JUMPDEST PUSH2 0x8A0 JUMP JUMPDEST CALLVALUE DUP1 ISZERO PUSH2 0x2CC JUMPI PUSH1 0x0 DUP1 REVERT JUMPDEST POP PUSH2 0x29E PUSH2 0x2DB CALLDATASIZE PUSH1 0x4 PUSH2 0x22F1 JUMP JUMPDEST PUSH2 0x8C2 JUMP JUMPDEST CALLVALUE DUP1 ISZERO PUSH2 0x2EC JUMPI PUSH1 0x0 DUP1 REVERT JUMPDEST POP PUSH2 0x29E PUSH2 0x2FB CALLDATASIZE PUSH1 0x4 PUSH2 0x22CE JUMP JUMPDEST PUSH2 0x974 JUMP JUMPDEST CALLVALUE DUP1 ISZERO PUSH2 0x30C JUMPI PUSH1 0x0 DUP1 REVERT JUMPDEST POP PUSH2 0x23D PUSH2 0x31B CALLDATASIZE PUSH1 0x4 PUSH2 0x2334 JUMP JUMPDEST PUSH2 0x9AC JUMP JUMPDEST CALLVALUE DUP1 ISZERO PUSH2 0x32C JUMPI PUSH1 0x0 DUP1 REVERT JUMPDEST POP PUSH2 0x29E PUSH2 0x33B CALLDATASIZE PUSH1 0x4 PUSH2 0x235E JUMP JUMPDEST PUSH2 0x9DD JUMP JUMPDEST PUSH2 0x29E PUSH2 0x34E CALLDATASIZE PUSH1 0x4 PUSH2 0x239E JUMP JUMPDEST PUSH2 0xBA7 JUMP JUMPDEST CALLVALUE DUP1 ISZERO PUSH2 0x35F JUMPI PUSH1 0x0 DUP1 REVERT JUMPDEST POP PUSH2 0x23D PUSH2 0xBC6 JUMP JUMPDEST CALLVALUE DUP1 ISZERO PUSH2 0x374 JUMPI PUSH1 0x0 DUP1 REVERT JUMPDEST POP PUSH2 0x26B PUSH2 0x383 CALLDATASIZE PUSH1 0x4 PUSH2 0x2243 JUMP JUMPDEST PUSH2 0xBE3 JUMP JUMPDEST CALLVALUE DUP1 ISZERO PUSH2 0x394 JUMPI PUSH1 0x0 DUP1 REVERT JUMPDEST POP PUSH2 0x29E PUSH2 0x3A3 CALLDATASIZE PUSH1 0x4 PUSH2 0x24A7 JUMP JUMPDEST PUSH2 0xBF3 JUMP JUMPDEST CALLVALUE DUP1 ISZERO PUSH2 0x3B4 JUMPI PUSH1 0x0 DUP1 REVERT JUMPDEST POP PUSH2 0x23D PUSH2 0x3C3 CALLDATASIZE PUSH1 0x4 PUSH2 0x255E JUMP JUMPDEST PUSH2 0xD59 JUMP JUMPDEST CALLVALUE DUP1 ISZERO PUSH2 0x3D4 JUMPI PUSH1 0x0 DUP1 REVERT JUMPDEST POP PUSH1 0x6 SLOAD PUSH2 0x23D JUMP JUMPDEST CALLVALUE DUP1 ISZERO PUSH2 0x3E9 JUMPI PUSH1 0x0 DUP1 REVERT JUMPDEST POP PUSH2 0x208 PUSH2 0x3F8 CALLDATASIZE PUSH1 0x4 PUSH2 0x25D9 JUMP JUMPDEST PUSH2 0x12E0 JUMP JUMPDEST CALLVALUE DUP1 ISZERO PUSH2 0x409 JUMPI PUSH1 0x0 DUP1 REVERT JUMPDEST POP PUSH1 0x0 SLOAD PUSH2 0x41D SWAP1 PUSH1 0x1 PUSH1 0x1 PUSH1 0xA0 SHL SUB AND DUP2 JUMP JUMPDEST PUSH1 0x40 MLOAD PUSH1 0x1 PUSH1 0x1 PUSH1 0xA0 SHL SUB SWAP1 SWAP2 AND DUP2 MSTORE PUSH1 0x20 ADD PUSH2 0x214 JUMP JUMPDEST CALLVALUE DUP1 ISZERO PUSH2 0x441 JUMPI PUSH1 0x0 DUP1 REVERT JUMPDEST POP PUSH2 0x208 PUSH2 0x450 CALLDATASIZE PUSH1 0x4 PUSH2 0x22CE JUMP JUMPDEST PUSH2 0x13AA JUMP JUMPDEST CALLVALUE DUP1 ISZERO PUSH2 0x461 JUMPI PUSH1 0x0 DUP1 REVERT JUMPDEST POP PUSH1 0x9 SLOAD PUSH2 0x23D JUMP JUMPDEST CALLVALUE DUP1 ISZERO PUSH2 0x476 JUMPI PUSH1 0x0 DUP1 REVERT JUMPDEST POP PUSH2 0x23D PUSH1 0x0 DUP2 JUMP JUMPDEST CALLVALUE DUP1 ISZERO PUSH2 0x48B JUMPI PUSH1 0x0 DUP1 REVERT JUMPDEST POP PUSH2 0x4B0 PUSH1 0x40 MLOAD DUP1 PUSH1 0x40 ADD PUSH1 0x40 MSTORE DUP1 PUSH1 0x5 DUP2 MSTORE PUSH1 0x20 ADD PUSH5 0x352E302E3 PUSH1 0xDC SHL DUP2 MSTORE POP DUP2 JUMP JUMPDEST PUSH1 0x40 MLOAD PUSH2 0x214 SWAP2 SWAP1 PUSH2 0x2668 JUMP JUMPDEST CALLVALUE DUP1 ISZERO PUSH2 0x4C9 JUMPI PUSH1 0x0 DUP1 REVERT JUMPDEST POP PUSH2 0x23D PUSH2 0x4D8 CALLDATASIZE PUSH1 0x4 PUSH2 0x267B JUMP JUMPDEST PUSH2 0xFFFF AND PUSH1 0x0 SWAP1 DUP2 MSTORE PUSH1 0x7 PUSH1 0x20 MSTORE PUSH1 0x40 SWAP1 KECCAK256 SLOAD SWAP1 JUMP JUMPDEST CALLVALUE DUP1 ISZERO PUSH2 0x4FA JUMPI PUSH1 0x0 DUP1 REVERT JUMPDEST POP PUSH2 0x41D PUSH2 0x509 CALLDATASIZE PUSH1 0x4 PUSH2 0x2243 JUMP JUMPDEST PUSH2 0x13E2 JUMP JUMPDEST CALLVALUE DUP1 ISZERO PUSH2 0x51A JUMPI PUSH1 0x0 DUP1 REVERT JUMPDEST POP PUSH2 0x52E PUSH2 0x529 CALLDATASIZE PUSH1 0x4 PUSH2 0x2696 JUMP JUMPDEST PUSH2 0x140C JUMP JUMPDEST PUSH1 0x40 MLOAD PUSH2 0x214 SWAP4 SWAP3 SWAP2 SWAP1 PUSH2 0x26B1 JUMP JUMPDEST CALLVALUE DUP1 ISZERO PUSH2 0x549 JUMPI PUSH1 0x0 DUP1 REVERT JUMPDEST POP PUSH2 0x29E PUSH2 0x558 CALLDATASIZE PUSH1 0x4 PUSH2 0x2243 JUMP JUMPDEST PUSH2 0x1547 JUMP JUMPDEST CALLVALUE DUP1 ISZERO PUSH2 0x569 JUMPI PUSH1 0x0 DUP1 REVERT JUMPDEST POP PUSH2 0x23D PUSH2 0x578 CALLDATASIZE PUSH1 0x4 PUSH2 0x2243 JUMP JUMPDEST PUSH2 0x177B JUMP JUMPDEST CALLVALUE DUP1 ISZERO PUSH2 0x589 JUMPI PUSH1 0x0 DUP1 REVERT JUMPDEST POP PUSH2 0x619 PUSH2 0x598 CALLDATASIZE PUSH1 0x4 PUSH2 0x2243 JUMP JUMPDEST PUSH1 0x5 PUSH1 0x20 MSTORE PUSH1 0x0 SWAP1 DUP2 MSTORE PUSH1 0x40 SWAP1 KECCAK256 DUP1 SLOAD PUSH1 0x1 DUP3 ADD SLOAD PUSH1 0x2 DUP4 ADD SLOAD PUSH1 0x3 DUP5 ADD SLOAD PUSH1 0x4 SWAP1 SWAP5 ADD SLOAD PUSH1 0x1 PUSH1 0x1 PUSH1 0xA0 SHL SUB DUP5 AND SWAP5 PUSH1 0x1 PUSH1 0xA0 SHL SWAP1 SWAP5 DIV PUSH1 0x1 PUSH1 0x1 PUSH1 0x40 SHL SUB SWAP1 DUP2 AND SWAP5 DUP2 DUP6 AND SWAP5 PUSH1 0x1 PUSH1 0x40 SHL DUP2 DIV PUSH4 0xFFFFFFFF AND SWAP5 PUSH1 0x1 PUSH1 0x60 SHL DUP3 DIV PUSH1 0xFF SWAP1 DUP2 AND SWAP6 PUSH1 0x1 PUSH1 0x68 SHL DUP5 DIV SWAP1 SWAP2 AND SWAP5 PUSH1 0x1 PUSH1 0x70 SHL SWAP1 SWAP4 DIV PUSH2 0xFFFF AND SWAP4 SWAP2 SWAP3 AND DUP11 JUMP JUMPDEST PUSH1 0x40 DUP1 MLOAD PUSH1 0x1 PUSH1 0x1 PUSH1 0xA0 SHL SUB SWAP1 SWAP12 AND DUP12 MSTORE PUSH1 0x1 PUSH1 0x1 PUSH1 0x40 SHL SUB SWAP10 DUP11 AND PUSH1 0x20 DUP13 ADD MSTORE SWAP8 DUP10 AND SWAP8 DUP11 ADD SWAP8 SWAP1 SWAP8 MSTORE PUSH4 0xFFFFFFFF SWAP1 SWAP6 AND PUSH1 0x60 DUP10 ADD MSTORE SWAP3 ISZERO ISZERO PUSH1 0x80 DUP9 ADD MSTORE SWAP1 ISZERO ISZERO PUSH1 0xA0 DUP8 ADD MSTORE PUSH2 0xFFFF AND PUSH1 0xC0 DUP7 ADD MSTORE PUSH1 0xE0 DUP6 ADD MSTORE PUSH2 0x100 DUP5 ADD MSTORE AND PUSH2 0x120 DUP3 ADD MSTORE PUSH2 0x140 ADD PUSH2 0x214 JUMP JUMPDEST CALLVALUE DUP1 ISZERO PUSH2 0x691 JUMPI PUSH1 0x0 DUP1 REVERT JUMPDEST POP PUSH2 0x29E PUSH2 0x6A0 CALLDATASIZE PUSH1 0x4 PUSH2 0x22CE JUMP JUMPDEST PUSH2 0x179C JUMP JUMPDEST CALLVALUE DUP1 ISZERO PUSH2 0x6B1 JUMPI PUSH1 0x0 DUP1 REVERT JUMPDEST POP PUSH2 0x26B PUSH2 0x6C0 CALLDATASIZE PUSH1 0x4 PUSH2 0x26F0 JUMP JUMPDEST PUSH2 0x17B8 JUMP JUMPDEST CALLVALUE DUP1 ISZERO PUSH2 0x6D1 JUMPI PUSH1 0x0 DUP1 REVERT JUMPDEST POP PUSH2 0x23D PUSH1 0x0 DUP1 MLOAD PUSH1 0x20 PUSH2 0x29CA DUP4 CODECOPY DUP2 MLOAD SWAP2 MSTORE DUP2 JUMP JUMPDEST CALLVALUE DUP1 ISZERO PUSH2 0x6F3 JUMPI PUSH1 0x0 DUP1 REVERT JUMPDEST POP PUSH2 0x29E PUSH2 0x702 CALLDATASIZE PUSH1 0x4 PUSH2 0x2284 JUMP JUMPDEST PUSH2 0x17F8 JUMP JUMPDEST CALLVALUE DUP1 ISZERO PUSH2 0x713 JUMPI PUSH1 0x0 DUP1 REVERT JUMPDEST POP PUSH2 0x727 PUSH2 0x722 CALLDATASIZE PUSH1 0x4 PUSH2 0x2712 JUMP JUMPDEST PUSH2 0x18A1 JUMP JUMPDEST PUSH1 0x40 DUP1 MLOAD SWAP3 DUP4 MSTORE PUSH4 0xFFFFFFFF SWAP1 SWAP2 AND PUSH1 0x20 DUP4 ADD MSTORE ADD PUSH2 0x214 JUMP JUMPDEST PUSH1 0x0 PUSH1 0x1 PUSH1 0x1 PUSH1 0xE0 SHL SUB NOT DUP3 AND PUSH4 0x7965DB0B PUSH1 0xE0 SHL EQ DUP1 PUSH2 0x772 JUMPI POP PUSH4 0x1FFC9A7 PUSH1 0xE0 SHL PUSH1 0x1 PUSH1 0x1 PUSH1 0xE0 SHL SUB NOT DUP4 AND EQ JUMPDEST SWAP3 SWAP2 POP POP JUMP JUMPDEST PUSH1 0x0 SWAP1 DUP2 MSTORE PUSH1 0x0 DUP1 MLOAD PUSH1 0x20 PUSH2 0x29EA DUP4 CODECOPY DUP2 MLOAD SWAP2 MSTORE PUSH1 0x20 MSTORE PUSH1 0x40 SWAP1 KECCAK256 PUSH1 0x1 ADD SLOAD SWAP1 JUMP JUMPDEST PUSH1 0x4 DUP2 PUSH1 0x2 DUP2 LT PUSH2 0x7AA JUMPI PUSH1 0x0 DUP1 REVERT JUMPDEST PUSH1 0x10 SWAP2 DUP3 DUP3 DIV ADD SWAP2 SWAP1 MOD PUSH1 0x2 MUL SWAP2 POP SLOAD SWAP1 PUSH2 0x100 EXP SWAP1 DIV PUSH2 0xFFFF AND DUP2 JUMP JUMPDEST PUSH1 0x0 PUSH2 0x7D3 DUP2 PUSH2 0x1B01 JUMP JUMPDEST PUSH1 0x2 DUP4 PUSH1 0xFF AND LT PUSH2 0x816 JUMPI PUSH1 0x40 MLOAD PUSH3 0x461BCD PUSH1 0xE5 SHL DUP2 MSTORE PUSH1 0x20 PUSH1 0x4 DUP3 ADD MSTORE PUSH1 0x8 PUSH1 0x24 DUP3 ADD MSTORE PUSH8 0x189859081CDB1BDD PUSH1 0xC2 SHL PUSH1 0x44 DUP3 ADD MSTORE PUSH1 0x64 ADD JUMPDEST PUSH1 0x40 MLOAD DUP1 SWAP2 SUB SWAP1 REVERT JUMPDEST PUSH2 0x2710 DUP3 PUSH2 0xFFFF AND LT ISZERO PUSH2 0x85F JUMPI PUSH1 0x40 MLOAD PUSH3 0x461BCD PUSH1 0xE5 SHL DUP2 MSTORE PUSH1 0x20 PUSH1 0x4 DUP3 ADD MSTORE PUSH1 0x10 PUSH1 0x24 DUP3 ADD MSTORE PUSH16 0xDAEAE6E840C4CA407C7A40625C6060F PUSH1 0x83 SHL PUSH1 0x44 DUP3 ADD MSTORE PUSH1 0x64 ADD PUSH2 0x80D JUMP JUMPDEST DUP2 PUSH1 0x3 DUP5 PUSH1 0xFF AND PUSH1 0x2 DUP2 LT PUSH2 0x876 JUMPI PUSH2 0x876 PUSH2 0x273F JUMP JUMPDEST PUSH1 0x10 SWAP2 DUP3 DUP3 DIV ADD SWAP2 SWAP1 MOD PUSH1 0x2 MUL PUSH2 0x100 EXP DUP2 SLOAD DUP2 PUSH2 0xFFFF MUL NOT AND SWAP1 DUP4 PUSH2 0xFFFF AND MUL OR SWAP1 SSTORE POP POP POP POP JUMP JUMPDEST PUSH2 0x8A9 DUP3 PUSH2 0x778 JUMP JUMPDEST PUSH2 0x8B2 DUP2 PUSH2 0x1B01 JUMP JUMPDEST PUSH2 0x8BC DUP4 DUP4 PUSH2 0x1B0E JUMP JUMPDEST POP POP POP POP JUMP JUMPDEST PUSH1 0x0 PUSH2 0x8CD DUP2 PUSH2 0x1B01 JUMP JUMPDEST PUSH1 0x2 DUP5 PUSH1 0xFF AND LT PUSH2 0x90D JUMPI PUSH1 0x40 MLOAD PUSH3 0x461BCD PUSH1 0xE5 SHL DUP2 MSTORE PUSH1 0x20 PUSH1 0x4 DUP3 ADD MSTORE PUSH1 0xA PUSH1 0x24 DUP3 ADD MSTORE PUSH10 0x189859081C195C9A5BD9 PUSH1 0xB2 SHL PUSH1 0x44 DUP3 ADD MSTORE PUSH1 0x64 ADD PUSH2 0x80D JUMP JUMPDEST DUP3 PUSH1 0x1 DUP6 PUSH1 0xFF AND PUSH1 0x2 DUP2 LT PUSH2 0x924 JUMPI PUSH2 0x924 PUSH2 0x273F JUMP JUMPDEST ADD DUP1 SLOAD PUSH2 0xFFFF NOT AND PUSH2 0xFFFF SWAP3 SWAP1 SWAP3 AND SWAP2 SWAP1 SWAP2 OR SWAP1 SSTORE DUP2 PUSH1 0x1 PUSH1 0xFF DUP7 AND PUSH1 0x2 DUP2 LT PUSH2 0x950 JUMPI PUSH2 0x950 PUSH2 0x273F JUMP JUMPDEST ADD DUP1 SLOAD PUSH2 0xFFFF SWAP3 SWAP1 SWAP3 AND PUSH3 0x10000 MUL PUSH4 0xFFFF0000 NOT SWAP1 SWAP3 AND SWAP2 SWAP1 SWAP2 OR SWAP1 SSTORE POP POP POP POP JUMP JUMPDEST PUSH1 0x1 PUSH1 0x1 PUSH1 0xA0 SHL SUB DUP2 AND CALLER EQ PUSH2 0x99D JUMPI PUSH1 0x40 MLOAD PUSH4 0x334BD919 PUSH1 0xE1 SHL DUP2 MSTORE PUSH1 0x4 ADD PUSH1 0x40 MLOAD DUP1 SWAP2 SUB SWAP1 REVERT JUMPDEST PUSH2 0x9A7 DUP3 DUP3 PUSH2 0x1BBA JUMP JUMPDEST POP POP POP JUMP JUMPDEST PUSH1 0x7 PUSH1 0x20 MSTORE DUP2 PUSH1 0x0 MSTORE PUSH1 0x40 PUSH1 0x0 KECCAK256 DUP2 DUP2 SLOAD DUP2 LT PUSH2 0x9C8 JUMPI PUSH1 0x0 DUP1 REVERT JUMPDEST SWAP1 PUSH1 0x0 MSTORE PUSH1 0x20 PUSH1 0x0 KECCAK256 ADD PUSH1 0x0 SWAP2 POP SWAP2 POP POP SLOAD DUP2 JUMP JUMPDEST PUSH1 0x0 PUSH2 0x9E7 PUSH2 0x1C36 JUMP JUMPDEST DUP1 SLOAD SWAP1 SWAP2 POP PUSH1 0xFF PUSH1 0x1 PUSH1 0x40 SHL DUP3 DIV AND ISZERO SWAP1 PUSH1 0x1 PUSH1 0x1 PUSH1 0x40 SHL SUB AND PUSH1 0x0 DUP2 ISZERO DUP1 ISZERO PUSH2 0xA0E JUMPI POP DUP3 JUMPDEST SWAP1 POP PUSH1 0x0 DUP3 PUSH1 0x1 PUSH1 0x1 PUSH1 0x40 SHL SUB AND PUSH1 0x1 EQ DUP1 ISZERO PUSH2 0xA2A JUMPI POP ADDRESS EXTCODESIZE ISZERO JUMPDEST SWAP1 POP DUP2 ISZERO DUP1 ISZERO PUSH2 0xA38 JUMPI POP DUP1 ISZERO JUMPDEST ISZERO PUSH2 0xA56 JUMPI PUSH1 0x40 MLOAD PUSH4 0xF92EE8A9 PUSH1 0xE0 SHL DUP2 MSTORE PUSH1 0x4 ADD PUSH1 0x40 MLOAD DUP1 SWAP2 SUB SWAP1 REVERT JUMPDEST DUP5 SLOAD PUSH8 0xFFFFFFFFFFFFFFFF NOT AND PUSH1 0x1 OR DUP6 SSTORE DUP4 ISZERO PUSH2 0xA80 JUMPI DUP5 SLOAD PUSH1 0xFF PUSH1 0x40 SHL NOT AND PUSH1 0x1 PUSH1 0x40 SHL OR DUP6 SSTORE JUMPDEST PUSH2 0xA88 PUSH2 0x1C5F JUMP JUMPDEST PUSH2 0xA93 PUSH1 0x0 DUP9 PUSH2 0x1B0E JUMP JUMPDEST POP PUSH2 0xAAC PUSH1 0x0 DUP1 MLOAD PUSH1 0x20 PUSH2 0x29CA DUP4 CODECOPY DUP2 MLOAD SWAP2 MSTORE DUP9 PUSH2 0x1B0E JUMP JUMPDEST POP PUSH1 0x0 DUP1 SLOAD PUSH1 0x1 PUSH1 0x1 PUSH1 0xA0 SHL SUB NOT AND PUSH1 0x1 PUSH1 0x1 PUSH1 0xA0 SHL SUB DUP9 AND OR SWAP1 SSTORE PUSH1 0x40 DUP1 MLOAD PUSH1 0x80 DUP2 ADD DUP3 MSTORE PUSH1 0xC8 DUP2 DUP4 ADD DUP2 DUP2 MSTORE PUSH1 0x64 PUSH1 0x60 DUP5 ADD MSTORE DUP3 MSTORE DUP3 MLOAD DUP1 DUP5 ADD SWAP1 SWAP4 MSTORE PUSH2 0x190 DUP4 MSTORE PUSH1 0x20 DUP1 DUP5 ADD SWAP2 SWAP1 SWAP2 MSTORE DUP2 ADD SWAP2 SWAP1 SWAP2 MSTORE PUSH2 0xB0D SWAP1 PUSH1 0x1 SWAP1 PUSH1 0x2 PUSH2 0x2115 JUMP JUMPDEST POP PUSH1 0x40 DUP1 MLOAD DUP1 DUP3 ADD SWAP1 SWAP2 MSTORE PUSH2 0x2CEC DUP2 MSTORE PUSH2 0x2AF8 PUSH1 0x20 DUP3 ADD MSTORE PUSH2 0xB33 SWAP1 PUSH1 0x3 SWAP1 PUSH1 0x2 PUSH2 0x215F JUMP JUMPDEST POP PUSH1 0x40 DUP1 MLOAD DUP1 DUP3 ADD SWAP1 SWAP2 MSTORE PUSH2 0x2AF8 DUP1 DUP3 MSTORE PUSH1 0x20 DUP3 ADD MSTORE PUSH2 0xB57 SWAP1 PUSH1 0x4 SWAP1 PUSH1 0x2 PUSH2 0x215F JUMP JUMPDEST POP DUP4 ISZERO PUSH2 0xB9E JUMPI DUP5 SLOAD PUSH1 0xFF PUSH1 0x40 SHL NOT AND DUP6 SSTORE PUSH1 0x40 MLOAD PUSH1 0x1 DUP2 MSTORE PUSH32 0xC7F505B2F371AE2175EE4913F4499E1F2633A7B5936321EED1CDAEB6115181D2 SWAP1 PUSH1 0x20 ADD PUSH1 0x40 MLOAD DUP1 SWAP2 SUB SWAP1 LOG1 JUMPDEST POP POP POP POP POP POP POP JUMP JUMPDEST PUSH2 0xBAF PUSH2 0x1C69 JUMP JUMPDEST PUSH2 0xBB8 DUP3 PUSH2 0x1D0E JUMP JUMPDEST PUSH2 0xBC2 DUP3 DUP3 PUSH2 0x1D19 JUMP JUMPDEST POP POP JUMP JUMPDEST PUSH1 0x0 PUSH2 0xBD0 PUSH2 0x1DD6 JUMP JUMPDEST POP PUSH1 0x0 DUP1 MLOAD PUSH1 0x20 PUSH2 0x29AA DUP4 CODECOPY DUP2 MLOAD SWAP2 MSTORE SWAP1 JUMP JUMPDEST PUSH1 0x3 DUP2 PUSH1 0x2 DUP2 LT PUSH2 0x7AA JUMPI PUSH1 0x0 DUP1 REVERT JUMPDEST PUSH1 0x1 PUSH1 0x1 PUSH1 0xA0 SHL SUB DUP6 AND CALLER EQ DUP1 PUSH2 0xC1D JUMPI POP PUSH2 0xC1D PUSH1 0x0 DUP1 MLOAD PUSH1 0x20 PUSH2 0x29CA DUP4 CODECOPY DUP2 MLOAD SWAP2 MSTORE CALLER PUSH2 0x13AA JUMP JUMPDEST PUSH2 0xC57 JUMPI PUSH1 0x40 MLOAD PUSH3 0x461BCD PUSH1 0xE5 SHL DUP2 MSTORE PUSH1 0x20 PUSH1 0x4 DUP3 ADD MSTORE PUSH1 0xB PUSH1 0x24 DUP3 ADD MSTORE PUSH11 0x1B9BDD08185B1B1BDDD959 PUSH1 0xAA SHL PUSH1 0x44 DUP3 ADD MSTORE PUSH1 0x64 ADD PUSH2 0x80D JUMP JUMPDEST PUSH1 0x1 PUSH1 0x1 PUSH1 0xA0 SHL SUB DUP6 AND PUSH1 0x0 SWAP1 DUP2 MSTORE PUSH1 0x8 PUSH1 0x20 MSTORE PUSH1 0x40 DUP2 KECCAK256 PUSH1 0x2 DUP2 ADD SLOAD SWAP1 SWAP2 PUSH1 0x1 PUSH1 0x1 PUSH1 0x40 SHL SUB SWAP1 SWAP2 AND SWAP1 SUB PUSH2 0xCF1 JUMPI PUSH1 0x2 DUP2 ADD DUP1 SLOAD PUSH8 0xFFFFFFFFFFFFFFFF NOT AND TIMESTAMP PUSH1 0x1 PUSH1 0x1 PUSH1 0x40 SHL SUB AND OR SWAP1 SSTORE PUSH1 0x9 DUP1 SLOAD PUSH1 0x1 DUP2 ADD DUP3 SSTORE PUSH1 0x0 SWAP2 SWAP1 SWAP2 MSTORE PUSH32 0x6E1540171B6C0C960B71A7020D9F60077F6AF931A8BBF590DA0223DACF75C7AF ADD DUP1 SLOAD PUSH1 0x1 PUSH1 0x1 PUSH1 0xA0 SHL SUB NOT AND PUSH1 0x1 PUSH1 0x1 PUSH1 0xA0 SHL SUB DUP9 AND OR SWAP1 SSTORE JUMPDEST DUP1 PUSH2 0xCFD DUP6 DUP8 DUP4 PUSH2 0x27DF JUMP JUMPDEST POP PUSH1 0x1 DUP2 ADD PUSH2 0xD0D DUP4 DUP6 DUP4 PUSH2 0x27DF JUMP JUMPDEST POP DUP6 PUSH1 0x1 PUSH1 0x1 PUSH1 0xA0 SHL SUB AND PUSH32 0x7F2BA702EC91844C5877A1EF0D30C0928B2B2EBD6A93E70D85D591A17544D207 DUP7 DUP7 PUSH1 0x40 MLOAD PUSH2 0xD49 SWAP3 SWAP2 SWAP1 PUSH2 0x289F JUMP JUMPDEST PUSH1 0x40 MLOAD DUP1 SWAP2 SUB SWAP1 LOG2 POP POP POP POP POP POP JUMP JUMPDEST PUSH1 0x0 PUSH1 0x1 PUSH1 0x1 PUSH1 0xA0 SHL SUB DUP8 AND CALLER EQ DUP1 PUSH2 0xD85 JUMPI POP PUSH2 0xD85 PUSH1 0x0 DUP1 MLOAD PUSH1 0x20 PUSH2 0x29CA DUP4 CODECOPY DUP2 MLOAD SWAP2 MSTORE CALLER PUSH2 0x13AA JUMP JUMPDEST PUSH2 0xDCA JUMPI PUSH1 0x40 MLOAD PUSH3 0x461BCD PUSH1 0xE5 SHL DUP2 MSTORE PUSH1 0x20 PUSH1 0x4 DUP3 ADD MSTORE PUSH1 0x16 PUSH1 0x24 DUP3 ADD MSTORE PUSH22 0x3737BA1036B2B6B132B91037B91037B832B930BA37B9 PUSH1 0x51 SHL PUSH1 0x44 DUP3 ADD MSTORE PUSH1 0x64 ADD PUSH2 0x80D JUMP JUMPDEST DUP5 PUSH1 0x1 PUSH1 0x1 PUSH1 0x40 SHL SUB AND DUP5 PUSH1 0x1 PUSH1 0x1 PUSH1 0x40 SHL SUB AND GT PUSH2 0xE1C JUMPI PUSH1 0x40 MLOAD PUSH3 0x461BCD PUSH1 0xE5 SHL DUP2 MSTORE PUSH1 0x20 PUSH1 0x4 DUP3 ADD MSTORE PUSH1 0xE PUSH1 0x24 DUP3 ADD MSTORE PUSH14 0x6261642074696D652072616E6765 PUSH1 0x90 SHL PUSH1 0x44 DUP3 ADD MSTORE PUSH1 0x64 ADD PUSH2 0x80D JUMP JUMPDEST PUSH2 0xE27 DUP7 DUP7 DUP7 PUSH2 0x12E0 JUMP JUMPDEST PUSH2 0xE66 JUMPI PUSH1 0x40 MLOAD PUSH3 0x461BCD PUSH1 0xE5 SHL DUP2 MSTORE PUSH1 0x20 PUSH1 0x4 DUP3 ADD MSTORE PUSH1 0x10 PUSH1 0x24 DUP3 ADD MSTORE PUSH16 0x736C6F7420756E617661696C61626C65 PUSH1 0x80 SHL PUSH1 0x44 DUP3 ADD MSTORE PUSH1 0x64 ADD PUSH2 0x80D JUMP JUMPDEST PUSH1 0x0 DUP1 PUSH2 0xE73 DUP6 DUP6 PUSH2 0x18A1 JUMP JUMPDEST SWAP2 POP SWAP2 POP PUSH1 0x0 DUP2 PUSH4 0xFFFFFFFF AND GT PUSH2 0xEB8 JUMPI PUSH1 0x40 MLOAD PUSH3 0x461BCD PUSH1 0xE5 SHL DUP2 MSTORE PUSH1 0x20 PUSH1 0x4 DUP3 ADD MSTORE PUSH1 0x8 PUSH1 0x24 DUP3 ADD MSTORE PUSH8 0x6E6F20686F757273 PUSH1 0xC0 SHL PUSH1 0x44 DUP3 ADD MSTORE PUSH1 0x64 ADD PUSH2 0x80D JUMP JUMPDEST PUSH1 0x0 PUSH2 0xECB DUP4 PUSH7 0x2386F26FC10000 PUSH2 0x28E4 JUMP JUMPDEST PUSH1 0x40 MLOAD PUSH12 0xFFFFFFFFFFFFFFFFFFFFFFFF NOT PUSH1 0x60 DUP14 SWAP1 SHL AND PUSH1 0x20 DUP3 ADD MSTORE PUSH1 0x1 PUSH1 0x1 PUSH1 0xF0 SHL SUB NOT PUSH1 0xF0 DUP13 SWAP1 SHL AND PUSH1 0x34 DUP3 ADD MSTORE PUSH1 0x1 PUSH1 0x1 PUSH1 0xC0 SHL SUB NOT PUSH1 0xC0 DUP12 DUP2 SHL DUP3 AND PUSH1 0x36 DUP5 ADD MSTORE DUP11 SWAP1 SHL AND PUSH1 0x3E DUP3 ADD MSTORE TIMESTAMP PUSH1 0x46 DUP3 ADD MSTORE SWAP1 SWAP2 POP PUSH1 0x66 ADD PUSH1 0x40 DUP1 MLOAD PUSH1 0x1F NOT DUP2 DUP5 SUB ADD DUP2 MSTORE SWAP2 DUP2 MSTORE DUP2 MLOAD PUSH1 0x20 SWAP3 DUP4 ADD KECCAK256 PUSH1 0x0 DUP2 DUP2 MSTORE PUSH1 0x5 SWAP1 SWAP4 MSTORE SWAP2 KECCAK256 SLOAD SWAP1 SWAP5 POP PUSH1 0x1 PUSH1 0x1 PUSH1 0xA0 SHL SUB AND ISZERO PUSH2 0xF8E JUMPI PUSH1 0x40 MLOAD PUSH3 0x461BCD PUSH1 0xE5 SHL DUP2 MSTORE PUSH1 0x20 PUSH1 0x4 DUP3 ADD MSTORE PUSH1 0x8 PUSH1 0x24 DUP3 ADD MSTORE PUSH8 0x647570207472697 PUSH1 0xC4 SHL PUSH1 0x44 DUP3 ADD MSTORE PUSH1 0x64 ADD PUSH2 0x80D JUMP JUMPDEST PUSH1 0x0 DUP1 SLOAD PUSH1 0x40 MLOAD PUSH4 0xE023B7E5 PUSH1 0xE0 SHL DUP2 MSTORE PUSH1 0x1 PUSH1 0x1 PUSH1 0xA0 SHL SUB DUP14 DUP2 AND PUSH1 0x4 DUP4 ADD MSTORE PUSH1 0x24 DUP3 ADD DUP6 SWAP1 MSTORE PUSH1 0x44 DUP3 ADD DUP9 SWAP1 MSTORE SWAP1 SWAP2 AND SWAP1 PUSH4 0xE023B7E5 SWAP1 PUSH1 0x64 ADD PUSH1 0x20 PUSH1 0x40 MLOAD DUP1 DUP4 SUB DUP2 PUSH1 0x0 DUP8 GAS CALL ISZERO DUP1 ISZERO PUSH2 0xFE9 JUMPI RETURNDATASIZE PUSH1 0x0 DUP1 RETURNDATACOPY RETURNDATASIZE PUSH1 0x0 REVERT JUMPDEST POP POP POP POP PUSH1 0x40 MLOAD RETURNDATASIZE PUSH1 0x1F NOT PUSH1 0x1F DUP3 ADD AND DUP3 ADD DUP1 PUSH1 0x40 MSTORE POP DUP2 ADD SWAP1 PUSH2 0x100D SWAP2 SWAP1 PUSH2 0x28FB JUMP JUMPDEST SWAP1 POP PUSH1 0x40 MLOAD DUP1 PUSH2 0x140 ADD PUSH1 0x40 MSTORE DUP1 DUP13 PUSH1 0x1 PUSH1 0x1 PUSH1 0xA0 SHL SUB AND DUP2 MSTORE PUSH1 0x20 ADD DUP11 PUSH1 0x1 PUSH1 0x1 PUSH1 0x40 SHL SUB AND DUP2 MSTORE PUSH1 0x20 ADD DUP10 PUSH1 0x1 PUSH1 0x1 PUSH1 0x40 SHL SUB AND DUP2 MSTORE PUSH1 0x20 ADD DUP5 PUSH4 0xFFFFFFFF AND DUP2 MSTORE PUSH1 0x20 ADD DUP8 ISZERO ISZERO DUP2 MSTORE PUSH1 0x20 ADD PUSH1 0x0 ISZERO ISZERO DUP2 MSTORE PUSH1 0x20 ADD DUP12 PUSH2 0xFFFF AND DUP2 MSTORE PUSH1 0x20 ADD DUP6 DUP2 MSTORE PUSH1 0x20 ADD DUP4 DUP2 MSTORE PUSH1 0x20 ADD DUP3 PUSH1 0x1 PUSH1 0x1 PUSH1 0x40 SHL SUB AND DUP2 MSTORE POP PUSH1 0x5 PUSH1 0x0 DUP8 DUP2 MSTORE PUSH1 0x20 ADD SWAP1 DUP2 MSTORE PUSH1 0x20 ADD PUSH1 0x0 KECCAK256 PUSH1 0x0 DUP3 ADD MLOAD DUP2 PUSH1 0x0 ADD PUSH1 0x0 PUSH2 0x100 EXP DUP2 SLOAD DUP2 PUSH1 0x1 PUSH1 0x1 PUSH1 0xA0 SHL SUB MUL NOT AND SWAP1 DUP4 PUSH1 0x1 PUSH1 0x1 PUSH1 0xA0 SHL SUB AND MUL OR SWAP1 SSTORE POP PUSH1 0x20 DUP3 ADD MLOAD DUP2 PUSH1 0x0 ADD PUSH1 0x14 PUSH2 0x100 EXP DUP2 SLOAD DUP2 PUSH1 0x1 PUSH1 0x1 PUSH1 0x40 SHL SUB MUL NOT AND SWAP1 DUP4 PUSH1 0x1 PUSH1 0x1 PUSH1 0x40 SHL SUB AND MUL OR SWAP1 SSTORE POP PUSH1 0x40 DUP3 ADD MLOAD DUP2 PUSH1 0x1 ADD PUSH1 0x0 PUSH2 0x100 EXP DUP2 SLOAD DUP2 PUSH1 0x1 PUSH1 0x1 PUSH1 0x40 SHL SUB MUL NOT AND SWAP1 DUP4 PUSH1 0x1 PUSH1 0x1 PUSH1 0x40 SHL SUB AND MUL OR SWAP1 SSTORE POP PUSH1 0x60 DUP3 ADD MLOAD DUP2 PUSH1 0x1 ADD PUSH1 0x8 PUSH2 0x100 EXP DUP2 SLOAD DUP2 PUSH4 0xFFFFFFFF MUL NOT AND SWAP1 DUP4 PUSH4 0xFFFFFFFF AND MUL OR SWAP1 SSTORE POP PUSH1 0x80 DUP3 ADD MLOAD DUP2 PUSH1 0x1 ADD PUSH1 0xC PUSH2 0x100 EXP DUP2 SLOAD DUP2 PUSH1 0xFF MUL NOT AND SWAP1 DUP4 ISZERO ISZERO MUL OR SWAP1 SSTORE POP PUSH1 0xA0 DUP3 ADD MLOAD DUP2 PUSH1 0x1 ADD PUSH1 0xD PUSH2 0x100 EXP DUP2 SLOAD DUP2 PUSH1 0xFF MUL NOT AND SWAP1 DUP4 ISZERO ISZERO MUL OR SWAP1 SSTORE POP PUSH1 0xC0 DUP3 ADD MLOAD DUP2 PUSH1 0x1 ADD PUSH1 0xE PUSH2 0x100 EXP DUP2 SLOAD DUP2 PUSH2 0xFFFF MUL NOT AND SWAP1 DUP4 PUSH2 0xFFFF AND MUL OR SWAP1 SSTORE POP PUSH1 0xE0 DUP3 ADD MLOAD DUP2 PUSH1 0x2 ADD SSTORE PUSH2 0x100 DUP3 ADD MLOAD DUP2 PUSH1 0x3 ADD SSTORE PUSH2 0x120 DUP3 ADD MLOAD DUP2 PUSH1 0x4 ADD PUSH1 0x0 PUSH2 0x100 EXP DUP2 SLOAD DUP2 PUSH1 0x1 PUSH1 0x1 PUSH1 0x40 SHL SUB MUL NOT AND SWAP1 DUP4 PUSH1 0x1 PUSH1 0x1 PUSH1 0x40 SHL SUB AND MUL OR SWAP1 SSTORE POP SWAP1 POP POP PUSH1 0x6 DUP6 SWAP1 DUP1 PUSH1 0x1 DUP2 SLOAD ADD DUP1 DUP3 SSTORE DUP1 SWAP2 POP POP PUSH1 0x1 SWAP1 SUB SWAP1 PUSH1 0x0 MSTORE PUSH1 0x20 PUSH1 0x0 KECCAK256 ADD PUSH1 0x0 SWAP1 SWAP2 SWAP1 SWAP2 SWAP1 SWAP2 POP SSTORE PUSH1 0x7 PUSH1 0x0 DUP12 PUSH2 0xFFFF AND PUSH2 0xFFFF AND DUP2 MSTORE PUSH1 0x20 ADD SWAP1 DUP2 MSTORE PUSH1 0x20 ADD PUSH1 0x0 KECCAK256 DUP6 SWAP1 DUP1 PUSH1 0x1 DUP2 SLOAD ADD DUP1 DUP3 SSTORE DUP1 SWAP2 POP POP PUSH1 0x1 SWAP1 SUB SWAP1 PUSH1 0x0 MSTORE PUSH1 0x20 PUSH1 0x0 KECCAK256 ADD PUSH1 0x0 SWAP1 SWAP2 SWAP1 SWAP2 SWAP1 SWAP2 POP SSTORE DUP10 PUSH2 0xFFFF AND DUP12 PUSH1 0x1 PUSH1 0x1 PUSH1 0xA0 SHL SUB AND DUP7 PUSH32 0x72C19AE8E66CBEDDCB6CB1BB44264BE531A305DE9739338948C0DFC01E37783 DUP6 DUP8 DUP15 DUP15 PUSH1 0x40 MLOAD PUSH2 0x12CA SWAP5 SWAP4 SWAP3 SWAP2 SWAP1 SWAP4 DUP5 MSTORE PUSH4 0xFFFFFFFF SWAP3 SWAP1 SWAP3 AND PUSH1 0x20 DUP5 ADD MSTORE PUSH1 0x1 PUSH1 0x1 PUSH1 0x40 SHL SUB SWAP1 DUP2 AND PUSH1 0x40 DUP5 ADD MSTORE AND PUSH1 0x60 DUP3 ADD MSTORE PUSH1 0x80 ADD SWAP1 JUMP JUMPDEST PUSH1 0x40 MLOAD DUP1 SWAP2 SUB SWAP1 LOG4 POP POP POP POP SWAP7 SWAP6 POP POP POP POP POP POP JUMP JUMPDEST PUSH2 0xFFFF DUP4 AND PUSH1 0x0 SWAP1 DUP2 MSTORE PUSH1 0x7 PUSH1 0x20 MSTORE PUSH1 0x40 DUP2 KECCAK256 DUP2 JUMPDEST DUP2 SLOAD DUP2 LT ISZERO PUSH2 0x139C JUMPI PUSH1 0x0 PUSH1 0x5 PUSH1 0x0 DUP5 DUP5 DUP2 SLOAD DUP2 LT PUSH2 0x1316 JUMPI PUSH2 0x1316 PUSH2 0x273F JUMP JUMPDEST SWAP1 PUSH1 0x0 MSTORE PUSH1 0x20 PUSH1 0x0 KECCAK256 ADD SLOAD DUP2 MSTORE PUSH1 0x20 ADD SWAP1 DUP2 MSTORE PUSH1 0x20 ADD PUSH1 0x0 KECCAK256 SWAP1 POP DUP1 PUSH1 0x1 ADD PUSH1 0xD SWAP1 SLOAD SWAP1 PUSH2 0x100 EXP SWAP1 DIV PUSH1 0xFF AND ISZERO PUSH2 0x134E JUMPI POP PUSH2 0x1394 JUMP JUMPDEST PUSH1 0x1 DUP2 ADD SLOAD PUSH1 0x1 PUSH1 0x1 PUSH1 0x40 SHL SUB SWAP1 DUP2 AND SWAP1 DUP8 AND LT DUP1 ISZERO PUSH2 0x1381 JUMPI POP DUP1 SLOAD PUSH1 0x1 PUSH1 0x1 PUSH1 0x40 SHL SUB DUP1 DUP8 AND PUSH1 0x1 PUSH1 0xA0 SHL SWAP1 SWAP3 DIV AND LT JUMPDEST ISZERO PUSH2 0x1392 JUMPI PUSH1 0x0 SWAP4 POP POP POP POP PUSH2 0x13A3 JUMP JUMPDEST POP JUMPDEST PUSH1 0x1 ADD PUSH2 0x12F5 JUMP JUMPDEST POP PUSH1 0x1 SWAP2 POP POP JUMPDEST SWAP4 SWAP3 POP POP POP JUMP JUMPDEST PUSH1 0x0 SWAP2 DUP3 MSTORE PUSH1 0x0 DUP1 MLOAD PUSH1 0x20 PUSH2 0x29EA DUP4 CODECOPY DUP2 MLOAD SWAP2 MSTORE PUSH1 0x20 SWAP1 DUP2 MSTORE PUSH1 0x40 DUP1 DUP5 KECCAK256 PUSH1 0x1 PUSH1 0x1 PUSH1 0xA0 SHL SUB SWAP4 SWAP1 SWAP4 AND DUP5 MSTORE SWAP2 SWAP1 MSTORE SWAP1 KECCAK256 SLOAD PUSH1 0xFF AND SWAP1 JUMP JUMPDEST PUSH1 0x9 DUP2 DUP2 SLOAD DUP2 LT PUSH2 0x13F2 JUMPI PUSH1 0x0 DUP1 REVERT JUMPDEST PUSH1 0x0 SWAP2 DUP3 MSTORE PUSH1 0x20 SWAP1 SWAP2 KECCAK256 ADD SLOAD PUSH1 0x1 PUSH1 0x1 PUSH1 0xA0 SHL SUB AND SWAP1 POP DUP2 JUMP JUMPDEST PUSH1 0x8 PUSH1 0x20 MSTORE PUSH1 0x0 SWAP1 DUP2 MSTORE PUSH1 0x40 SWAP1 KECCAK256 DUP1 SLOAD DUP2 SWAP1 PUSH2 0x1427 SWAP1 PUSH2 0x2755 JUMP JUMPDEST DUP1 PUSH1 0x1F ADD PUSH1 0x20 DUP1 SWAP2 DIV MUL PUSH1 0x20 ADD PUSH1 0x40 MLOAD SWAP1 DUP2 ADD PUSH1 0x40 MSTORE DUP1 SWAP3 SWAP2 SWAP1 DUP2 DUP2 MSTORE PUSH1 0x20 ADD DUP3 DUP1 SLOAD PUSH2 0x1453 SWAP1 PUSH2 0x2755 JUMP JUMPDEST DUP1 ISZERO PUSH2 0x14A0 JUMPI DUP1 PUSH1 0x1F LT PUSH2 0x1475 JUMPI PUSH2 0x100 DUP1 DUP4 SLOAD DIV MUL DUP4 MSTORE SWAP2 PUSH1 0x20 ADD SWAP2 PUSH2 0x14A0 JUMP JUMPDEST DUP3 ADD SWAP2 SWAP1 PUSH1 0x0 MSTORE PUSH1 0x20 PUSH1 0x0 KECCAK256 SWAP1 JUMPDEST DUP2 SLOAD DUP2 MSTORE SWAP1 PUSH1 0x1 ADD SWAP1 PUSH1 0x20 ADD DUP1 DUP4 GT PUSH2 0x1483 JUMPI DUP3 SWAP1 SUB PUSH1 0x1F AND DUP3 ADD SWAP2 JUMPDEST POP POP POP POP POP SWAP1 DUP1 PUSH1 0x1 ADD DUP1 SLOAD PUSH2 0x14B5 SWAP1 PUSH2 0x2755 JUMP JUMPDEST DUP1 PUSH1 0x1F ADD PUSH1 0x20 DUP1 SWAP2 DIV MUL PUSH1 0x20 ADD PUSH1 0x40 MLOAD SWAP1 DUP2 ADD PUSH1 0x40 MSTORE DUP1 SWAP3 SWAP2 SWAP1 DUP2 DUP2 MSTORE PUSH1 0x20 ADD DUP3 DUP1 SLOAD PUSH2 0x14E1 SWAP1 PUSH2 0x2755 JUMP JUMPDEST DUP1 ISZERO PUSH2 0x152E JUMPI DUP1 PUSH1 0x1F LT PUSH2 0x1503 JUMPI PUSH2 0x100 DUP1 DUP4 SLOAD DIV MUL DUP4 MSTORE SWAP2 PUSH1 0x20 ADD SWAP2 PUSH2 0x152E JUMP JUMPDEST DUP3 ADD SWAP2 SWAP1 PUSH1 0x0 MSTORE PUSH1 0x20 PUSH1 0x0 KECCAK256 SWAP1 JUMPDEST DUP2 SLOAD DUP2 MSTORE SWAP1 PUSH1 0x1 ADD SWAP1 PUSH1 0x20 ADD DUP1 DUP4 GT PUSH2 0x1511 JUMPI DUP3 SWAP1 SUB PUSH1 0x1F AND DUP3 ADD SWAP2 JUMPDEST POP POP POP PUSH1 0x2 SWAP1 SWAP4 ADD SLOAD SWAP2 SWAP3 POP POP PUSH1 0x1 PUSH1 0x1 PUSH1 0x40 SHL SUB AND DUP4 JUMP JUMPDEST PUSH1 0x0 DUP2 DUP2 MSTORE PUSH1 0x5 PUSH1 0x20 MSTORE PUSH1 0x40 SWAP1 KECCAK256 DUP1 SLOAD PUSH1 0x1 PUSH1 0x1 PUSH1 0xA0 SHL SUB AND PUSH2 0x159B JUMPI PUSH1 0x40 MLOAD PUSH3 0x461BCD PUSH1 0xE5 SHL DUP2 MSTORE PUSH1 0x20 PUSH1 0x4 DUP3 ADD MSTORE PUSH1 0xC PUSH1 0x24 DUP3 ADD MSTORE PUSH12 0x6E6F2073756368207472697 PUSH1 0xA4 SHL PUSH1 0x44 DUP3 ADD MSTORE PUSH1 0x64 ADD PUSH2 0x80D JUMP JUMPDEST DUP1 SLOAD PUSH1 0x1 PUSH1 0x1 PUSH1 0xA0 SHL SUB AND CALLER EQ DUP1 PUSH2 0x15C6 JUMPI POP PUSH2 0x15C6 PUSH1 0x0 DUP1 MLOAD PUSH1 0x20 PUSH2 0x29CA DUP4 CODECOPY DUP2 MLOAD SWAP2 MSTORE CALLER PUSH2 0x13AA JUMP JUMPDEST PUSH2 0x1600 JUMPI PUSH1 0x40 MLOAD PUSH3 0x461BCD PUSH1 0xE5 SHL DUP2 MSTORE PUSH1 0x20 PUSH1 0x4 DUP3 ADD MSTORE PUSH1 0xB PUSH1 0x24 DUP3 ADD MSTORE PUSH11 0x1B9BDD08185B1B1BDDD959 PUSH1 0xAA SHL PUSH1 0x44 DUP3 ADD MSTORE PUSH1 0x64 ADD PUSH2 0x80D JUMP JUMPDEST PUSH1 0x1 DUP2 ADD SLOAD PUSH1 0x1 PUSH1 0x68 SHL SWAP1 DIV PUSH1 0xFF AND ISZERO PUSH2 0x1650 JUMPI PUSH1 0x40 MLOAD PUSH3 0x461BCD PUSH1 0xE5 SHL DUP2 MSTORE PUSH1 0x20 PUSH1 0x4 DUP3 ADD MSTORE PUSH1 0x11 PUSH1 0x24 DUP3 ADD MSTORE PUSH17 0x185B1C9958591E4818D85B98D95B1B1959 PUSH1 0x7A SHL PUSH1 0x44 DUP3 ADD MSTORE PUSH1 0x64 ADD PUSH2 0x80D JUMP JUMPDEST PUSH1 0x1 DUP2 ADD DUP1 SLOAD PUSH1 0xFF PUSH1 0x68 SHL NOT AND PUSH1 0x1 PUSH1 0x68 SHL OR SWAP1 SSTORE DUP1 SLOAD PUSH1 0x1 PUSH1 0x1 PUSH1 0x40 SHL SUB PUSH1 0x1 PUSH1 0xA0 SHL SWAP1 SWAP2 DIV AND TIMESTAMP LT DUP1 ISZERO PUSH2 0x170D JUMPI PUSH1 0x0 SLOAD DUP3 SLOAD PUSH1 0x3 DUP5 ADD SLOAD PUSH1 0x4 DUP1 DUP7 ADD SLOAD PUSH1 0x40 MLOAD PUSH4 0xB2AD613 PUSH1 0xE1 SHL DUP2 MSTORE PUSH1 0x1 PUSH1 0x1 PUSH1 0xA0 SHL SUB SWAP5 DUP6 AND SWAP3 DUP2 ADD SWAP3 SWAP1 SWAP3 MSTORE PUSH1 0x24 DUP3 ADD SWAP3 SWAP1 SWAP3 MSTORE PUSH1 0x44 DUP2 ADD DUP8 SWAP1 MSTORE PUSH1 0x1 PUSH1 0x1 PUSH1 0x40 SHL SUB SWAP1 SWAP2 AND PUSH1 0x64 DUP3 ADD MSTORE SWAP2 AND SWAP1 PUSH4 0x1655AC26 SWAP1 PUSH1 0x84 ADD PUSH1 0x0 PUSH1 0x40 MLOAD DUP1 DUP4 SUB DUP2 PUSH1 0x0 DUP8 DUP1 EXTCODESIZE ISZERO DUP1 ISZERO PUSH2 0x16F4 JUMPI PUSH1 0x0 DUP1 REVERT JUMPDEST POP GAS CALL ISZERO DUP1 ISZERO PUSH2 0x1708 JUMPI RETURNDATASIZE PUSH1 0x0 DUP1 RETURNDATACOPY RETURNDATASIZE PUSH1 0x0 REVERT JUMPDEST POP POP POP POP JUMPDEST PUSH1 0x1 DUP3 ADD SLOAD DUP3 SLOAD PUSH1 0x1 PUSH1 0x70 SHL SWAP1 SWAP2 DIV PUSH2 0xFFFF AND SWAP1 PUSH1 0x1 PUSH1 0x1 PUSH1 0xA0 SHL SUB AND DUP5 PUSH32 0x752CC8AEBF0B6894E3CFE2A0D5464AB0561856E1142DA75F3A783898D641CB93 DUP5 PUSH2 0x1758 JUMPI PUSH1 0x0 PUSH2 0x175E JUMP JUMPDEST DUP6 PUSH1 0x3 ADD SLOAD JUMPDEST PUSH1 0x40 DUP1 MLOAD SWAP2 DUP3 MSTORE DUP7 ISZERO ISZERO PUSH1 0x20 DUP4 ADD MSTORE ADD PUSH1 0x40 MLOAD DUP1 SWAP2 SUB SWAP1 LOG4 POP POP POP JUMP JUMPDEST PUSH1 0x6 DUP2 DUP2 SLOAD DUP2 LT PUSH2 0x178B JUMPI PUSH1 0x0 DUP1 REVERT JUMPDEST PUSH1 0x0 SWAP2 DUP3 MSTORE PUSH1 0x20 SWAP1 SWAP2 KECCAK256 ADD SLOAD SWAP1 POP DUP2 JUMP JUMPDEST PUSH2 0x17A5 DUP3 PUSH2 0x778 JUMP JUMPDEST PUSH2 0x17AE DUP2 PUSH2 0x1B01 JUMP JUMPDEST PUSH2 0x8BC DUP4 DUP4 PUSH2 0x1BBA JUMP JUMPDEST PUSH1 0x1 DUP3 PUSH1 0x2 DUP2 LT PUSH2 0x17C8 JUMPI PUSH1 0x0 DUP1 REVERT JUMPDEST ADD DUP2 PUSH1 0x2 DUP2 LT PUSH2 0x17D7 JUMPI PUSH1 0x0 DUP1 REVERT JUMPDEST PUSH1 0x10 SWAP2 DUP3 DUP3 DIV ADD SWAP2 SWAP1 MOD PUSH1 0x2 MUL SWAP2 POP SWAP2 POP SWAP1 SLOAD SWAP1 PUSH2 0x100 EXP SWAP1 DIV PUSH2 0xFFFF AND DUP2 JUMP JUMPDEST PUSH1 0x0 PUSH2 0x1803 DUP2 PUSH2 0x1B01 JUMP JUMPDEST PUSH1 0x2 DUP4 PUSH1 0xFF AND LT PUSH2 0x1841 JUMPI PUSH1 0x40 MLOAD PUSH3 0x461BCD PUSH1 0xE5 SHL DUP2 MSTORE PUSH1 0x20 PUSH1 0x4 DUP3 ADD MSTORE PUSH1 0x8 PUSH1 0x24 DUP3 ADD MSTORE PUSH8 0x189859081CDB1BDD PUSH1 0xC2 SHL PUSH1 0x44 DUP3 ADD MSTORE PUSH1 0x64 ADD PUSH2 0x80D JUMP JUMPDEST PUSH2 0x2710 DUP3 PUSH2 0xFFFF AND LT ISZERO PUSH2 0x188A JUMPI PUSH1 0x40 MLOAD PUSH3 0x461BCD PUSH1 0xE5 SHL DUP2 MSTORE PUSH1 0x20 PUSH1 0x4 DUP3 ADD MSTORE PUSH1 0x10 PUSH1 0x24 DUP3 ADD MSTORE PUSH16 0xDAEAE6E840C4CA407C7A40625C6060F PUSH1 0x83 SHL PUSH1 0x44 DUP3 ADD MSTORE PUSH1 0x64 ADD PUSH2 0x80D JUMP JUMPDEST DUP2 PUSH1 0x4 DUP5 PUSH1 0xFF AND PUSH1 0x2 DUP2 LT PUSH2 0x876 JUMPI PUSH2 0x876 PUSH2 0x273F JUMP JUMPDEST PUSH1 0x0 DUP1 PUSH2 0x18B5 PUSH2 0x100 DUP6 ADD PUSH1 0xE0 DUP7 ADD PUSH2 0x2918 JUMP JUMPDEST PUSH2 0x18C5 PUSH1 0xE0 DUP7 ADD PUSH1 0xC0 DUP8 ADD PUSH2 0x2918 JUMP JUMPDEST PUSH2 0x18D5 PUSH1 0xC0 DUP8 ADD PUSH1 0xA0 DUP9 ADD PUSH2 0x2918 JUMP JUMPDEST PUSH2 0x18E5 PUSH1 0xA0 DUP9 ADD PUSH1 0x80 DUP10 ADD PUSH2 0x2918 JUMP JUMPDEST PUSH2 0x18F5 PUSH1 0x80 DUP10 ADD PUSH1 0x60 DUP11 ADD PUSH2 0x2918 JUMP JUMPDEST PUSH2 0x1905 PUSH1 0x60 DUP11 ADD PUSH1 0x40 DUP12 ADD PUSH2 0x2918 JUMP JUMPDEST PUSH2 0x1915 PUSH1 0x40 DUP12 ADD PUSH1 0x20 DUP13 ADD PUSH2 0x2918 JUMP JUMPDEST PUSH2 0x1922 PUSH1 0x20 DUP13 ADD DUP13 PUSH2 0x2918 JUMP JUMPDEST PUSH2 0x192C SWAP2 SWAP1 PUSH2 0x293E JUMP JUMPDEST PUSH2 0x1936 SWAP2 SWAP1 PUSH2 0x293E JUMP JUMPDEST PUSH2 0x1940 SWAP2 SWAP1 PUSH2 0x293E JUMP JUMPDEST PUSH2 0x194A SWAP2 SWAP1 PUSH2 0x293E JUMP JUMPDEST PUSH2 0x1954 SWAP2 SWAP1 PUSH2 0x293E JUMP JUMPDEST PUSH2 0x195E SWAP2 SWAP1 PUSH2 0x293E JUMP JUMPDEST PUSH2 0x1968 SWAP2 SWAP1 PUSH2 0x293E JUMP JUMPDEST SWAP1 POP PUSH1 0x0 PUSH2 0x1990 PUSH2 0x197C PUSH1 0x20 DUP8 ADD DUP8 PUSH2 0x2918 JUMP JUMPDEST PUSH1 0x1 PUSH1 0x0 JUMPDEST ADD SLOAD PUSH2 0xFFFF AND PUSH1 0x0 DUP1 DUP9 PUSH2 0x1E1F JUMP JUMPDEST PUSH2 0x199A SWAP1 DUP3 PUSH2 0x295B JUMP JUMPDEST SWAP1 POP PUSH2 0x19CA PUSH2 0x19AF PUSH1 0x40 DUP8 ADD PUSH1 0x20 DUP9 ADD PUSH2 0x2918 JUMP JUMPDEST PUSH1 0x1 PUSH1 0x0 JUMPDEST ADD SLOAD PUSH3 0x10000 SWAP1 DIV PUSH2 0xFFFF AND PUSH1 0x1 PUSH1 0x0 DUP9 PUSH2 0x1E1F JUMP JUMPDEST PUSH2 0x19D4 SWAP1 DUP3 PUSH2 0x295B JUMP JUMPDEST SWAP1 POP PUSH2 0x19F1 PUSH2 0x19E9 PUSH1 0x60 DUP8 ADD PUSH1 0x40 DUP9 ADD PUSH2 0x2918 JUMP JUMPDEST PUSH1 0x1 DUP1 PUSH2 0x1981 JUMP JUMPDEST PUSH2 0x19FB SWAP1 DUP3 PUSH2 0x295B JUMP JUMPDEST SWAP1 POP PUSH2 0x1A18 PUSH2 0x1A10 PUSH1 0x80 DUP8 ADD PUSH1 0x60 DUP9 ADD PUSH2 0x2918 JUMP JUMPDEST PUSH1 0x1 DUP1 PUSH2 0x19B4 JUMP JUMPDEST PUSH2 0x1A22 SWAP1 DUP3 PUSH2 0x295B JUMP JUMPDEST SWAP1 POP PUSH2 0x1A4C PUSH2 0x1A37 PUSH1 0xA0 DUP8 ADD PUSH1 0x80 DUP9 ADD PUSH2 0x2918 JUMP JUMPDEST PUSH1 0x1 PUSH1 0x0 JUMPDEST ADD SLOAD PUSH2 0xFFFF AND PUSH1 0x0 PUSH1 0x1 DUP9 PUSH2 0x1E1F JUMP JUMPDEST PUSH2 0x1A56 SWAP1 DUP3 PUSH2 0x295B JUMP JUMPDEST SWAP1 POP PUSH2 0x1A85 PUSH2 0x1A6B PUSH1 0xC0 DUP8 ADD PUSH1 0xA0 DUP9 ADD PUSH2 0x2918 JUMP JUMPDEST PUSH1 0x1 PUSH1 0x0 JUMPDEST ADD SLOAD PUSH3 0x10000 SWAP1 DIV PUSH2 0xFFFF AND PUSH1 0x1 DUP1 DUP9 PUSH2 0x1E1F JUMP JUMPDEST PUSH2 0x1A8F SWAP1 DUP3 PUSH2 0x295B JUMP JUMPDEST SWAP1 POP PUSH2 0x1AAC PUSH2 0x1AA4 PUSH1 0xE0 DUP8 ADD PUSH1 0xC0 DUP9 ADD PUSH2 0x2918 JUMP JUMPDEST PUSH1 0x1 DUP1 PUSH2 0x1A3C JUMP JUMPDEST PUSH2 0x1AB6 SWAP1 DUP3 PUSH2 0x295B JUMP JUMPDEST SWAP1 POP PUSH2 0x1AD4 PUSH2 0x1ACC PUSH2 0x100 DUP8 ADD PUSH1 0xE0 DUP9 ADD PUSH2 0x2918 JUMP JUMPDEST PUSH1 0x1 DUP1 PUSH2 0x1A70 JUMP JUMPDEST PUSH2 0x1ADE SWAP1 DUP3 PUSH2 0x295B JUMP JUMPDEST SWAP1 POP PUSH1 0xA PUSH2 0x1AED DUP3 PUSH1 0x9 PUSH2 0x295B JUMP JUMPDEST PUSH2 0x1AF7 SWAP2 SWAP1 PUSH2 0x296E JUMP JUMPDEST SWAP3 POP POP SWAP3 POP SWAP3 SWAP1 POP JUMP JUMPDEST PUSH2 0x1B0B DUP2 CALLER PUSH2 0x1EEC JUMP JUMPDEST POP JUMP JUMPDEST PUSH1 0x0 PUSH1 0x0 DUP1 MLOAD PUSH1 0x20 PUSH2 0x29EA DUP4 CODECOPY DUP2 MLOAD SWAP2 MSTORE PUSH2 0x1B29 DUP5 DUP5 PUSH2 0x13AA JUMP JUMPDEST PUSH2 0x1BA9 JUMPI PUSH1 0x0 DUP5 DUP2 MSTORE PUSH1 0x20 DUP3 DUP2 MSTORE PUSH1 0x40 DUP1 DUP4 KECCAK256 PUSH1 0x1 PUSH1 0x1 PUSH1 0xA0 SHL SUB DUP8 AND DUP5 MSTORE SWAP1 SWAP2 MSTORE SWAP1 KECCAK256 DUP1 SLOAD PUSH1 0xFF NOT AND PUSH1 0x1 OR SWAP1 SSTORE PUSH2 0x1B5F CALLER SWAP1 JUMP JUMPDEST PUSH1 0x1 PUSH1 0x1 PUSH1 0xA0 SHL SUB AND DUP4 PUSH1 0x1 PUSH1 0x1 PUSH1 0xA0 SHL SUB AND DUP6 PUSH32 0x2F8788117E7EFF1D82E926EC794901D17C78024A50270940304540A733656F0D PUSH1 0x40 MLOAD PUSH1 0x40 MLOAD DUP1 SWAP2 SUB SWAP1 LOG4 PUSH1 0x1 SWAP2 POP POP PUSH2 0x772 JUMP JUMPDEST PUSH1 0x0 SWAP2 POP POP PUSH2 0x772 JUMP JUMPDEST POP SWAP3 SWAP2 POP POP JUMP JUMPDEST PUSH1 0x0 PUSH1 0x0 DUP1 MLOAD PUSH1 0x20 PUSH2 0x29EA DUP4 CODECOPY DUP2 MLOAD SWAP2 MSTORE PUSH2 0x1BD5 DUP5 DUP5 PUSH2 0x13AA JUMP JUMPDEST ISZERO PUSH2 0x1BA9 JUMPI PUSH1 0x0 DUP5 DUP2 MSTORE PUSH1 0x20 DUP3 DUP2 MSTORE PUSH1 0x40 DUP1 DUP4 KECCAK256 PUSH1 0x1 PUSH1 0x1 PUSH1 0xA0 SHL SUB DUP8 AND DUP1 DUP6 MSTORE SWAP3 MSTORE DUP1 DUP4 KECCAK256 DUP1 SLOAD PUSH1 0xFF NOT AND SWAP1 SSTORE MLOAD CALLER SWAP3 DUP8 SWAP2 PUSH32 0xF6391F5C32D9C69D2A47EA670B442974B53935D1EDC7FD64EB21E047A839171B SWAP2 SWAP1 LOG4 PUSH1 0x1 SWAP2 POP POP PUSH2 0x772 JUMP JUMPDEST PUSH1 0x0 DUP1 PUSH32 0xF0C57E16840DF040F15088DC2F81FE391C3923BEC73E23A9662EFC9C229C6A00 PUSH2 0x772 JUMP JUMPDEST PUSH2 0x1C67 PUSH2 0x1F25 JUMP JUMPDEST JUMP JUMPDEST ADDRESS PUSH1 0x1 PUSH1 0x1 PUSH1 0xA0 SHL SUB PUSH32 0x0 AND EQ DUP1 PUSH2 0x1CF0 JUMPI POP PUSH32 0x0 PUSH1 0x1 PUSH1 0x1 PUSH1 0xA0 SHL SUB AND PUSH2 0x1CE4 PUSH1 0x0 DUP1 MLOAD PUSH1 0x20 PUSH2 0x29AA DUP4 CODECOPY DUP2 MLOAD SWAP2 MSTORE SLOAD PUSH1 0x1 PUSH1 0x1 PUSH1 0xA0 SHL SUB AND SWAP1 JUMP JUMPDEST PUSH1 0x1 PUSH1 0x1 PUSH1 0xA0 SHL SUB AND EQ ISZERO JUMPDEST ISZERO PUSH2 0x1C67 JUMPI PUSH1 0x40 MLOAD PUSH4 0x703E46DD PUSH1 0xE1 SHL DUP2 MSTORE PUSH1 0x4 ADD PUSH1 0x40 MLOAD DUP1 SWAP2 SUB SWAP1 REVERT JUMPDEST PUSH1 0x0 PUSH2 0xBC2 DUP2 PUSH2 0x1B01 JUMP JUMPDEST DUP2 PUSH1 0x1 PUSH1 0x1 PUSH1 0xA0 SHL SUB AND PUSH4 0x52D1902D PUSH1 0x40 MLOAD DUP2 PUSH4 0xFFFFFFFF AND PUSH1 0xE0 SHL DUP2 MSTORE PUSH1 0x4 ADD PUSH1 0x20 PUSH1 0x40 MLOAD DUP1 DUP4 SUB DUP2 DUP7 GAS STATICCALL SWAP3 POP POP POP DUP1 ISZERO PUSH2 0x1D73 JUMPI POP PUSH1 0x40 DUP1 MLOAD PUSH1 0x1F RETURNDATASIZE SWAP1 DUP2 ADD PUSH1 0x1F NOT AND DUP3 ADD SWAP1 SWAP3 MSTORE PUSH2 0x1D70 SWAP2 DUP2 ADD SWAP1 PUSH2 0x2990 JUMP JUMPDEST PUSH1 0x1 JUMPDEST PUSH2 0x1D9B JUMPI PUSH1 0x40 MLOAD PUSH4 0x4C9C8CE3 PUSH1 0xE0 SHL DUP2 MSTORE PUSH1 0x1 PUSH1 0x1 PUSH1 0xA0 SHL SUB DUP4 AND PUSH1 0x4 DUP3 ADD MSTORE PUSH1 0x24 ADD PUSH2 0x80D JUMP JUMPDEST PUSH1 0x0 DUP1 MLOAD PUSH1 0x20 PUSH2 0x29AA DUP4 CODECOPY DUP2 MLOAD SWAP2 MSTORE DUP2 EQ PUSH2 0x1DCC JUMPI PUSH1 0x40 MLOAD PUSH4 0x2A875269 PUSH1 0xE2 SHL DUP2 MSTORE PUSH1 0x4 DUP2 ADD DUP3 SWAP1 MSTORE PUSH1 0x24 ADD PUSH2 0x80D JUMP JUMPDEST PUSH2 0x9A7 DUP4 DUP4 PUSH2 0x1F4A JUMP JUMPDEST ADDRESS PUSH1 0x1 PUSH1 0x1 PUSH1 0xA0 SHL SUB PUSH32 0x0 AND EQ PUSH2 0x1C67 JUMPI PUSH1 0x40 MLOAD PUSH4 0x703E46DD PUSH1 0xE1 SHL DUP2 MSTORE PUSH1 0x4 ADD PUSH1 0x40 MLOAD DUP1 SWAP2 SUB SWAP1 REVERT JUMPDEST PUSH1 0x0 DUP1 PUSH2 0x1E36 PUSH2 0xFFFF DUP8 AND PUSH4 0xFFFFFFFF DUP10 AND PUSH2 0x28E4 JUMP JUMPDEST SWAP1 POP DUP4 ISZERO PUSH2 0x1E8D JUMPI PUSH2 0x2710 PUSH1 0x3 DUP7 PUSH1 0xFF AND PUSH1 0x2 DUP2 LT PUSH2 0x1E57 JUMPI PUSH2 0x1E57 PUSH2 0x273F JUMP JUMPDEST PUSH1 0x10 SWAP2 DUP3 DUP3 DIV ADD SWAP2 SWAP1 MOD PUSH1 0x2 MUL SWAP1 SLOAD SWAP1 PUSH2 0x100 EXP SWAP1 DIV PUSH2 0xFFFF AND PUSH2 0xFFFF AND DUP3 PUSH2 0x1E80 SWAP2 SWAP1 PUSH2 0x28E4 JUMP JUMPDEST PUSH2 0x1E8A SWAP2 SWAP1 PUSH2 0x296E JUMP JUMPDEST SWAP1 POP JUMPDEST DUP3 ISZERO PUSH2 0x1EE2 JUMPI PUSH2 0x2710 PUSH1 0x4 DUP7 PUSH1 0xFF AND PUSH1 0x2 DUP2 LT PUSH2 0x1EAC JUMPI PUSH2 0x1EAC PUSH2 0x273F JUMP JUMPDEST PUSH1 0x10 SWAP2 DUP3 DUP3 DIV ADD SWAP2 SWAP1 MOD PUSH1 0x2 MUL SWAP1 SLOAD SWAP1 PUSH2 0x100 EXP SWAP1 DIV PUSH2 0xFFFF AND PUSH2 0xFFFF AND DUP3 PUSH2 0x1ED5 SWAP2 SWAP1 PUSH2 0x28E4 JUMP JUMPDEST PUSH2 0x1EDF SWAP2 SWAP1 PUSH2 0x296E JUMP JUMPDEST SWAP1 POP JUMPDEST SWAP7 SWAP6 POP POP POP POP POP POP JUMP JUMPDEST PUSH2 0x1EF6 DUP3 DUP3 PUSH2 0x13AA JUMP JUMPDEST PUSH2 0xBC2 JUMPI PUSH1 0x40 MLOAD PUSH4 0xE2517D3F PUSH1 0xE0 SHL DUP2 MSTORE PUSH1 0x1 PUSH1 0x1 PUSH1 0xA0 SHL SUB DUP3 AND PUSH1 0x4 DUP3 ADD MSTORE PUSH1 0x24 DUP2 ADD DUP4 SWAP1 MSTORE PUSH1 0x44 ADD PUSH2 0x80D JUMP JUMPDEST PUSH2 0x1F2D PUSH2 0x1FA0 JUMP JUMPDEST PUSH2 0x1C67 JUMPI PUSH1 0x40 MLOAD PUSH4 0x1AFCD79F PUSH1 0xE3 SHL DUP2 MSTORE PUSH1 0x4 ADD PUSH1 0x40 MLOAD DUP1 SWAP2 SUB SWAP1 REVERT JUMPDEST PUSH2 0x1F53 DUP3 PUSH2 0x1FBA JUMP JUMPDEST PUSH1 0x40 MLOAD PUSH1 0x1 PUSH1 0x1 PUSH1 0xA0 SHL SUB DUP4 AND SWAP1 PUSH32 0xBC7CD75A20EE27FD9ADEBAB32041F755214DBC6BFFA90CC0225B39DA2E5C2D3B SWAP1 PUSH1 0x0 SWAP1 LOG2 DUP1 MLOAD ISZERO PUSH2 0x1F98 JUMPI PUSH2 0x9A7 DUP3 DUP3 PUSH2 0x201F JUMP JUMPDEST PUSH2 0xBC2 PUSH2 0x20BB JUMP JUMPDEST PUSH1 0x0 PUSH2 0x1FAA PUSH2 0x1C36 JUMP JUMPDEST SLOAD PUSH1 0x1 PUSH1 0x40 SHL SWAP1 DIV PUSH1 0xFF AND SWAP2 SWAP1 POP JUMP JUMPDEST DUP1 PUSH1 0x1 PUSH1 0x1 PUSH1 0xA0 SHL SUB AND EXTCODESIZE PUSH1 0x0 SUB PUSH2 0x1FF0 JUMPI PUSH1 0x40 MLOAD PUSH4 0x4C9C8CE3 PUSH1 0xE0 SHL DUP2 MSTORE PUSH1 0x1 PUSH1 0x1 PUSH1 0xA0 SHL SUB DUP3 AND PUSH1 0x4 DUP3 ADD MSTORE PUSH1 0x24 ADD PUSH2 0x80D JUMP JUMPDEST PUSH1 0x0 DUP1 MLOAD PUSH1 0x20 PUSH2 0x29AA DUP4 CODECOPY DUP2 MLOAD SWAP2 MSTORE DUP1 SLOAD PUSH1 0x1 PUSH1 0x1 PUSH1 0xA0 SHL SUB NOT AND PUSH1 0x1 PUSH1 0x1 PUSH1 0xA0 SHL SUB SWAP3 SWAP1 SWAP3 AND SWAP2 SWAP1 SWAP2 OR SWAP1 SSTORE JUMP JUMPDEST PUSH1 0x60 PUSH1 0x0 PUSH2 0x202D DUP5 DUP5 PUSH2 0x20DA JUMP JUMPDEST SWAP1 POP DUP1 DUP1 ISZERO PUSH2 0x2050 JUMPI POP PUSH1 0x0 RETURNDATASIZE GT DUP1 PUSH2 0x2050 JUMPI POP PUSH1 0x0 DUP5 PUSH1 0x1 PUSH1 0x1 PUSH1 0xA0 SHL SUB AND EXTCODESIZE GT JUMPDEST ISZERO PUSH2 0x2065 JUMPI PUSH2 0x205D PUSH2 0x20EF JUMP JUMPDEST SWAP2 POP POP PUSH2 0x772 JUMP JUMPDEST DUP1 ISZERO PUSH2 0x208F JUMPI PUSH1 0x40 MLOAD PUSH4 0x9996B315 PUSH1 0xE0 SHL DUP2 MSTORE PUSH1 0x1 PUSH1 0x1 PUSH1 0xA0 SHL SUB DUP6 AND PUSH1 0x4 DUP3 ADD MSTORE PUSH1 0x24 ADD PUSH2 0x80D JUMP JUMPDEST RETURNDATASIZE ISZERO PUSH2 0x20A2 JUMPI PUSH2 0x209D PUSH2 0x2109 JUMP JUMPDEST PUSH2 0x1BB3 JUMP JUMPDEST PUSH1 0x40 MLOAD PUSH4 0xD6BDA275 PUSH1 0xE0 SHL DUP2 MSTORE PUSH1 0x4 ADD PUSH1 0x40 MLOAD DUP1 SWAP2 SUB SWAP1 REVERT JUMPDEST CALLVALUE ISZERO PUSH2 0x1C67 JUMPI PUSH1 0x40 MLOAD PUSH4 0xB398979F PUSH1 0xE0 SHL DUP2 MSTORE PUSH1 0x4 ADD PUSH1 0x40 MLOAD DUP1 SWAP2 SUB SWAP1 REVERT JUMPDEST PUSH1 0x0 DUP1 PUSH1 0x0 DUP4 MLOAD PUSH1 0x20 DUP6 ADD DUP7 GAS DELEGATECALL SWAP4 SWAP3 POP POP POP JUMP JUMPDEST PUSH1 0x40 MLOAD RETURNDATASIZE DUP2 MSTORE RETURNDATASIZE PUSH1 0x0 PUSH1 0x20 DUP4 ADD RETURNDATACOPY RETURNDATASIZE PUSH1 0x20 ADD DUP2 ADD PUSH1 0x40 MSTORE SWAP1 JUMP JUMPDEST PUSH1 0x40 MLOAD RETURNDATASIZE PUSH1 0x0 DUP3 RETURNDATACOPY RETURNDATASIZE DUP2 REVERT JUMPDEST DUP3 PUSH1 0x2 DUP2 ADD SWAP3 DUP3 ISZERO PUSH2 0x214F JUMPI SWAP2 PUSH1 0x20 MUL DUP3 ADD JUMPDEST DUP3 DUP2 GT ISZERO PUSH2 0x214F JUMPI DUP3 MLOAD PUSH2 0x213F SWAP1 DUP4 SWAP1 PUSH1 0x2 PUSH2 0x215F JUMP JUMPDEST POP SWAP2 PUSH1 0x20 ADD SWAP2 SWAP1 PUSH1 0x1 ADD SWAP1 PUSH2 0x2128 JUMP JUMPDEST POP PUSH2 0x215B SWAP3 SWAP2 POP PUSH2 0x21F1 JUMP JUMPDEST POP SWAP1 JUMP JUMPDEST PUSH1 0x1 DUP4 ADD SWAP2 DUP4 SWAP1 DUP3 ISZERO PUSH2 0x21E5 JUMPI SWAP2 PUSH1 0x20 MUL DUP3 ADD PUSH1 0x0 JUMPDEST DUP4 DUP3 GT ISZERO PUSH2 0x21B5 JUMPI DUP4 MLOAD DUP4 DUP3 PUSH2 0x100 EXP DUP2 SLOAD DUP2 PUSH2 0xFFFF MUL NOT AND SWAP1 DUP4 PUSH2 0xFFFF AND MUL OR SWAP1 SSTORE POP SWAP3 PUSH1 0x20 ADD SWAP3 PUSH1 0x2 ADD PUSH1 0x20 DUP2 PUSH1 0x1 ADD DIV SWAP3 DUP4 ADD SWAP3 PUSH1 0x1 SUB MUL PUSH2 0x2175 JUMP JUMPDEST DUP1 ISZERO PUSH2 0x21E3 JUMPI DUP3 DUP2 PUSH2 0x100 EXP DUP2 SLOAD SWAP1 PUSH2 0xFFFF MUL NOT AND SWAP1 SSTORE PUSH1 0x2 ADD PUSH1 0x20 DUP2 PUSH1 0x1 ADD DIV SWAP3 DUP4 ADD SWAP3 PUSH1 0x1 SUB MUL PUSH2 0x21B5 JUMP JUMPDEST POP JUMPDEST POP PUSH2 0x215B SWAP3 SWAP2 POP PUSH2 0x2205 JUMP JUMPDEST DUP1 DUP3 GT ISZERO PUSH2 0x215B JUMPI PUSH1 0x0 DUP2 SSTORE PUSH1 0x1 ADD PUSH2 0x21F1 JUMP JUMPDEST DUP1 DUP3 GT ISZERO PUSH2 0x215B JUMPI PUSH1 0x0 DUP2 SSTORE PUSH1 0x1 ADD PUSH2 0x21F1 JUMP JUMPDEST PUSH1 0x0 PUSH1 0x20 DUP3 DUP5 SUB SLT ISZERO PUSH2 0x222B JUMPI PUSH1 0x0 DUP1 REVERT JUMPDEST DUP2 CALLDATALOAD PUSH1 0x1 PUSH1 0x1 PUSH1 0xE0 SHL SUB NOT DUP2 AND DUP2 EQ PUSH2 0x13A3 JUMPI PUSH1 0x0 DUP1 REVERT JUMPDEST PUSH1 0x0 PUSH1 0x20 DUP3 DUP5 SUB SLT ISZERO PUSH2 0x2255 JUMPI PUSH1 0x0 DUP1 REVERT JUMPDEST POP CALLDATALOAD SWAP2 SWAP1 POP JUMP JUMPDEST DUP1 CALLDATALOAD PUSH1 0xFF DUP2 AND DUP2 EQ PUSH2 0x226D JUMPI PUSH1 0x0 DUP1 REVERT JUMPDEST SWAP2 SWAP1 POP JUMP JUMPDEST DUP1 CALLDATALOAD PUSH2 0xFFFF DUP2 AND DUP2 EQ PUSH2 0x226D JUMPI PUSH1 0x0 DUP1 REVERT JUMPDEST PUSH1 0x0 DUP1 PUSH1 0x40 DUP4 DUP6 SUB SLT ISZERO PUSH2 0x2297 JUMPI PUSH1 0x0 DUP1 REVERT JUMPDEST PUSH2 0x22A0 DUP4 PUSH2 0x225C JUMP JUMPDEST SWAP2 POP PUSH2 0x22AE PUSH1 0x20 DUP5 ADD PUSH2 0x2272 JUMP JUMPDEST SWAP1 POP SWAP3 POP SWAP3 SWAP1 POP JUMP JUMPDEST DUP1 CALLDATALOAD PUSH1 0x1 PUSH1 0x1 PUSH1 0xA0 SHL SUB DUP2 AND DUP2 EQ PUSH2 0x226D JUMPI PUSH1 0x0 DUP1 REVERT JUMPDEST PUSH1 0x0 DUP1 PUSH1 0x40 DUP4 DUP6 SUB SLT ISZERO PUSH2 0x22E1 JUMPI PUSH1 0x0 DUP1 REVERT JUMPDEST DUP3 CALLDATALOAD SWAP2 POP PUSH2 0x22AE PUSH1 0x20 DUP5 ADD PUSH2 0x22B7 JUMP JUMPDEST PUSH1 0x0 DUP1 PUSH1 0x0 PUSH1 0x60 DUP5 DUP7 SUB SLT ISZERO PUSH2 0x2306 JUMPI PUSH1 0x0 DUP1 REVERT JUMPDEST PUSH2 0x230F DUP5 PUSH2 0x225C JUMP JUMPDEST SWAP3 POP PUSH2 0x231D PUSH1 0x20 DUP6 ADD PUSH2 0x2272 JUMP JUMPDEST SWAP2 POP PUSH2 0x232B PUSH1 0x40 DUP6 ADD PUSH2 0x2272 JUMP JUMPDEST SWAP1 POP SWAP3 POP SWAP3 POP SWAP3 JUMP JUMPDEST PUSH1 0x0 DUP1 PUSH1 0x40 DUP4 DUP6 SUB SLT ISZERO PUSH2 0x2347 JUMPI PUSH1 0x0 DUP1 REVERT JUMPDEST PUSH2 0x2350 DUP4 PUSH2 0x2272 JUMP JUMPDEST SWAP5 PUSH1 0x20 SWAP4 SWAP1 SWAP4 ADD CALLDATALOAD SWAP4 POP POP POP JUMP JUMPDEST PUSH1 0x0 DUP1 PUSH1 0x40 DUP4 DUP6 SUB SLT ISZERO PUSH2 0x2371 JUMPI PUSH1 0x0 DUP1 REVERT JUMPDEST PUSH2 0x237A DUP4 PUSH2 0x22B7 JUMP JUMPDEST SWAP2 POP PUSH2 0x22AE PUSH1 0x20 DUP5 ADD PUSH2 0x22B7 JUMP JUMPDEST PUSH4 0x4E487B71 PUSH1 0xE0 SHL PUSH1 0x0 MSTORE PUSH1 0x41 PUSH1 0x4 MSTORE PUSH1 0x24 PUSH1 0x0 REVERT JUMPDEST PUSH1 0x0 DUP1 PUSH1 0x40 DUP4 DUP6 SUB SLT ISZERO PUSH2 0x23B1 JUMPI PUSH1 0x0 DUP1 REVERT JUMPDEST PUSH2 0x23BA DUP4 PUSH2 0x22B7 JUMP JUMPDEST SWAP2 POP PUSH1 0x20 DUP4 ADD CALLDATALOAD PUSH1 0x1 PUSH1 0x1 PUSH1 0x40 SHL SUB DUP1 DUP3 GT ISZERO PUSH2 0x23D6 JUMPI PUSH1 0x0 DUP1 REVERT JUMPDEST DUP2 DUP6 ADD SWAP2 POP DUP6 PUSH1 0x1F DUP4 ADD SLT PUSH2 0x23EA JUMPI PUSH1 0x0 DUP1 REVERT JUMPDEST DUP2 CALLDATALOAD DUP2 DUP2 GT ISZERO PUSH2 0x23FC JUMPI PUSH2 0x23FC PUSH2 0x2388 JUMP JUMPDEST PUSH1 0x40 MLOAD PUSH1 0x1F DUP3 ADD PUSH1 0x1F NOT SWAP1 DUP2 AND PUSH1 0x3F ADD AND DUP2 ADD SWAP1 DUP4 DUP3 GT DUP2 DUP4 LT OR ISZERO PUSH2 0x2424 JUMPI PUSH2 0x2424 PUSH2 0x2388 JUMP JUMPDEST DUP2 PUSH1 0x40 MSTORE DUP3 DUP2 MSTORE DUP9 PUSH1 0x20 DUP5 DUP8 ADD ADD GT ISZERO PUSH2 0x243D JUMPI PUSH1 0x0 DUP1 REVERT JUMPDEST DUP3 PUSH1 0x20 DUP7 ADD PUSH1 0x20 DUP4 ADD CALLDATACOPY PUSH1 0x0 PUSH1 0x20 DUP5 DUP4 ADD ADD MSTORE DUP1 SWAP6 POP POP POP POP POP POP SWAP3 POP SWAP3 SWAP1 POP JUMP JUMPDEST PUSH1 0x0 DUP1 DUP4 PUSH1 0x1F DUP5 ADD SLT PUSH2 0x2471 JUMPI PUSH1 0x0 DUP1 REVERT JUMPDEST POP DUP2 CALLDATALOAD PUSH1 0x1 PUSH1 0x1 PUSH1 0x40 SHL SUB DUP2 GT ISZERO PUSH2 0x2488 JUMPI PUSH1 0x0 DUP1 REVERT JUMPDEST PUSH1 0x20 DUP4 ADD SWAP2 POP DUP4 PUSH1 0x20 DUP3 DUP6 ADD ADD GT ISZERO PUSH2 0x24A0 JUMPI PUSH1 0x0 DUP1 REVERT JUMPDEST SWAP3 POP SWAP3 SWAP1 POP JUMP JUMPDEST PUSH1 0x0 DUP1 PUSH1 0x0 DUP1 PUSH1 0x0 PUSH1 0x60 DUP7 DUP9 SUB SLT ISZERO PUSH2 0x24BF JUMPI PUSH1 0x0 DUP1 REVERT JUMPDEST PUSH2 0x24C8 DUP7 PUSH2 0x22B7 JUMP JUMPDEST SWAP5 POP PUSH1 0x20 DUP7 ADD CALLDATALOAD PUSH1 0x1 PUSH1 0x1 PUSH1 0x40 SHL SUB DUP1 DUP3 GT ISZERO PUSH2 0x24E4 JUMPI PUSH1 0x0 DUP1 REVERT JUMPDEST PUSH2 0x24F0 DUP10 DUP4 DUP11 ADD PUSH2 0x245F JUMP JUMPDEST SWAP1 SWAP7 POP SWAP5 POP PUSH1 0x40 DUP9 ADD CALLDATALOAD SWAP2 POP DUP1 DUP3 GT ISZERO PUSH2 0x2509 JUMPI PUSH1 0x0 DUP1 REVERT JUMPDEST POP PUSH2 0x2516 DUP9 DUP3 DUP10 ADD PUSH2 0x245F JUMP JUMPDEST SWAP7 SWAP10 SWAP6 SWAP9 POP SWAP4 SWAP7 POP SWAP3 SWAP5 SWAP4 SWAP3 POP POP POP JUMP JUMPDEST PUSH1 0x1 PUSH1 0x1 PUSH1 0x40 SHL SUB DUP2 AND DUP2 EQ PUSH2 0x1B0B JUMPI PUSH1 0x0 DUP1 REVERT JUMPDEST DUP1 PUSH2 0x100 DUP2 ADD DUP4 LT ISZERO PUSH2 0x772 JUMPI PUSH1 0x0 DUP1 REVERT JUMPDEST DUP1 CALLDATALOAD DUP1 ISZERO ISZERO DUP2 EQ PUSH2 0x226D JUMPI PUSH1 0x0 DUP1 REVERT JUMPDEST PUSH1 0x0 DUP1 PUSH1 0x0 DUP1 PUSH1 0x0 DUP1 PUSH2 0x1A0 DUP8 DUP10 SUB SLT ISZERO PUSH2 0x2578 JUMPI PUSH1 0x0 DUP1 REVERT JUMPDEST PUSH2 0x2581 DUP8 PUSH2 0x22B7 JUMP JUMPDEST SWAP6 POP PUSH2 0x258F PUSH1 0x20 DUP9 ADD PUSH2 0x2272 JUMP JUMPDEST SWAP5 POP PUSH1 0x40 DUP8 ADD CALLDATALOAD PUSH2 0x259F DUP2 PUSH2 0x2527 JUMP JUMPDEST SWAP4 POP PUSH1 0x60 DUP8 ADD CALLDATALOAD PUSH2 0x25AF DUP2 PUSH2 0x2527 JUMP JUMPDEST SWAP3 POP PUSH2 0x25BE DUP9 PUSH1 0x80 DUP10 ADD PUSH2 0x253C JUMP JUMPDEST SWAP2 POP PUSH2 0x25CD PUSH2 0x180 DUP9 ADD PUSH2 0x254E JUMP JUMPDEST SWAP1 POP SWAP3 SWAP6 POP SWAP3 SWAP6 POP SWAP3 SWAP6 JUMP JUMPDEST PUSH1 0x0 DUP1 PUSH1 0x0 PUSH1 0x60 DUP5 DUP7 SUB SLT ISZERO PUSH2 0x25EE JUMPI PUSH1 0x0 DUP1 REVERT JUMPDEST PUSH2 0x25F7 DUP5 PUSH2 0x2272 JUMP JUMPDEST SWAP3 POP PUSH1 0x20 DUP5 ADD CALLDATALOAD PUSH2 0x2607 DUP2 PUSH2 0x2527 JUMP JUMPDEST SWAP2 POP PUSH1 0x40 DUP5 ADD CALLDATALOAD PUSH2 0x2617 DUP2 PUSH2 0x2527 JUMP JUMPDEST DUP1 SWAP2 POP POP SWAP3 POP SWAP3 POP SWAP3 JUMP JUMPDEST PUSH1 0x0 DUP2 MLOAD DUP1 DUP5 MSTORE PUSH1 0x0 JUMPDEST DUP2 DUP2 LT ISZERO PUSH2 0x2648 JUMPI PUSH1 0x20 DUP2 DUP6 ADD DUP2 ADD MLOAD DUP7 DUP4 ADD DUP3 ADD MSTORE ADD PUSH2 0x262C JUMP JUMPDEST POP PUSH1 0x0 PUSH1 0x20 DUP3 DUP7 ADD ADD MSTORE PUSH1 0x20 PUSH1 0x1F NOT PUSH1 0x1F DUP4 ADD AND DUP6 ADD ADD SWAP2 POP POP SWAP3 SWAP2 POP POP JUMP JUMPDEST PUSH1 0x20 DUP2 MSTORE PUSH1 0x0 PUSH2 0x13A3 PUSH1 0x20 DUP4 ADD DUP5 PUSH2 0x2622 JUMP JUMPDEST PUSH1 0x0 PUSH1 0x20 DUP3 DUP5 SUB SLT ISZERO PUSH2 0x268D JUMPI PUSH1 0x0 DUP1 REVERT JUMPDEST PUSH2 0x13A3 DUP3 PUSH2 0x2272 JUMP JUMPDEST PUSH1 0x0 PUSH1 0x20 DUP3 DUP5 SUB SLT ISZERO PUSH2 0x26A8 JUMPI PUSH1 0x0 DUP1 REVERT JUMPDEST PUSH2 0x13A3 DUP3 PUSH2 0x22B7 JUMP JUMPDEST PUSH1 0x60 DUP2 MSTORE PUSH1 0x0 PUSH2 0x26C4 PUSH1 0x60 DUP4 ADD DUP7 PUSH2 0x2622 JUMP JUMPDEST DUP3 DUP2 SUB PUSH1 0x20 DUP5 ADD MSTORE PUSH2 0x26D6 DUP2 DUP7 PUSH2 0x2622 JUMP JUMPDEST SWAP2 POP POP PUSH1 0x1 PUSH1 0x1 PUSH1 0x40 SHL SUB DUP4 AND PUSH1 0x40 DUP4 ADD MSTORE SWAP5 SWAP4 POP POP POP POP JUMP JUMPDEST PUSH1 0x0 DUP1 PUSH1 0x40 DUP4 DUP6 SUB SLT ISZERO PUSH2 0x2703 JUMPI PUSH1 0x0 DUP1 REVERT JUMPDEST POP POP DUP1 CALLDATALOAD SWAP3 PUSH1 0x20 SWAP1 SWAP2 ADD CALLDATALOAD SWAP2 POP JUMP JUMPDEST PUSH1 0x0 DUP1 PUSH2 0x120 DUP4 DUP6 SUB SLT ISZERO PUSH2 0x2726 JUMPI PUSH1 0x0 DUP1 REVERT JUMPDEST PUSH2 0x2730 DUP5 DUP5 PUSH2 0x253C JUMP JUMPDEST SWAP2 POP PUSH2 0x22AE PUSH2 0x100 DUP5 ADD PUSH2 0x254E JUMP JUMPDEST PUSH4 0x4E487B71 PUSH1 0xE0 SHL PUSH1 0x0 MSTORE PUSH1 0x32 PUSH1 0x4 MSTORE PUSH1 0x24 PUSH1 0x0 REVERT JUMPDEST PUSH1 0x1 DUP2 DUP2 SHR SWAP1 DUP3 AND DUP1 PUSH2 0x2769 JUMPI PUSH1 0x7F DUP3 AND SWAP2 POP JUMPDEST PUSH1 0x20 DUP3 LT DUP2 SUB PUSH2 0x2789 JUMPI PUSH4 0x4E487B71 PUSH1 0xE0 SHL PUSH1 0x0 MSTORE PUSH1 0x22 PUSH1 0x4 MSTORE PUSH1 0x24 PUSH1 0x0 REVERT JUMPDEST POP SWAP2 SWAP1 POP JUMP JUMPDEST PUSH1 0x1F DUP3 GT ISZERO PUSH2 0x9A7 JUMPI PUSH1 0x0 DUP2 PUSH1 0x0 MSTORE PUSH1 0x20 PUSH1 0x0 KECCAK256 PUSH1 0x1F DUP6 ADD PUSH1 0x5 SHR DUP2 ADD PUSH1 0x20 DUP7 LT ISZERO PUSH2 0x27B8 JUMPI POP DUP1 JUMPDEST PUSH1 0x1F DUP6 ADD PUSH1 0x5 SHR DUP3 ADD SWAP2 POP JUMPDEST DUP2 DUP2 LT ISZERO PUSH2 0x27D7 JUMPI DUP3 DUP2 SSTORE PUSH1 0x1 ADD PUSH2 0x27C4 JUMP JUMPDEST POP POP POP POP POP POP JUMP JUMPDEST PUSH1 0x1 PUSH1 0x1 PUSH1 0x40 SHL SUB DUP4 GT ISZERO PUSH2 0x27F6 JUMPI PUSH2 0x27F6 PUSH2 0x2388 JUMP JUMPDEST PUSH2 0x280A DUP4 PUSH2 0x2804 DUP4 SLOAD PUSH2 0x2755 JUMP JUMPDEST DUP4 PUSH2 0x278F JUMP JUMPDEST PUSH1 0x0 PUSH1 0x1F DUP5 GT PUSH1 0x1 DUP2 EQ PUSH2 0x283E JUMPI PUSH1 0x0 DUP6 ISZERO PUSH2 0x2826 JUMPI POP DUP4 DUP3 ADD CALLDATALOAD JUMPDEST PUSH1 0x0 NOT PUSH1 0x3 DUP8 SWAP1 SHL SHR NOT AND PUSH1 0x1 DUP7 SWAP1 SHL OR DUP4 SSTORE PUSH2 0x2898 JUMP JUMPDEST PUSH1 0x0 DUP4 DUP2 MSTORE PUSH1 0x20 SWAP1 KECCAK256 PUSH1 0x1F NOT DUP7 AND SWAP1 DUP4 JUMPDEST DUP3 DUP2 LT ISZERO PUSH2 0x286F JUMPI DUP7 DUP6 ADD CALLDATALOAD DUP3 SSTORE PUSH1 0x20 SWAP5 DUP6 ADD SWAP5 PUSH1 0x1 SWAP1 SWAP3 ADD SWAP2 ADD PUSH2 0x284F JUMP JUMPDEST POP DUP7 DUP3 LT ISZERO PUSH2 0x288C JUMPI PUSH1 0x0 NOT PUSH1 0xF8 DUP9 PUSH1 0x3 SHL AND SHR NOT DUP5 DUP8 ADD CALLDATALOAD AND DUP2 SSTORE JUMPDEST POP POP PUSH1 0x1 DUP6 PUSH1 0x1 SHL ADD DUP4 SSTORE JUMPDEST POP POP POP POP POP JUMP JUMPDEST PUSH1 0x20 DUP2 MSTORE DUP2 PUSH1 0x20 DUP3 ADD MSTORE DUP2 DUP4 PUSH1 0x40 DUP4 ADD CALLDATACOPY PUSH1 0x0 DUP2 DUP4 ADD PUSH1 0x40 SWAP1 DUP2 ADD SWAP2 SWAP1 SWAP2 MSTORE PUSH1 0x1F SWAP1 SWAP3 ADD PUSH1 0x1F NOT AND ADD ADD SWAP2 SWAP1 POP JUMP JUMPDEST PUSH4 0x4E487B71 PUSH1 0xE0 SHL PUSH1 0x0 MSTORE PUSH1 0x11 PUSH1 0x4 MSTORE PUSH1 0x24 PUSH1 0x0 REVERT JUMPDEST DUP1 DUP3 MUL DUP2 ISZERO DUP3 DUP3 DIV DUP5 EQ OR PUSH2 0x772 JUMPI PUSH2 0x772 PUSH2 0x28CE JUMP JUMPDEST PUSH1 0x0 PUSH1 0x20 DUP3 DUP5 SUB SLT ISZERO PUSH2 0x290D JUMPI PUSH1 0x0 DUP1 REVERT JUMPDEST DUP2 MLOAD PUSH2 0x13A3 DUP2 PUSH2 0x2527 JUMP JUMPDEST PUSH1 0x0 PUSH1 0x20 DUP3 DUP5 SUB SLT ISZERO PUSH2 0x292A JUMPI PUSH1 0x0 DUP1 REVERT JUMPDEST DUP2 CALLDATALOAD PUSH4 0xFFFFFFFF DUP2 AND DUP2 EQ PUSH2 0x13A3 JUMPI PUSH1 0x0 DUP1 REVERT JUMPDEST PUSH4 0xFFFFFFFF DUP2 DUP2 AND DUP4 DUP3 AND ADD SWAP1 DUP1 DUP3 GT ISZERO PUSH2 0x1BB3 JUMPI PUSH2 0x1BB3 PUSH2 0x28CE JUMP JUMPDEST DUP1 DUP3 ADD DUP1 DUP3 GT ISZERO PUSH2 0x772 JUMPI PUSH2 0x772 PUSH2 0x28CE JUMP JUMPDEST PUSH1 0x0 DUP3 PUSH2 0x298B JUMPI PUSH4 0x4E487B71 PUSH1 0xE0 SHL PUSH1 0x0 MSTORE PUSH1 0x12 PUSH1 0x4 MSTORE PUSH1 0x24 PUSH1 0x0 REVERT JUMPDEST POP DIV SWAP1 JUMP JUMPDEST PUSH1 0x0 PUSH1 0x20 DUP3 DUP5 SUB SLT ISZERO PUSH2 0x29A2 JUMPI PUSH1 0x0 DUP1 REVERT JUMPDEST POP MLOAD SWAP2 SWAP1 POP JUMP INVALID CALLDATASIZE ADDMOD SWAP5 LOG1 EXTCODESIZE LOG1 LOG3 0x21 MOD PUSH8 0xC828492DB98DCA3E KECCAK256 PUSH23 0xCC3735A920A3CA505D382BBC97667070C54EF182B0F585 DUP12 SUB 0x4B 0xEA 0xC1 0xB6 RETURN ADDMOD SWAP11 LOG2 0xD3 XOR DUP12 0xB1 0xE8 SWAP3 SWAP16 0x4F 0xA9 0xB9 0x29 MUL 0xDD PUSH28 0xC7DEC4DCEEDDA775E58DD541E08A116C6C53815C0BD028192F7B6268 STOP LOG2 PUSH5 0x6970667358 0x22 SLT KECCAK256 DUP7 GAS 0xA9 0xEB 0xE6 0xA6 RETURN PUSH10 0xF98A7A72EF7D1C646296 0xBF 0xCC 0xB1 SLOAD PUSH0 0xAE 0xA6 CALLDATACOPY PUSH30 0x922DCEF45164736F6C634300081800330000000000000000000000000000 "},"methodIdentifiers":{"DEFAULT_ADMIN_ROLE()":"a217fddf","OPERATOR_ROLE()":"f5b541a6","UPGRADE_INTERFACE_VERSION()":"ad3cb1cc","boatTripCount(uint16)":"b077f29f","boatTrips(uint16,uint256)":"3747d987","cancelTrip(bytes32)":"bf73bceb","competitiveMultiplierBps(uint256)":"26dadad9","getMemberCount()":"997072f7","getRoleAdmin(bytes32)":"248a9ca3","grantRole(bytes32,address)":"2f2ff15d","hasRole(bytes32,address)":"91d14854","holidayMultiplierBps(uint256)":"55ef7f97","initialize(address,address)":"485cc955","isAvailable(uint16,uint64,uint64)":"83b202d7","keelToken()":"90cdbaf8","logAndSettle(address,uint16,uint64,uint64,uint32[8],bool)":"64773636","memberList(uint256)":"b307fc6d","memberProfiles(address)":"b6f2056c","proxiableUUID()":"52d1902d","quoteHundredths(uint32[8],bool)":"fa6258ed","rateGrid(uint256,uint256)":"d8f66fa9","renounceRole(bytes32,address)":"36568abe","revokeRole(bytes32,address)":"d547741f","setCompetitiveMultiplier(uint8,uint16)":"f5ffe485","setHolidayMultiplier(uint8,uint16)":"2c81a318","setMemberProfile(address,string,string)":"5f757bb2","setRate(uint8,uint16,uint16)":"30bc2875","supportsInterface(bytes4)":"01ffc9a7","tripCount()":"69fc6cbe","tripIds(uint256)":"cf6a019d","trips(bytes32)":"d3bbcfbd","upgradeToAndCall(address,bytes)":"4f1ef286"}},"storageLayout":{"storage":[{"astId":4092,"contract":"contracts/KeelUsageLedger.sol:KeelUsageLedger","label":"keelToken","offset":0,"slot":"0","type":"t_contract(IKeelToken)4077"},{"astId":4098,"contract":"contracts/KeelUsageLedger.sol:KeelUsageLedger","label":"rateGrid","offset":0,"slot":"1","type":"t_array(t_array(t_uint16)2_storage)2_storage"},{"astId":4102,"contract":"contracts/KeelUsageLedger.sol:KeelUsageLedger","label":"holidayMultiplierBps","offset":0,"slot":"3","type":"t_array(t_uint16)2_storage"},{"astId":4106,"contract":"contracts/KeelUsageLedger.sol:KeelUsageLedger","label":"competitiveMultiplierBps","offset":0,"slot":"4","type":"t_array(t_uint16)2_storage"},{"astId":4132,"contract":"contracts/KeelUsageLedger.sol:KeelUsageLedger","label":"trips","offset":0,"slot":"5","type":"t_mapping(t_bytes32,t_struct(TripRecord)4127_storage)"},{"astId":4135,"contract":"contracts/KeelUsageLedger.sol:KeelUsageLedger","label":"tripIds","offset":0,"slot":"6","type":"t_array(t_bytes32)dyn_storage"},{"astId":4140,"contract":"contracts/KeelUsageLedger.sol:KeelUsageLedger","label":"boatTrips","offset":0,"slot":"7","type":"t_mapping(t_uint16,t_array(t_bytes32)dyn_storage)"},{"astId":4152,"contract":"contracts/KeelUsageLedger.sol:KeelUsageLedger","label":"memberProfiles","offset":0,"slot":"8","type":"t_mapping(t_address,t_struct(MemberProfile)4147_storage)"},{"astId":4155,"contract":"contracts/KeelUsageLedger.sol:KeelUsageLedger","label":"memberList","offset":0,"slot":"9","type":"t_array(t_address)dyn_storage"}],"types":{"t_address":{"encoding":"inplace","label":"address","numberOfBytes":"20"},"t_array(t_address)dyn_storage":{"base":"t_address","encoding":"dynamic_array","label":"address[]","numberOfBytes":"32"},"t_array(t_array(t_uint16)2_storage)2_storage":{"base":"t_array(t_uint16)2_storage","encoding":"inplace","label":"uint16[2][2]","numberOfBytes":"64"},"t_array(t_bytes32)dyn_storage":{"base":"t_bytes32","encoding":"dynamic_array","label":"bytes32[]","numberOfBytes":"32"},"t_array(t_uint16)2_storage":{"base":"t_uint16","encoding":"inplace","label":"uint16[2]","numberOfBytes":"32"},"t_bool":{"encoding":"inplace","label":"bool","numberOfBytes":"1"},"t_bytes32":{"encoding":"inplace","label":"bytes32","numberOfBytes":"32"},"t_contract(IKeelToken)4077":{"encoding":"inplace","label":"contract IKeelToken","numberOfBytes":"20"},"t_mapping(t_address,t_struct(MemberProfile)4147_storage)":{"encoding":"mapping","key":"t_address","label":"mapping(address => struct KeelUsageLedger.MemberProfile)","numberOfBytes":"32","value":"t_struct(MemberProfile)4147_storage"},"t_mapping(t_bytes32,t_struct(TripRecord)4127_storage)":{"encoding":"mapping","key":"t_bytes32","label":"mapping(bytes32 => struct KeelUsageLedger.TripRecord)","numberOfBytes":"32","value":"t_struct(TripRecord)4127_storage"},"t_mapping(t_uint16,t_array(t_bytes32)dyn_storage)":{"encoding":"mapping","key":"t_uint16","label":"mapping(uint16 => bytes32[])","numberOfBytes":"32","value":"t_array(t_bytes32)dyn_storage"},"t_string_storage":{"encoding":"bytes","label":"string","numberOfBytes":"32"},"t_struct(MemberProfile)4147_storage":{"encoding":"inplace","label":"struct KeelUsageLedger.MemberProfile","members":[{"astId":4142,"contract":"contracts/KeelUsageLedger.sol:KeelUsageLedger","label":"displayName","offset":0,"slot":"0","type":"t_string_storage"},{"astId":4144,"contract":"contracts/KeelUsageLedger.sol:KeelUsageLedger","label":"experienceLevel","offset":0,"slot":"1","type":"t_string_storage"},{"astId":4146,"contract":"contracts/KeelUsageLedger.sol:KeelUsageLedger","label":"memberSince","offset":0,"slot":"2","type":"t_uint64"}],"numberOfBytes":"96"},"t_struct(TripRecord)4127_storage":{"encoding":"inplace","label":"struct KeelUsageLedger.TripRecord","members":[{"astId":4108,"contract":"contracts/KeelUsageLedger.sol:KeelUsageLedger","label":"member","offset":0,"slot":"0","type":"t_address"},{"astId":4110,"contract":"contracts/KeelUsageLedger.sol:KeelUsageLedger","label":"startTs","offset":20,"slot":"0","type":"t_uint64"},{"astId":4112,"contract":"contracts/KeelUsageLedger.sol:KeelUsageLedger","label":"endTs","offset":0,"slot":"1","type":"t_uint64"},{"astId":4114,"contract":"contracts/KeelUsageLedger.sol:KeelUsageLedger","label":"totalTenths","offset":8,"slot":"1","type":"t_uint32"},{"astId":4116,"contract":"contracts/KeelUsageLedger.sol:KeelUsageLedger","label":"competitive","offset":12,"slot":"1","type":"t_bool"},{"astId":4118,"contract":"contracts/KeelUsageLedger.sol:KeelUsageLedger","label":"cancelled","offset":13,"slot":"1","type":"t_bool"},{"astId":4120,"contract":"contracts/KeelUsageLedger.sol:KeelUsageLedger","label":"boatId","offset":14,"slot":"1","type":"t_uint16"},{"astId":4122,"contract":"contracts/KeelUsageLedger.sol:KeelUsageLedger","label":"burnHundredths","offset":0,"slot":"2","type":"t_uint256"},{"astId":4124,"contract":"contracts/KeelUsageLedger.sol:KeelUsageLedger","label":"tokensBurned","offset":0,"slot":"3","type":"t_uint256"},{"astId":4126,"contract":"contracts/KeelUsageLedger.sol:KeelUsageLedger","label":"refundExpiresAt","offset":0,"slot":"4","type":"t_uint64"}],"numberOfBytes":"160"},"t_uint16":{"encoding":"inplace","label":"uint16","numberOfBytes":"2"},"t_uint256":{"encoding":"inplace","label":"uint256","numberOfBytes":"32"},"t_uint32":{"encoding":"inplace","label":"uint32","numberOfBytes":"4"},"t_uint64":{"encoding":"inplace","label":"uint64","numberOfBytes":"8"}}}}}}