{"contracts/KeelToken.sol":{"KeelToken":{"abi":[{"inputs":[],"stateMutability":"nonpayable","type":"constructor"},{"inputs":[],"name":"AccessControlBadConfirmation","type":"error"},{"inputs":[{"internalType":"address","name":"account","type":"address"},{"internalType":"bytes32","name":"neededRole","type":"bytes32"}],"name":"AccessControlUnauthorizedAccount","type":"error"},{"inputs":[{"internalType":"address","name":"target","type":"address"}],"name":"AddressEmptyCode","type":"error"},{"inputs":[{"internalType":"address","name":"implementation","type":"address"}],"name":"ERC1967InvalidImplementation","type":"error"},{"inputs":[],"name":"ERC1967NonPayable","type":"error"},{"inputs":[{"internalType":"address","name":"spender","type":"address"},{"internalType":"uint256","name":"allowance","type":"uint256"},{"internalType":"uint256","name":"needed","type":"uint256"}],"name":"ERC20InsufficientAllowance","type":"error"},{"inputs":[{"internalType":"address","name":"sender","type":"address"},{"internalType":"uint256","name":"balance","type":"uint256"},{"internalType":"uint256","name":"needed","type":"uint256"}],"name":"ERC20InsufficientBalance","type":"error"},{"inputs":[{"internalType":"address","name":"approver","type":"address"}],"name":"ERC20InvalidApprover","type":"error"},{"inputs":[{"internalType":"address","name":"receiver","type":"address"}],"name":"ERC20InvalidReceiver","type":"error"},{"inputs":[{"internalType":"address","name":"sender","type":"address"}],"name":"ERC20InvalidSender","type":"error"},{"inputs":[{"internalType":"address","name":"spender","type":"address"}],"name":"ERC20InvalidSpender","type":"error"},{"inputs":[],"name":"FailedCall","type":"error"},{"inputs":[],"name":"InvalidInitialization","type":"error"},{"inputs":[],"name":"NotInitializing","type":"error"},{"inputs":[],"name":"UUPSUnauthorizedCallContext","type":"error"},{"inputs":[{"internalType":"bytes32","name":"slot","type":"bytes32"}],"name":"UUPSUnsupportedProxiableUUID","type":"error"},{"anonymous":false,"inputs":[{"indexed":true,"internalType":"address","name":"owner","type":"address"},{"indexed":true,"internalType":"address","name":"spender","type":"address"},{"indexed":false,"internalType":"uint256","name":"value","type":"uint256"}],"name":"Approval","type":"event"},{"anonymous":false,"inputs":[{"indexed":false,"internalType":"uint256","name":"newDuration","type":"uint256"}],"name":"ExpiryDurationUpdated","type":"event"},{"anonymous":false,"inputs":[{"indexed":false,"internalType":"uint64","name":"version","type":"uint64"}],"name":"Initialized","type":"event"},{"anonymous":false,"inputs":[{"indexed":true,"internalType":"address","name":"member","type":"address"},{"indexed":false,"internalType":"uint256","name":"allocation","type":"uint256"}],"name":"MemberAllocationUpdated","type":"event"},{"anonymous":false,"inputs":[{"indexed":false,"internalType":"uint256","name":"newAmount","type":"uint256"}],"name":"MonthlyAllocationUpdated","type":"event"},{"anonymous":false,"inputs":[{"indexed":true,"internalType":"bytes32","name":"role","type":"bytes32"},{"indexed":true,"internalType":"bytes32","name":"previousAdminRole","type":"bytes32"},{"indexed":true,"internalType":"bytes32","name":"newAdminRole","type":"bytes32"}],"name":"RoleAdminChanged","type":"event"},{"anonymous":false,"inputs":[{"indexed":true,"internalType":"bytes32","name":"role","type":"bytes32"},{"indexed":true,"internalType":"address","name":"account","type":"address"},{"indexed":true,"internalType":"address","name":"sender","type":"address"}],"name":"RoleGranted","type":"event"},{"anonymous":false,"inputs":[{"indexed":true,"internalType":"bytes32","name":"role","type":"bytes32"},{"indexed":true,"internalType":"address","name":"account","type":"address"},{"indexed":true,"internalType":"address","name":"sender","type":"address"}],"name":"RoleRevoked","type":"event"},{"anonymous":false,"inputs":[{"indexed":true,"internalType":"address","name":"member","type":"address"},{"indexed":false,"internalType":"uint256","name":"amount","type":"uint256"},{"indexed":false,"internalType":"bytes32","name":"tripId","type":"bytes32"}],"name":"TokensBurnedForUsage","type":"event"},{"anonymous":false,"inputs":[{"indexed":true,"internalType":"address","name":"member","type":"address"},{"indexed":false,"internalType":"uint256","name":"amount","type":"uint256"}],"name":"TokensExpired","type":"event"},{"anonymous":false,"inputs":[{"indexed":true,"internalType":"address","name":"to","type":"address"},{"indexed":false,"internalType":"uint256","name":"amount","type":"uint256"},{"indexed":false,"internalType":"uint256","name":"year","type":"uint256"},{"indexed":false,"internalType":"uint256","name":"month","type":"uint256"}],"name":"TokensMinted","type":"event"},{"anonymous":false,"inputs":[{"indexed":true,"internalType":"address","name":"member","type":"address"},{"indexed":false,"internalType":"uint256","name":"amount","type":"uint256"},{"indexed":false,"internalType":"bytes32","name":"tripId","type":"bytes32"}],"name":"TokensRefunded","type":"event"},{"anonymous":false,"inputs":[{"indexed":true,"internalType":"address","name":"from","type":"address"},{"indexed":true,"internalType":"address","name":"to","type":"address"},{"indexed":false,"internalType":"uint256","name":"value","type":"uint256"}],"name":"Transfer","type":"event"},{"anonymous":false,"inputs":[{"indexed":true,"internalType":"address","name":"implementation","type":"address"}],"name":"Upgraded","type":"event"},{"anonymous":false,"inputs":[{"indexed":false,"internalType":"uint256","name":"newCap","type":"uint256"}],"name":"WalletCapUpdated","type":"event"},{"inputs":[],"name":"DEFAULT_ADMIN_ROLE","outputs":[{"internalType":"bytes32","name":"","type":"bytes32"}],"stateMutability":"view","type":"function"},{"inputs":[],"name":"LEDGER_ROLE","outputs":[{"internalType":"bytes32","name":"","type":"bytes32"}],"stateMutability":"view","type":"function"},{"inputs":[],"name":"MINTER_ROLE","outputs":[{"internalType":"bytes32","name":"","type":"bytes32"}],"stateMutability":"view","type":"function"},{"inputs":[],"name":"UPGRADE_INTERFACE_VERSION","outputs":[{"internalType":"string","name":"","type":"string"}],"stateMutability":"view","type":"function"},{"inputs":[{"internalType":"address","name":"member","type":"address"}],"name":"allocationOf","outputs":[{"internalType":"uint256","name":"","type":"uint256"}],"stateMutability":"view","type":"function"},{"inputs":[{"internalType":"address","name":"owner","type":"address"},{"internalType":"address","name":"spender","type":"address"}],"name":"allowance","outputs":[{"internalType":"uint256","name":"","type":"uint256"}],"stateMutability":"view","type":"function"},{"inputs":[{"internalType":"address","name":"spender","type":"address"},{"internalType":"uint256","name":"value","type":"uint256"}],"name":"approve","outputs":[{"internalType":"bool","name":"","type":"bool"}],"stateMutability":"nonpayable","type":"function"},{"inputs":[{"internalType":"address","name":"account","type":"address"}],"name":"balanceOf","outputs":[{"internalType":"uint256","name":"","type":"uint256"}],"stateMutability":"view","type":"function"},{"inputs":[{"internalType":"uint256","name":"amount","type":"uint256"}],"name":"burn","outputs":[],"stateMutability":"nonpayable","type":"function"},{"inputs":[{"internalType":"address","name":"member","type":"address"},{"internalType":"uint256","name":"amount","type":"uint256"},{"internalType":"bytes32","name":"tripId","type":"bytes32"}],"name":"burnForUsage","outputs":[{"internalType":"uint64","name":"minExpiresAt","type":"uint64"}],"stateMutability":"nonpayable","type":"function"},{"inputs":[{"internalType":"address","name":"account","type":"address"},{"internalType":"uint256","name":"amount","type":"uint256"}],"name":"burnFrom","outputs":[],"stateMutability":"nonpayable","type":"function"},{"inputs":[{"internalType":"address","name":"member","type":"address"}],"name":"capOf","outputs":[{"internalType":"uint256","name":"","type":"uint256"}],"stateMutability":"view","type":"function"},{"inputs":[],"name":"decimals","outputs":[{"internalType":"uint8","name":"","type":"uint8"}],"stateMutability":"view","type":"function"},{"inputs":[{"internalType":"address","name":"member","type":"address"},{"internalType":"uint256","name":"window","type":"uint256"}],"name":"expiringWithin","outputs":[{"internalType":"uint256","name":"amount","type":"uint256"}],"stateMutability":"view","type":"function"},{"inputs":[],"name":"expiryDuration","outputs":[{"internalType":"uint256","name":"","type":"uint256"}],"stateMutability":"view","type":"function"},{"inputs":[{"internalType":"bytes32","name":"role","type":"bytes32"}],"name":"getRoleAdmin","outputs":[{"internalType":"bytes32","name":"","type":"bytes32"}],"stateMutability":"view","type":"function"},{"inputs":[{"internalType":"bytes32","name":"role","type":"bytes32"},{"internalType":"address","name":"account","type":"address"}],"name":"grantRole","outputs":[],"stateMutability":"nonpayable","type":"function"},{"inputs":[{"internalType":"bytes32","name":"role","type":"bytes32"},{"internalType":"address","name":"account","type":"address"}],"name":"hasRole","outputs":[{"internalType":"bool","name":"","type":"bool"}],"stateMutability":"view","type":"function"},{"inputs":[{"internalType":"address","name":"admin","type":"address"}],"name":"initialize","outputs":[],"stateMutability":"nonpayable","type":"function"},{"inputs":[{"internalType":"address","name":"member","type":"address"},{"internalType":"uint256","name":"year","type":"uint256"},{"internalType":"uint256","name":"month","type":"uint256"}],"name":"issueMonthlyAllocation","outputs":[{"internalType":"uint256","name":"issued","type":"uint256"}],"stateMutability":"nonpayable","type":"function"},{"inputs":[{"internalType":"address","name":"","type":"address"}],"name":"memberAllocation","outputs":[{"internalType":"uint256","name":"","type":"uint256"}],"stateMutability":"view","type":"function"},{"inputs":[{"internalType":"address","name":"member","type":"address"},{"internalType":"uint256","name":"amount","type":"uint256"},{"internalType":"uint256","name":"year","type":"uint256"},{"internalType":"uint256","name":"month","type":"uint256"}],"name":"mintMonthlyAllocation","outputs":[],"stateMutability":"nonpayable","type":"function"},{"inputs":[],"name":"monthlyAllocation","outputs":[{"internalType":"uint256","name":"","type":"uint256"}],"stateMutability":"view","type":"function"},{"inputs":[],"name":"monthlyIssuanceCap","outputs":[{"internalType":"uint256","name":"","type":"uint256"}],"stateMutability":"view","type":"function"},{"inputs":[{"internalType":"bytes32","name":"","type":"bytes32"}],"name":"monthlyMinted","outputs":[{"internalType":"uint256","name":"","type":"uint256"}],"stateMutability":"view","type":"function"},{"inputs":[],"name":"name","outputs":[{"internalType":"string","name":"","type":"string"}],"stateMutability":"view","type":"function"},{"inputs":[{"internalType":"address","name":"member","type":"address"}],"name":"nextExpiryAt","outputs":[{"internalType":"uint64","name":"","type":"uint64"}],"stateMutability":"view","type":"function"},{"inputs":[{"internalType":"address","name":"member","type":"address"},{"internalType":"uint256","name":"allocation","type":"uint256"},{"internalType":"uint256","name":"year","type":"uint256"},{"internalType":"uint256","name":"month","type":"uint256"}],"name":"onboardMember","outputs":[{"internalType":"uint256","name":"issued","type":"uint256"}],"stateMutability":"nonpayable","type":"function"},{"inputs":[{"internalType":"address","name":"member","type":"address"}],"name":"pendingExpiry","outputs":[{"internalType":"uint256","name":"amount","type":"uint256"}],"stateMutability":"view","type":"function"},{"inputs":[],"name":"proxiableUUID","outputs":[{"internalType":"bytes32","name":"","type":"bytes32"}],"stateMutability":"view","type":"function"},{"inputs":[{"internalType":"address","name":"member","type":"address"},{"internalType":"uint256","name":"amount","type":"uint256"},{"internalType":"bytes32","name":"tripId","type":"bytes32"},{"internalType":"uint64","name":"originalExpiresAt","type":"uint64"}],"name":"refundCancellation","outputs":[],"stateMutability":"nonpayable","type":"function"},{"inputs":[{"internalType":"bytes32","name":"role","type":"bytes32"},{"internalType":"address","name":"callerConfirmation","type":"address"}],"name":"renounceRole","outputs":[],"stateMutability":"nonpayable","type":"function"},{"inputs":[{"internalType":"bytes32","name":"role","type":"bytes32"},{"internalType":"address","name":"account","type":"address"}],"name":"revokeRole","outputs":[],"stateMutability":"nonpayable","type":"function"},{"inputs":[{"internalType":"uint256","name":"newDuration","type":"uint256"}],"name":"setExpiryDuration","outputs":[],"stateMutability":"nonpayable","type":"function"},{"inputs":[{"internalType":"address","name":"member","type":"address"},{"internalType":"uint256","name":"allocation","type":"uint256"}],"name":"setMemberAllocation","outputs":[],"stateMutability":"nonpayable","type":"function"},{"inputs":[{"internalType":"uint256","name":"newAmount","type":"uint256"}],"name":"setMonthlyAllocation","outputs":[],"stateMutability":"nonpayable","type":"function"},{"inputs":[{"internalType":"uint256","name":"newCap","type":"uint256"}],"name":"setMonthlyIssuanceCap","outputs":[],"stateMutability":"nonpayable","type":"function"},{"inputs":[{"internalType":"uint256","name":"newCap","type":"uint256"}],"name":"setWalletCap","outputs":[],"stateMutability":"nonpayable","type":"function"},{"inputs":[{"internalType":"bytes4","name":"interfaceId","type":"bytes4"}],"name":"supportsInterface","outputs":[{"internalType":"bool","name":"","type":"bool"}],"stateMutability":"view","type":"function"},{"inputs":[{"internalType":"address","name":"member","type":"address"}],"name":"sweepExpired","outputs":[{"internalType":"uint256","name":"","type":"uint256"}],"stateMutability":"nonpayable","type":"function"},{"inputs":[],"name":"symbol","outputs":[{"internalType":"string","name":"","type":"string"}],"stateMutability":"view","type":"function"},{"inputs":[],"name":"totalSupply","outputs":[{"internalType":"uint256","name":"","type":"uint256"}],"stateMutability":"view","type":"function"},{"inputs":[{"internalType":"address","name":"member","type":"address"}],"name":"tranchesOf","outputs":[{"internalType":"uint256[]","name":"amounts","type":"uint256[]"},{"internalType":"uint64[]","name":"expiresAts","type":"uint64[]"}],"stateMutability":"view","type":"function"},{"inputs":[{"internalType":"address","name":"to","type":"address"},{"internalType":"uint256","name":"value","type":"uint256"}],"name":"transfer","outputs":[{"internalType":"bool","name":"","type":"bool"}],"stateMutability":"nonpayable","type":"function"},{"inputs":[{"internalType":"address","name":"from","type":"address"},{"internalType":"address","name":"to","type":"address"},{"internalType":"uint256","name":"value","type":"uint256"}],"name":"transferFrom","outputs":[{"internalType":"bool","name":"","type":"bool"}],"stateMutability":"nonpayable","type":"function"},{"inputs":[{"internalType":"address","name":"newImplementation","type":"address"},{"internalType":"bytes","name":"data","type":"bytes"}],"name":"upgradeToAndCall","outputs":[],"stateMutability":"payable","type":"function"},{"inputs":[],"name":"walletCap","outputs":[{"internalType":"uint256","name":"","type":"uint256"}],"stateMutability":"view","type":"function"}],"evm":{"bytecode":{"linkReferences":{},"object":"60a0604052306080523480156200001557600080fd5b506200002062000026565b620000da565b7ff0c57e16840df040f15088dc2f81fe391c3923bec73e23a9662efc9c229c6a00805468010000000000000000900460ff1615620000775760405163f92ee8a960e01b815260040160405180910390fd5b80546001600160401b0390811614620000d75780546001600160401b0319166001600160401b0390811782556040519081527fc7f505b2f371ae2175ee4913f4499e1f2633a7b5936321eed1cdaeb6115181d29060200160405180910390a15b50565b608051612e3e62000104600039600081816120580152818161208101526121c70152612e3e6000f3fe6080604052600436106102875760003560e01c806358950c221161015a578063a4f82f27116100c1578063d53913931161007a578063d5391393146107ba578063d547741f146107dc578063dd62ed3e146107fc578063e023b7e51461081c578063e3da9f8f14610854578063f7f712ad1461088257600080fd5b8063a4f82f27146106e6578063a9059cbb14610706578063ad3cb1cc14610726578063b3ee142414610757578063c4d66de81461076d578063cbd26daa1461078d57600080fd5b80638a059bee116101135780638a059bee1461063c57806391d148541461065c578063959f96f11461067c57806395d89b411461069c5780639c20a0db146106b1578063a217fddf146106d157600080fd5b806358950c22146105865780635e29b1231461059c57806365a64668146105bc57806370a08231146105dc57806379cc6790146105fc5780637fec1fe11461061c57600080fd5b8063248a9ca3116101fe5780633b4e2646116101b75780633b4e2646146104cf57806342966c68146104f157806344dfbdaf146105115780634f1ef2861461053157806352d1902d1461054457806353f56b711461055957600080fd5b8063248a9ca31461041d57806326a39dd71461043d5780632f2ff15d14610453578063313ce5671461047357806334b6d6411461048f57806336568abe146104af57600080fd5b8063155028401161025057806315502840146103535780631655ac261461037357806318160ddd146103935780631e7b5169146103c7578063232c2b52146103dd57806323b872dd146103fd57600080fd5b8062972f7f1461028c57806301ffc9a7146102ae57806306fdde03146102e3578063095ea7b3146103055780630b09a1eb14610325575b600080fd5b34801561029857600080fd5b506102ac6102a73660046127de565b6108a2565b005b3480156102ba57600080fd5b506102ce6102c9366004612817565b610a6e565b60405190151581526020015b60405180910390f35b3480156102ef57600080fd5b506102f8610aa5565b6040516102da9190612841565b34801561031157600080fd5b506102ce610320366004612890565b610b68565b34801561033157600080fd5b506103456103403660046128ba565b610b80565b6040519081526020016102da565b34801561035f57600080fd5b506102ac61036e3660046128ed565b610ce0565b34801561037f57600080fd5b506102ac61038e366004612906565b610d78565b34801561039f57600080fd5b507f52c63247e1f47db19d5ce0460030c497f067ca4cebf71ba98eeadabe20bace0254610345565b3480156103d357600080fd5b5061034560035481565b3480156103e957600080fd5b506103456103f836600461295a565b610f04565b34801561040957600080fd5b506102ce610418366004612975565b610fb1565b34801561042957600080fd5b506103456104383660046128ed565b610fd5565b34801561044957600080fd5b5061034560005481565b34801561045f57600080fd5b506102ac61046e3660046129b1565b610ff7565b34801561047f57600080fd5b50604051601281526020016102da565b34801561049b57600080fd5b506102ac6104aa3660046128ed565b611019565b3480156104bb57600080fd5b506102ac6104ca3660046129b1565b61105e565b3480156104db57600080fd5b50610345600080516020612d6983398151915281565b3480156104fd57600080fd5b506102ac61050c3660046128ed565b611096565b34801561051d57600080fd5b5061034561052c36600461295a565b6110b7565b6102ac61053f3660046129f3565b6110ef565b34801561055057600080fd5b5061034561110a565b34801561056557600080fd5b5061034561057436600461295a565b60076020526000908152604090205481565b34801561059257600080fd5b5061034560025481565b3480156105a857600080fd5b506103456105b73660046127de565b611127565b3480156105c857600080fd5b506102ac6105d73660046128ed565b611320565b3480156105e857600080fd5b506103456105f736600461295a565b611360565b34801561060857600080fd5b506102ac610617366004612890565b611388565b34801561062857600080fd5b506102ac610637366004612890565b6113a6565b34801561064857600080fd5b506102ac6106573660046128ed565b61140b565b34801561066857600080fd5b506102ce6106773660046129b1565b611450565b34801561068857600080fd5b50610345610697366004612890565b611488565b3480156106a857600080fd5b506102f8611553565b3480156106bd57600080fd5b506103456106cc36600461295a565b611592565b3480156106dd57600080fd5b50610345600081565b3480156106f257600080fd5b5061034561070136600461295a565b61159d565b34801561071257600080fd5b506102ce610721366004612890565b6115c3565b34801561073257600080fd5b506102f8604051806040016040528060058152602001640352e302e360dc1b81525081565b34801561076357600080fd5b5061034560065481565b34801561077957600080fd5b506102ac61078836600461295a565b6115d1565b34801561079957600080fd5b506103456107a83660046128ed565b60016020526000908152604090205481565b3480156107c657600080fd5b50610345600080516020612dc983398151915281565b3480156107e857600080fd5b506102ac6107f73660046129b1565b611780565b34801561080857600080fd5b50610345610817366004612ab4565b61179c565b34801561082857600080fd5b5061083c6108373660046128ba565b6117e6565b6040516001600160401b0390911681526020016102da565b34801561086057600080fd5b5061087461086f36600461295a565b61186d565b6040516102da929190612ade565b34801561088e57600080fd5b5061083c61089d36600461295a565b611a02565b600080516020612dc98339815191526108ba81611a6b565b6108c385611a78565b506108cd856110b7565b846108d787611360565b6108e19190612b78565b11156109345760405162461bcd60e51b815260206004820152601d60248201527f4b65656c546f6b656e3a20657863656564732077616c6c65742063617000000060448201526064015b60405180910390fd5b600085848460405160200161094b93929190612b8b565b60405160208183030381529060405280519060200120905061096c8661159d565b600082815260016020526040902054610986908790612b78565b11156109e25760405162461bcd60e51b815260206004820152602560248201527f4b65656c546f6b656e3a2065786365656473206d6f6e74686c7920616c6c6f6360448201526430ba34b7b760d91b606482015260840161092b565b60008181526001602052604081208054879290610a00908490612b78565b90915550610a1090508686611bec565b610a1a8686611c22565b60408051868152602081018690529081018490526001600160a01b038716907f6155cfd0fd028b0ca77e8495a60cbe563e8bce8611f0aad6fedbdaafc05d44a29060600160405180910390a2505050505050565b60006001600160e01b03198216637965db0b60e01b1480610a9f57506301ffc9a760e01b6001600160e01b03198316145b92915050565b7f52c63247e1f47db19d5ce0460030c497f067ca4cebf71ba98eeadabe20bace038054606091600080516020612d8983398151915291610ae490612bb5565b80601f0160208091040260200160405190810160405280929190818152602001828054610b1090612bb5565b8015610b5d5780601f10610b3257610100808354040283529160200191610b5d565b820191906000526020600020905b815481529060010190602001808311610b4057829003601f168201915b505050505091505090565b600033610b76818585611cca565b5060019392505050565b6000600080516020612dc9833981519152610b9a81611a6b565b6000858585604051602001610bb193929190612b8b565b60408051601f1981840301815291815281516020928301206000818152600190935291205490915015610be8576000925050610cd8565b610bf186611a78565b506000610bfd876110b7565b90506000610c0a88611360565b9050818110610c1f5760009450505050610cd8565b6000610c2b8284612bef565b90506000610c388a61159d565b9050818110610c475781610c49565b805b965086600003610c6157600096505050505050610cd8565b6000858152600160205260409020879055610c7c8a88611bec565b610c868a88611c22565b60408051888152602081018b90529081018990526001600160a01b038b16907f6155cfd0fd028b0ca77e8495a60cbe563e8bce8611f0aad6fedbdaafc05d44a29060600160405180910390a250505050505b509392505050565b6000610ceb81611a6b565b60008211610d3b5760405162461bcd60e51b815260206004820152601860248201527f4b65656c546f6b656e3a207a65726f206475726174696f6e0000000000000000604482015260640161092b565b60068290556040518281527ff378a0fd4ad3ffd9d7d50986f16b04acd2dc42691c4f412f34e8eefe883e6652906020015b60405180910390a15050565b600080516020612d69833981519152610d9081611a6b565b610d9985611a78565b5060025484610da787611360565b610db19190612b78565b1115610e115760405162461bcd60e51b815260206004820152602960248201527f4b65656c546f6b656e3a20726566756e6420776f756c642065786365656420776044820152680616c6c6574206361760bc1b606482015260840161092b565b610e1b8585611bec565b42826001600160401b03161115610eaf57610eaa8585846001600160a01b03909216600090815260046020908152604080832081518083019092526001600160801b0394851682526001600160401b039586168284019081528154600181018355918552929093209051920180549151909416600160801b026001600160c01b03199091169190921617179055565b610eb9565b610eb98585611c22565b60408051858152602081018590526001600160a01b038716917fdf6a2f82cba0d26d78bf1cec65a406255e9a6ded089697adda7ecf8e657e01fa910160405180910390a25050505050565b6001600160a01b038116600090815260046020908152604080832060059092528220545b8154811015610faa5742828281548110610f4457610f44612c02565b600091825260209091200154600160801b90046001600160401b031611610f9d57818181548110610f7757610f77612c02565b600091825260209091200154610f96906001600160801b031684612b78565b9250610fa2565b610faa565b600101610f28565b5050919050565b600033610fbf858285611cd7565b610fca858585611d38565b506001949350505050565b6000908152600080516020612de9833981519152602052604090206001015490565b61100082610fd5565b61100981611a6b565b6110138383611d97565b50505050565b600061102481611a6b565b600382905560008290556040518281527f76c5f6d0e58a17742fe2a921dc4c4ab1bc653b772d418b07e3fb907c72c5e3fa90602001610d6c565b6001600160a01b03811633146110875760405163334bd91960e11b815260040160405180910390fd5b6110918282611e43565b505050565b61109f33611a78565b506110a981611ebf565b6110b33382611ec9565b5050565b6001600160a01b038116600090815260076020526040812054806110dd576002546110e8565b6110e8816003612c18565b9392505050565b6110f761204d565b611100826120f4565b6110b382826120ff565b60006111146121bc565b50600080516020612da983398151915290565b6000600080516020612dc983398151915261114181611a6b565b600085116111915760405162461bcd60e51b815260206004820152601a60248201527f4b65656c546f6b656e3a207a65726f20616c6c6f636174696f6e000000000000604482015260640161092b565b6001600160a01b03861660008181526007602052604090819020879055517f3ece1fd855f55d2cb16b1049455cd56e21ccf0aec61f9a4fb18616efaab5c955906111de9088815260200190565b60405180910390a26111ef86611a78565b506111fb856003612c18565b8561120588611360565b61120f9190612b78565b111561125d5760405162461bcd60e51b815260206004820152601d60248201527f4b65656c546f6b656e3a20657863656564732077616c6c657420636170000000604482015260640161092b565b600086858560405160200161127493929190612b8b565b604051602081830303815290604052805190602001209050856001600083815260200190815260200160002060008282546112af9190612b78565b909155506112bf90508787611bec565b6112c98787611c22565b60408051878152602081018790529081018590526001600160a01b038816907f6155cfd0fd028b0ca77e8495a60cbe563e8bce8611f0aad6fedbdaafc05d44a29060600160405180910390a2509395945050505050565b600061132b81611a6b565b60028290556040518281527f4784309e6b1f1431c711eac5e572f9ba2d542ecb5428efc0e927b794f4e8e2c190602001610d6c565b6001600160a01b03166000908152600080516020612d89833981519152602052604090205490565b61139182611a78565b5061139c8282612205565b6110918282611ec9565b60006113b181611a6b565b6001600160a01b03831660008181526007602052604090819020849055517f3ece1fd855f55d2cb16b1049455cd56e21ccf0aec61f9a4fb18616efaab5c955906113fe9085815260200190565b60405180910390a2505050565b600061141681611a6b565b600082905560038290556040518281527f76c5f6d0e58a17742fe2a921dc4c4ab1bc653b772d418b07e3fb907c72c5e3fa90602001610d6c565b6000918252600080516020612de9833981519152602090815260408084206001600160a01b0393909316845291905290205460ff1690565b6001600160a01b0382166000908152600460205260408120816114ab8442612b78565b6001600160a01b0386166000908152600560205260409020549091505b825481101561154a57818382815481106114e4576114e4612c02565b600091825260209091200154600160801b90046001600160401b03161161153d5782818154811061151757611517612c02565b600091825260209091200154611536906001600160801b031685612b78565b9350611542565b61154a565b6001016114c8565b50505092915050565b7f52c63247e1f47db19d5ce0460030c497f067ca4cebf71ba98eeadabe20bace048054606091600080516020612d8983398151915291610ae490612bb5565b6000610a9f82611a78565b6001600160a01b03811660009081526007602052604081205480610a9f576003546110e8565b600033610b76818585611d38565b60006115db61221a565b805490915060ff600160401b82041615906001600160401b03166000811580156116025750825b90506000826001600160401b0316600114801561161e5750303b155b90508115801561162c575080155b1561164a5760405163f92ee8a960e01b815260040160405180910390fd5b845467ffffffffffffffff19166001178555831561167457845460ff60401b1916600160401b1785555b6116bc6040518060400160405280600a81526020016925b2b2b6102a37b5b2b760b11b8152506040518060400160405280600481526020016312d1515360e21b815250612243565b6116c4612255565b6116cc612255565b68056bc75e2d631000006000818155681043561a88293000006002556003919091556276a7006006556116ff9087611d97565b50611718600080516020612dc983398151915287611d97565b50611731600080516020612d6983398151915287611d97565b50831561177857845460ff60401b19168555604051600181527fc7f505b2f371ae2175ee4913f4499e1f2633a7b5936321eed1cdaeb6115181d29060200160405180910390a15b505050505050565b61178982610fd5565b61179281611a6b565b6110138383611e43565b6001600160a01b0391821660009081527f52c63247e1f47db19d5ce0460030c497f067ca4cebf71ba98eeadabe20bace016020908152604080832093909416825291909152205490565b6000600080516020612d6983398151915261180081611a6b565b61180985611a78565b50611814858561225d565b61181e8585611ec9565b60408051868152602081018690529193506001600160a01b038716917f91092d853d5aee7e7f449f0a7ce64c055e863f2cf9c9c594aa080aec40fea720910160405180910390a2509392505050565b6001600160a01b038116600090815260046020908152604080832060059092528220548154606093849392916118a4908390612bef565b9050806001600160401b038111156118be576118be6129dd565b6040519080825280602002602001820160405280156118e7578160200160208202803683370190505b509450806001600160401b03811115611902576119026129dd565b60405190808252806020026020018201604052801561192b578160200160208202803683370190505b50935060005b818110156119f957836119448285612b78565b8154811061195457611954612c02565b60009182526020909120015486516001600160801b039091169087908390811061198057611980612c02565b6020908102919091010152836119968285612b78565b815481106119a6576119a6612c02565b9060005260206000200160000160109054906101000a90046001600160401b03168582815181106119d9576119d9612c02565b6001600160401b0390921660209283029190910190910152600101611931565b50505050915091565b6001600160a01b0381166000908152600460209081526040808320600590925282205481548110611a34576000611a63565b818181548110611a4657611a46612c02565b600091825260209091200154600160801b90046001600160401b03165b949350505050565b611a758133612293565b50565b6001600160a01b038116600090815260046020908152604080832060059092528220545b815481108015611ad9575042828281548110611aba57611aba612c02565b600091825260209091200154600160801b90046001600160401b031611155b15611b4e57818181548110611af057611af0612c02565b600091825260209091200154611b0f906001600160801b031684612b78565b9250818181548110611b2357611b23612c02565b600091825260209091200180546001600160c01b031916905580611b4681612c2f565b915050611a9c565b6001600160a01b03841660009081526005602052604090208190558215610faa576000611b7a85611360565b90506000818511611b8b5784611b8d565b815b90508015611be357611b9f868261225d565b856001600160a01b03167fb6760691439212c96c82de5a8c06d20538b67c05b36ad9df36823b6c19e121c982604051611bda91815260200190565b60405180910390a25b50505050919050565b6001600160a01b038216611c165760405163ec442f0560e01b81526000600482015260240161092b565b6110b3600083836122cc565b60046000836001600160a01b03166001600160a01b031681526020019081526020016000206040518060400160405280836001600160801b03168152602001611c69612340565b611c739042612b78565b6001600160401b03908116909152825460018101845560009384526020938490208351910180549490930151909116600160801b026001600160c01b03199093166001600160801b03909116179190911790555050565b611091838383600161235b565b6000611ce3848461179c565b90506000198110156110135781811015611d2957604051637dc7a0d960e11b81526001600160a01b0384166004820152602481018290526044810183905260640161092b565b6110138484848403600061235b565b6001600160a01b038316611d6257604051634b637e8f60e11b81526000600482015260240161092b565b6001600160a01b038216611d8c5760405163ec442f0560e01b81526000600482015260240161092b565b6110918383836122cc565b6000600080516020612de9833981519152611db28484611450565b611e32576000848152602082815260408083206001600160a01b03871684529091529020805460ff19166001179055611de83390565b6001600160a01b0316836001600160a01b0316857f2f8788117e7eff1d82e926ec794901d17c78024a50270940304540a733656f0d60405160405180910390a46001915050610a9f565b6000915050610a9f565b5092915050565b6000600080516020612de9833981519152611e5e8484611450565b15611e32576000848152602082815260408083206001600160a01b0387168085529252808320805460ff1916905551339287917ff6391f5c32d9c69d2a47ea670b442974b53935d1edc7fd64eb21e047a839171b9190a46001915050610a9f565b611a75338261225d565b6001600160a01b03821660009081526004602090815260408083206005909252822054835b600081118015611efe5750825482105b1561202957836001600160401b0316600003611f4557828281548110611f2657611f26612c02565b600091825260209091200154600160801b90046001600160401b031693505b6000838381548110611f5957611f59612c02565b6000918252602090912001546001600160801b03169050818111611fc957611f8a6001600160801b03821683612bef565b9150838381548110611f9e57611f9e612c02565b600091825260209091200180546001600160c01b031916905582611fc181612c2f565b935050612023565b611fdc826001600160801b038316612bef565b848481548110611fee57611fee612c02565b6000918252602082200180546fffffffffffffffffffffffffffffffff19166001600160801b03939093169290921790915591505b50611eee565b506001600160a01b0390941660009081526005602052604090209390935592915050565b306001600160a01b037f00000000000000000000000000000000000000000000000000000000000000001614806120d457507f00000000000000000000000000000000000000000000000000000000000000006001600160a01b03166120c8600080516020612da9833981519152546001600160a01b031690565b6001600160a01b031614155b156120f25760405163703e46dd60e11b815260040160405180910390fd5b565b60006110b381611a6b565b816001600160a01b03166352d1902d6040518163ffffffff1660e01b8152600401602060405180830381865afa925050508015612159575060408051601f3d908101601f1916820190925261215691810190612c48565b60015b61218157604051634c9c8ce360e01b81526001600160a01b038316600482015260240161092b565b600080516020612da983398151915281146121b257604051632a87526960e21b81526004810182905260240161092b565b6110918383612443565b306001600160a01b037f000000000000000000000000000000000000000000000000000000000000000016146120f25760405163703e46dd60e11b815260040160405180910390fd5b612210823383611cd7565b6110b3828261225d565b6000807ff0c57e16840df040f15088dc2f81fe391c3923bec73e23a9662efc9c229c6a00610a9f565b61224b612499565b6110b382826124be565b6120f2612499565b6001600160a01b03821661228757604051634b637e8f60e11b81526000600482015260240161092b565b6110b3826000836122cc565b61229d8282611450565b6110b35760405163e2517d3f60e01b81526001600160a01b03821660048201526024810183905260440161092b565b6001600160a01b03831615806122e957506001600160a01b038216155b6123355760405162461bcd60e51b815260206004820152601b60248201527f4b65656c546f6b656e3a206e6f6e2d7472616e7366657261626c650000000000604482015260640161092b565b61109183838361250f565b6000600654600014612353575060065490565b506276a70090565b600080516020612d898339815191526001600160a01b0385166123945760405163e602df0560e01b81526000600482015260240161092b565b6001600160a01b0384166123be57604051634a1406b160e11b81526000600482015260240161092b565b6001600160a01b0380861660009081526001830160209081526040808320938816835292905220839055811561243c57836001600160a01b0316856001600160a01b03167f8c5be1e5ebec7d5bd14f71427d1e84f3dd0314c0f7b2291e5b200ac8c7c3b9258560405161243391815260200190565b60405180910390a35b5050505050565b61244c8261264d565b6040516001600160a01b038316907fbc7cd75a20ee27fd9adebab32041f755214dbc6bffa90cc0225b39da2e5c2d3b90600090a28051156124915761109182826126b2565b6110b361274e565b6124a161276d565b6120f257604051631afcd79f60e31b815260040160405180910390fd5b6124c6612499565b600080516020612d898339815191527f52c63247e1f47db19d5ce0460030c497f067ca4cebf71ba98eeadabe20bace036125008482612ca9565b50600481016110138382612ca9565b600080516020612d898339815191526001600160a01b03841661254b57818160020160008282546125409190612b78565b909155506125bd9050565b6001600160a01b0384166000908152602082905260409020548281101561259e5760405163391434e360e21b81526001600160a01b0386166004820152602481018290526044810184905260640161092b565b6001600160a01b03851660009081526020839052604090209083900390555b6001600160a01b0383166125db5760028101805483900390556125fa565b6001600160a01b03831660009081526020829052604090208054830190555b826001600160a01b0316846001600160a01b03167fddf252ad1be2c89b69c2b068fc378daa952ba7f163c4a11628f55a4df523b3ef8460405161263f91815260200190565b60405180910390a350505050565b806001600160a01b03163b60000361268357604051634c9c8ce360e01b81526001600160a01b038216600482015260240161092b565b600080516020612da983398151915280546001600160a01b0319166001600160a01b0392909216919091179055565b606060006126c08484612787565b90508080156126e3575060003d11806126e357506000846001600160a01b03163b115b156126f8576126f061279c565b915050610a9f565b801561272257604051639996b31560e01b81526001600160a01b038516600482015260240161092b565b3d15612735576127306127b6565b611e3c565b60405163d6bda27560e01b815260040160405180910390fd5b34156120f25760405163b398979f60e01b815260040160405180910390fd5b600061277761221a565b54600160401b900460ff16919050565b6000806000835160208501865af49392505050565b6040513d81523d6000602083013e3d602001810160405290565b6040513d6000823e3d81fd5b80356001600160a01b03811681146127d957600080fd5b919050565b600080600080608085870312156127f457600080fd5b6127fd856127c2565b966020860135965060408601359560600135945092505050565b60006020828403121561282957600080fd5b81356001600160e01b0319811681146110e857600080fd5b60006020808352835180602085015260005b8181101561286f57858101830151858201604001528201612853565b506000604082860101526040601f19601f8301168501019250505092915050565b600080604083850312156128a357600080fd5b6128ac836127c2565b946020939093013593505050565b6000806000606084860312156128cf57600080fd5b6128d8846127c2565b95602085013595506040909401359392505050565b6000602082840312156128ff57600080fd5b5035919050565b6000806000806080858703121561291c57600080fd5b612925856127c2565b9350602085013592506040850135915060608501356001600160401b038116811461294f57600080fd5b939692955090935050565b60006020828403121561296c57600080fd5b6110e8826127c2565b60008060006060848603121561298a57600080fd5b612993846127c2565b92506129a1602085016127c2565b9150604084013590509250925092565b600080604083850312156129c457600080fd5b823591506129d4602084016127c2565b90509250929050565b634e487b7160e01b600052604160045260246000fd5b60008060408385031215612a0657600080fd5b612a0f836127c2565b915060208301356001600160401b0380821115612a2b57600080fd5b818501915085601f830112612a3f57600080fd5b813581811115612a5157612a516129dd565b604051601f8201601f19908116603f01168101908382118183101715612a7957612a796129dd565b81604052828152886020848701011115612a9257600080fd5b8260208601602083013760006020848301015280955050505050509250929050565b60008060408385031215612ac757600080fd5b612ad0836127c2565b91506129d4602084016127c2565b604080825283519082018190526000906020906060840190828701845b82811015612b1757815184529284019290840190600101612afb565b5050508381038285015284518082528583019183019060005b81811015612b555783516001600160401b031683529284019291840191600101612b30565b5090979650505050505050565b634e487b7160e01b600052601160045260246000fd5b80820180821115610a9f57610a9f612b62565b60609390931b6bffffffffffffffffffffffff191683526014830191909152603482015260540190565b600181811c90821680612bc957607f821691505b602082108103612be957634e487b7160e01b600052602260045260246000fd5b50919050565b81810381811115610a9f57610a9f612b62565b634e487b7160e01b600052603260045260246000fd5b8082028115828204841417610a9f57610a9f612b62565b600060018201612c4157612c41612b62565b5060010190565b600060208284031215612c5a57600080fd5b5051919050565b601f821115611091576000816000526020600020601f850160051c81016020861015612c8a5750805b601f850160051c820191505b8181101561177857828155600101612c96565b81516001600160401b03811115612cc257612cc26129dd565b612cd681612cd08454612bb5565b84612c61565b602080601f831160018114612d0b5760008415612cf35750858301515b600019600386901b1c1916600185901b178555611778565b600085815260208120601f198616915b82811015612d3a57888601518255948401946001909101908401612d1b565b5085821015612d585787850151600019600388901b60f8161c191681555b5050505050600190811b0190555056fed9ec6f45433bd3741734a224ab231970b6c603c2b3bfc8f78bb4db5db683ea8452c63247e1f47db19d5ce0460030c497f067ca4cebf71ba98eeadabe20bace00360894a13ba1a3210667c828492db98dca3e2076cc3735a920a3ca505d382bbc9f2df0fed2c77648de5860a4cc508cd0818c85b8b8a1ab4ceeef8d981c8956a602dd7bc7dec4dceedda775e58dd541e08a116c6c53815c0bd028192f7b626800a2646970667358221220b43fc8af3d0086b190bdf20cf32b3b55a942f1f882ea6fbe3a1c360b8573782a64736f6c63430008180033","opcodes":"PUSH1 0xA0 PUSH1 0x40 MSTORE ADDRESS PUSH1 0x80 MSTORE CALLVALUE DUP1 ISZERO PUSH3 0x15 JUMPI PUSH1 0x0 DUP1 REVERT JUMPDEST POP PUSH3 0x20 PUSH3 0x26 JUMP JUMPDEST PUSH3 0xDA JUMP JUMPDEST PUSH32 0xF0C57E16840DF040F15088DC2F81FE391C3923BEC73E23A9662EFC9C229C6A00 DUP1 SLOAD PUSH9 0x10000000000000000 SWAP1 DIV PUSH1 0xFF AND ISZERO PUSH3 0x77 JUMPI PUSH1 0x40 MLOAD PUSH4 0xF92EE8A9 PUSH1 0xE0 SHL DUP2 MSTORE PUSH1 0x4 ADD PUSH1 0x40 MLOAD DUP1 SWAP2 SUB SWAP1 REVERT JUMPDEST DUP1 SLOAD PUSH1 0x1 PUSH1 0x1 PUSH1 0x40 SHL SUB SWAP1 DUP2 AND EQ PUSH3 0xD7 JUMPI DUP1 SLOAD PUSH1 0x1 PUSH1 0x1 PUSH1 0x40 SHL SUB NOT AND PUSH1 0x1 PUSH1 0x1 PUSH1 0x40 SHL SUB SWAP1 DUP2 OR DUP3 SSTORE PUSH1 0x40 MLOAD SWAP1 DUP2 MSTORE PUSH32 0xC7F505B2F371AE2175EE4913F4499E1F2633A7B5936321EED1CDAEB6115181D2 SWAP1 PUSH1 0x20 ADD PUSH1 0x40 MLOAD DUP1 SWAP2 SUB SWAP1 LOG1 JUMPDEST POP JUMP JUMPDEST PUSH1 0x80 MLOAD PUSH2 0x2E3E PUSH3 0x104 PUSH1 0x0 CODECOPY PUSH1 0x0 DUP2 DUP2 PUSH2 0x2058 ADD MSTORE DUP2 DUP2 PUSH2 0x2081 ADD MSTORE PUSH2 0x21C7 ADD MSTORE PUSH2 0x2E3E PUSH1 0x0 RETURN INVALID PUSH1 0x80 PUSH1 0x40 MSTORE PUSH1 0x4 CALLDATASIZE LT PUSH2 0x287 JUMPI PUSH1 0x0 CALLDATALOAD PUSH1 0xE0 SHR DUP1 PUSH4 0x58950C22 GT PUSH2 0x15A JUMPI DUP1 PUSH4 0xA4F82F27 GT PUSH2 0xC1 JUMPI DUP1 PUSH4 0xD5391393 GT PUSH2 0x7A JUMPI DUP1 PUSH4 0xD5391393 EQ PUSH2 0x7BA JUMPI DUP1 PUSH4 0xD547741F EQ PUSH2 0x7DC JUMPI DUP1 PUSH4 0xDD62ED3E EQ PUSH2 0x7FC JUMPI DUP1 PUSH4 0xE023B7E5 EQ PUSH2 0x81C JUMPI DUP1 PUSH4 0xE3DA9F8F EQ PUSH2 0x854 JUMPI DUP1 PUSH4 0xF7F712AD EQ PUSH2 0x882 JUMPI PUSH1 0x0 DUP1 REVERT JUMPDEST DUP1 PUSH4 0xA4F82F27 EQ PUSH2 0x6E6 JUMPI DUP1 PUSH4 0xA9059CBB EQ PUSH2 0x706 JUMPI DUP1 PUSH4 0xAD3CB1CC EQ PUSH2 0x726 JUMPI DUP1 PUSH4 0xB3EE1424 EQ PUSH2 0x757 JUMPI DUP1 PUSH4 0xC4D66DE8 EQ PUSH2 0x76D JUMPI DUP1 PUSH4 0xCBD26DAA EQ PUSH2 0x78D JUMPI PUSH1 0x0 DUP1 REVERT JUMPDEST DUP1 PUSH4 0x8A059BEE GT PUSH2 0x113 JUMPI DUP1 PUSH4 0x8A059BEE EQ PUSH2 0x63C JUMPI DUP1 PUSH4 0x91D14854 EQ PUSH2 0x65C JUMPI DUP1 PUSH4 0x959F96F1 EQ PUSH2 0x67C JUMPI DUP1 PUSH4 0x95D89B41 EQ PUSH2 0x69C JUMPI DUP1 PUSH4 0x9C20A0DB EQ PUSH2 0x6B1 JUMPI DUP1 PUSH4 0xA217FDDF EQ PUSH2 0x6D1 JUMPI PUSH1 0x0 DUP1 REVERT JUMPDEST DUP1 PUSH4 0x58950C22 EQ PUSH2 0x586 JUMPI DUP1 PUSH4 0x5E29B123 EQ PUSH2 0x59C JUMPI DUP1 PUSH4 0x65A64668 EQ PUSH2 0x5BC JUMPI DUP1 PUSH4 0x70A08231 EQ PUSH2 0x5DC JUMPI DUP1 PUSH4 0x79CC6790 EQ PUSH2 0x5FC JUMPI DUP1 PUSH4 0x7FEC1FE1 EQ PUSH2 0x61C JUMPI PUSH1 0x0 DUP1 REVERT JUMPDEST DUP1 PUSH4 0x248A9CA3 GT PUSH2 0x1FE JUMPI DUP1 PUSH4 0x3B4E2646 GT PUSH2 0x1B7 JUMPI DUP1 PUSH4 0x3B4E2646 EQ PUSH2 0x4CF JUMPI DUP1 PUSH4 0x42966C68 EQ PUSH2 0x4F1 JUMPI DUP1 PUSH4 0x44DFBDAF EQ PUSH2 0x511 JUMPI DUP1 PUSH4 0x4F1EF286 EQ PUSH2 0x531 JUMPI DUP1 PUSH4 0x52D1902D EQ PUSH2 0x544 JUMPI DUP1 PUSH4 0x53F56B71 EQ PUSH2 0x559 JUMPI PUSH1 0x0 DUP1 REVERT JUMPDEST DUP1 PUSH4 0x248A9CA3 EQ PUSH2 0x41D JUMPI DUP1 PUSH4 0x26A39DD7 EQ PUSH2 0x43D JUMPI DUP1 PUSH4 0x2F2FF15D EQ PUSH2 0x453 JUMPI DUP1 PUSH4 0x313CE567 EQ PUSH2 0x473 JUMPI DUP1 PUSH4 0x34B6D641 EQ PUSH2 0x48F JUMPI DUP1 PUSH4 0x36568ABE EQ PUSH2 0x4AF JUMPI PUSH1 0x0 DUP1 REVERT JUMPDEST DUP1 PUSH4 0x15502840 GT PUSH2 0x250 JUMPI DUP1 PUSH4 0x15502840 EQ PUSH2 0x353 JUMPI DUP1 PUSH4 0x1655AC26 EQ PUSH2 0x373 JUMPI DUP1 PUSH4 0x18160DDD EQ PUSH2 0x393 JUMPI DUP1 PUSH4 0x1E7B5169 EQ PUSH2 0x3C7 JUMPI DUP1 PUSH4 0x232C2B52 EQ PUSH2 0x3DD JUMPI DUP1 PUSH4 0x23B872DD EQ PUSH2 0x3FD JUMPI PUSH1 0x0 DUP1 REVERT JUMPDEST DUP1 PUSH3 0x972F7F EQ PUSH2 0x28C JUMPI DUP1 PUSH4 0x1FFC9A7 EQ PUSH2 0x2AE JUMPI DUP1 PUSH4 0x6FDDE03 EQ PUSH2 0x2E3 JUMPI DUP1 PUSH4 0x95EA7B3 EQ PUSH2 0x305 JUMPI DUP1 PUSH4 0xB09A1EB EQ PUSH2 0x325 JUMPI JUMPDEST PUSH1 0x0 DUP1 REVERT JUMPDEST CALLVALUE DUP1 ISZERO PUSH2 0x298 JUMPI PUSH1 0x0 DUP1 REVERT JUMPDEST POP PUSH2 0x2AC PUSH2 0x2A7 CALLDATASIZE PUSH1 0x4 PUSH2 0x27DE JUMP JUMPDEST PUSH2 0x8A2 JUMP JUMPDEST STOP JUMPDEST CALLVALUE DUP1 ISZERO PUSH2 0x2BA JUMPI PUSH1 0x0 DUP1 REVERT JUMPDEST POP PUSH2 0x2CE PUSH2 0x2C9 CALLDATASIZE PUSH1 0x4 PUSH2 0x2817 JUMP JUMPDEST PUSH2 0xA6E JUMP JUMPDEST PUSH1 0x40 MLOAD SWAP1 ISZERO ISZERO DUP2 MSTORE PUSH1 0x20 ADD JUMPDEST PUSH1 0x40 MLOAD DUP1 SWAP2 SUB SWAP1 RETURN JUMPDEST CALLVALUE DUP1 ISZERO PUSH2 0x2EF JUMPI PUSH1 0x0 DUP1 REVERT JUMPDEST POP PUSH2 0x2F8 PUSH2 0xAA5 JUMP JUMPDEST PUSH1 0x40 MLOAD PUSH2 0x2DA SWAP2 SWAP1 PUSH2 0x2841 JUMP JUMPDEST CALLVALUE DUP1 ISZERO PUSH2 0x311 JUMPI PUSH1 0x0 DUP1 REVERT JUMPDEST POP PUSH2 0x2CE PUSH2 0x320 CALLDATASIZE PUSH1 0x4 PUSH2 0x2890 JUMP JUMPDEST PUSH2 0xB68 JUMP JUMPDEST CALLVALUE DUP1 ISZERO PUSH2 0x331 JUMPI PUSH1 0x0 DUP1 REVERT JUMPDEST POP PUSH2 0x345 PUSH2 0x340 CALLDATASIZE PUSH1 0x4 PUSH2 0x28BA JUMP JUMPDEST PUSH2 0xB80 JUMP JUMPDEST PUSH1 0x40 MLOAD SWAP1 DUP2 MSTORE PUSH1 0x20 ADD PUSH2 0x2DA JUMP JUMPDEST CALLVALUE DUP1 ISZERO PUSH2 0x35F JUMPI PUSH1 0x0 DUP1 REVERT JUMPDEST POP PUSH2 0x2AC PUSH2 0x36E CALLDATASIZE PUSH1 0x4 PUSH2 0x28ED JUMP JUMPDEST PUSH2 0xCE0 JUMP JUMPDEST CALLVALUE DUP1 ISZERO PUSH2 0x37F JUMPI PUSH1 0x0 DUP1 REVERT JUMPDEST POP PUSH2 0x2AC PUSH2 0x38E CALLDATASIZE PUSH1 0x4 PUSH2 0x2906 JUMP JUMPDEST PUSH2 0xD78 JUMP JUMPDEST CALLVALUE DUP1 ISZERO PUSH2 0x39F JUMPI PUSH1 0x0 DUP1 REVERT JUMPDEST POP PUSH32 0x52C63247E1F47DB19D5CE0460030C497F067CA4CEBF71BA98EEADABE20BACE02 SLOAD PUSH2 0x345 JUMP JUMPDEST CALLVALUE DUP1 ISZERO PUSH2 0x3D3 JUMPI PUSH1 0x0 DUP1 REVERT JUMPDEST POP PUSH2 0x345 PUSH1 0x3 SLOAD DUP2 JUMP JUMPDEST CALLVALUE DUP1 ISZERO PUSH2 0x3E9 JUMPI PUSH1 0x0 DUP1 REVERT JUMPDEST POP PUSH2 0x345 PUSH2 0x3F8 CALLDATASIZE PUSH1 0x4 PUSH2 0x295A JUMP JUMPDEST PUSH2 0xF04 JUMP JUMPDEST CALLVALUE DUP1 ISZERO PUSH2 0x409 JUMPI PUSH1 0x0 DUP1 REVERT JUMPDEST POP PUSH2 0x2CE PUSH2 0x418 CALLDATASIZE PUSH1 0x4 PUSH2 0x2975 JUMP JUMPDEST PUSH2 0xFB1 JUMP JUMPDEST CALLVALUE DUP1 ISZERO PUSH2 0x429 JUMPI PUSH1 0x0 DUP1 REVERT JUMPDEST POP PUSH2 0x345 PUSH2 0x438 CALLDATASIZE PUSH1 0x4 PUSH2 0x28ED JUMP JUMPDEST PUSH2 0xFD5 JUMP JUMPDEST CALLVALUE DUP1 ISZERO PUSH2 0x449 JUMPI PUSH1 0x0 DUP1 REVERT JUMPDEST POP PUSH2 0x345 PUSH1 0x0 SLOAD DUP2 JUMP JUMPDEST CALLVALUE DUP1 ISZERO PUSH2 0x45F JUMPI PUSH1 0x0 DUP1 REVERT JUMPDEST POP PUSH2 0x2AC PUSH2 0x46E CALLDATASIZE PUSH1 0x4 PUSH2 0x29B1 JUMP JUMPDEST PUSH2 0xFF7 JUMP JUMPDEST CALLVALUE DUP1 ISZERO PUSH2 0x47F JUMPI PUSH1 0x0 DUP1 REVERT JUMPDEST POP PUSH1 0x40 MLOAD PUSH1 0x12 DUP2 MSTORE PUSH1 0x20 ADD PUSH2 0x2DA JUMP JUMPDEST CALLVALUE DUP1 ISZERO PUSH2 0x49B JUMPI PUSH1 0x0 DUP1 REVERT JUMPDEST POP PUSH2 0x2AC PUSH2 0x4AA CALLDATASIZE PUSH1 0x4 PUSH2 0x28ED JUMP JUMPDEST PUSH2 0x1019 JUMP JUMPDEST CALLVALUE DUP1 ISZERO PUSH2 0x4BB JUMPI PUSH1 0x0 DUP1 REVERT JUMPDEST POP PUSH2 0x2AC PUSH2 0x4CA CALLDATASIZE PUSH1 0x4 PUSH2 0x29B1 JUMP JUMPDEST PUSH2 0x105E JUMP JUMPDEST CALLVALUE DUP1 ISZERO PUSH2 0x4DB JUMPI PUSH1 0x0 DUP1 REVERT JUMPDEST POP PUSH2 0x345 PUSH1 0x0 DUP1 MLOAD PUSH1 0x20 PUSH2 0x2D69 DUP4 CODECOPY DUP2 MLOAD SWAP2 MSTORE DUP2 JUMP JUMPDEST CALLVALUE DUP1 ISZERO PUSH2 0x4FD JUMPI PUSH1 0x0 DUP1 REVERT JUMPDEST POP PUSH2 0x2AC PUSH2 0x50C CALLDATASIZE PUSH1 0x4 PUSH2 0x28ED JUMP JUMPDEST PUSH2 0x1096 JUMP JUMPDEST CALLVALUE DUP1 ISZERO PUSH2 0x51D JUMPI PUSH1 0x0 DUP1 REVERT JUMPDEST POP PUSH2 0x345 PUSH2 0x52C CALLDATASIZE PUSH1 0x4 PUSH2 0x295A JUMP JUMPDEST PUSH2 0x10B7 JUMP JUMPDEST PUSH2 0x2AC PUSH2 0x53F CALLDATASIZE PUSH1 0x4 PUSH2 0x29F3 JUMP JUMPDEST PUSH2 0x10EF JUMP JUMPDEST CALLVALUE DUP1 ISZERO PUSH2 0x550 JUMPI PUSH1 0x0 DUP1 REVERT JUMPDEST POP PUSH2 0x345 PUSH2 0x110A JUMP JUMPDEST CALLVALUE DUP1 ISZERO PUSH2 0x565 JUMPI PUSH1 0x0 DUP1 REVERT JUMPDEST POP PUSH2 0x345 PUSH2 0x574 CALLDATASIZE PUSH1 0x4 PUSH2 0x295A JUMP JUMPDEST PUSH1 0x7 PUSH1 0x20 MSTORE PUSH1 0x0 SWAP1 DUP2 MSTORE PUSH1 0x40 SWAP1 KECCAK256 SLOAD DUP2 JUMP JUMPDEST CALLVALUE DUP1 ISZERO PUSH2 0x592 JUMPI PUSH1 0x0 DUP1 REVERT JUMPDEST POP PUSH2 0x345 PUSH1 0x2 SLOAD DUP2 JUMP JUMPDEST CALLVALUE DUP1 ISZERO PUSH2 0x5A8 JUMPI PUSH1 0x0 DUP1 REVERT JUMPDEST POP PUSH2 0x345 PUSH2 0x5B7 CALLDATASIZE PUSH1 0x4 PUSH2 0x27DE JUMP JUMPDEST PUSH2 0x1127 JUMP JUMPDEST CALLVALUE DUP1 ISZERO PUSH2 0x5C8 JUMPI PUSH1 0x0 DUP1 REVERT JUMPDEST POP PUSH2 0x2AC PUSH2 0x5D7 CALLDATASIZE PUSH1 0x4 PUSH2 0x28ED JUMP JUMPDEST PUSH2 0x1320 JUMP JUMPDEST CALLVALUE DUP1 ISZERO PUSH2 0x5E8 JUMPI PUSH1 0x0 DUP1 REVERT JUMPDEST POP PUSH2 0x345 PUSH2 0x5F7 CALLDATASIZE PUSH1 0x4 PUSH2 0x295A JUMP JUMPDEST PUSH2 0x1360 JUMP JUMPDEST CALLVALUE DUP1 ISZERO PUSH2 0x608 JUMPI PUSH1 0x0 DUP1 REVERT JUMPDEST POP PUSH2 0x2AC PUSH2 0x617 CALLDATASIZE PUSH1 0x4 PUSH2 0x2890 JUMP JUMPDEST PUSH2 0x1388 JUMP JUMPDEST CALLVALUE DUP1 ISZERO PUSH2 0x628 JUMPI PUSH1 0x0 DUP1 REVERT JUMPDEST POP PUSH2 0x2AC PUSH2 0x637 CALLDATASIZE PUSH1 0x4 PUSH2 0x2890 JUMP JUMPDEST PUSH2 0x13A6 JUMP JUMPDEST CALLVALUE DUP1 ISZERO PUSH2 0x648 JUMPI PUSH1 0x0 DUP1 REVERT JUMPDEST POP PUSH2 0x2AC PUSH2 0x657 CALLDATASIZE PUSH1 0x4 PUSH2 0x28ED JUMP JUMPDEST PUSH2 0x140B JUMP JUMPDEST CALLVALUE DUP1 ISZERO PUSH2 0x668 JUMPI PUSH1 0x0 DUP1 REVERT JUMPDEST POP PUSH2 0x2CE PUSH2 0x677 CALLDATASIZE PUSH1 0x4 PUSH2 0x29B1 JUMP JUMPDEST PUSH2 0x1450 JUMP JUMPDEST CALLVALUE DUP1 ISZERO PUSH2 0x688 JUMPI PUSH1 0x0 DUP1 REVERT JUMPDEST POP PUSH2 0x345 PUSH2 0x697 CALLDATASIZE PUSH1 0x4 PUSH2 0x2890 JUMP JUMPDEST PUSH2 0x1488 JUMP JUMPDEST CALLVALUE DUP1 ISZERO PUSH2 0x6A8 JUMPI PUSH1 0x0 DUP1 REVERT JUMPDEST POP PUSH2 0x2F8 PUSH2 0x1553 JUMP JUMPDEST CALLVALUE DUP1 ISZERO PUSH2 0x6BD JUMPI PUSH1 0x0 DUP1 REVERT JUMPDEST POP PUSH2 0x345 PUSH2 0x6CC CALLDATASIZE PUSH1 0x4 PUSH2 0x295A JUMP JUMPDEST PUSH2 0x1592 JUMP JUMPDEST CALLVALUE DUP1 ISZERO PUSH2 0x6DD JUMPI PUSH1 0x0 DUP1 REVERT JUMPDEST POP PUSH2 0x345 PUSH1 0x0 DUP2 JUMP JUMPDEST CALLVALUE DUP1 ISZERO PUSH2 0x6F2 JUMPI PUSH1 0x0 DUP1 REVERT JUMPDEST POP PUSH2 0x345 PUSH2 0x701 CALLDATASIZE PUSH1 0x4 PUSH2 0x295A JUMP JUMPDEST PUSH2 0x159D JUMP JUMPDEST CALLVALUE DUP1 ISZERO PUSH2 0x712 JUMPI PUSH1 0x0 DUP1 REVERT JUMPDEST POP PUSH2 0x2CE PUSH2 0x721 CALLDATASIZE PUSH1 0x4 PUSH2 0x2890 JUMP JUMPDEST PUSH2 0x15C3 JUMP JUMPDEST CALLVALUE DUP1 ISZERO PUSH2 0x732 JUMPI PUSH1 0x0 DUP1 REVERT JUMPDEST POP PUSH2 0x2F8 PUSH1 0x40 MLOAD DUP1 PUSH1 0x40 ADD PUSH1 0x40 MSTORE DUP1 PUSH1 0x5 DUP2 MSTORE PUSH1 0x20 ADD PUSH5 0x352E302E3 PUSH1 0xDC SHL DUP2 MSTORE POP DUP2 JUMP JUMPDEST CALLVALUE DUP1 ISZERO PUSH2 0x763 JUMPI PUSH1 0x0 DUP1 REVERT JUMPDEST POP PUSH2 0x345 PUSH1 0x6 SLOAD DUP2 JUMP JUMPDEST CALLVALUE DUP1 ISZERO PUSH2 0x779 JUMPI PUSH1 0x0 DUP1 REVERT JUMPDEST POP PUSH2 0x2AC PUSH2 0x788 CALLDATASIZE PUSH1 0x4 PUSH2 0x295A JUMP JUMPDEST PUSH2 0x15D1 JUMP JUMPDEST CALLVALUE DUP1 ISZERO PUSH2 0x799 JUMPI PUSH1 0x0 DUP1 REVERT JUMPDEST POP PUSH2 0x345 PUSH2 0x7A8 CALLDATASIZE PUSH1 0x4 PUSH2 0x28ED JUMP JUMPDEST PUSH1 0x1 PUSH1 0x20 MSTORE PUSH1 0x0 SWAP1 DUP2 MSTORE PUSH1 0x40 SWAP1 KECCAK256 SLOAD DUP2 JUMP JUMPDEST CALLVALUE DUP1 ISZERO PUSH2 0x7C6 JUMPI PUSH1 0x0 DUP1 REVERT JUMPDEST POP PUSH2 0x345 PUSH1 0x0 DUP1 MLOAD PUSH1 0x20 PUSH2 0x2DC9 DUP4 CODECOPY DUP2 MLOAD SWAP2 MSTORE DUP2 JUMP JUMPDEST CALLVALUE DUP1 ISZERO PUSH2 0x7E8 JUMPI PUSH1 0x0 DUP1 REVERT JUMPDEST POP PUSH2 0x2AC PUSH2 0x7F7 CALLDATASIZE PUSH1 0x4 PUSH2 0x29B1 JUMP JUMPDEST PUSH2 0x1780 JUMP JUMPDEST CALLVALUE DUP1 ISZERO PUSH2 0x808 JUMPI PUSH1 0x0 DUP1 REVERT JUMPDEST POP PUSH2 0x345 PUSH2 0x817 CALLDATASIZE PUSH1 0x4 PUSH2 0x2AB4 JUMP JUMPDEST PUSH2 0x179C JUMP JUMPDEST CALLVALUE DUP1 ISZERO PUSH2 0x828 JUMPI PUSH1 0x0 DUP1 REVERT JUMPDEST POP PUSH2 0x83C PUSH2 0x837 CALLDATASIZE PUSH1 0x4 PUSH2 0x28BA JUMP JUMPDEST PUSH2 0x17E6 JUMP JUMPDEST PUSH1 0x40 MLOAD PUSH1 0x1 PUSH1 0x1 PUSH1 0x40 SHL SUB SWAP1 SWAP2 AND DUP2 MSTORE PUSH1 0x20 ADD PUSH2 0x2DA JUMP JUMPDEST CALLVALUE DUP1 ISZERO PUSH2 0x860 JUMPI PUSH1 0x0 DUP1 REVERT JUMPDEST POP PUSH2 0x874 PUSH2 0x86F CALLDATASIZE PUSH1 0x4 PUSH2 0x295A JUMP JUMPDEST PUSH2 0x186D JUMP JUMPDEST PUSH1 0x40 MLOAD PUSH2 0x2DA SWAP3 SWAP2 SWAP1 PUSH2 0x2ADE JUMP JUMPDEST CALLVALUE DUP1 ISZERO PUSH2 0x88E JUMPI PUSH1 0x0 DUP1 REVERT JUMPDEST POP PUSH2 0x83C PUSH2 0x89D CALLDATASIZE PUSH1 0x4 PUSH2 0x295A JUMP JUMPDEST PUSH2 0x1A02 JUMP JUMPDEST PUSH1 0x0 DUP1 MLOAD PUSH1 0x20 PUSH2 0x2DC9 DUP4 CODECOPY DUP2 MLOAD SWAP2 MSTORE PUSH2 0x8BA DUP2 PUSH2 0x1A6B JUMP JUMPDEST PUSH2 0x8C3 DUP6 PUSH2 0x1A78 JUMP JUMPDEST POP PUSH2 0x8CD DUP6 PUSH2 0x10B7 JUMP JUMPDEST DUP5 PUSH2 0x8D7 DUP8 PUSH2 0x1360 JUMP JUMPDEST PUSH2 0x8E1 SWAP2 SWAP1 PUSH2 0x2B78 JUMP JUMPDEST GT ISZERO PUSH2 0x934 JUMPI PUSH1 0x40 MLOAD PUSH3 0x461BCD PUSH1 0xE5 SHL DUP2 MSTORE PUSH1 0x20 PUSH1 0x4 DUP3 ADD MSTORE PUSH1 0x1D PUSH1 0x24 DUP3 ADD MSTORE PUSH32 0x4B65656C546F6B656E3A20657863656564732077616C6C657420636170000000 PUSH1 0x44 DUP3 ADD MSTORE PUSH1 0x64 ADD JUMPDEST PUSH1 0x40 MLOAD DUP1 SWAP2 SUB SWAP1 REVERT JUMPDEST PUSH1 0x0 DUP6 DUP5 DUP5 PUSH1 0x40 MLOAD PUSH1 0x20 ADD PUSH2 0x94B SWAP4 SWAP3 SWAP2 SWAP1 PUSH2 0x2B8B JUMP JUMPDEST PUSH1 0x40 MLOAD PUSH1 0x20 DUP2 DUP4 SUB SUB DUP2 MSTORE SWAP1 PUSH1 0x40 MSTORE DUP1 MLOAD SWAP1 PUSH1 0x20 ADD KECCAK256 SWAP1 POP PUSH2 0x96C DUP7 PUSH2 0x159D JUMP JUMPDEST PUSH1 0x0 DUP3 DUP2 MSTORE PUSH1 0x1 PUSH1 0x20 MSTORE PUSH1 0x40 SWAP1 KECCAK256 SLOAD PUSH2 0x986 SWAP1 DUP8 SWAP1 PUSH2 0x2B78 JUMP JUMPDEST GT ISZERO PUSH2 0x9E2 JUMPI PUSH1 0x40 MLOAD PUSH3 0x461BCD PUSH1 0xE5 SHL DUP2 MSTORE PUSH1 0x20 PUSH1 0x4 DUP3 ADD MSTORE PUSH1 0x25 PUSH1 0x24 DUP3 ADD MSTORE PUSH32 0x4B65656C546F6B656E3A2065786365656473206D6F6E74686C7920616C6C6F63 PUSH1 0x44 DUP3 ADD MSTORE PUSH5 0x30BA34B7B7 PUSH1 0xD9 SHL PUSH1 0x64 DUP3 ADD MSTORE PUSH1 0x84 ADD PUSH2 0x92B JUMP JUMPDEST PUSH1 0x0 DUP2 DUP2 MSTORE PUSH1 0x1 PUSH1 0x20 MSTORE PUSH1 0x40 DUP2 KECCAK256 DUP1 SLOAD DUP8 SWAP3 SWAP1 PUSH2 0xA00 SWAP1 DUP5 SWAP1 PUSH2 0x2B78 JUMP JUMPDEST SWAP1 SWAP2 SSTORE POP PUSH2 0xA10 SWAP1 POP DUP7 DUP7 PUSH2 0x1BEC JUMP JUMPDEST PUSH2 0xA1A DUP7 DUP7 PUSH2 0x1C22 JUMP JUMPDEST PUSH1 0x40 DUP1 MLOAD DUP7 DUP2 MSTORE PUSH1 0x20 DUP2 ADD DUP7 SWAP1 MSTORE SWAP1 DUP2 ADD DUP5 SWAP1 MSTORE PUSH1 0x1 PUSH1 0x1 PUSH1 0xA0 SHL SUB DUP8 AND SWAP1 PUSH32 0x6155CFD0FD028B0CA77E8495A60CBE563E8BCE8611F0AAD6FEDBDAAFC05D44A2 SWAP1 PUSH1 0x60 ADD PUSH1 0x40 MLOAD DUP1 SWAP2 SUB SWAP1 LOG2 POP POP POP POP POP POP JUMP JUMPDEST PUSH1 0x0 PUSH1 0x1 PUSH1 0x1 PUSH1 0xE0 SHL SUB NOT DUP3 AND PUSH4 0x7965DB0B PUSH1 0xE0 SHL EQ DUP1 PUSH2 0xA9F JUMPI POP PUSH4 0x1FFC9A7 PUSH1 0xE0 SHL PUSH1 0x1 PUSH1 0x1 PUSH1 0xE0 SHL SUB NOT DUP4 AND EQ JUMPDEST SWAP3 SWAP2 POP POP JUMP JUMPDEST PUSH32 0x52C63247E1F47DB19D5CE0460030C497F067CA4CEBF71BA98EEADABE20BACE03 DUP1 SLOAD PUSH1 0x60 SWAP2 PUSH1 0x0 DUP1 MLOAD PUSH1 0x20 PUSH2 0x2D89 DUP4 CODECOPY DUP2 MLOAD SWAP2 MSTORE SWAP2 PUSH2 0xAE4 SWAP1 PUSH2 0x2BB5 JUMP JUMPDEST DUP1 PUSH1 0x1F ADD PUSH1 0x20 DUP1 SWAP2 DIV MUL PUSH1 0x20 ADD PUSH1 0x40 MLOAD SWAP1 DUP2 ADD PUSH1 0x40 MSTORE DUP1 SWAP3 SWAP2 SWAP1 DUP2 DUP2 MSTORE PUSH1 0x20 ADD DUP3 DUP1 SLOAD PUSH2 0xB10 SWAP1 PUSH2 0x2BB5 JUMP JUMPDEST DUP1 ISZERO PUSH2 0xB5D JUMPI DUP1 PUSH1 0x1F LT PUSH2 0xB32 JUMPI PUSH2 0x100 DUP1 DUP4 SLOAD DIV MUL DUP4 MSTORE SWAP2 PUSH1 0x20 ADD SWAP2 PUSH2 0xB5D JUMP JUMPDEST DUP3 ADD SWAP2 SWAP1 PUSH1 0x0 MSTORE PUSH1 0x20 PUSH1 0x0 KECCAK256 SWAP1 JUMPDEST DUP2 SLOAD DUP2 MSTORE SWAP1 PUSH1 0x1 ADD SWAP1 PUSH1 0x20 ADD DUP1 DUP4 GT PUSH2 0xB40 JUMPI DUP3 SWAP1 SUB PUSH1 0x1F AND DUP3 ADD SWAP2 JUMPDEST POP POP POP POP POP SWAP2 POP POP SWAP1 JUMP JUMPDEST PUSH1 0x0 CALLER PUSH2 0xB76 DUP2 DUP6 DUP6 PUSH2 0x1CCA JUMP JUMPDEST POP PUSH1 0x1 SWAP4 SWAP3 POP POP POP JUMP JUMPDEST PUSH1 0x0 PUSH1 0x0 DUP1 MLOAD PUSH1 0x20 PUSH2 0x2DC9 DUP4 CODECOPY DUP2 MLOAD SWAP2 MSTORE PUSH2 0xB9A DUP2 PUSH2 0x1A6B JUMP JUMPDEST PUSH1 0x0 DUP6 DUP6 DUP6 PUSH1 0x40 MLOAD PUSH1 0x20 ADD PUSH2 0xBB1 SWAP4 SWAP3 SWAP2 SWAP1 PUSH2 0x2B8B JUMP JUMPDEST PUSH1 0x40 DUP1 MLOAD PUSH1 0x1F NOT DUP2 DUP5 SUB ADD DUP2 MSTORE SWAP2 DUP2 MSTORE DUP2 MLOAD PUSH1 0x20 SWAP3 DUP4 ADD KECCAK256 PUSH1 0x0 DUP2 DUP2 MSTORE PUSH1 0x1 SWAP1 SWAP4 MSTORE SWAP2 KECCAK256 SLOAD SWAP1 SWAP2 POP ISZERO PUSH2 0xBE8 JUMPI PUSH1 0x0 SWAP3 POP POP PUSH2 0xCD8 JUMP JUMPDEST PUSH2 0xBF1 DUP7 PUSH2 0x1A78 JUMP JUMPDEST POP PUSH1 0x0 PUSH2 0xBFD DUP8 PUSH2 0x10B7 JUMP JUMPDEST SWAP1 POP PUSH1 0x0 PUSH2 0xC0A DUP9 PUSH2 0x1360 JUMP JUMPDEST SWAP1 POP DUP2 DUP2 LT PUSH2 0xC1F JUMPI PUSH1 0x0 SWAP5 POP POP POP POP PUSH2 0xCD8 JUMP JUMPDEST PUSH1 0x0 PUSH2 0xC2B DUP3 DUP5 PUSH2 0x2BEF JUMP JUMPDEST SWAP1 POP PUSH1 0x0 PUSH2 0xC38 DUP11 PUSH2 0x159D JUMP JUMPDEST SWAP1 POP DUP2 DUP2 LT PUSH2 0xC47 JUMPI DUP2 PUSH2 0xC49 JUMP JUMPDEST DUP1 JUMPDEST SWAP7 POP DUP7 PUSH1 0x0 SUB PUSH2 0xC61 JUMPI PUSH1 0x0 SWAP7 POP POP POP POP POP POP PUSH2 0xCD8 JUMP JUMPDEST PUSH1 0x0 DUP6 DUP2 MSTORE PUSH1 0x1 PUSH1 0x20 MSTORE PUSH1 0x40 SWAP1 KECCAK256 DUP8 SWAP1 SSTORE PUSH2 0xC7C DUP11 DUP9 PUSH2 0x1BEC JUMP JUMPDEST PUSH2 0xC86 DUP11 DUP9 PUSH2 0x1C22 JUMP JUMPDEST PUSH1 0x40 DUP1 MLOAD DUP9 DUP2 MSTORE PUSH1 0x20 DUP2 ADD DUP12 SWAP1 MSTORE SWAP1 DUP2 ADD DUP10 SWAP1 MSTORE PUSH1 0x1 PUSH1 0x1 PUSH1 0xA0 SHL SUB DUP12 AND SWAP1 PUSH32 0x6155CFD0FD028B0CA77E8495A60CBE563E8BCE8611F0AAD6FEDBDAAFC05D44A2 SWAP1 PUSH1 0x60 ADD PUSH1 0x40 MLOAD DUP1 SWAP2 SUB SWAP1 LOG2 POP POP POP POP POP JUMPDEST POP SWAP4 SWAP3 POP POP POP JUMP JUMPDEST PUSH1 0x0 PUSH2 0xCEB DUP2 PUSH2 0x1A6B JUMP JUMPDEST PUSH1 0x0 DUP3 GT PUSH2 0xD3B JUMPI PUSH1 0x40 MLOAD PUSH3 0x461BCD PUSH1 0xE5 SHL DUP2 MSTORE PUSH1 0x20 PUSH1 0x4 DUP3 ADD MSTORE PUSH1 0x18 PUSH1 0x24 DUP3 ADD MSTORE PUSH32 0x4B65656C546F6B656E3A207A65726F206475726174696F6E0000000000000000 PUSH1 0x44 DUP3 ADD MSTORE PUSH1 0x64 ADD PUSH2 0x92B JUMP JUMPDEST PUSH1 0x6 DUP3 SWAP1 SSTORE PUSH1 0x40 MLOAD DUP3 DUP2 MSTORE PUSH32 0xF378A0FD4AD3FFD9D7D50986F16B04ACD2DC42691C4F412F34E8EEFE883E6652 SWAP1 PUSH1 0x20 ADD JUMPDEST PUSH1 0x40 MLOAD DUP1 SWAP2 SUB SWAP1 LOG1 POP POP JUMP JUMPDEST PUSH1 0x0 DUP1 MLOAD PUSH1 0x20 PUSH2 0x2D69 DUP4 CODECOPY DUP2 MLOAD SWAP2 MSTORE PUSH2 0xD90 DUP2 PUSH2 0x1A6B JUMP JUMPDEST PUSH2 0xD99 DUP6 PUSH2 0x1A78 JUMP JUMPDEST POP PUSH1 0x2 SLOAD DUP5 PUSH2 0xDA7 DUP8 PUSH2 0x1360 JUMP JUMPDEST PUSH2 0xDB1 SWAP2 SWAP1 PUSH2 0x2B78 JUMP JUMPDEST GT ISZERO PUSH2 0xE11 JUMPI PUSH1 0x40 MLOAD PUSH3 0x461BCD PUSH1 0xE5 SHL DUP2 MSTORE PUSH1 0x20 PUSH1 0x4 DUP3 ADD MSTORE PUSH1 0x29 PUSH1 0x24 DUP3 ADD MSTORE PUSH32 0x4B65656C546F6B656E3A20726566756E6420776F756C64206578636565642077 PUSH1 0x44 DUP3 ADD MSTORE PUSH9 0x616C6C65742063617 PUSH1 0xBC SHL PUSH1 0x64 DUP3 ADD MSTORE PUSH1 0x84 ADD PUSH2 0x92B JUMP JUMPDEST PUSH2 0xE1B DUP6 DUP6 PUSH2 0x1BEC JUMP JUMPDEST TIMESTAMP DUP3 PUSH1 0x1 PUSH1 0x1 PUSH1 0x40 SHL SUB AND GT ISZERO PUSH2 0xEAF JUMPI PUSH2 0xEAA DUP6 DUP6 DUP5 PUSH1 0x1 PUSH1 0x1 PUSH1 0xA0 SHL SUB SWAP1 SWAP3 AND PUSH1 0x0 SWAP1 DUP2 MSTORE PUSH1 0x4 PUSH1 0x20 SWAP1 DUP2 MSTORE PUSH1 0x40 DUP1 DUP4 KECCAK256 DUP2 MLOAD DUP1 DUP4 ADD SWAP1 SWAP3 MSTORE PUSH1 0x1 PUSH1 0x1 PUSH1 0x80 SHL SUB SWAP5 DUP6 AND DUP3 MSTORE PUSH1 0x1 PUSH1 0x1 PUSH1 0x40 SHL SUB SWAP6 DUP7 AND DUP3 DUP5 ADD SWAP1 DUP2 MSTORE DUP2 SLOAD PUSH1 0x1 DUP2 ADD DUP4 SSTORE SWAP2 DUP6 MSTORE SWAP3 SWAP1 SWAP4 KECCAK256 SWAP1 MLOAD SWAP3 ADD DUP1 SLOAD SWAP2 MLOAD SWAP1 SWAP5 AND PUSH1 0x1 PUSH1 0x80 SHL MUL PUSH1 0x1 PUSH1 0x1 PUSH1 0xC0 SHL SUB NOT SWAP1 SWAP2 AND SWAP2 SWAP1 SWAP3 AND OR OR SWAP1 SSTORE JUMP JUMPDEST PUSH2 0xEB9 JUMP JUMPDEST PUSH2 0xEB9 DUP6 DUP6 PUSH2 0x1C22 JUMP JUMPDEST PUSH1 0x40 DUP1 MLOAD DUP6 DUP2 MSTORE PUSH1 0x20 DUP2 ADD DUP6 SWAP1 MSTORE PUSH1 0x1 PUSH1 0x1 PUSH1 0xA0 SHL SUB DUP8 AND SWAP2 PUSH32 0xDF6A2F82CBA0D26D78BF1CEC65A406255E9A6DED089697ADDA7ECF8E657E01FA SWAP2 ADD PUSH1 0x40 MLOAD DUP1 SWAP2 SUB SWAP1 LOG2 POP POP POP POP POP JUMP JUMPDEST PUSH1 0x1 PUSH1 0x1 PUSH1 0xA0 SHL SUB DUP2 AND PUSH1 0x0 SWAP1 DUP2 MSTORE PUSH1 0x4 PUSH1 0x20 SWAP1 DUP2 MSTORE PUSH1 0x40 DUP1 DUP4 KECCAK256 PUSH1 0x5 SWAP1 SWAP3 MSTORE DUP3 KECCAK256 SLOAD JUMPDEST DUP2 SLOAD DUP2 LT ISZERO PUSH2 0xFAA JUMPI TIMESTAMP DUP3 DUP3 DUP2 SLOAD DUP2 LT PUSH2 0xF44 JUMPI PUSH2 0xF44 PUSH2 0x2C02 JUMP JUMPDEST PUSH1 0x0 SWAP2 DUP3 MSTORE PUSH1 0x20 SWAP1 SWAP2 KECCAK256 ADD SLOAD PUSH1 0x1 PUSH1 0x80 SHL SWAP1 DIV PUSH1 0x1 PUSH1 0x1 PUSH1 0x40 SHL SUB AND GT PUSH2 0xF9D JUMPI DUP2 DUP2 DUP2 SLOAD DUP2 LT PUSH2 0xF77 JUMPI PUSH2 0xF77 PUSH2 0x2C02 JUMP JUMPDEST PUSH1 0x0 SWAP2 DUP3 MSTORE PUSH1 0x20 SWAP1 SWAP2 KECCAK256 ADD SLOAD PUSH2 0xF96 SWAP1 PUSH1 0x1 PUSH1 0x1 PUSH1 0x80 SHL SUB AND DUP5 PUSH2 0x2B78 JUMP JUMPDEST SWAP3 POP PUSH2 0xFA2 JUMP JUMPDEST PUSH2 0xFAA JUMP JUMPDEST PUSH1 0x1 ADD PUSH2 0xF28 JUMP JUMPDEST POP POP SWAP2 SWAP1 POP JUMP JUMPDEST PUSH1 0x0 CALLER PUSH2 0xFBF DUP6 DUP3 DUP6 PUSH2 0x1CD7 JUMP JUMPDEST PUSH2 0xFCA DUP6 DUP6 DUP6 PUSH2 0x1D38 JUMP JUMPDEST POP PUSH1 0x1 SWAP5 SWAP4 POP POP POP POP JUMP JUMPDEST PUSH1 0x0 SWAP1 DUP2 MSTORE PUSH1 0x0 DUP1 MLOAD PUSH1 0x20 PUSH2 0x2DE9 DUP4 CODECOPY DUP2 MLOAD SWAP2 MSTORE PUSH1 0x20 MSTORE PUSH1 0x40 SWAP1 KECCAK256 PUSH1 0x1 ADD SLOAD SWAP1 JUMP JUMPDEST PUSH2 0x1000 DUP3 PUSH2 0xFD5 JUMP JUMPDEST PUSH2 0x1009 DUP2 PUSH2 0x1A6B JUMP JUMPDEST PUSH2 0x1013 DUP4 DUP4 PUSH2 0x1D97 JUMP JUMPDEST POP POP POP POP JUMP JUMPDEST PUSH1 0x0 PUSH2 0x1024 DUP2 PUSH2 0x1A6B JUMP JUMPDEST PUSH1 0x3 DUP3 SWAP1 SSTORE PUSH1 0x0 DUP3 SWAP1 SSTORE PUSH1 0x40 MLOAD DUP3 DUP2 MSTORE PUSH32 0x76C5F6D0E58A17742FE2A921DC4C4AB1BC653B772D418B07E3FB907C72C5E3FA SWAP1 PUSH1 0x20 ADD PUSH2 0xD6C JUMP JUMPDEST PUSH1 0x1 PUSH1 0x1 PUSH1 0xA0 SHL SUB DUP2 AND CALLER EQ PUSH2 0x1087 JUMPI PUSH1 0x40 MLOAD PUSH4 0x334BD919 PUSH1 0xE1 SHL DUP2 MSTORE PUSH1 0x4 ADD PUSH1 0x40 MLOAD DUP1 SWAP2 SUB SWAP1 REVERT JUMPDEST PUSH2 0x1091 DUP3 DUP3 PUSH2 0x1E43 JUMP JUMPDEST POP POP POP JUMP JUMPDEST PUSH2 0x109F CALLER PUSH2 0x1A78 JUMP JUMPDEST POP PUSH2 0x10A9 DUP2 PUSH2 0x1EBF JUMP JUMPDEST PUSH2 0x10B3 CALLER DUP3 PUSH2 0x1EC9 JUMP JUMPDEST POP POP JUMP JUMPDEST PUSH1 0x1 PUSH1 0x1 PUSH1 0xA0 SHL SUB DUP2 AND PUSH1 0x0 SWAP1 DUP2 MSTORE PUSH1 0x7 PUSH1 0x20 MSTORE PUSH1 0x40 DUP2 KECCAK256 SLOAD DUP1 PUSH2 0x10DD JUMPI PUSH1 0x2 SLOAD PUSH2 0x10E8 JUMP JUMPDEST PUSH2 0x10E8 DUP2 PUSH1 0x3 PUSH2 0x2C18 JUMP JUMPDEST SWAP4 SWAP3 POP POP POP JUMP JUMPDEST PUSH2 0x10F7 PUSH2 0x204D JUMP JUMPDEST PUSH2 0x1100 DUP3 PUSH2 0x20F4 JUMP JUMPDEST PUSH2 0x10B3 DUP3 DUP3 PUSH2 0x20FF JUMP JUMPDEST PUSH1 0x0 PUSH2 0x1114 PUSH2 0x21BC JUMP JUMPDEST POP PUSH1 0x0 DUP1 MLOAD PUSH1 0x20 PUSH2 0x2DA9 DUP4 CODECOPY DUP2 MLOAD SWAP2 MSTORE SWAP1 JUMP JUMPDEST PUSH1 0x0 PUSH1 0x0 DUP1 MLOAD PUSH1 0x20 PUSH2 0x2DC9 DUP4 CODECOPY DUP2 MLOAD SWAP2 MSTORE PUSH2 0x1141 DUP2 PUSH2 0x1A6B JUMP JUMPDEST PUSH1 0x0 DUP6 GT PUSH2 0x1191 JUMPI PUSH1 0x40 MLOAD PUSH3 0x461BCD PUSH1 0xE5 SHL DUP2 MSTORE PUSH1 0x20 PUSH1 0x4 DUP3 ADD MSTORE PUSH1 0x1A PUSH1 0x24 DUP3 ADD MSTORE PUSH32 0x4B65656C546F6B656E3A207A65726F20616C6C6F636174696F6E000000000000 PUSH1 0x44 DUP3 ADD MSTORE PUSH1 0x64 ADD PUSH2 0x92B JUMP JUMPDEST PUSH1 0x1 PUSH1 0x1 PUSH1 0xA0 SHL SUB DUP7 AND PUSH1 0x0 DUP2 DUP2 MSTORE PUSH1 0x7 PUSH1 0x20 MSTORE PUSH1 0x40 SWAP1 DUP2 SWAP1 KECCAK256 DUP8 SWAP1 SSTORE MLOAD PUSH32 0x3ECE1FD855F55D2CB16B1049455CD56E21CCF0AEC61F9A4FB18616EFAAB5C955 SWAP1 PUSH2 0x11DE SWAP1 DUP9 DUP2 MSTORE PUSH1 0x20 ADD SWAP1 JUMP JUMPDEST PUSH1 0x40 MLOAD DUP1 SWAP2 SUB SWAP1 LOG2 PUSH2 0x11EF DUP7 PUSH2 0x1A78 JUMP JUMPDEST POP PUSH2 0x11FB DUP6 PUSH1 0x3 PUSH2 0x2C18 JUMP JUMPDEST DUP6 PUSH2 0x1205 DUP9 PUSH2 0x1360 JUMP JUMPDEST PUSH2 0x120F SWAP2 SWAP1 PUSH2 0x2B78 JUMP JUMPDEST GT ISZERO PUSH2 0x125D JUMPI PUSH1 0x40 MLOAD PUSH3 0x461BCD PUSH1 0xE5 SHL DUP2 MSTORE PUSH1 0x20 PUSH1 0x4 DUP3 ADD MSTORE PUSH1 0x1D PUSH1 0x24 DUP3 ADD MSTORE PUSH32 0x4B65656C546F6B656E3A20657863656564732077616C6C657420636170000000 PUSH1 0x44 DUP3 ADD MSTORE PUSH1 0x64 ADD PUSH2 0x92B JUMP JUMPDEST PUSH1 0x0 DUP7 DUP6 DUP6 PUSH1 0x40 MLOAD PUSH1 0x20 ADD PUSH2 0x1274 SWAP4 SWAP3 SWAP2 SWAP1 PUSH2 0x2B8B JUMP JUMPDEST PUSH1 0x40 MLOAD PUSH1 0x20 DUP2 DUP4 SUB SUB DUP2 MSTORE SWAP1 PUSH1 0x40 MSTORE DUP1 MLOAD SWAP1 PUSH1 0x20 ADD KECCAK256 SWAP1 POP DUP6 PUSH1 0x1 PUSH1 0x0 DUP4 DUP2 MSTORE PUSH1 0x20 ADD SWAP1 DUP2 MSTORE PUSH1 0x20 ADD PUSH1 0x0 KECCAK256 PUSH1 0x0 DUP3 DUP3 SLOAD PUSH2 0x12AF SWAP2 SWAP1 PUSH2 0x2B78 JUMP JUMPDEST SWAP1 SWAP2 SSTORE POP PUSH2 0x12BF SWAP1 POP DUP8 DUP8 PUSH2 0x1BEC JUMP JUMPDEST PUSH2 0x12C9 DUP8 DUP8 PUSH2 0x1C22 JUMP JUMPDEST PUSH1 0x40 DUP1 MLOAD DUP8 DUP2 MSTORE PUSH1 0x20 DUP2 ADD DUP8 SWAP1 MSTORE SWAP1 DUP2 ADD DUP6 SWAP1 MSTORE PUSH1 0x1 PUSH1 0x1 PUSH1 0xA0 SHL SUB DUP9 AND SWAP1 PUSH32 0x6155CFD0FD028B0CA77E8495A60CBE563E8BCE8611F0AAD6FEDBDAAFC05D44A2 SWAP1 PUSH1 0x60 ADD PUSH1 0x40 MLOAD DUP1 SWAP2 SUB SWAP1 LOG2 POP SWAP4 SWAP6 SWAP5 POP POP POP POP POP JUMP JUMPDEST PUSH1 0x0 PUSH2 0x132B DUP2 PUSH2 0x1A6B JUMP JUMPDEST PUSH1 0x2 DUP3 SWAP1 SSTORE PUSH1 0x40 MLOAD DUP3 DUP2 MSTORE PUSH32 0x4784309E6B1F1431C711EAC5E572F9BA2D542ECB5428EFC0E927B794F4E8E2C1 SWAP1 PUSH1 0x20 ADD PUSH2 0xD6C JUMP JUMPDEST PUSH1 0x1 PUSH1 0x1 PUSH1 0xA0 SHL SUB AND PUSH1 0x0 SWAP1 DUP2 MSTORE PUSH1 0x0 DUP1 MLOAD PUSH1 0x20 PUSH2 0x2D89 DUP4 CODECOPY DUP2 MLOAD SWAP2 MSTORE PUSH1 0x20 MSTORE PUSH1 0x40 SWAP1 KECCAK256 SLOAD SWAP1 JUMP JUMPDEST PUSH2 0x1391 DUP3 PUSH2 0x1A78 JUMP JUMPDEST POP PUSH2 0x139C DUP3 DUP3 PUSH2 0x2205 JUMP JUMPDEST PUSH2 0x1091 DUP3 DUP3 PUSH2 0x1EC9 JUMP JUMPDEST PUSH1 0x0 PUSH2 0x13B1 DUP2 PUSH2 0x1A6B JUMP JUMPDEST PUSH1 0x1 PUSH1 0x1 PUSH1 0xA0 SHL SUB DUP4 AND PUSH1 0x0 DUP2 DUP2 MSTORE PUSH1 0x7 PUSH1 0x20 MSTORE PUSH1 0x40 SWAP1 DUP2 SWAP1 KECCAK256 DUP5 SWAP1 SSTORE MLOAD PUSH32 0x3ECE1FD855F55D2CB16B1049455CD56E21CCF0AEC61F9A4FB18616EFAAB5C955 SWAP1 PUSH2 0x13FE SWAP1 DUP6 DUP2 MSTORE PUSH1 0x20 ADD SWAP1 JUMP JUMPDEST PUSH1 0x40 MLOAD DUP1 SWAP2 SUB SWAP1 LOG2 POP POP POP JUMP JUMPDEST PUSH1 0x0 PUSH2 0x1416 DUP2 PUSH2 0x1A6B JUMP JUMPDEST PUSH1 0x0 DUP3 SWAP1 SSTORE PUSH1 0x3 DUP3 SWAP1 SSTORE PUSH1 0x40 MLOAD DUP3 DUP2 MSTORE PUSH32 0x76C5F6D0E58A17742FE2A921DC4C4AB1BC653B772D418B07E3FB907C72C5E3FA SWAP1 PUSH1 0x20 ADD PUSH2 0xD6C JUMP JUMPDEST PUSH1 0x0 SWAP2 DUP3 MSTORE PUSH1 0x0 DUP1 MLOAD PUSH1 0x20 PUSH2 0x2DE9 DUP4 CODECOPY DUP2 MLOAD SWAP2 MSTORE PUSH1 0x20 SWAP1 DUP2 MSTORE PUSH1 0x40 DUP1 DUP5 KECCAK256 PUSH1 0x1 PUSH1 0x1 PUSH1 0xA0 SHL SUB SWAP4 SWAP1 SWAP4 AND DUP5 MSTORE SWAP2 SWAP1 MSTORE SWAP1 KECCAK256 SLOAD PUSH1 0xFF AND SWAP1 JUMP JUMPDEST PUSH1 0x1 PUSH1 0x1 PUSH1 0xA0 SHL SUB DUP3 AND PUSH1 0x0 SWAP1 DUP2 MSTORE PUSH1 0x4 PUSH1 0x20 MSTORE PUSH1 0x40 DUP2 KECCAK256 DUP2 PUSH2 0x14AB DUP5 TIMESTAMP PUSH2 0x2B78 JUMP JUMPDEST PUSH1 0x1 PUSH1 0x1 PUSH1 0xA0 SHL SUB DUP7 AND PUSH1 0x0 SWAP1 DUP2 MSTORE PUSH1 0x5 PUSH1 0x20 MSTORE PUSH1 0x40 SWAP1 KECCAK256 SLOAD SWAP1 SWAP2 POP JUMPDEST DUP3 SLOAD DUP2 LT ISZERO PUSH2 0x154A JUMPI DUP2 DUP4 DUP3 DUP2 SLOAD DUP2 LT PUSH2 0x14E4 JUMPI PUSH2 0x14E4 PUSH2 0x2C02 JUMP JUMPDEST PUSH1 0x0 SWAP2 DUP3 MSTORE PUSH1 0x20 SWAP1 SWAP2 KECCAK256 ADD SLOAD PUSH1 0x1 PUSH1 0x80 SHL SWAP1 DIV PUSH1 0x1 PUSH1 0x1 PUSH1 0x40 SHL SUB AND GT PUSH2 0x153D JUMPI DUP3 DUP2 DUP2 SLOAD DUP2 LT PUSH2 0x1517 JUMPI PUSH2 0x1517 PUSH2 0x2C02 JUMP JUMPDEST PUSH1 0x0 SWAP2 DUP3 MSTORE PUSH1 0x20 SWAP1 SWAP2 KECCAK256 ADD SLOAD PUSH2 0x1536 SWAP1 PUSH1 0x1 PUSH1 0x1 PUSH1 0x80 SHL SUB AND DUP6 PUSH2 0x2B78 JUMP JUMPDEST SWAP4 POP PUSH2 0x1542 JUMP JUMPDEST PUSH2 0x154A JUMP JUMPDEST PUSH1 0x1 ADD PUSH2 0x14C8 JUMP JUMPDEST POP POP POP SWAP3 SWAP2 POP POP JUMP JUMPDEST PUSH32 0x52C63247E1F47DB19D5CE0460030C497F067CA4CEBF71BA98EEADABE20BACE04 DUP1 SLOAD PUSH1 0x60 SWAP2 PUSH1 0x0 DUP1 MLOAD PUSH1 0x20 PUSH2 0x2D89 DUP4 CODECOPY DUP2 MLOAD SWAP2 MSTORE SWAP2 PUSH2 0xAE4 SWAP1 PUSH2 0x2BB5 JUMP JUMPDEST PUSH1 0x0 PUSH2 0xA9F DUP3 PUSH2 0x1A78 JUMP JUMPDEST PUSH1 0x1 PUSH1 0x1 PUSH1 0xA0 SHL SUB DUP2 AND PUSH1 0x0 SWAP1 DUP2 MSTORE PUSH1 0x7 PUSH1 0x20 MSTORE PUSH1 0x40 DUP2 KECCAK256 SLOAD DUP1 PUSH2 0xA9F JUMPI PUSH1 0x3 SLOAD PUSH2 0x10E8 JUMP JUMPDEST PUSH1 0x0 CALLER PUSH2 0xB76 DUP2 DUP6 DUP6 PUSH2 0x1D38 JUMP JUMPDEST PUSH1 0x0 PUSH2 0x15DB PUSH2 0x221A JUMP JUMPDEST DUP1 SLOAD SWAP1 SWAP2 POP PUSH1 0xFF PUSH1 0x1 PUSH1 0x40 SHL DUP3 DIV AND ISZERO SWAP1 PUSH1 0x1 PUSH1 0x1 PUSH1 0x40 SHL SUB AND PUSH1 0x0 DUP2 ISZERO DUP1 ISZERO PUSH2 0x1602 JUMPI POP DUP3 JUMPDEST SWAP1 POP PUSH1 0x0 DUP3 PUSH1 0x1 PUSH1 0x1 PUSH1 0x40 SHL SUB AND PUSH1 0x1 EQ DUP1 ISZERO PUSH2 0x161E JUMPI POP ADDRESS EXTCODESIZE ISZERO JUMPDEST SWAP1 POP DUP2 ISZERO DUP1 ISZERO PUSH2 0x162C JUMPI POP DUP1 ISZERO JUMPDEST ISZERO PUSH2 0x164A JUMPI PUSH1 0x40 MLOAD PUSH4 0xF92EE8A9 PUSH1 0xE0 SHL DUP2 MSTORE PUSH1 0x4 ADD PUSH1 0x40 MLOAD DUP1 SWAP2 SUB SWAP1 REVERT JUMPDEST DUP5 SLOAD PUSH8 0xFFFFFFFFFFFFFFFF NOT AND PUSH1 0x1 OR DUP6 SSTORE DUP4 ISZERO PUSH2 0x1674 JUMPI DUP5 SLOAD PUSH1 0xFF PUSH1 0x40 SHL NOT AND PUSH1 0x1 PUSH1 0x40 SHL OR DUP6 SSTORE JUMPDEST PUSH2 0x16BC PUSH1 0x40 MLOAD DUP1 PUSH1 0x40 ADD PUSH1 0x40 MSTORE DUP1 PUSH1 0xA DUP2 MSTORE PUSH1 0x20 ADD PUSH10 0x25B2B2B6102A37B5B2B7 PUSH1 0xB1 SHL DUP2 MSTORE POP PUSH1 0x40 MLOAD DUP1 PUSH1 0x40 ADD PUSH1 0x40 MSTORE DUP1 PUSH1 0x4 DUP2 MSTORE PUSH1 0x20 ADD PUSH4 0x12D15153 PUSH1 0xE2 SHL DUP2 MSTORE POP PUSH2 0x2243 JUMP JUMPDEST PUSH2 0x16C4 PUSH2 0x2255 JUMP JUMPDEST PUSH2 0x16CC PUSH2 0x2255 JUMP JUMPDEST PUSH9 0x56BC75E2D63100000 PUSH1 0x0 DUP2 DUP2 SSTORE PUSH9 0x1043561A8829300000 PUSH1 0x2 SSTORE PUSH1 0x3 SWAP2 SWAP1 SWAP2 SSTORE PUSH3 0x76A700 PUSH1 0x6 SSTORE PUSH2 0x16FF SWAP1 DUP8 PUSH2 0x1D97 JUMP JUMPDEST POP PUSH2 0x1718 PUSH1 0x0 DUP1 MLOAD PUSH1 0x20 PUSH2 0x2DC9 DUP4 CODECOPY DUP2 MLOAD SWAP2 MSTORE DUP8 PUSH2 0x1D97 JUMP JUMPDEST POP PUSH2 0x1731 PUSH1 0x0 DUP1 MLOAD PUSH1 0x20 PUSH2 0x2D69 DUP4 CODECOPY DUP2 MLOAD SWAP2 MSTORE DUP8 PUSH2 0x1D97 JUMP JUMPDEST POP DUP4 ISZERO PUSH2 0x1778 JUMPI DUP5 SLOAD PUSH1 0xFF PUSH1 0x40 SHL NOT AND DUP6 SSTORE PUSH1 0x40 MLOAD PUSH1 0x1 DUP2 MSTORE PUSH32 0xC7F505B2F371AE2175EE4913F4499E1F2633A7B5936321EED1CDAEB6115181D2 SWAP1 PUSH1 0x20 ADD PUSH1 0x40 MLOAD DUP1 SWAP2 SUB SWAP1 LOG1 JUMPDEST POP POP POP POP POP POP JUMP JUMPDEST PUSH2 0x1789 DUP3 PUSH2 0xFD5 JUMP JUMPDEST PUSH2 0x1792 DUP2 PUSH2 0x1A6B JUMP JUMPDEST PUSH2 0x1013 DUP4 DUP4 PUSH2 0x1E43 JUMP JUMPDEST PUSH1 0x1 PUSH1 0x1 PUSH1 0xA0 SHL SUB SWAP2 DUP3 AND PUSH1 0x0 SWAP1 DUP2 MSTORE PUSH32 0x52C63247E1F47DB19D5CE0460030C497F067CA4CEBF71BA98EEADABE20BACE01 PUSH1 0x20 SWAP1 DUP2 MSTORE PUSH1 0x40 DUP1 DUP4 KECCAK256 SWAP4 SWAP1 SWAP5 AND DUP3 MSTORE SWAP2 SWAP1 SWAP2 MSTORE KECCAK256 SLOAD SWAP1 JUMP JUMPDEST PUSH1 0x0 PUSH1 0x0 DUP1 MLOAD PUSH1 0x20 PUSH2 0x2D69 DUP4 CODECOPY DUP2 MLOAD SWAP2 MSTORE PUSH2 0x1800 DUP2 PUSH2 0x1A6B JUMP JUMPDEST PUSH2 0x1809 DUP6 PUSH2 0x1A78 JUMP JUMPDEST POP PUSH2 0x1814 DUP6 DUP6 PUSH2 0x225D JUMP JUMPDEST PUSH2 0x181E DUP6 DUP6 PUSH2 0x1EC9 JUMP JUMPDEST PUSH1 0x40 DUP1 MLOAD DUP7 DUP2 MSTORE PUSH1 0x20 DUP2 ADD DUP7 SWAP1 MSTORE SWAP2 SWAP4 POP PUSH1 0x1 PUSH1 0x1 PUSH1 0xA0 SHL SUB DUP8 AND SWAP2 PUSH32 0x91092D853D5AEE7E7F449F0A7CE64C055E863F2CF9C9C594AA080AEC40FEA720 SWAP2 ADD PUSH1 0x40 MLOAD DUP1 SWAP2 SUB SWAP1 LOG2 POP SWAP4 SWAP3 POP POP POP JUMP JUMPDEST PUSH1 0x1 PUSH1 0x1 PUSH1 0xA0 SHL SUB DUP2 AND PUSH1 0x0 SWAP1 DUP2 MSTORE PUSH1 0x4 PUSH1 0x20 SWAP1 DUP2 MSTORE PUSH1 0x40 DUP1 DUP4 KECCAK256 PUSH1 0x5 SWAP1 SWAP3 MSTORE DUP3 KECCAK256 SLOAD DUP2 SLOAD PUSH1 0x60 SWAP4 DUP5 SWAP4 SWAP3 SWAP2 PUSH2 0x18A4 SWAP1 DUP4 SWAP1 PUSH2 0x2BEF JUMP JUMPDEST SWAP1 POP DUP1 PUSH1 0x1 PUSH1 0x1 PUSH1 0x40 SHL SUB DUP2 GT ISZERO PUSH2 0x18BE JUMPI PUSH2 0x18BE PUSH2 0x29DD JUMP JUMPDEST PUSH1 0x40 MLOAD SWAP1 DUP1 DUP3 MSTORE DUP1 PUSH1 0x20 MUL PUSH1 0x20 ADD DUP3 ADD PUSH1 0x40 MSTORE DUP1 ISZERO PUSH2 0x18E7 JUMPI DUP2 PUSH1 0x20 ADD PUSH1 0x20 DUP3 MUL DUP1 CALLDATASIZE DUP4 CALLDATACOPY ADD SWAP1 POP JUMPDEST POP SWAP5 POP DUP1 PUSH1 0x1 PUSH1 0x1 PUSH1 0x40 SHL SUB DUP2 GT ISZERO PUSH2 0x1902 JUMPI PUSH2 0x1902 PUSH2 0x29DD JUMP JUMPDEST PUSH1 0x40 MLOAD SWAP1 DUP1 DUP3 MSTORE DUP1 PUSH1 0x20 MUL PUSH1 0x20 ADD DUP3 ADD PUSH1 0x40 MSTORE DUP1 ISZERO PUSH2 0x192B JUMPI DUP2 PUSH1 0x20 ADD PUSH1 0x20 DUP3 MUL DUP1 CALLDATASIZE DUP4 CALLDATACOPY ADD SWAP1 POP JUMPDEST POP SWAP4 POP PUSH1 0x0 JUMPDEST DUP2 DUP2 LT ISZERO PUSH2 0x19F9 JUMPI DUP4 PUSH2 0x1944 DUP3 DUP6 PUSH2 0x2B78 JUMP JUMPDEST DUP2 SLOAD DUP2 LT PUSH2 0x1954 JUMPI PUSH2 0x1954 PUSH2 0x2C02 JUMP JUMPDEST PUSH1 0x0 SWAP2 DUP3 MSTORE PUSH1 0x20 SWAP1 SWAP2 KECCAK256 ADD SLOAD DUP7 MLOAD PUSH1 0x1 PUSH1 0x1 PUSH1 0x80 SHL SUB SWAP1 SWAP2 AND SWAP1 DUP8 SWAP1 DUP4 SWAP1 DUP2 LT PUSH2 0x1980 JUMPI PUSH2 0x1980 PUSH2 0x2C02 JUMP JUMPDEST PUSH1 0x20 SWAP1 DUP2 MUL SWAP2 SWAP1 SWAP2 ADD ADD MSTORE DUP4 PUSH2 0x1996 DUP3 DUP6 PUSH2 0x2B78 JUMP JUMPDEST DUP2 SLOAD DUP2 LT PUSH2 0x19A6 JUMPI PUSH2 0x19A6 PUSH2 0x2C02 JUMP JUMPDEST SWAP1 PUSH1 0x0 MSTORE PUSH1 0x20 PUSH1 0x0 KECCAK256 ADD PUSH1 0x0 ADD PUSH1 0x10 SWAP1 SLOAD SWAP1 PUSH2 0x100 EXP SWAP1 DIV PUSH1 0x1 PUSH1 0x1 PUSH1 0x40 SHL SUB AND DUP6 DUP3 DUP2 MLOAD DUP2 LT PUSH2 0x19D9 JUMPI PUSH2 0x19D9 PUSH2 0x2C02 JUMP JUMPDEST PUSH1 0x1 PUSH1 0x1 PUSH1 0x40 SHL SUB SWAP1 SWAP3 AND PUSH1 0x20 SWAP3 DUP4 MUL SWAP2 SWAP1 SWAP2 ADD SWAP1 SWAP2 ADD MSTORE PUSH1 0x1 ADD PUSH2 0x1931 JUMP JUMPDEST POP POP POP POP SWAP2 POP SWAP2 JUMP JUMPDEST PUSH1 0x1 PUSH1 0x1 PUSH1 0xA0 SHL SUB DUP2 AND PUSH1 0x0 SWAP1 DUP2 MSTORE PUSH1 0x4 PUSH1 0x20 SWAP1 DUP2 MSTORE PUSH1 0x40 DUP1 DUP4 KECCAK256 PUSH1 0x5 SWAP1 SWAP3 MSTORE DUP3 KECCAK256 SLOAD DUP2 SLOAD DUP2 LT PUSH2 0x1A34 JUMPI PUSH1 0x0 PUSH2 0x1A63 JUMP JUMPDEST DUP2 DUP2 DUP2 SLOAD DUP2 LT PUSH2 0x1A46 JUMPI PUSH2 0x1A46 PUSH2 0x2C02 JUMP JUMPDEST PUSH1 0x0 SWAP2 DUP3 MSTORE PUSH1 0x20 SWAP1 SWAP2 KECCAK256 ADD SLOAD PUSH1 0x1 PUSH1 0x80 SHL SWAP1 DIV PUSH1 0x1 PUSH1 0x1 PUSH1 0x40 SHL SUB AND JUMPDEST SWAP5 SWAP4 POP POP POP POP JUMP JUMPDEST PUSH2 0x1A75 DUP2 CALLER PUSH2 0x2293 JUMP JUMPDEST POP JUMP JUMPDEST PUSH1 0x1 PUSH1 0x1 PUSH1 0xA0 SHL SUB DUP2 AND PUSH1 0x0 SWAP1 DUP2 MSTORE PUSH1 0x4 PUSH1 0x20 SWAP1 DUP2 MSTORE PUSH1 0x40 DUP1 DUP4 KECCAK256 PUSH1 0x5 SWAP1 SWAP3 MSTORE DUP3 KECCAK256 SLOAD JUMPDEST DUP2 SLOAD DUP2 LT DUP1 ISZERO PUSH2 0x1AD9 JUMPI POP TIMESTAMP DUP3 DUP3 DUP2 SLOAD DUP2 LT PUSH2 0x1ABA JUMPI PUSH2 0x1ABA PUSH2 0x2C02 JUMP JUMPDEST PUSH1 0x0 SWAP2 DUP3 MSTORE PUSH1 0x20 SWAP1 SWAP2 KECCAK256 ADD SLOAD PUSH1 0x1 PUSH1 0x80 SHL SWAP1 DIV PUSH1 0x1 PUSH1 0x1 PUSH1 0x40 SHL SUB AND GT ISZERO JUMPDEST ISZERO PUSH2 0x1B4E JUMPI DUP2 DUP2 DUP2 SLOAD DUP2 LT PUSH2 0x1AF0 JUMPI PUSH2 0x1AF0 PUSH2 0x2C02 JUMP JUMPDEST PUSH1 0x0 SWAP2 DUP3 MSTORE PUSH1 0x20 SWAP1 SWAP2 KECCAK256 ADD SLOAD PUSH2 0x1B0F SWAP1 PUSH1 0x1 PUSH1 0x1 PUSH1 0x80 SHL SUB AND DUP5 PUSH2 0x2B78 JUMP JUMPDEST SWAP3 POP DUP2 DUP2 DUP2 SLOAD DUP2 LT PUSH2 0x1B23 JUMPI PUSH2 0x1B23 PUSH2 0x2C02 JUMP JUMPDEST PUSH1 0x0 SWAP2 DUP3 MSTORE PUSH1 0x20 SWAP1 SWAP2 KECCAK256 ADD DUP1 SLOAD PUSH1 0x1 PUSH1 0x1 PUSH1 0xC0 SHL SUB NOT AND SWAP1 SSTORE DUP1 PUSH2 0x1B46 DUP2 PUSH2 0x2C2F JUMP JUMPDEST SWAP2 POP POP PUSH2 0x1A9C JUMP JUMPDEST PUSH1 0x1 PUSH1 0x1 PUSH1 0xA0 SHL SUB DUP5 AND PUSH1 0x0 SWAP1 DUP2 MSTORE PUSH1 0x5 PUSH1 0x20 MSTORE PUSH1 0x40 SWAP1 KECCAK256 DUP2 SWAP1 SSTORE DUP3 ISZERO PUSH2 0xFAA JUMPI PUSH1 0x0 PUSH2 0x1B7A DUP6 PUSH2 0x1360 JUMP JUMPDEST SWAP1 POP PUSH1 0x0 DUP2 DUP6 GT PUSH2 0x1B8B JUMPI DUP5 PUSH2 0x1B8D JUMP JUMPDEST DUP2 JUMPDEST SWAP1 POP DUP1 ISZERO PUSH2 0x1BE3 JUMPI PUSH2 0x1B9F DUP7 DUP3 PUSH2 0x225D JUMP JUMPDEST DUP6 PUSH1 0x1 PUSH1 0x1 PUSH1 0xA0 SHL SUB AND PUSH32 0xB6760691439212C96C82DE5A8C06D20538B67C05B36AD9DF36823B6C19E121C9 DUP3 PUSH1 0x40 MLOAD PUSH2 0x1BDA SWAP2 DUP2 MSTORE PUSH1 0x20 ADD SWAP1 JUMP JUMPDEST PUSH1 0x40 MLOAD DUP1 SWAP2 SUB SWAP1 LOG2 JUMPDEST POP POP POP POP SWAP2 SWAP1 POP JUMP JUMPDEST PUSH1 0x1 PUSH1 0x1 PUSH1 0xA0 SHL SUB DUP3 AND PUSH2 0x1C16 JUMPI PUSH1 0x40 MLOAD PUSH4 0xEC442F05 PUSH1 0xE0 SHL DUP2 MSTORE PUSH1 0x0 PUSH1 0x4 DUP3 ADD MSTORE PUSH1 0x24 ADD PUSH2 0x92B JUMP JUMPDEST PUSH2 0x10B3 PUSH1 0x0 DUP4 DUP4 PUSH2 0x22CC JUMP JUMPDEST PUSH1 0x4 PUSH1 0x0 DUP4 PUSH1 0x1 PUSH1 0x1 PUSH1 0xA0 SHL SUB AND PUSH1 0x1 PUSH1 0x1 PUSH1 0xA0 SHL SUB AND DUP2 MSTORE PUSH1 0x20 ADD SWAP1 DUP2 MSTORE PUSH1 0x20 ADD PUSH1 0x0 KECCAK256 PUSH1 0x40 MLOAD DUP1 PUSH1 0x40 ADD PUSH1 0x40 MSTORE DUP1 DUP4 PUSH1 0x1 PUSH1 0x1 PUSH1 0x80 SHL SUB AND DUP2 MSTORE PUSH1 0x20 ADD PUSH2 0x1C69 PUSH2 0x2340 JUMP JUMPDEST PUSH2 0x1C73 SWAP1 TIMESTAMP PUSH2 0x2B78 JUMP JUMPDEST PUSH1 0x1 PUSH1 0x1 PUSH1 0x40 SHL SUB SWAP1 DUP2 AND SWAP1 SWAP2 MSTORE DUP3 SLOAD PUSH1 0x1 DUP2 ADD DUP5 SSTORE PUSH1 0x0 SWAP4 DUP5 MSTORE PUSH1 0x20 SWAP4 DUP5 SWAP1 KECCAK256 DUP4 MLOAD SWAP2 ADD DUP1 SLOAD SWAP5 SWAP1 SWAP4 ADD MLOAD SWAP1 SWAP2 AND PUSH1 0x1 PUSH1 0x80 SHL MUL PUSH1 0x1 PUSH1 0x1 PUSH1 0xC0 SHL SUB NOT SWAP1 SWAP4 AND PUSH1 0x1 PUSH1 0x1 PUSH1 0x80 SHL SUB SWAP1 SWAP2 AND OR SWAP2 SWAP1 SWAP2 OR SWAP1 SSTORE POP POP JUMP JUMPDEST PUSH2 0x1091 DUP4 DUP4 DUP4 PUSH1 0x1 PUSH2 0x235B JUMP JUMPDEST PUSH1 0x0 PUSH2 0x1CE3 DUP5 DUP5 PUSH2 0x179C JUMP JUMPDEST SWAP1 POP PUSH1 0x0 NOT DUP2 LT ISZERO PUSH2 0x1013 JUMPI DUP2 DUP2 LT ISZERO PUSH2 0x1D29 JUMPI PUSH1 0x40 MLOAD PUSH4 0x7DC7A0D9 PUSH1 0xE1 SHL DUP2 MSTORE PUSH1 0x1 PUSH1 0x1 PUSH1 0xA0 SHL SUB DUP5 AND PUSH1 0x4 DUP3 ADD MSTORE PUSH1 0x24 DUP2 ADD DUP3 SWAP1 MSTORE PUSH1 0x44 DUP2 ADD DUP4 SWAP1 MSTORE PUSH1 0x64 ADD PUSH2 0x92B JUMP JUMPDEST PUSH2 0x1013 DUP5 DUP5 DUP5 DUP5 SUB PUSH1 0x0 PUSH2 0x235B JUMP JUMPDEST PUSH1 0x1 PUSH1 0x1 PUSH1 0xA0 SHL SUB DUP4 AND PUSH2 0x1D62 JUMPI PUSH1 0x40 MLOAD PUSH4 0x4B637E8F PUSH1 0xE1 SHL DUP2 MSTORE PUSH1 0x0 PUSH1 0x4 DUP3 ADD MSTORE PUSH1 0x24 ADD PUSH2 0x92B JUMP JUMPDEST PUSH1 0x1 PUSH1 0x1 PUSH1 0xA0 SHL SUB DUP3 AND PUSH2 0x1D8C JUMPI PUSH1 0x40 MLOAD PUSH4 0xEC442F05 PUSH1 0xE0 SHL DUP2 MSTORE PUSH1 0x0 PUSH1 0x4 DUP3 ADD MSTORE PUSH1 0x24 ADD PUSH2 0x92B JUMP JUMPDEST PUSH2 0x1091 DUP4 DUP4 DUP4 PUSH2 0x22CC JUMP JUMPDEST PUSH1 0x0 PUSH1 0x0 DUP1 MLOAD PUSH1 0x20 PUSH2 0x2DE9 DUP4 CODECOPY DUP2 MLOAD SWAP2 MSTORE PUSH2 0x1DB2 DUP5 DUP5 PUSH2 0x1450 JUMP JUMPDEST PUSH2 0x1E32 JUMPI PUSH1 0x0 DUP5 DUP2 MSTORE PUSH1 0x20 DUP3 DUP2 MSTORE PUSH1 0x40 DUP1 DUP4 KECCAK256 PUSH1 0x1 PUSH1 0x1 PUSH1 0xA0 SHL SUB DUP8 AND DUP5 MSTORE SWAP1 SWAP2 MSTORE SWAP1 KECCAK256 DUP1 SLOAD PUSH1 0xFF NOT AND PUSH1 0x1 OR SWAP1 SSTORE PUSH2 0x1DE8 CALLER SWAP1 JUMP JUMPDEST PUSH1 0x1 PUSH1 0x1 PUSH1 0xA0 SHL SUB AND DUP4 PUSH1 0x1 PUSH1 0x1 PUSH1 0xA0 SHL SUB AND DUP6 PUSH32 0x2F8788117E7EFF1D82E926EC794901D17C78024A50270940304540A733656F0D PUSH1 0x40 MLOAD PUSH1 0x40 MLOAD DUP1 SWAP2 SUB SWAP1 LOG4 PUSH1 0x1 SWAP2 POP POP PUSH2 0xA9F JUMP JUMPDEST PUSH1 0x0 SWAP2 POP POP PUSH2 0xA9F JUMP JUMPDEST POP SWAP3 SWAP2 POP POP JUMP JUMPDEST PUSH1 0x0 PUSH1 0x0 DUP1 MLOAD PUSH1 0x20 PUSH2 0x2DE9 DUP4 CODECOPY DUP2 MLOAD SWAP2 MSTORE PUSH2 0x1E5E DUP5 DUP5 PUSH2 0x1450 JUMP JUMPDEST ISZERO PUSH2 0x1E32 JUMPI PUSH1 0x0 DUP5 DUP2 MSTORE PUSH1 0x20 DUP3 DUP2 MSTORE PUSH1 0x40 DUP1 DUP4 KECCAK256 PUSH1 0x1 PUSH1 0x1 PUSH1 0xA0 SHL SUB DUP8 AND DUP1 DUP6 MSTORE SWAP3 MSTORE DUP1 DUP4 KECCAK256 DUP1 SLOAD PUSH1 0xFF NOT AND SWAP1 SSTORE MLOAD CALLER SWAP3 DUP8 SWAP2 PUSH32 0xF6391F5C32D9C69D2A47EA670B442974B53935D1EDC7FD64EB21E047A839171B SWAP2 SWAP1 LOG4 PUSH1 0x1 SWAP2 POP POP PUSH2 0xA9F JUMP JUMPDEST PUSH2 0x1A75 CALLER DUP3 PUSH2 0x225D JUMP JUMPDEST PUSH1 0x1 PUSH1 0x1 PUSH1 0xA0 SHL SUB DUP3 AND PUSH1 0x0 SWAP1 DUP2 MSTORE PUSH1 0x4 PUSH1 0x20 SWAP1 DUP2 MSTORE PUSH1 0x40 DUP1 DUP4 KECCAK256 PUSH1 0x5 SWAP1 SWAP3 MSTORE DUP3 KECCAK256 SLOAD DUP4 JUMPDEST PUSH1 0x0 DUP2 GT DUP1 ISZERO PUSH2 0x1EFE JUMPI POP DUP3 SLOAD DUP3 LT JUMPDEST ISZERO PUSH2 0x2029 JUMPI DUP4 PUSH1 0x1 PUSH1 0x1 PUSH1 0x40 SHL SUB AND PUSH1 0x0 SUB PUSH2 0x1F45 JUMPI DUP3 DUP3 DUP2 SLOAD DUP2 LT PUSH2 0x1F26 JUMPI PUSH2 0x1F26 PUSH2 0x2C02 JUMP JUMPDEST PUSH1 0x0 SWAP2 DUP3 MSTORE PUSH1 0x20 SWAP1 SWAP2 KECCAK256 ADD SLOAD PUSH1 0x1 PUSH1 0x80 SHL SWAP1 DIV PUSH1 0x1 PUSH1 0x1 PUSH1 0x40 SHL SUB AND SWAP4 POP JUMPDEST PUSH1 0x0 DUP4 DUP4 DUP2 SLOAD DUP2 LT PUSH2 0x1F59 JUMPI PUSH2 0x1F59 PUSH2 0x2C02 JUMP JUMPDEST PUSH1 0x0 SWAP2 DUP3 MSTORE PUSH1 0x20 SWAP1 SWAP2 KECCAK256 ADD SLOAD PUSH1 0x1 PUSH1 0x1 PUSH1 0x80 SHL SUB AND SWAP1 POP DUP2 DUP2 GT PUSH2 0x1FC9 JUMPI PUSH2 0x1F8A PUSH1 0x1 PUSH1 0x1 PUSH1 0x80 SHL SUB DUP3 AND DUP4 PUSH2 0x2BEF JUMP JUMPDEST SWAP2 POP DUP4 DUP4 DUP2 SLOAD DUP2 LT PUSH2 0x1F9E JUMPI PUSH2 0x1F9E PUSH2 0x2C02 JUMP JUMPDEST PUSH1 0x0 SWAP2 DUP3 MSTORE PUSH1 0x20 SWAP1 SWAP2 KECCAK256 ADD DUP1 SLOAD PUSH1 0x1 PUSH1 0x1 PUSH1 0xC0 SHL SUB NOT AND SWAP1 SSTORE DUP3 PUSH2 0x1FC1 DUP2 PUSH2 0x2C2F JUMP JUMPDEST SWAP4 POP POP PUSH2 0x2023 JUMP JUMPDEST PUSH2 0x1FDC DUP3 PUSH1 0x1 PUSH1 0x1 PUSH1 0x80 SHL SUB DUP4 AND PUSH2 0x2BEF JUMP JUMPDEST DUP5 DUP5 DUP2 SLOAD DUP2 LT PUSH2 0x1FEE JUMPI PUSH2 0x1FEE PUSH2 0x2C02 JUMP JUMPDEST PUSH1 0x0 SWAP2 DUP3 MSTORE PUSH1 0x20 DUP3 KECCAK256 ADD DUP1 SLOAD PUSH16 0xFFFFFFFFFFFFFFFFFFFFFFFFFFFFFFFF NOT AND PUSH1 0x1 PUSH1 0x1 PUSH1 0x80 SHL SUB SWAP4 SWAP1 SWAP4 AND SWAP3 SWAP1 SWAP3 OR SWAP1 SWAP2 SSTORE SWAP2 POP JUMPDEST POP PUSH2 0x1EEE JUMP JUMPDEST POP PUSH1 0x1 PUSH1 0x1 PUSH1 0xA0 SHL SUB SWAP1 SWAP5 AND PUSH1 0x0 SWAP1 DUP2 MSTORE PUSH1 0x5 PUSH1 0x20 MSTORE PUSH1 0x40 SWAP1 KECCAK256 SWAP4 SWAP1 SWAP4 SSTORE SWAP3 SWAP2 POP POP JUMP JUMPDEST ADDRESS PUSH1 0x1 PUSH1 0x1 PUSH1 0xA0 SHL SUB PUSH32 0x0 AND EQ DUP1 PUSH2 0x20D4 JUMPI POP PUSH32 0x0 PUSH1 0x1 PUSH1 0x1 PUSH1 0xA0 SHL SUB AND PUSH2 0x20C8 PUSH1 0x0 DUP1 MLOAD PUSH1 0x20 PUSH2 0x2DA9 DUP4 CODECOPY DUP2 MLOAD SWAP2 MSTORE SLOAD PUSH1 0x1 PUSH1 0x1 PUSH1 0xA0 SHL SUB AND SWAP1 JUMP JUMPDEST PUSH1 0x1 PUSH1 0x1 PUSH1 0xA0 SHL SUB AND EQ ISZERO JUMPDEST ISZERO PUSH2 0x20F2 JUMPI PUSH1 0x40 MLOAD PUSH4 0x703E46DD PUSH1 0xE1 SHL DUP2 MSTORE PUSH1 0x4 ADD PUSH1 0x40 MLOAD DUP1 SWAP2 SUB SWAP1 REVERT JUMPDEST JUMP JUMPDEST PUSH1 0x0 PUSH2 0x10B3 DUP2 PUSH2 0x1A6B JUMP JUMPDEST DUP2 PUSH1 0x1 PUSH1 0x1 PUSH1 0xA0 SHL SUB AND PUSH4 0x52D1902D PUSH1 0x40 MLOAD DUP2 PUSH4 0xFFFFFFFF AND PUSH1 0xE0 SHL DUP2 MSTORE PUSH1 0x4 ADD PUSH1 0x20 PUSH1 0x40 MLOAD DUP1 DUP4 SUB DUP2 DUP7 GAS STATICCALL SWAP3 POP POP POP DUP1 ISZERO PUSH2 0x2159 JUMPI POP PUSH1 0x40 DUP1 MLOAD PUSH1 0x1F RETURNDATASIZE SWAP1 DUP2 ADD PUSH1 0x1F NOT AND DUP3 ADD SWAP1 SWAP3 MSTORE PUSH2 0x2156 SWAP2 DUP2 ADD SWAP1 PUSH2 0x2C48 JUMP JUMPDEST PUSH1 0x1 JUMPDEST PUSH2 0x2181 JUMPI PUSH1 0x40 MLOAD PUSH4 0x4C9C8CE3 PUSH1 0xE0 SHL DUP2 MSTORE PUSH1 0x1 PUSH1 0x1 PUSH1 0xA0 SHL SUB DUP4 AND PUSH1 0x4 DUP3 ADD MSTORE PUSH1 0x24 ADD PUSH2 0x92B JUMP JUMPDEST PUSH1 0x0 DUP1 MLOAD PUSH1 0x20 PUSH2 0x2DA9 DUP4 CODECOPY DUP2 MLOAD SWAP2 MSTORE DUP2 EQ PUSH2 0x21B2 JUMPI PUSH1 0x40 MLOAD PUSH4 0x2A875269 PUSH1 0xE2 SHL DUP2 MSTORE PUSH1 0x4 DUP2 ADD DUP3 SWAP1 MSTORE PUSH1 0x24 ADD PUSH2 0x92B JUMP JUMPDEST PUSH2 0x1091 DUP4 DUP4 PUSH2 0x2443 JUMP JUMPDEST ADDRESS PUSH1 0x1 PUSH1 0x1 PUSH1 0xA0 SHL SUB PUSH32 0x0 AND EQ PUSH2 0x20F2 JUMPI PUSH1 0x40 MLOAD PUSH4 0x703E46DD PUSH1 0xE1 SHL DUP2 MSTORE PUSH1 0x4 ADD PUSH1 0x40 MLOAD DUP1 SWAP2 SUB SWAP1 REVERT JUMPDEST PUSH2 0x2210 DUP3 CALLER DUP4 PUSH2 0x1CD7 JUMP JUMPDEST PUSH2 0x10B3 DUP3 DUP3 PUSH2 0x225D JUMP JUMPDEST PUSH1 0x0 DUP1 PUSH32 0xF0C57E16840DF040F15088DC2F81FE391C3923BEC73E23A9662EFC9C229C6A00 PUSH2 0xA9F JUMP JUMPDEST PUSH2 0x224B PUSH2 0x2499 JUMP JUMPDEST PUSH2 0x10B3 DUP3 DUP3 PUSH2 0x24BE JUMP JUMPDEST PUSH2 0x20F2 PUSH2 0x2499 JUMP JUMPDEST PUSH1 0x1 PUSH1 0x1 PUSH1 0xA0 SHL SUB DUP3 AND PUSH2 0x2287 JUMPI PUSH1 0x40 MLOAD PUSH4 0x4B637E8F PUSH1 0xE1 SHL DUP2 MSTORE PUSH1 0x0 PUSH1 0x4 DUP3 ADD MSTORE PUSH1 0x24 ADD PUSH2 0x92B JUMP JUMPDEST PUSH2 0x10B3 DUP3 PUSH1 0x0 DUP4 PUSH2 0x22CC JUMP JUMPDEST PUSH2 0x229D DUP3 DUP3 PUSH2 0x1450 JUMP JUMPDEST PUSH2 0x10B3 JUMPI PUSH1 0x40 MLOAD PUSH4 0xE2517D3F PUSH1 0xE0 SHL DUP2 MSTORE PUSH1 0x1 PUSH1 0x1 PUSH1 0xA0 SHL SUB DUP3 AND PUSH1 0x4 DUP3 ADD MSTORE PUSH1 0x24 DUP2 ADD DUP4 SWAP1 MSTORE PUSH1 0x44 ADD PUSH2 0x92B JUMP JUMPDEST PUSH1 0x1 PUSH1 0x1 PUSH1 0xA0 SHL SUB DUP4 AND ISZERO DUP1 PUSH2 0x22E9 JUMPI POP PUSH1 0x1 PUSH1 0x1 PUSH1 0xA0 SHL SUB DUP3 AND ISZERO JUMPDEST PUSH2 0x2335 JUMPI PUSH1 0x40 MLOAD PUSH3 0x461BCD PUSH1 0xE5 SHL DUP2 MSTORE PUSH1 0x20 PUSH1 0x4 DUP3 ADD MSTORE PUSH1 0x1B PUSH1 0x24 DUP3 ADD MSTORE PUSH32 0x4B65656C546F6B656E3A206E6F6E2D7472616E7366657261626C650000000000 PUSH1 0x44 DUP3 ADD MSTORE PUSH1 0x64 ADD PUSH2 0x92B JUMP JUMPDEST PUSH2 0x1091 DUP4 DUP4 DUP4 PUSH2 0x250F JUMP JUMPDEST PUSH1 0x0 PUSH1 0x6 SLOAD PUSH1 0x0 EQ PUSH2 0x2353 JUMPI POP PUSH1 0x6 SLOAD SWAP1 JUMP JUMPDEST POP PUSH3 0x76A700 SWAP1 JUMP JUMPDEST PUSH1 0x0 DUP1 MLOAD PUSH1 0x20 PUSH2 0x2D89 DUP4 CODECOPY DUP2 MLOAD SWAP2 MSTORE PUSH1 0x1 PUSH1 0x1 PUSH1 0xA0 SHL SUB DUP6 AND PUSH2 0x2394 JUMPI PUSH1 0x40 MLOAD PUSH4 0xE602DF05 PUSH1 0xE0 SHL DUP2 MSTORE PUSH1 0x0 PUSH1 0x4 DUP3 ADD MSTORE PUSH1 0x24 ADD PUSH2 0x92B JUMP JUMPDEST PUSH1 0x1 PUSH1 0x1 PUSH1 0xA0 SHL SUB DUP5 AND PUSH2 0x23BE JUMPI PUSH1 0x40 MLOAD PUSH4 0x4A1406B1 PUSH1 0xE1 SHL DUP2 MSTORE PUSH1 0x0 PUSH1 0x4 DUP3 ADD MSTORE PUSH1 0x24 ADD PUSH2 0x92B JUMP JUMPDEST PUSH1 0x1 PUSH1 0x1 PUSH1 0xA0 SHL SUB DUP1 DUP7 AND PUSH1 0x0 SWAP1 DUP2 MSTORE PUSH1 0x1 DUP4 ADD PUSH1 0x20 SWAP1 DUP2 MSTORE PUSH1 0x40 DUP1 DUP4 KECCAK256 SWAP4 DUP9 AND DUP4 MSTORE SWAP3 SWAP1 MSTORE KECCAK256 DUP4 SWAP1 SSTORE DUP2 ISZERO PUSH2 0x243C JUMPI DUP4 PUSH1 0x1 PUSH1 0x1 PUSH1 0xA0 SHL SUB AND DUP6 PUSH1 0x1 PUSH1 0x1 PUSH1 0xA0 SHL SUB AND PUSH32 0x8C5BE1E5EBEC7D5BD14F71427D1E84F3DD0314C0F7B2291E5B200AC8C7C3B925 DUP6 PUSH1 0x40 MLOAD PUSH2 0x2433 SWAP2 DUP2 MSTORE PUSH1 0x20 ADD SWAP1 JUMP JUMPDEST PUSH1 0x40 MLOAD DUP1 SWAP2 SUB SWAP1 LOG3 JUMPDEST POP POP POP POP POP JUMP JUMPDEST PUSH2 0x244C DUP3 PUSH2 0x264D JUMP JUMPDEST PUSH1 0x40 MLOAD PUSH1 0x1 PUSH1 0x1 PUSH1 0xA0 SHL SUB DUP4 AND SWAP1 PUSH32 0xBC7CD75A20EE27FD9ADEBAB32041F755214DBC6BFFA90CC0225B39DA2E5C2D3B SWAP1 PUSH1 0x0 SWAP1 LOG2 DUP1 MLOAD ISZERO PUSH2 0x2491 JUMPI PUSH2 0x1091 DUP3 DUP3 PUSH2 0x26B2 JUMP JUMPDEST PUSH2 0x10B3 PUSH2 0x274E JUMP JUMPDEST PUSH2 0x24A1 PUSH2 0x276D JUMP JUMPDEST PUSH2 0x20F2 JUMPI PUSH1 0x40 MLOAD PUSH4 0x1AFCD79F PUSH1 0xE3 SHL DUP2 MSTORE PUSH1 0x4 ADD PUSH1 0x40 MLOAD DUP1 SWAP2 SUB SWAP1 REVERT JUMPDEST PUSH2 0x24C6 PUSH2 0x2499 JUMP JUMPDEST PUSH1 0x0 DUP1 MLOAD PUSH1 0x20 PUSH2 0x2D89 DUP4 CODECOPY DUP2 MLOAD SWAP2 MSTORE PUSH32 0x52C63247E1F47DB19D5CE0460030C497F067CA4CEBF71BA98EEADABE20BACE03 PUSH2 0x2500 DUP5 DUP3 PUSH2 0x2CA9 JUMP JUMPDEST POP PUSH1 0x4 DUP2 ADD PUSH2 0x1013 DUP4 DUP3 PUSH2 0x2CA9 JUMP JUMPDEST PUSH1 0x0 DUP1 MLOAD PUSH1 0x20 PUSH2 0x2D89 DUP4 CODECOPY DUP2 MLOAD SWAP2 MSTORE PUSH1 0x1 PUSH1 0x1 PUSH1 0xA0 SHL SUB DUP5 AND PUSH2 0x254B JUMPI DUP2 DUP2 PUSH1 0x2 ADD PUSH1 0x0 DUP3 DUP3 SLOAD PUSH2 0x2540 SWAP2 SWAP1 PUSH2 0x2B78 JUMP JUMPDEST SWAP1 SWAP2 SSTORE POP PUSH2 0x25BD SWAP1 POP JUMP JUMPDEST PUSH1 0x1 PUSH1 0x1 PUSH1 0xA0 SHL SUB DUP5 AND PUSH1 0x0 SWAP1 DUP2 MSTORE PUSH1 0x20 DUP3 SWAP1 MSTORE PUSH1 0x40 SWAP1 KECCAK256 SLOAD DUP3 DUP2 LT ISZERO PUSH2 0x259E JUMPI PUSH1 0x40 MLOAD PUSH4 0x391434E3 PUSH1 0xE2 SHL DUP2 MSTORE PUSH1 0x1 PUSH1 0x1 PUSH1 0xA0 SHL SUB DUP7 AND PUSH1 0x4 DUP3 ADD MSTORE PUSH1 0x24 DUP2 ADD DUP3 SWAP1 MSTORE PUSH1 0x44 DUP2 ADD DUP5 SWAP1 MSTORE PUSH1 0x64 ADD PUSH2 0x92B JUMP JUMPDEST PUSH1 0x1 PUSH1 0x1 PUSH1 0xA0 SHL SUB DUP6 AND PUSH1 0x0 SWAP1 DUP2 MSTORE PUSH1 0x20 DUP4 SWAP1 MSTORE PUSH1 0x40 SWAP1 KECCAK256 SWAP1 DUP4 SWAP1 SUB SWAP1 SSTORE JUMPDEST PUSH1 0x1 PUSH1 0x1 PUSH1 0xA0 SHL SUB DUP4 AND PUSH2 0x25DB JUMPI PUSH1 0x2 DUP2 ADD DUP1 SLOAD DUP4 SWAP1 SUB SWAP1 SSTORE PUSH2 0x25FA JUMP JUMPDEST PUSH1 0x1 PUSH1 0x1 PUSH1 0xA0 SHL SUB DUP4 AND PUSH1 0x0 SWAP1 DUP2 MSTORE PUSH1 0x20 DUP3 SWAP1 MSTORE PUSH1 0x40 SWAP1 KECCAK256 DUP1 SLOAD DUP4 ADD SWAP1 SSTORE JUMPDEST DUP3 PUSH1 0x1 PUSH1 0x1 PUSH1 0xA0 SHL SUB AND DUP5 PUSH1 0x1 PUSH1 0x1 PUSH1 0xA0 SHL SUB AND PUSH32 0xDDF252AD1BE2C89B69C2B068FC378DAA952BA7F163C4A11628F55A4DF523B3EF DUP5 PUSH1 0x40 MLOAD PUSH2 0x263F SWAP2 DUP2 MSTORE PUSH1 0x20 ADD SWAP1 JUMP JUMPDEST PUSH1 0x40 MLOAD DUP1 SWAP2 SUB SWAP1 LOG3 POP POP POP POP JUMP JUMPDEST DUP1 PUSH1 0x1 PUSH1 0x1 PUSH1 0xA0 SHL SUB AND EXTCODESIZE PUSH1 0x0 SUB PUSH2 0x2683 JUMPI PUSH1 0x40 MLOAD PUSH4 0x4C9C8CE3 PUSH1 0xE0 SHL DUP2 MSTORE PUSH1 0x1 PUSH1 0x1 PUSH1 0xA0 SHL SUB DUP3 AND PUSH1 0x4 DUP3 ADD MSTORE PUSH1 0x24 ADD PUSH2 0x92B JUMP JUMPDEST PUSH1 0x0 DUP1 MLOAD PUSH1 0x20 PUSH2 0x2DA9 DUP4 CODECOPY DUP2 MLOAD SWAP2 MSTORE DUP1 SLOAD PUSH1 0x1 PUSH1 0x1 PUSH1 0xA0 SHL SUB NOT AND PUSH1 0x1 PUSH1 0x1 PUSH1 0xA0 SHL SUB SWAP3 SWAP1 SWAP3 AND SWAP2 SWAP1 SWAP2 OR SWAP1 SSTORE JUMP JUMPDEST PUSH1 0x60 PUSH1 0x0 PUSH2 0x26C0 DUP5 DUP5 PUSH2 0x2787 JUMP JUMPDEST SWAP1 POP DUP1 DUP1 ISZERO PUSH2 0x26E3 JUMPI POP PUSH1 0x0 RETURNDATASIZE GT DUP1 PUSH2 0x26E3 JUMPI POP PUSH1 0x0 DUP5 PUSH1 0x1 PUSH1 0x1 PUSH1 0xA0 SHL SUB AND EXTCODESIZE GT JUMPDEST ISZERO PUSH2 0x26F8 JUMPI PUSH2 0x26F0 PUSH2 0x279C JUMP JUMPDEST SWAP2 POP POP PUSH2 0xA9F JUMP JUMPDEST DUP1 ISZERO PUSH2 0x2722 JUMPI PUSH1 0x40 MLOAD PUSH4 0x9996B315 PUSH1 0xE0 SHL DUP2 MSTORE PUSH1 0x1 PUSH1 0x1 PUSH1 0xA0 SHL SUB DUP6 AND PUSH1 0x4 DUP3 ADD MSTORE PUSH1 0x24 ADD PUSH2 0x92B JUMP JUMPDEST RETURNDATASIZE ISZERO PUSH2 0x2735 JUMPI PUSH2 0x2730 PUSH2 0x27B6 JUMP JUMPDEST PUSH2 0x1E3C JUMP JUMPDEST PUSH1 0x40 MLOAD PUSH4 0xD6BDA275 PUSH1 0xE0 SHL DUP2 MSTORE PUSH1 0x4 ADD PUSH1 0x40 MLOAD DUP1 SWAP2 SUB SWAP1 REVERT JUMPDEST CALLVALUE ISZERO PUSH2 0x20F2 JUMPI PUSH1 0x40 MLOAD PUSH4 0xB398979F PUSH1 0xE0 SHL DUP2 MSTORE PUSH1 0x4 ADD PUSH1 0x40 MLOAD DUP1 SWAP2 SUB SWAP1 REVERT JUMPDEST PUSH1 0x0 PUSH2 0x2777 PUSH2 0x221A JUMP JUMPDEST SLOAD PUSH1 0x1 PUSH1 0x40 SHL SWAP1 DIV PUSH1 0xFF AND SWAP2 SWAP1 POP JUMP JUMPDEST PUSH1 0x0 DUP1 PUSH1 0x0 DUP4 MLOAD PUSH1 0x20 DUP6 ADD DUP7 GAS DELEGATECALL SWAP4 SWAP3 POP POP POP JUMP JUMPDEST PUSH1 0x40 MLOAD RETURNDATASIZE DUP2 MSTORE RETURNDATASIZE PUSH1 0x0 PUSH1 0x20 DUP4 ADD RETURNDATACOPY RETURNDATASIZE PUSH1 0x20 ADD DUP2 ADD PUSH1 0x40 MSTORE SWAP1 JUMP JUMPDEST PUSH1 0x40 MLOAD RETURNDATASIZE PUSH1 0x0 DUP3 RETURNDATACOPY RETURNDATASIZE DUP2 REVERT JUMPDEST DUP1 CALLDATALOAD PUSH1 0x1 PUSH1 0x1 PUSH1 0xA0 SHL SUB DUP2 AND DUP2 EQ PUSH2 0x27D9 JUMPI PUSH1 0x0 DUP1 REVERT JUMPDEST SWAP2 SWAP1 POP JUMP JUMPDEST PUSH1 0x0 DUP1 PUSH1 0x0 DUP1 PUSH1 0x80 DUP6 DUP8 SUB SLT ISZERO PUSH2 0x27F4 JUMPI PUSH1 0x0 DUP1 REVERT JUMPDEST PUSH2 0x27FD DUP6 PUSH2 0x27C2 JUMP JUMPDEST SWAP7 PUSH1 0x20 DUP7 ADD CALLDATALOAD SWAP7 POP PUSH1 0x40 DUP7 ADD CALLDATALOAD SWAP6 PUSH1 0x60 ADD CALLDATALOAD SWAP5 POP SWAP3 POP POP POP JUMP JUMPDEST PUSH1 0x0 PUSH1 0x20 DUP3 DUP5 SUB SLT ISZERO PUSH2 0x2829 JUMPI PUSH1 0x0 DUP1 REVERT JUMPDEST DUP2 CALLDATALOAD PUSH1 0x1 PUSH1 0x1 PUSH1 0xE0 SHL SUB NOT DUP2 AND DUP2 EQ PUSH2 0x10E8 JUMPI PUSH1 0x0 DUP1 REVERT JUMPDEST PUSH1 0x0 PUSH1 0x20 DUP1 DUP4 MSTORE DUP4 MLOAD DUP1 PUSH1 0x20 DUP6 ADD MSTORE PUSH1 0x0 JUMPDEST DUP2 DUP2 LT ISZERO PUSH2 0x286F JUMPI DUP6 DUP2 ADD DUP4 ADD MLOAD DUP6 DUP3 ADD PUSH1 0x40 ADD MSTORE DUP3 ADD PUSH2 0x2853 JUMP JUMPDEST POP PUSH1 0x0 PUSH1 0x40 DUP3 DUP7 ADD ADD MSTORE PUSH1 0x40 PUSH1 0x1F NOT PUSH1 0x1F DUP4 ADD AND DUP6 ADD ADD SWAP3 POP POP POP SWAP3 SWAP2 POP POP JUMP JUMPDEST PUSH1 0x0 DUP1 PUSH1 0x40 DUP4 DUP6 SUB SLT ISZERO PUSH2 0x28A3 JUMPI PUSH1 0x0 DUP1 REVERT JUMPDEST PUSH2 0x28AC DUP4 PUSH2 0x27C2 JUMP JUMPDEST SWAP5 PUSH1 0x20 SWAP4 SWAP1 SWAP4 ADD CALLDATALOAD SWAP4 POP POP POP JUMP JUMPDEST PUSH1 0x0 DUP1 PUSH1 0x0 PUSH1 0x60 DUP5 DUP7 SUB SLT ISZERO PUSH2 0x28CF JUMPI PUSH1 0x0 DUP1 REVERT JUMPDEST PUSH2 0x28D8 DUP5 PUSH2 0x27C2 JUMP JUMPDEST SWAP6 PUSH1 0x20 DUP6 ADD CALLDATALOAD SWAP6 POP PUSH1 0x40 SWAP1 SWAP5 ADD CALLDATALOAD SWAP4 SWAP3 POP POP POP JUMP JUMPDEST PUSH1 0x0 PUSH1 0x20 DUP3 DUP5 SUB SLT ISZERO PUSH2 0x28FF JUMPI PUSH1 0x0 DUP1 REVERT JUMPDEST POP CALLDATALOAD SWAP2 SWAP1 POP JUMP JUMPDEST PUSH1 0x0 DUP1 PUSH1 0x0 DUP1 PUSH1 0x80 DUP6 DUP8 SUB SLT ISZERO PUSH2 0x291C JUMPI PUSH1 0x0 DUP1 REVERT JUMPDEST PUSH2 0x2925 DUP6 PUSH2 0x27C2 JUMP JUMPDEST SWAP4 POP PUSH1 0x20 DUP6 ADD CALLDATALOAD SWAP3 POP PUSH1 0x40 DUP6 ADD CALLDATALOAD SWAP2 POP PUSH1 0x60 DUP6 ADD CALLDATALOAD PUSH1 0x1 PUSH1 0x1 PUSH1 0x40 SHL SUB DUP2 AND DUP2 EQ PUSH2 0x294F JUMPI PUSH1 0x0 DUP1 REVERT JUMPDEST SWAP4 SWAP7 SWAP3 SWAP6 POP SWAP1 SWAP4 POP POP JUMP JUMPDEST PUSH1 0x0 PUSH1 0x20 DUP3 DUP5 SUB SLT ISZERO PUSH2 0x296C JUMPI PUSH1 0x0 DUP1 REVERT JUMPDEST PUSH2 0x10E8 DUP3 PUSH2 0x27C2 JUMP JUMPDEST PUSH1 0x0 DUP1 PUSH1 0x0 PUSH1 0x60 DUP5 DUP7 SUB SLT ISZERO PUSH2 0x298A JUMPI PUSH1 0x0 DUP1 REVERT JUMPDEST PUSH2 0x2993 DUP5 PUSH2 0x27C2 JUMP JUMPDEST SWAP3 POP PUSH2 0x29A1 PUSH1 0x20 DUP6 ADD PUSH2 0x27C2 JUMP JUMPDEST SWAP2 POP PUSH1 0x40 DUP5 ADD CALLDATALOAD SWAP1 POP SWAP3 POP SWAP3 POP SWAP3 JUMP JUMPDEST PUSH1 0x0 DUP1 PUSH1 0x40 DUP4 DUP6 SUB SLT ISZERO PUSH2 0x29C4 JUMPI PUSH1 0x0 DUP1 REVERT JUMPDEST DUP3 CALLDATALOAD SWAP2 POP PUSH2 0x29D4 PUSH1 0x20 DUP5 ADD PUSH2 0x27C2 JUMP JUMPDEST SWAP1 POP SWAP3 POP SWAP3 SWAP1 POP JUMP JUMPDEST PUSH4 0x4E487B71 PUSH1 0xE0 SHL PUSH1 0x0 MSTORE PUSH1 0x41 PUSH1 0x4 MSTORE PUSH1 0x24 PUSH1 0x0 REVERT JUMPDEST PUSH1 0x0 DUP1 PUSH1 0x40 DUP4 DUP6 SUB SLT ISZERO PUSH2 0x2A06 JUMPI PUSH1 0x0 DUP1 REVERT JUMPDEST PUSH2 0x2A0F DUP4 PUSH2 0x27C2 JUMP JUMPDEST SWAP2 POP PUSH1 0x20 DUP4 ADD CALLDATALOAD PUSH1 0x1 PUSH1 0x1 PUSH1 0x40 SHL SUB DUP1 DUP3 GT ISZERO PUSH2 0x2A2B JUMPI PUSH1 0x0 DUP1 REVERT JUMPDEST DUP2 DUP6 ADD SWAP2 POP DUP6 PUSH1 0x1F DUP4 ADD SLT PUSH2 0x2A3F JUMPI PUSH1 0x0 DUP1 REVERT JUMPDEST DUP2 CALLDATALOAD DUP2 DUP2 GT ISZERO PUSH2 0x2A51 JUMPI PUSH2 0x2A51 PUSH2 0x29DD JUMP JUMPDEST PUSH1 0x40 MLOAD PUSH1 0x1F DUP3 ADD PUSH1 0x1F NOT SWAP1 DUP2 AND PUSH1 0x3F ADD AND DUP2 ADD SWAP1 DUP4 DUP3 GT DUP2 DUP4 LT OR ISZERO PUSH2 0x2A79 JUMPI PUSH2 0x2A79 PUSH2 0x29DD JUMP JUMPDEST DUP2 PUSH1 0x40 MSTORE DUP3 DUP2 MSTORE DUP9 PUSH1 0x20 DUP5 DUP8 ADD ADD GT ISZERO PUSH2 0x2A92 JUMPI PUSH1 0x0 DUP1 REVERT JUMPDEST DUP3 PUSH1 0x20 DUP7 ADD PUSH1 0x20 DUP4 ADD CALLDATACOPY PUSH1 0x0 PUSH1 0x20 DUP5 DUP4 ADD ADD MSTORE DUP1 SWAP6 POP POP POP POP POP POP SWAP3 POP SWAP3 SWAP1 POP JUMP JUMPDEST PUSH1 0x0 DUP1 PUSH1 0x40 DUP4 DUP6 SUB SLT ISZERO PUSH2 0x2AC7 JUMPI PUSH1 0x0 DUP1 REVERT JUMPDEST PUSH2 0x2AD0 DUP4 PUSH2 0x27C2 JUMP JUMPDEST SWAP2 POP PUSH2 0x29D4 PUSH1 0x20 DUP5 ADD PUSH2 0x27C2 JUMP JUMPDEST PUSH1 0x40 DUP1 DUP3 MSTORE DUP4 MLOAD SWAP1 DUP3 ADD DUP2 SWAP1 MSTORE PUSH1 0x0 SWAP1 PUSH1 0x20 SWAP1 PUSH1 0x60 DUP5 ADD SWAP1 DUP3 DUP8 ADD DUP5 JUMPDEST DUP3 DUP2 LT ISZERO PUSH2 0x2B17 JUMPI DUP2 MLOAD DUP5 MSTORE SWAP3 DUP5 ADD SWAP3 SWAP1 DUP5 ADD SWAP1 PUSH1 0x1 ADD PUSH2 0x2AFB JUMP JUMPDEST POP POP POP DUP4 DUP2 SUB DUP3 DUP6 ADD MSTORE DUP5 MLOAD DUP1 DUP3 MSTORE DUP6 DUP4 ADD SWAP2 DUP4 ADD SWAP1 PUSH1 0x0 JUMPDEST DUP2 DUP2 LT ISZERO PUSH2 0x2B55 JUMPI DUP4 MLOAD PUSH1 0x1 PUSH1 0x1 PUSH1 0x40 SHL SUB AND DUP4 MSTORE SWAP3 DUP5 ADD SWAP3 SWAP2 DUP5 ADD SWAP2 PUSH1 0x1 ADD PUSH2 0x2B30 JUMP JUMPDEST POP SWAP1 SWAP8 SWAP7 POP POP POP POP POP POP POP JUMP JUMPDEST PUSH4 0x4E487B71 PUSH1 0xE0 SHL PUSH1 0x0 MSTORE PUSH1 0x11 PUSH1 0x4 MSTORE PUSH1 0x24 PUSH1 0x0 REVERT JUMPDEST DUP1 DUP3 ADD DUP1 DUP3 GT ISZERO PUSH2 0xA9F JUMPI PUSH2 0xA9F PUSH2 0x2B62 JUMP JUMPDEST PUSH1 0x60 SWAP4 SWAP1 SWAP4 SHL PUSH12 0xFFFFFFFFFFFFFFFFFFFFFFFF NOT AND DUP4 MSTORE PUSH1 0x14 DUP4 ADD SWAP2 SWAP1 SWAP2 MSTORE PUSH1 0x34 DUP3 ADD MSTORE PUSH1 0x54 ADD SWAP1 JUMP JUMPDEST PUSH1 0x1 DUP2 DUP2 SHR SWAP1 DUP3 AND DUP1 PUSH2 0x2BC9 JUMPI PUSH1 0x7F DUP3 AND SWAP2 POP JUMPDEST PUSH1 0x20 DUP3 LT DUP2 SUB PUSH2 0x2BE9 JUMPI PUSH4 0x4E487B71 PUSH1 0xE0 SHL PUSH1 0x0 MSTORE PUSH1 0x22 PUSH1 0x4 MSTORE PUSH1 0x24 PUSH1 0x0 REVERT JUMPDEST POP SWAP2 SWAP1 POP JUMP JUMPDEST DUP2 DUP2 SUB DUP2 DUP2 GT ISZERO PUSH2 0xA9F JUMPI PUSH2 0xA9F PUSH2 0x2B62 JUMP JUMPDEST PUSH4 0x4E487B71 PUSH1 0xE0 SHL PUSH1 0x0 MSTORE PUSH1 0x32 PUSH1 0x4 MSTORE PUSH1 0x24 PUSH1 0x0 REVERT JUMPDEST DUP1 DUP3 MUL DUP2 ISZERO DUP3 DUP3 DIV DUP5 EQ OR PUSH2 0xA9F JUMPI PUSH2 0xA9F PUSH2 0x2B62 JUMP JUMPDEST PUSH1 0x0 PUSH1 0x1 DUP3 ADD PUSH2 0x2C41 JUMPI PUSH2 0x2C41 PUSH2 0x2B62 JUMP JUMPDEST POP PUSH1 0x1 ADD SWAP1 JUMP JUMPDEST PUSH1 0x0 PUSH1 0x20 DUP3 DUP5 SUB SLT ISZERO PUSH2 0x2C5A JUMPI PUSH1 0x0 DUP1 REVERT JUMPDEST POP MLOAD SWAP2 SWAP1 POP JUMP JUMPDEST PUSH1 0x1F DUP3 GT ISZERO PUSH2 0x1091 JUMPI PUSH1 0x0 DUP2 PUSH1 0x0 MSTORE PUSH1 0x20 PUSH1 0x0 KECCAK256 PUSH1 0x1F DUP6 ADD PUSH1 0x5 SHR DUP2 ADD PUSH1 0x20 DUP7 LT ISZERO PUSH2 0x2C8A JUMPI POP DUP1 JUMPDEST PUSH1 0x1F DUP6 ADD PUSH1 0x5 SHR DUP3 ADD SWAP2 POP JUMPDEST DUP2 DUP2 LT ISZERO PUSH2 0x1778 JUMPI DUP3 DUP2 SSTORE PUSH1 0x1 ADD PUSH2 0x2C96 JUMP JUMPDEST DUP2 MLOAD PUSH1 0x1 PUSH1 0x1 PUSH1 0x40 SHL SUB DUP2 GT ISZERO PUSH2 0x2CC2 JUMPI PUSH2 0x2CC2 PUSH2 0x29DD JUMP JUMPDEST PUSH2 0x2CD6 DUP2 PUSH2 0x2CD0 DUP5 SLOAD PUSH2 0x2BB5 JUMP JUMPDEST DUP5 PUSH2 0x2C61 JUMP JUMPDEST PUSH1 0x20 DUP1 PUSH1 0x1F DUP4 GT PUSH1 0x1 DUP2 EQ PUSH2 0x2D0B JUMPI PUSH1 0x0 DUP5 ISZERO PUSH2 0x2CF3 JUMPI POP DUP6 DUP4 ADD MLOAD JUMPDEST PUSH1 0x0 NOT PUSH1 0x3 DUP7 SWAP1 SHL SHR NOT AND PUSH1 0x1 DUP6 SWAP1 SHL OR DUP6 SSTORE PUSH2 0x1778 JUMP JUMPDEST PUSH1 0x0 DUP6 DUP2 MSTORE PUSH1 0x20 DUP2 KECCAK256 PUSH1 0x1F NOT DUP7 AND SWAP2 JUMPDEST DUP3 DUP2 LT ISZERO PUSH2 0x2D3A JUMPI DUP9 DUP7 ADD MLOAD DUP3 SSTORE SWAP5 DUP5 ADD SWAP5 PUSH1 0x1 SWAP1 SWAP2 ADD SWAP1 DUP5 ADD PUSH2 0x2D1B JUMP JUMPDEST POP DUP6 DUP3 LT ISZERO PUSH2 0x2D58 JUMPI DUP8 DUP6 ADD MLOAD PUSH1 0x0 NOT PUSH1 0x3 DUP9 SWAP1 SHL PUSH1 0xF8 AND SHR NOT AND DUP2 SSTORE JUMPDEST POP POP POP POP POP PUSH1 0x1 SWAP1 DUP2 SHL ADD SWAP1 SSTORE POP JUMP INVALID 0xD9 0xEC PUSH16 0x45433BD3741734A224AB231970B6C603 0xC2 0xB3 0xBF 0xC8 0xF7 DUP12 0xB4 0xDB TSTORE 0xB6 DUP4 0xEA DUP5 MSTORE 0xC6 ORIGIN SELFBALANCE 0xE1 DELEGATECALL PUSH30 0xB19D5CE0460030C497F067CA4CEBF71BA98EEADABE20BACE00360894A13B LOG1 LOG3 0x21 MOD PUSH8 0xC828492DB98DCA3E KECCAK256 PUSH23 0xCC3735A920A3CA505D382BBC9F2DF0FED2C77648DE5860 LOG4 0xCC POP DUP13 0xD0 DUP2 DUP13 DUP6 0xB8 0xB8 LOG1 0xAB 0x4C 0xEE 0xEF DUP14 SWAP9 SHR DUP10 JUMP 0xA6 MUL 0xDD PUSH28 0xC7DEC4DCEEDDA775E58DD541E08A116C6C53815C0BD028192F7B6268 STOP LOG2 PUSH5 0x6970667358 0x22 SLT KECCAK256 0xB4 EXTCODEHASH 0xC8 0xAF RETURNDATASIZE STOP DUP7 0xB1 SWAP1 0xBD CALLCODE 0xC RETURN 0x2B EXTCODESIZE SSTORE 0xA9 TIMESTAMP CALL 0xF8 DUP3 0xEA PUSH16 0xBE3A1C360B8573782A64736F6C634300 ADDMOD XOR STOP CALLER "},"methodIdentifiers":{"DEFAULT_ADMIN_ROLE()":"a217fddf","LEDGER_ROLE()":"3b4e2646","MINTER_ROLE()":"d5391393","UPGRADE_INTERFACE_VERSION()":"ad3cb1cc","allocationOf(address)":"a4f82f27","allowance(address,address)":"dd62ed3e","approve(address,uint256)":"095ea7b3","balanceOf(address)":"70a08231","burn(uint256)":"42966c68","burnForUsage(address,uint256,bytes32)":"e023b7e5","burnFrom(address,uint256)":"79cc6790","capOf(address)":"44dfbdaf","decimals()":"313ce567","expiringWithin(address,uint256)":"959f96f1","expiryDuration()":"b3ee1424","getRoleAdmin(bytes32)":"248a9ca3","grantRole(bytes32,address)":"2f2ff15d","hasRole(bytes32,address)":"91d14854","initialize(address)":"c4d66de8","issueMonthlyAllocation(address,uint256,uint256)":"0b09a1eb","memberAllocation(address)":"53f56b71","mintMonthlyAllocation(address,uint256,uint256,uint256)":"00972f7f","monthlyAllocation()":"1e7b5169","monthlyIssuanceCap()":"26a39dd7","monthlyMinted(bytes32)":"cbd26daa","name()":"06fdde03","nextExpiryAt(address)":"f7f712ad","onboardMember(address,uint256,uint256,uint256)":"5e29b123","pendingExpiry(address)":"232c2b52","proxiableUUID()":"52d1902d","refundCancellation(address,uint256,bytes32,uint64)":"1655ac26","renounceRole(bytes32,address)":"36568abe","revokeRole(bytes32,address)":"d547741f","setExpiryDuration(uint256)":"15502840","setMemberAllocation(address,uint256)":"7fec1fe1","setMonthlyAllocation(uint256)":"34b6d641","setMonthlyIssuanceCap(uint256)":"8a059bee","setWalletCap(uint256)":"65a64668","supportsInterface(bytes4)":"01ffc9a7","sweepExpired(address)":"9c20a0db","symbol()":"95d89b41","totalSupply()":"18160ddd","tranchesOf(address)":"e3da9f8f","transfer(address,uint256)":"a9059cbb","transferFrom(address,address,uint256)":"23b872dd","upgradeToAndCall(address,bytes)":"4f1ef286","walletCap()":"58950c22"}},"storageLayout":{"storage":[{"astId":2965,"contract":"contracts/KeelToken.sol:KeelToken","label":"monthlyIssuanceCap","offset":0,"slot":"0","type":"t_uint256"},{"astId":2969,"contract":"contracts/KeelToken.sol:KeelToken","label":"monthlyMinted","offset":0,"slot":"1","type":"t_mapping(t_bytes32,t_uint256)"},{"astId":2971,"contract":"contracts/KeelToken.sol:KeelToken","label":"walletCap","offset":0,"slot":"2","type":"t_uint256"},{"astId":2973,"contract":"contracts/KeelToken.sol:KeelToken","label":"monthlyAllocation","offset":0,"slot":"3","type":"t_uint256"},{"astId":2984,"contract":"contracts/KeelToken.sol:KeelToken","label":"_tranches","offset":0,"slot":"4","type":"t_mapping(t_address,t_array(t_struct(Tranche)2978_storage)dyn_storage)"},{"astId":2988,"contract":"contracts/KeelToken.sol:KeelToken","label":"_trancheHead","offset":0,"slot":"5","type":"t_mapping(t_address,t_uint256)"},{"astId":2990,"contract":"contracts/KeelToken.sol:KeelToken","label":"expiryDuration","offset":0,"slot":"6","type":"t_uint256"},{"astId":2994,"contract":"contracts/KeelToken.sol:KeelToken","label":"memberAllocation","offset":0,"slot":"7","type":"t_mapping(t_address,t_uint256)"}],"types":{"t_address":{"encoding":"inplace","label":"address","numberOfBytes":"20"},"t_array(t_struct(Tranche)2978_storage)dyn_storage":{"base":"t_struct(Tranche)2978_storage","encoding":"dynamic_array","label":"struct KeelToken.Tranche[]","numberOfBytes":"32"},"t_bytes32":{"encoding":"inplace","label":"bytes32","numberOfBytes":"32"},"t_mapping(t_address,t_array(t_struct(Tranche)2978_storage)dyn_storage)":{"encoding":"mapping","key":"t_address","label":"mapping(address => struct KeelToken.Tranche[])","numberOfBytes":"32","value":"t_array(t_struct(Tranche)2978_storage)dyn_storage"},"t_mapping(t_address,t_uint256)":{"encoding":"mapping","key":"t_address","label":"mapping(address => uint256)","numberOfBytes":"32","value":"t_uint256"},"t_mapping(t_bytes32,t_uint256)":{"encoding":"mapping","key":"t_bytes32","label":"mapping(bytes32 => uint256)","numberOfBytes":"32","value":"t_uint256"},"t_struct(Tranche)2978_storage":{"encoding":"inplace","label":"struct KeelToken.Tranche","members":[{"astId":2975,"contract":"contracts/KeelToken.sol:KeelToken","label":"amount","offset":0,"slot":"0","type":"t_uint128"},{"astId":2977,"contract":"contracts/KeelToken.sol:KeelToken","label":"expiresAt","offset":16,"slot":"0","type":"t_uint64"}],"numberOfBytes":"32"},"t_uint128":{"encoding":"inplace","label":"uint128","numberOfBytes":"16"},"t_uint256":{"encoding":"inplace","label":"uint256","numberOfBytes":"32"},"t_uint64":{"encoding":"inplace","label":"uint64","numberOfBytes":"8"}}}}}}