{"contracts/KeelUsageLedger.sol":{"KeelUsageLedger":{"abi":[{"inputs":[{"internalType":"address","name":"admin","type":"address"},{"internalType":"address","name":"keelTokenAddress","type":"address"}],"stateMutability":"nonpayable","type":"constructor"},{"inputs":[],"name":"AccessControlBadConfirmation","type":"error"},{"inputs":[{"internalType":"address","name":"account","type":"address"},{"internalType":"bytes32","name":"neededRole","type":"bytes32"}],"name":"AccessControlUnauthorizedAccount","type":"error"},{"anonymous":false,"inputs":[{"indexed":true,"internalType":"bytes32","name":"role","type":"bytes32"},{"indexed":true,"internalType":"bytes32","name":"previousAdminRole","type":"bytes32"},{"indexed":true,"internalType":"bytes32","name":"newAdminRole","type":"bytes32"}],"name":"RoleAdminChanged","type":"event"},{"anonymous":false,"inputs":[{"indexed":true,"internalType":"bytes32","name":"role","type":"bytes32"},{"indexed":true,"internalType":"address","name":"account","type":"address"},{"indexed":true,"internalType":"address","name":"sender","type":"address"}],"name":"RoleGranted","type":"event"},{"anonymous":false,"inputs":[{"indexed":true,"internalType":"bytes32","name":"role","type":"bytes32"},{"indexed":true,"internalType":"address","name":"account","type":"address"},{"indexed":true,"internalType":"address","name":"sender","type":"address"}],"name":"RoleRevoked","type":"event"},{"anonymous":false,"inputs":[{"indexed":true,"internalType":"bytes32","name":"tripId","type":"bytes32"},{"indexed":true,"internalType":"address","name":"member","type":"address"},{"indexed":false,"internalType":"uint256","name":"rawHours","type":"uint256"},{"indexed":false,"internalType":"uint256","name":"trueUsageUnits","type":"uint256"},{"indexed":false,"internalType":"uint256","name":"tokensBurned","type":"uint256"}],"name":"TripLogged","type":"event"},{"inputs":[],"name":"DEFAULT_ADMIN_ROLE","outputs":[{"internalType":"bytes32","name":"","type":"bytes32"}],"stateMutability":"view","type":"function"},{"inputs":[],"name":"OPERATOR_ROLE","outputs":[{"internalType":"bytes32","name":"","type":"bytes32"}],"stateMutability":"view","type":"function"},{"inputs":[],"name":"baseRatePerHour","outputs":[{"internalType":"uint256","name":"","type":"uint256"}],"stateMutability":"view","type":"function"},{"inputs":[],"name":"eveningMultiplier","outputs":[{"internalType":"uint256","name":"","type":"uint256"}],"stateMutability":"view","type":"function"},{"inputs":[],"name":"eveningStartHour","outputs":[{"internalType":"uint256","name":"","type":"uint256"}],"stateMutability":"view","type":"function"},{"inputs":[],"name":"getAllTripIds","outputs":[{"internalType":"bytes32[]","name":"","type":"bytes32[]"}],"stateMutability":"view","type":"function"},{"inputs":[{"internalType":"bytes32","name":"role","type":"bytes32"}],"name":"getRoleAdmin","outputs":[{"internalType":"bytes32","name":"","type":"bytes32"}],"stateMutability":"view","type":"function"},{"inputs":[{"internalType":"bytes32","name":"role","type":"bytes32"},{"internalType":"address","name":"account","type":"address"}],"name":"grantRole","outputs":[],"stateMutability":"nonpayable","type":"function"},{"inputs":[{"internalType":"bytes32","name":"role","type":"bytes32"},{"internalType":"address","name":"account","type":"address"}],"name":"hasRole","outputs":[{"internalType":"bool","name":"","type":"bool"}],"stateMutability":"view","type":"function"},{"inputs":[],"name":"holidayMultiplier","outputs":[{"internalType":"uint256","name":"","type":"uint256"}],"stateMutability":"view","type":"function"},{"inputs":[],"name":"keelToken","outputs":[{"internalType":"contract KeelToken","name":"","type":"address"}],"stateMutability":"view","type":"function"},{"inputs":[{"internalType":"address","name":"member","type":"address"},{"internalType":"uint256","name":"startTs","type":"uint256"},{"internalType":"uint256","name":"endTs","type":"uint256"},{"internalType":"bool","name":"isWeekend","type":"bool"},{"internalType":"bool","name":"isHoliday","type":"bool"}],"name":"logAndSettle","outputs":[{"internalType":"bytes32","name":"tripId","type":"bytes32"}],"stateMutability":"nonpayable","type":"function"},{"inputs":[{"internalType":"bytes32","name":"role","type":"bytes32"},{"internalType":"address","name":"callerConfirmation","type":"address"}],"name":"renounceRole","outputs":[],"stateMutability":"nonpayable","type":"function"},{"inputs":[{"internalType":"bytes32","name":"role","type":"bytes32"},{"internalType":"address","name":"account","type":"address"}],"name":"revokeRole","outputs":[],"stateMutability":"nonpayable","type":"function"},{"inputs":[{"internalType":"bytes4","name":"interfaceId","type":"bytes4"}],"name":"supportsInterface","outputs":[{"internalType":"bool","name":"","type":"bool"}],"stateMutability":"view","type":"function"},{"inputs":[{"internalType":"uint256","name":"","type":"uint256"}],"name":"tripIds","outputs":[{"internalType":"bytes32","name":"","type":"bytes32"}],"stateMutability":"view","type":"function"},{"inputs":[{"internalType":"bytes32","name":"","type":"bytes32"}],"name":"trips","outputs":[{"internalType":"bytes32","name":"tripId","type":"bytes32"},{"internalType":"address","name":"member","type":"address"},{"internalType":"uint256","name":"startTimestamp","type":"uint256"},{"internalType":"uint256","name":"endTimestamp","type":"uint256"},{"internalType":"uint256","name":"dayHours","type":"uint256"},{"internalType":"uint256","name":"eveningHours","type":"uint256"},{"internalType":"bool","name":"isWeekend","type":"bool"},{"internalType":"bool","name":"isHoliday","type":"bool"},{"internalType":"uint256","name":"rawHours","type":"uint256"},{"internalType":"uint256","name":"trueUsageUnits","type":"uint256"},{"internalType":"uint256","name":"tokensBurned","type":"uint256"},{"internalType":"bool","name":"settled","type":"bool"}],"stateMutability":"view","type":"function"},{"inputs":[{"internalType":"uint256","name":"newRate","type":"uint256"}],"name":"updateBaseRate","outputs":[],"stateMutability":"nonpayable","type":"function"},{"inputs":[{"internalType":"uint256","name":"evening","type":"uint256"},{"internalType":"uint256","name":"weekend","type":"uint256"},{"internalType":"uint256","name":"holiday","type":"uint256"}],"name":"updateMultipliers","outputs":[],"stateMutability":"nonpayable","type":"function"},{"inputs":[],"name":"weekendMultiplier","outputs":[{"internalType":"uint256","name":"","type":"uint256"}],"stateMutability":"view","type":"function"}],"evm":{"bytecode":{"linkReferences":{},"object":"6080604052670de0b6b3a7640000600255608c600355606e600455607d600555601260065534801561003057600080fd5b5060405162000f8f38038062000f8f83398101604081905261005191610176565b61005c6000836100ae565b506100877f97667070c54ef182b0f5858b034beac1b6f3089aa2d3188bb1e8929f4fa9b929836100ae565b50600180546001600160a01b0319166001600160a01b0392909216919091179055506101a9565b6000828152602081815260408083206001600160a01b038516845290915281205460ff16610150576000838152602081815260408083206001600160a01b03861684529091529020805460ff191660011790556101083390565b6001600160a01b0316826001600160a01b0316847f2f8788117e7eff1d82e926ec794901d17c78024a50270940304540a733656f0d60405160405180910390a4506001610154565b5060005b92915050565b80516001600160a01b038116811461017157600080fd5b919050565b6000806040838503121561018957600080fd5b6101928361015a565b91506101a06020840161015a565b90509250929050565b610dd680620001b96000396000f3fe608060405234801561001057600080fd5b506004361061012c5760003560e01c806380a8fd3f116100ad578063bdcf84e011610071578063bdcf84e014610260578063cf6a019d14610273578063d3bbcfbd14610286578063d547741f14610369578063f5b541a61461037c57600080fd5b806380a8fd3f146101fe57806390cdbaf81461020757806391d1485414610232578063a217fddf14610245578063bda0bc2d1461024d57600080fd5b80632f2ff15d116100f45780632f2ff15d146101b1578063330283aa146101c657806336568abe146101d957806344bc207e146101ec578063711d9591146101f557600080fd5b806301ffc9a714610131578063058670e314610159578063062e57091461016e578063248a9ca3146101855780632c2ac712146101a8575b600080fd5b61014461013f366004610ba6565b6103a3565b60405190151581526020015b60405180910390f35b6101616103da565b6040516101509190610bd7565b61017760035481565b604051908152602001610150565b610177610193366004610c1b565b60009081526020819052604090206001015490565b61017760055481565b6101c46101bf366004610c50565b610432565b005b6101c46101d4366004610c1b565b61045d565b6101c46101e7366004610c50565b61046e565b61017760045481565b61017760065481565b61017760025481565b60015461021a906001600160a01b031681565b6040516001600160a01b039091168152602001610150565b610144610240366004610c50565b6104a6565b610177600081565b61017761025b366004610c8c565b6104cf565b6101c461026e366004610ce3565b6108c9565b610177610281366004610c1b565b6108e3565b610302610294366004610c1b565b600760208190526000918252604090912080546001820154600283015460038401546004850154600586015460068701549787015460088801546009890154600a9099015497996001600160a01b0390971698959794969395929460ff80861695610100900481169491168c565b604080519c8d526001600160a01b03909b1660208d0152998b019890985260608a0196909652608089019490945260a0880192909252151560c0870152151560e0860152610100850152610120840152610140830152151561016082015261018001610150565b6101c4610377366004610c50565b610904565b6101777f97667070c54ef182b0f5858b034beac1b6f3089aa2d3188bb1e8929f4fa9b92981565b60006001600160e01b03198216637965db0b60e01b14806103d457506301ffc9a760e01b6001600160e01b03198316145b92915050565b6060600880548060200260200160405190810160405280929190818152602001828054801561042857602002820191906000526020600020905b815481526020019060010190808311610414575b5050505050905090565b60008281526020819052604090206001015461044d81610929565b6104578383610936565b50505050565b600061046881610929565b50600255565b6001600160a01b03811633146104975760405163334bd91960e11b815260040160405180910390fd5b6104a182826109c8565b505050565b6000918252602082815260408084206001600160a01b0393909316845291905290205460ff1690565b60007f97667070c54ef182b0f5858b034beac1b6f3089aa2d3188bb1e8929f4fa9b9296104fb81610929565b85851161055b5760405162461bcd60e51b815260206004820152602360248201527f4b65656c55736167654c65646765723a20696e76616c69642074696d652072616044820152626e676560e81b60648201526084015b60405180910390fd5b6040516bffffffffffffffffffffffff19606089901b166020820152603481018790526054810186905242607482015260940160408051601f198184030181529181528151602092830120600081815260079093529120600a015490925060ff16156106095760405162461bcd60e51b815260206004820181905260248201527f4b65656c55736167654c65646765723a20616c726561647920736574746c65646044820152606401610552565b6000806106168888610a33565b909250905060006106278284610d25565b9050600061063784848a8a610ae8565b9050600060646002548361064b9190610d38565b6106559190610d65565b90506040518061018001604052808881526020018d6001600160a01b031681526020018c81526020018b81526020018681526020018581526020018a15158152602001891515815260200184815260200183815260200182815260200160011515815250600760008981526020019081526020016000206000820151816000015560208201518160010160006101000a8154816001600160a01b0302191690836001600160a01b0316021790555060408201518160020155606082015181600301556080820151816004015560a0820151816005015560c08201518160060160006101000a81548160ff02191690831515021790555060e08201518160060160016101000a81548160ff02191690831515021790555061010082015181600701556101208201518160080155610140820151816009015561016082015181600a0160006101000a81548160ff0219169083151502179055509050506008879080600181540180825580915050600190039060005260206000200160009091909190915055600160009054906101000a90046001600160a01b03166001600160a01b031663e023b7e58d838a6040518463ffffffff1660e01b815260040161083a939291906001600160a01b039390931683526020830191909152604082015260600190565b600060405180830381600087803b15801561085457600080fd5b505af1158015610868573d6000803e3d6000fd5b505060408051868152602081018690529081018490526001600160a01b038f1692508991507f7ac58c82780c77309db1426911ad3b5adb50840a8f6ff478b00f9cd5c17f4f789060600160405180910390a350505050505095945050505050565b60006108d481610929565b50600392909255600455600555565b600881815481106108f357600080fd5b600091825260209091200154905081565b60008281526020819052604090206001015461091f81610929565b61045783836109c8565b6109338133610b69565b50565b600061094283836104a6565b6109c0576000838152602081815260408083206001600160a01b03861684529091529020805460ff191660011790556109783390565b6001600160a01b0316826001600160a01b0316847f2f8788117e7eff1d82e926ec794901d17c78024a50270940304540a733656f0d60405160405180910390a45060016103d4565b5060006103d4565b60006109d483836104a6565b156109c0576000838152602081815260408083206001600160a01b0386168085529252808320805460ff1916905551339286917ff6391f5c32d9c69d2a47ea670b442974b53935d1edc7fd64eb21e047a839171b9190a45060016103d4565b600080835b83811015610ae0576000610e10610a526201518084610d79565b610a5c9190610d65565b90506000610a6c610e1084610d79565b610a7884610e10610d25565b610a829190610d8d565b905085811115610a8f5750845b6000610a9b8483610d8d565b90506000610aab610e1083610d65565b90506006548410610ac757610ac08187610d25565b9550610ad4565b610ad18188610d25565b96505b82945050505050610a38565b509250929050565b600080610af6866064610d38565b9050600060035486610b089190610d38565b90506000610b168284610d25565b90508515610b3b57606460045482610b2e9190610d38565b610b389190610d65565b90505b8415610b5e57606460055482610b519190610d38565b610b5b9190610d65565b90505b979650505050505050565b610b7382826104a6565b610ba25760405163e2517d3f60e01b81526001600160a01b038216600482015260248101839052604401610552565b5050565b600060208284031215610bb857600080fd5b81356001600160e01b031981168114610bd057600080fd5b9392505050565b6020808252825182820181905260009190848201906040850190845b81811015610c0f57835183529284019291840191600101610bf3565b50909695505050505050565b600060208284031215610c2d57600080fd5b5035919050565b80356001600160a01b0381168114610c4b57600080fd5b919050565b60008060408385031215610c6357600080fd5b82359150610c7360208401610c34565b90509250929050565b80358015158114610c4b57600080fd5b600080600080600060a08688031215610ca457600080fd5b610cad86610c34565b94506020860135935060408601359250610cc960608701610c7c565b9150610cd760808701610c7c565b90509295509295909350565b600080600060608486031215610cf857600080fd5b505081359360208301359350604090920135919050565b634e487b7160e01b600052601160045260246000fd5b808201808211156103d4576103d4610d0f565b80820281158282048414176103d4576103d4610d0f565b634e487b7160e01b600052601260045260246000fd5b600082610d7457610d74610d4f565b500490565b600082610d8857610d88610d4f565b500690565b818103818111156103d4576103d4610d0f56fea2646970667358221220738643fbb14e573ec90306b38eaa4c4ad21d7eb744fbe80783df573a16ffe9d564736f6c63430008180033","opcodes":"PUSH1 0x80 PUSH1 0x40 MSTORE PUSH8 0xDE0B6B3A7640000 PUSH1 0x2 SSTORE PUSH1 0x8C PUSH1 0x3 SSTORE PUSH1 0x6E PUSH1 0x4 SSTORE PUSH1 0x7D PUSH1 0x5 SSTORE PUSH1 0x12 PUSH1 0x6 SSTORE CALLVALUE DUP1 ISZERO PUSH2 0x30 JUMPI PUSH1 0x0 DUP1 REVERT JUMPDEST POP PUSH1 0x40 MLOAD PUSH3 0xF8F CODESIZE SUB DUP1 PUSH3 0xF8F DUP4 CODECOPY DUP2 ADD PUSH1 0x40 DUP2 SWAP1 MSTORE PUSH2 0x51 SWAP2 PUSH2 0x176 JUMP JUMPDEST PUSH2 0x5C PUSH1 0x0 DUP4 PUSH2 0xAE JUMP JUMPDEST POP PUSH2 0x87 PUSH32 0x97667070C54EF182B0F5858B034BEAC1B6F3089AA2D3188BB1E8929F4FA9B929 DUP4 PUSH2 0xAE JUMP JUMPDEST POP PUSH1 0x1 DUP1 SLOAD PUSH1 0x1 PUSH1 0x1 PUSH1 0xA0 SHL SUB NOT AND PUSH1 0x1 PUSH1 0x1 PUSH1 0xA0 SHL SUB SWAP3 SWAP1 SWAP3 AND SWAP2 SWAP1 SWAP2 OR SWAP1 SSTORE POP PUSH2 0x1A9 JUMP JUMPDEST PUSH1 0x0 DUP3 DUP2 MSTORE PUSH1 0x20 DUP2 DUP2 MSTORE PUSH1 0x40 DUP1 DUP4 KECCAK256 PUSH1 0x1 PUSH1 0x1 PUSH1 0xA0 SHL SUB DUP6 AND DUP5 MSTORE SWAP1 SWAP2 MSTORE DUP2 KECCAK256 SLOAD PUSH1 0xFF AND PUSH2 0x150 JUMPI PUSH1 0x0 DUP4 DUP2 MSTORE PUSH1 0x20 DUP2 DUP2 MSTORE PUSH1 0x40 DUP1 DUP4 KECCAK256 PUSH1 0x1 PUSH1 0x1 PUSH1 0xA0 SHL SUB DUP7 AND DUP5 MSTORE SWAP1 SWAP2 MSTORE SWAP1 KECCAK256 DUP1 SLOAD PUSH1 0xFF NOT AND PUSH1 0x1 OR SWAP1 SSTORE PUSH2 0x108 CALLER SWAP1 JUMP JUMPDEST PUSH1 0x1 PUSH1 0x1 PUSH1 0xA0 SHL SUB AND DUP3 PUSH1 0x1 PUSH1 0x1 PUSH1 0xA0 SHL SUB AND DUP5 PUSH32 0x2F8788117E7EFF1D82E926EC794901D17C78024A50270940304540A733656F0D PUSH1 0x40 MLOAD PUSH1 0x40 MLOAD DUP1 SWAP2 SUB SWAP1 LOG4 POP PUSH1 0x1 PUSH2 0x154 JUMP JUMPDEST POP PUSH1 0x0 JUMPDEST SWAP3 SWAP2 POP POP JUMP JUMPDEST DUP1 MLOAD PUSH1 0x1 PUSH1 0x1 PUSH1 0xA0 SHL SUB DUP2 AND DUP2 EQ PUSH2 0x171 JUMPI PUSH1 0x0 DUP1 REVERT JUMPDEST SWAP2 SWAP1 POP JUMP JUMPDEST PUSH1 0x0 DUP1 PUSH1 0x40 DUP4 DUP6 SUB SLT ISZERO PUSH2 0x189 JUMPI PUSH1 0x0 DUP1 REVERT JUMPDEST PUSH2 0x192 DUP4 PUSH2 0x15A JUMP JUMPDEST SWAP2 POP PUSH2 0x1A0 PUSH1 0x20 DUP5 ADD PUSH2 0x15A JUMP JUMPDEST SWAP1 POP SWAP3 POP SWAP3 SWAP1 POP JUMP JUMPDEST PUSH2 0xDD6 DUP1 PUSH3 0x1B9 PUSH1 0x0 CODECOPY PUSH1 0x0 RETURN INVALID PUSH1 0x80 PUSH1 0x40 MSTORE CALLVALUE DUP1 ISZERO PUSH2 0x10 JUMPI PUSH1 0x0 DUP1 REVERT JUMPDEST POP PUSH1 0x4 CALLDATASIZE LT PUSH2 0x12C JUMPI PUSH1 0x0 CALLDATALOAD PUSH1 0xE0 SHR DUP1 PUSH4 0x80A8FD3F GT PUSH2 0xAD JUMPI DUP1 PUSH4 0xBDCF84E0 GT PUSH2 0x71 JUMPI DUP1 PUSH4 0xBDCF84E0 EQ PUSH2 0x260 JUMPI DUP1 PUSH4 0xCF6A019D EQ PUSH2 0x273 JUMPI DUP1 PUSH4 0xD3BBCFBD EQ PUSH2 0x286 JUMPI DUP1 PUSH4 0xD547741F EQ PUSH2 0x369 JUMPI DUP1 PUSH4 0xF5B541A6 EQ PUSH2 0x37C JUMPI PUSH1 0x0 DUP1 REVERT JUMPDEST DUP1 PUSH4 0x80A8FD3F EQ PUSH2 0x1FE JUMPI DUP1 PUSH4 0x90CDBAF8 EQ PUSH2 0x207 JUMPI DUP1 PUSH4 0x91D14854 EQ PUSH2 0x232 JUMPI DUP1 PUSH4 0xA217FDDF EQ PUSH2 0x245 JUMPI DUP1 PUSH4 0xBDA0BC2D EQ PUSH2 0x24D JUMPI PUSH1 0x0 DUP1 REVERT JUMPDEST DUP1 PUSH4 0x2F2FF15D GT PUSH2 0xF4 JUMPI DUP1 PUSH4 0x2F2FF15D EQ PUSH2 0x1B1 JUMPI DUP1 PUSH4 0x330283AA EQ PUSH2 0x1C6 JUMPI DUP1 PUSH4 0x36568ABE EQ PUSH2 0x1D9 JUMPI DUP1 PUSH4 0x44BC207E EQ PUSH2 0x1EC JUMPI DUP1 PUSH4 0x711D9591 EQ PUSH2 0x1F5 JUMPI PUSH1 0x0 DUP1 REVERT JUMPDEST DUP1 PUSH4 0x1FFC9A7 EQ PUSH2 0x131 JUMPI DUP1 PUSH4 0x58670E3 EQ PUSH2 0x159 JUMPI DUP1 PUSH4 0x62E5709 EQ PUSH2 0x16E JUMPI DUP1 PUSH4 0x248A9CA3 EQ PUSH2 0x185 JUMPI DUP1 PUSH4 0x2C2AC712 EQ PUSH2 0x1A8 JUMPI JUMPDEST PUSH1 0x0 DUP1 REVERT JUMPDEST PUSH2 0x144 PUSH2 0x13F CALLDATASIZE PUSH1 0x4 PUSH2 0xBA6 JUMP JUMPDEST PUSH2 0x3A3 JUMP JUMPDEST PUSH1 0x40 MLOAD SWAP1 ISZERO ISZERO DUP2 MSTORE PUSH1 0x20 ADD JUMPDEST PUSH1 0x40 MLOAD DUP1 SWAP2 SUB SWAP1 RETURN JUMPDEST PUSH2 0x161 PUSH2 0x3DA JUMP JUMPDEST PUSH1 0x40 MLOAD PUSH2 0x150 SWAP2 SWAP1 PUSH2 0xBD7 JUMP JUMPDEST PUSH2 0x177 PUSH1 0x3 SLOAD DUP2 JUMP JUMPDEST PUSH1 0x40 MLOAD SWAP1 DUP2 MSTORE PUSH1 0x20 ADD PUSH2 0x150 JUMP JUMPDEST PUSH2 0x177 PUSH2 0x193 CALLDATASIZE PUSH1 0x4 PUSH2 0xC1B JUMP JUMPDEST PUSH1 0x0 SWAP1 DUP2 MSTORE PUSH1 0x20 DUP2 SWAP1 MSTORE PUSH1 0x40 SWAP1 KECCAK256 PUSH1 0x1 ADD SLOAD SWAP1 JUMP JUMPDEST PUSH2 0x177 PUSH1 0x5 SLOAD DUP2 JUMP JUMPDEST PUSH2 0x1C4 PUSH2 0x1BF CALLDATASIZE PUSH1 0x4 PUSH2 0xC50 JUMP JUMPDEST PUSH2 0x432 JUMP JUMPDEST STOP JUMPDEST PUSH2 0x1C4 PUSH2 0x1D4 CALLDATASIZE PUSH1 0x4 PUSH2 0xC1B JUMP JUMPDEST PUSH2 0x45D JUMP JUMPDEST PUSH2 0x1C4 PUSH2 0x1E7 CALLDATASIZE PUSH1 0x4 PUSH2 0xC50 JUMP JUMPDEST PUSH2 0x46E JUMP JUMPDEST PUSH2 0x177 PUSH1 0x4 SLOAD DUP2 JUMP JUMPDEST PUSH2 0x177 PUSH1 0x6 SLOAD DUP2 JUMP JUMPDEST PUSH2 0x177 PUSH1 0x2 SLOAD DUP2 JUMP JUMPDEST PUSH1 0x1 SLOAD PUSH2 0x21A SWAP1 PUSH1 0x1 PUSH1 0x1 PUSH1 0xA0 SHL SUB AND DUP2 JUMP JUMPDEST PUSH1 0x40 MLOAD PUSH1 0x1 PUSH1 0x1 PUSH1 0xA0 SHL SUB SWAP1 SWAP2 AND DUP2 MSTORE PUSH1 0x20 ADD PUSH2 0x150 JUMP JUMPDEST PUSH2 0x144 PUSH2 0x240 CALLDATASIZE PUSH1 0x4 PUSH2 0xC50 JUMP JUMPDEST PUSH2 0x4A6 JUMP JUMPDEST PUSH2 0x177 PUSH1 0x0 DUP2 JUMP JUMPDEST PUSH2 0x177 PUSH2 0x25B CALLDATASIZE PUSH1 0x4 PUSH2 0xC8C JUMP JUMPDEST PUSH2 0x4CF JUMP JUMPDEST PUSH2 0x1C4 PUSH2 0x26E CALLDATASIZE PUSH1 0x4 PUSH2 0xCE3 JUMP JUMPDEST PUSH2 0x8C9 JUMP JUMPDEST PUSH2 0x177 PUSH2 0x281 CALLDATASIZE PUSH1 0x4 PUSH2 0xC1B JUMP JUMPDEST PUSH2 0x8E3 JUMP JUMPDEST PUSH2 0x302 PUSH2 0x294 CALLDATASIZE PUSH1 0x4 PUSH2 0xC1B JUMP JUMPDEST PUSH1 0x7 PUSH1 0x20 DUP2 SWAP1 MSTORE PUSH1 0x0 SWAP2 DUP3 MSTORE PUSH1 0x40 SWAP1 SWAP2 KECCAK256 DUP1 SLOAD PUSH1 0x1 DUP3 ADD SLOAD PUSH1 0x2 DUP4 ADD SLOAD PUSH1 0x3 DUP5 ADD SLOAD PUSH1 0x4 DUP6 ADD SLOAD PUSH1 0x5 DUP7 ADD SLOAD PUSH1 0x6 DUP8 ADD SLOAD SWAP8 DUP8 ADD SLOAD PUSH1 0x8 DUP9 ADD SLOAD PUSH1 0x9 DUP10 ADD SLOAD PUSH1 0xA SWAP1 SWAP10 ADD SLOAD SWAP8 SWAP10 PUSH1 0x1 PUSH1 0x1 PUSH1 0xA0 SHL SUB SWAP1 SWAP8 AND SWAP9 SWAP6 SWAP8 SWAP5 SWAP7 SWAP4 SWAP6 SWAP3 SWAP5 PUSH1 0xFF DUP1 DUP7 AND SWAP6 PUSH2 0x100 SWAP1 DIV DUP2 AND SWAP5 SWAP2 AND DUP13 JUMP JUMPDEST PUSH1 0x40 DUP1 MLOAD SWAP13 DUP14 MSTORE PUSH1 0x1 PUSH1 0x1 PUSH1 0xA0 SHL SUB SWAP1 SWAP12 AND PUSH1 0x20 DUP14 ADD MSTORE SWAP10 DUP12 ADD SWAP9 SWAP1 SWAP9 MSTORE PUSH1 0x60 DUP11 ADD SWAP7 SWAP1 SWAP7 MSTORE PUSH1 0x80 DUP10 ADD SWAP5 SWAP1 SWAP5 MSTORE PUSH1 0xA0 DUP9 ADD SWAP3 SWAP1 SWAP3 MSTORE ISZERO ISZERO PUSH1 0xC0 DUP8 ADD MSTORE ISZERO ISZERO PUSH1 0xE0 DUP7 ADD MSTORE PUSH2 0x100 DUP6 ADD MSTORE PUSH2 0x120 DUP5 ADD MSTORE PUSH2 0x140 DUP4 ADD MSTORE ISZERO ISZERO PUSH2 0x160 DUP3 ADD MSTORE PUSH2 0x180 ADD PUSH2 0x150 JUMP JUMPDEST PUSH2 0x1C4 PUSH2 0x377 CALLDATASIZE PUSH1 0x4 PUSH2 0xC50 JUMP JUMPDEST PUSH2 0x904 JUMP JUMPDEST PUSH2 0x177 PUSH32 0x97667070C54EF182B0F5858B034BEAC1B6F3089AA2D3188BB1E8929F4FA9B929 DUP2 JUMP JUMPDEST PUSH1 0x0 PUSH1 0x1 PUSH1 0x1 PUSH1 0xE0 SHL SUB NOT DUP3 AND PUSH4 0x7965DB0B PUSH1 0xE0 SHL EQ DUP1 PUSH2 0x3D4 JUMPI POP PUSH4 0x1FFC9A7 PUSH1 0xE0 SHL PUSH1 0x1 PUSH1 0x1 PUSH1 0xE0 SHL SUB NOT DUP4 AND EQ JUMPDEST SWAP3 SWAP2 POP POP JUMP JUMPDEST PUSH1 0x60 PUSH1 0x8 DUP1 SLOAD DUP1 PUSH1 0x20 MUL PUSH1 0x20 ADD PUSH1 0x40 MLOAD SWAP1 DUP2 ADD PUSH1 0x40 MSTORE DUP1 SWAP3 SWAP2 SWAP1 DUP2 DUP2 MSTORE PUSH1 0x20 ADD DUP3 DUP1 SLOAD DUP1 ISZERO PUSH2 0x428 JUMPI PUSH1 0x20 MUL DUP3 ADD SWAP2 SWAP1 PUSH1 0x0 MSTORE PUSH1 0x20 PUSH1 0x0 KECCAK256 SWAP1 JUMPDEST DUP2 SLOAD DUP2 MSTORE PUSH1 0x20 ADD SWAP1 PUSH1 0x1 ADD SWAP1 DUP1 DUP4 GT PUSH2 0x414 JUMPI JUMPDEST POP POP POP POP POP SWAP1 POP SWAP1 JUMP JUMPDEST PUSH1 0x0 DUP3 DUP2 MSTORE PUSH1 0x20 DUP2 SWAP1 MSTORE PUSH1 0x40 SWAP1 KECCAK256 PUSH1 0x1 ADD SLOAD PUSH2 0x44D DUP2 PUSH2 0x929 JUMP JUMPDEST PUSH2 0x457 DUP4 DUP4 PUSH2 0x936 JUMP JUMPDEST POP POP POP POP JUMP JUMPDEST PUSH1 0x0 PUSH2 0x468 DUP2 PUSH2 0x929 JUMP JUMPDEST POP PUSH1 0x2 SSTORE JUMP JUMPDEST PUSH1 0x1 PUSH1 0x1 PUSH1 0xA0 SHL SUB DUP2 AND CALLER EQ PUSH2 0x497 JUMPI PUSH1 0x40 MLOAD PUSH4 0x334BD919 PUSH1 0xE1 SHL DUP2 MSTORE PUSH1 0x4 ADD PUSH1 0x40 MLOAD DUP1 SWAP2 SUB SWAP1 REVERT JUMPDEST PUSH2 0x4A1 DUP3 DUP3 PUSH2 0x9C8 JUMP JUMPDEST POP POP POP JUMP JUMPDEST PUSH1 0x0 SWAP2 DUP3 MSTORE PUSH1 0x20 DUP3 DUP2 MSTORE PUSH1 0x40 DUP1 DUP5 KECCAK256 PUSH1 0x1 PUSH1 0x1 PUSH1 0xA0 SHL SUB SWAP4 SWAP1 SWAP4 AND DUP5 MSTORE SWAP2 SWAP1 MSTORE SWAP1 KECCAK256 SLOAD PUSH1 0xFF AND SWAP1 JUMP JUMPDEST PUSH1 0x0 PUSH32 0x97667070C54EF182B0F5858B034BEAC1B6F3089AA2D3188BB1E8929F4FA9B929 PUSH2 0x4FB DUP2 PUSH2 0x929 JUMP JUMPDEST DUP6 DUP6 GT PUSH2 0x55B JUMPI PUSH1 0x40 MLOAD PUSH3 0x461BCD PUSH1 0xE5 SHL DUP2 MSTORE PUSH1 0x20 PUSH1 0x4 DUP3 ADD MSTORE PUSH1 0x23 PUSH1 0x24 DUP3 ADD MSTORE PUSH32 0x4B65656C55736167654C65646765723A20696E76616C69642074696D65207261 PUSH1 0x44 DUP3 ADD MSTORE PUSH3 0x6E6765 PUSH1 0xE8 SHL PUSH1 0x64 DUP3 ADD MSTORE PUSH1 0x84 ADD JUMPDEST PUSH1 0x40 MLOAD DUP1 SWAP2 SUB SWAP1 REVERT JUMPDEST PUSH1 0x40 MLOAD PUSH12 0xFFFFFFFFFFFFFFFFFFFFFFFF NOT PUSH1 0x60 DUP10 SWAP1 SHL AND PUSH1 0x20 DUP3 ADD MSTORE PUSH1 0x34 DUP2 ADD DUP8 SWAP1 MSTORE PUSH1 0x54 DUP2 ADD DUP7 SWAP1 MSTORE TIMESTAMP PUSH1 0x74 DUP3 ADD MSTORE PUSH1 0x94 ADD PUSH1 0x40 DUP1 MLOAD PUSH1 0x1F NOT DUP2 DUP5 SUB ADD DUP2 MSTORE SWAP2 DUP2 MSTORE DUP2 MLOAD PUSH1 0x20 SWAP3 DUP4 ADD KECCAK256 PUSH1 0x0 DUP2 DUP2 MSTORE PUSH1 0x7 SWAP1 SWAP4 MSTORE SWAP2 KECCAK256 PUSH1 0xA ADD SLOAD SWAP1 SWAP3 POP PUSH1 0xFF AND ISZERO PUSH2 0x609 JUMPI PUSH1 0x40 MLOAD PUSH3 0x461BCD PUSH1 0xE5 SHL DUP2 MSTORE PUSH1 0x20 PUSH1 0x4 DUP3 ADD DUP2 SWAP1 MSTORE PUSH1 0x24 DUP3 ADD MSTORE PUSH32 0x4B65656C55736167654C65646765723A20616C726561647920736574746C6564 PUSH1 0x44 DUP3 ADD MSTORE PUSH1 0x64 ADD PUSH2 0x552 JUMP JUMPDEST PUSH1 0x0 DUP1 PUSH2 0x616 DUP9 DUP9 PUSH2 0xA33 JUMP JUMPDEST SWAP1 SWAP3 POP SWAP1 POP PUSH1 0x0 PUSH2 0x627 DUP3 DUP5 PUSH2 0xD25 JUMP JUMPDEST SWAP1 POP PUSH1 0x0 PUSH2 0x637 DUP5 DUP5 DUP11 DUP11 PUSH2 0xAE8 JUMP JUMPDEST SWAP1 POP PUSH1 0x0 PUSH1 0x64 PUSH1 0x2 SLOAD DUP4 PUSH2 0x64B SWAP2 SWAP1 PUSH2 0xD38 JUMP JUMPDEST PUSH2 0x655 SWAP2 SWAP1 PUSH2 0xD65 JUMP JUMPDEST SWAP1 POP PUSH1 0x40 MLOAD DUP1 PUSH2 0x180 ADD PUSH1 0x40 MSTORE DUP1 DUP9 DUP2 MSTORE PUSH1 0x20 ADD DUP14 PUSH1 0x1 PUSH1 0x1 PUSH1 0xA0 SHL SUB AND DUP2 MSTORE PUSH1 0x20 ADD DUP13 DUP2 MSTORE PUSH1 0x20 ADD DUP12 DUP2 MSTORE PUSH1 0x20 ADD DUP7 DUP2 MSTORE PUSH1 0x20 ADD DUP6 DUP2 MSTORE PUSH1 0x20 ADD DUP11 ISZERO ISZERO DUP2 MSTORE PUSH1 0x20 ADD DUP10 ISZERO ISZERO DUP2 MSTORE PUSH1 0x20 ADD DUP5 DUP2 MSTORE PUSH1 0x20 ADD DUP4 DUP2 MSTORE PUSH1 0x20 ADD DUP3 DUP2 MSTORE PUSH1 0x20 ADD PUSH1 0x1 ISZERO ISZERO DUP2 MSTORE POP PUSH1 0x7 PUSH1 0x0 DUP10 DUP2 MSTORE PUSH1 0x20 ADD SWAP1 DUP2 MSTORE PUSH1 0x20 ADD PUSH1 0x0 KECCAK256 PUSH1 0x0 DUP3 ADD MLOAD DUP2 PUSH1 0x0 ADD SSTORE PUSH1 0x20 DUP3 ADD MLOAD DUP2 PUSH1 0x1 ADD PUSH1 0x0 PUSH2 0x100 EXP DUP2 SLOAD DUP2 PUSH1 0x1 PUSH1 0x1 PUSH1 0xA0 SHL SUB MUL NOT AND SWAP1 DUP4 PUSH1 0x1 PUSH1 0x1 PUSH1 0xA0 SHL SUB AND MUL OR SWAP1 SSTORE POP PUSH1 0x40 DUP3 ADD MLOAD DUP2 PUSH1 0x2 ADD SSTORE PUSH1 0x60 DUP3 ADD MLOAD DUP2 PUSH1 0x3 ADD SSTORE PUSH1 0x80 DUP3 ADD MLOAD DUP2 PUSH1 0x4 ADD SSTORE PUSH1 0xA0 DUP3 ADD MLOAD DUP2 PUSH1 0x5 ADD SSTORE PUSH1 0xC0 DUP3 ADD MLOAD DUP2 PUSH1 0x6 ADD PUSH1 0x0 PUSH2 0x100 EXP DUP2 SLOAD DUP2 PUSH1 0xFF MUL NOT AND SWAP1 DUP4 ISZERO ISZERO MUL OR SWAP1 SSTORE POP PUSH1 0xE0 DUP3 ADD MLOAD DUP2 PUSH1 0x6 ADD PUSH1 0x1 PUSH2 0x100 EXP DUP2 SLOAD DUP2 PUSH1 0xFF MUL NOT AND SWAP1 DUP4 ISZERO ISZERO MUL OR SWAP1 SSTORE POP PUSH2 0x100 DUP3 ADD MLOAD DUP2 PUSH1 0x7 ADD SSTORE PUSH2 0x120 DUP3 ADD MLOAD DUP2 PUSH1 0x8 ADD SSTORE PUSH2 0x140 DUP3 ADD MLOAD DUP2 PUSH1 0x9 ADD SSTORE PUSH2 0x160 DUP3 ADD MLOAD DUP2 PUSH1 0xA ADD PUSH1 0x0 PUSH2 0x100 EXP DUP2 SLOAD DUP2 PUSH1 0xFF MUL NOT AND SWAP1 DUP4 ISZERO ISZERO MUL OR SWAP1 SSTORE POP SWAP1 POP POP PUSH1 0x8 DUP8 SWAP1 DUP1 PUSH1 0x1 DUP2 SLOAD ADD DUP1 DUP3 SSTORE DUP1 SWAP2 POP POP PUSH1 0x1 SWAP1 SUB SWAP1 PUSH1 0x0 MSTORE PUSH1 0x20 PUSH1 0x0 KECCAK256 ADD PUSH1 0x0 SWAP1 SWAP2 SWAP1 SWAP2 SWAP1 SWAP2 POP SSTORE PUSH1 0x1 PUSH1 0x0 SWAP1 SLOAD SWAP1 PUSH2 0x100 EXP SWAP1 DIV PUSH1 0x1 PUSH1 0x1 PUSH1 0xA0 SHL SUB AND PUSH1 0x1 PUSH1 0x1 PUSH1 0xA0 SHL SUB AND PUSH4 0xE023B7E5 DUP14 DUP4 DUP11 PUSH1 0x40 MLOAD DUP5 PUSH4 0xFFFFFFFF AND PUSH1 0xE0 SHL DUP2 MSTORE PUSH1 0x4 ADD PUSH2 0x83A SWAP4 SWAP3 SWAP2 SWAP1 PUSH1 0x1 PUSH1 0x1 PUSH1 0xA0 SHL SUB SWAP4 SWAP1 SWAP4 AND DUP4 MSTORE PUSH1 0x20 DUP4 ADD SWAP2 SWAP1 SWAP2 MSTORE PUSH1 0x40 DUP3 ADD MSTORE PUSH1 0x60 ADD SWAP1 JUMP JUMPDEST PUSH1 0x0 PUSH1 0x40 MLOAD DUP1 DUP4 SUB DUP2 PUSH1 0x0 DUP8 DUP1 EXTCODESIZE ISZERO DUP1 ISZERO PUSH2 0x854 JUMPI PUSH1 0x0 DUP1 REVERT JUMPDEST POP GAS CALL ISZERO DUP1 ISZERO PUSH2 0x868 JUMPI RETURNDATASIZE PUSH1 0x0 DUP1 RETURNDATACOPY RETURNDATASIZE PUSH1 0x0 REVERT JUMPDEST POP POP PUSH1 0x40 DUP1 MLOAD DUP7 DUP2 MSTORE PUSH1 0x20 DUP2 ADD DUP7 SWAP1 MSTORE SWAP1 DUP2 ADD DUP5 SWAP1 MSTORE PUSH1 0x1 PUSH1 0x1 PUSH1 0xA0 SHL SUB DUP16 AND SWAP3 POP DUP10 SWAP2 POP PUSH32 0x7AC58C82780C77309DB1426911AD3B5ADB50840A8F6FF478B00F9CD5C17F4F78 SWAP1 PUSH1 0x60 ADD PUSH1 0x40 MLOAD DUP1 SWAP2 SUB SWAP1 LOG3 POP POP POP POP POP POP SWAP6 SWAP5 POP POP POP POP POP JUMP JUMPDEST PUSH1 0x0 PUSH2 0x8D4 DUP2 PUSH2 0x929 JUMP JUMPDEST POP PUSH1 0x3 SWAP3 SWAP1 SWAP3 SSTORE PUSH1 0x4 SSTORE PUSH1 0x5 SSTORE JUMP JUMPDEST PUSH1 0x8 DUP2 DUP2 SLOAD DUP2 LT PUSH2 0x8F3 JUMPI PUSH1 0x0 DUP1 REVERT JUMPDEST PUSH1 0x0 SWAP2 DUP3 MSTORE PUSH1 0x20 SWAP1 SWAP2 KECCAK256 ADD SLOAD SWAP1 POP DUP2 JUMP JUMPDEST PUSH1 0x0 DUP3 DUP2 MSTORE PUSH1 0x20 DUP2 SWAP1 MSTORE PUSH1 0x40 SWAP1 KECCAK256 PUSH1 0x1 ADD SLOAD PUSH2 0x91F DUP2 PUSH2 0x929 JUMP JUMPDEST PUSH2 0x457 DUP4 DUP4 PUSH2 0x9C8 JUMP JUMPDEST PUSH2 0x933 DUP2 CALLER PUSH2 0xB69 JUMP JUMPDEST POP JUMP JUMPDEST PUSH1 0x0 PUSH2 0x942 DUP4 DUP4 PUSH2 0x4A6 JUMP JUMPDEST PUSH2 0x9C0 JUMPI PUSH1 0x0 DUP4 DUP2 MSTORE PUSH1 0x20 DUP2 DUP2 MSTORE PUSH1 0x40 DUP1 DUP4 KECCAK256 PUSH1 0x1 PUSH1 0x1 PUSH1 0xA0 SHL SUB DUP7 AND DUP5 MSTORE SWAP1 SWAP2 MSTORE SWAP1 KECCAK256 DUP1 SLOAD PUSH1 0xFF NOT AND PUSH1 0x1 OR SWAP1 SSTORE PUSH2 0x978 CALLER SWAP1 JUMP JUMPDEST PUSH1 0x1 PUSH1 0x1 PUSH1 0xA0 SHL SUB AND DUP3 PUSH1 0x1 PUSH1 0x1 PUSH1 0xA0 SHL SUB AND DUP5 PUSH32 0x2F8788117E7EFF1D82E926EC794901D17C78024A50270940304540A733656F0D PUSH1 0x40 MLOAD PUSH1 0x40 MLOAD DUP1 SWAP2 SUB SWAP1 LOG4 POP PUSH1 0x1 PUSH2 0x3D4 JUMP JUMPDEST POP PUSH1 0x0 PUSH2 0x3D4 JUMP JUMPDEST PUSH1 0x0 PUSH2 0x9D4 DUP4 DUP4 PUSH2 0x4A6 JUMP JUMPDEST ISZERO PUSH2 0x9C0 JUMPI PUSH1 0x0 DUP4 DUP2 MSTORE PUSH1 0x20 DUP2 DUP2 MSTORE PUSH1 0x40 DUP1 DUP4 KECCAK256 PUSH1 0x1 PUSH1 0x1 PUSH1 0xA0 SHL SUB DUP7 AND DUP1 DUP6 MSTORE SWAP3 MSTORE DUP1 DUP4 KECCAK256 DUP1 SLOAD PUSH1 0xFF NOT AND SWAP1 SSTORE MLOAD CALLER SWAP3 DUP7 SWAP2 PUSH32 0xF6391F5C32D9C69D2A47EA670B442974B53935D1EDC7FD64EB21E047A839171B SWAP2 SWAP1 LOG4 POP PUSH1 0x1 PUSH2 0x3D4 JUMP JUMPDEST PUSH1 0x0 DUP1 DUP4 JUMPDEST DUP4 DUP2 LT ISZERO PUSH2 0xAE0 JUMPI PUSH1 0x0 PUSH2 0xE10 PUSH2 0xA52 PUSH3 0x15180 DUP5 PUSH2 0xD79 JUMP JUMPDEST PUSH2 0xA5C SWAP2 SWAP1 PUSH2 0xD65 JUMP JUMPDEST SWAP1 POP PUSH1 0x0 PUSH2 0xA6C PUSH2 0xE10 DUP5 PUSH2 0xD79 JUMP JUMPDEST PUSH2 0xA78 DUP5 PUSH2 0xE10 PUSH2 0xD25 JUMP JUMPDEST PUSH2 0xA82 SWAP2 SWAP1 PUSH2 0xD8D JUMP JUMPDEST SWAP1 POP DUP6 DUP2 GT ISZERO PUSH2 0xA8F JUMPI POP DUP5 JUMPDEST PUSH1 0x0 PUSH2 0xA9B DUP5 DUP4 PUSH2 0xD8D JUMP JUMPDEST SWAP1 POP PUSH1 0x0 PUSH2 0xAAB PUSH2 0xE10 DUP4 PUSH2 0xD65 JUMP JUMPDEST SWAP1 POP PUSH1 0x6 SLOAD DUP5 LT PUSH2 0xAC7 JUMPI PUSH2 0xAC0 DUP2 DUP8 PUSH2 0xD25 JUMP JUMPDEST SWAP6 POP PUSH2 0xAD4 JUMP JUMPDEST PUSH2 0xAD1 DUP2 DUP9 PUSH2 0xD25 JUMP JUMPDEST SWAP7 POP JUMPDEST DUP3 SWAP5 POP POP POP POP POP PUSH2 0xA38 JUMP JUMPDEST POP SWAP3 POP SWAP3 SWAP1 POP JUMP JUMPDEST PUSH1 0x0 DUP1 PUSH2 0xAF6 DUP7 PUSH1 0x64 PUSH2 0xD38 JUMP JUMPDEST SWAP1 POP PUSH1 0x0 PUSH1 0x3 SLOAD DUP7 PUSH2 0xB08 SWAP2 SWAP1 PUSH2 0xD38 JUMP JUMPDEST SWAP1 POP PUSH1 0x0 PUSH2 0xB16 DUP3 DUP5 PUSH2 0xD25 JUMP JUMPDEST SWAP1 POP DUP6 ISZERO PUSH2 0xB3B JUMPI PUSH1 0x64 PUSH1 0x4 SLOAD DUP3 PUSH2 0xB2E SWAP2 SWAP1 PUSH2 0xD38 JUMP JUMPDEST PUSH2 0xB38 SWAP2 SWAP1 PUSH2 0xD65 JUMP JUMPDEST SWAP1 POP JUMPDEST DUP5 ISZERO PUSH2 0xB5E JUMPI PUSH1 0x64 PUSH1 0x5 SLOAD DUP3 PUSH2 0xB51 SWAP2 SWAP1 PUSH2 0xD38 JUMP JUMPDEST PUSH2 0xB5B SWAP2 SWAP1 PUSH2 0xD65 JUMP JUMPDEST SWAP1 POP JUMPDEST SWAP8 SWAP7 POP POP POP POP POP POP POP JUMP JUMPDEST PUSH2 0xB73 DUP3 DUP3 PUSH2 0x4A6 JUMP JUMPDEST PUSH2 0xBA2 JUMPI PUSH1 0x40 MLOAD PUSH4 0xE2517D3F PUSH1 0xE0 SHL DUP2 MSTORE PUSH1 0x1 PUSH1 0x1 PUSH1 0xA0 SHL SUB DUP3 AND PUSH1 0x4 DUP3 ADD MSTORE PUSH1 0x24 DUP2 ADD DUP4 SWAP1 MSTORE PUSH1 0x44 ADD PUSH2 0x552 JUMP JUMPDEST POP POP JUMP JUMPDEST PUSH1 0x0 PUSH1 0x20 DUP3 DUP5 SUB SLT ISZERO PUSH2 0xBB8 JUMPI PUSH1 0x0 DUP1 REVERT JUMPDEST DUP2 CALLDATALOAD PUSH1 0x1 PUSH1 0x1 PUSH1 0xE0 SHL SUB NOT DUP2 AND DUP2 EQ PUSH2 0xBD0 JUMPI PUSH1 0x0 DUP1 REVERT JUMPDEST SWAP4 SWAP3 POP POP POP JUMP JUMPDEST PUSH1 0x20 DUP1 DUP3 MSTORE DUP3 MLOAD DUP3 DUP3 ADD DUP2 SWAP1 MSTORE PUSH1 0x0 SWAP2 SWAP1 DUP5 DUP3 ADD SWAP1 PUSH1 0x40 DUP6 ADD SWAP1 DUP5 JUMPDEST DUP2 DUP2 LT ISZERO PUSH2 0xC0F JUMPI DUP4 MLOAD DUP4 MSTORE SWAP3 DUP5 ADD SWAP3 SWAP2 DUP5 ADD SWAP2 PUSH1 0x1 ADD PUSH2 0xBF3 JUMP JUMPDEST POP SWAP1 SWAP7 SWAP6 POP POP POP POP POP POP JUMP JUMPDEST PUSH1 0x0 PUSH1 0x20 DUP3 DUP5 SUB SLT ISZERO PUSH2 0xC2D JUMPI PUSH1 0x0 DUP1 REVERT JUMPDEST POP CALLDATALOAD SWAP2 SWAP1 POP JUMP JUMPDEST DUP1 CALLDATALOAD PUSH1 0x1 PUSH1 0x1 PUSH1 0xA0 SHL SUB DUP2 AND DUP2 EQ PUSH2 0xC4B JUMPI PUSH1 0x0 DUP1 REVERT JUMPDEST SWAP2 SWAP1 POP JUMP JUMPDEST PUSH1 0x0 DUP1 PUSH1 0x40 DUP4 DUP6 SUB SLT ISZERO PUSH2 0xC63 JUMPI PUSH1 0x0 DUP1 REVERT JUMPDEST DUP3 CALLDATALOAD SWAP2 POP PUSH2 0xC73 PUSH1 0x20 DUP5 ADD PUSH2 0xC34 JUMP JUMPDEST SWAP1 POP SWAP3 POP SWAP3 SWAP1 POP JUMP JUMPDEST DUP1 CALLDATALOAD DUP1 ISZERO ISZERO DUP2 EQ PUSH2 0xC4B JUMPI PUSH1 0x0 DUP1 REVERT JUMPDEST PUSH1 0x0 DUP1 PUSH1 0x0 DUP1 PUSH1 0x0 PUSH1 0xA0 DUP7 DUP9 SUB SLT ISZERO PUSH2 0xCA4 JUMPI PUSH1 0x0 DUP1 REVERT JUMPDEST PUSH2 0xCAD DUP7 PUSH2 0xC34 JUMP JUMPDEST SWAP5 POP PUSH1 0x20 DUP7 ADD CALLDATALOAD SWAP4 POP PUSH1 0x40 DUP7 ADD CALLDATALOAD SWAP3 POP PUSH2 0xCC9 PUSH1 0x60 DUP8 ADD PUSH2 0xC7C JUMP JUMPDEST SWAP2 POP PUSH2 0xCD7 PUSH1 0x80 DUP8 ADD PUSH2 0xC7C JUMP JUMPDEST SWAP1 POP SWAP3 SWAP6 POP SWAP3 SWAP6 SWAP1 SWAP4 POP JUMP JUMPDEST PUSH1 0x0 DUP1 PUSH1 0x0 PUSH1 0x60 DUP5 DUP7 SUB SLT ISZERO PUSH2 0xCF8 JUMPI PUSH1 0x0 DUP1 REVERT JUMPDEST POP POP DUP2 CALLDATALOAD SWAP4 PUSH1 0x20 DUP4 ADD CALLDATALOAD SWAP4 POP PUSH1 0x40 SWAP1 SWAP3 ADD CALLDATALOAD SWAP2 SWAP1 POP JUMP JUMPDEST PUSH4 0x4E487B71 PUSH1 0xE0 SHL PUSH1 0x0 MSTORE PUSH1 0x11 PUSH1 0x4 MSTORE PUSH1 0x24 PUSH1 0x0 REVERT JUMPDEST DUP1 DUP3 ADD DUP1 DUP3 GT ISZERO PUSH2 0x3D4 JUMPI PUSH2 0x3D4 PUSH2 0xD0F JUMP JUMPDEST DUP1 DUP3 MUL DUP2 ISZERO DUP3 DUP3 DIV DUP5 EQ OR PUSH2 0x3D4 JUMPI PUSH2 0x3D4 PUSH2 0xD0F JUMP JUMPDEST PUSH4 0x4E487B71 PUSH1 0xE0 SHL PUSH1 0x0 MSTORE PUSH1 0x12 PUSH1 0x4 MSTORE PUSH1 0x24 PUSH1 0x0 REVERT JUMPDEST PUSH1 0x0 DUP3 PUSH2 0xD74 JUMPI PUSH2 0xD74 PUSH2 0xD4F JUMP JUMPDEST POP DIV SWAP1 JUMP JUMPDEST PUSH1 0x0 DUP3 PUSH2 0xD88 JUMPI PUSH2 0xD88 PUSH2 0xD4F JUMP JUMPDEST POP MOD SWAP1 JUMP JUMPDEST DUP2 DUP2 SUB DUP2 DUP2 GT ISZERO PUSH2 0x3D4 JUMPI PUSH2 0x3D4 PUSH2 0xD0F JUMP INVALID LOG2 PUSH5 0x6970667358 0x22 SLT KECCAK256 PUSH20 0x8643FBB14E573EC90306B38EAA4C4AD21D7EB744 0xFB 0xE8 SMOD DUP4 0xDF JUMPI GASPRICE AND SELFDESTRUCT 0xE9 0xD5 PUSH5 0x736F6C6343 STOP ADDMOD XOR STOP CALLER "},"methodIdentifiers":{"DEFAULT_ADMIN_ROLE()":"a217fddf","OPERATOR_ROLE()":"f5b541a6","baseRatePerHour()":"80a8fd3f","eveningMultiplier()":"062e5709","eveningStartHour()":"711d9591","getAllTripIds()":"058670e3","getRoleAdmin(bytes32)":"248a9ca3","grantRole(bytes32,address)":"2f2ff15d","hasRole(bytes32,address)":"91d14854","holidayMultiplier()":"2c2ac712","keelToken()":"90cdbaf8","logAndSettle(address,uint256,uint256,bool,bool)":"bda0bc2d","renounceRole(bytes32,address)":"36568abe","revokeRole(bytes32,address)":"d547741f","supportsInterface(bytes4)":"01ffc9a7","tripIds(uint256)":"cf6a019d","trips(bytes32)":"d3bbcfbd","updateBaseRate(uint256)":"330283aa","updateMultipliers(uint256,uint256,uint256)":"bdcf84e0","weekendMultiplier()":"44bc207e"}}}}}