{
  "_format": "hh-sol-artifact-1",
  "contractName": "KeelUsageLedger",
  "sourceName": "contracts/KeelUsageLedger.sol",
  "abi": [
    {
      "inputs": [],
      "stateMutability": "nonpayable",
      "type": "constructor"
    },
    {
      "inputs": [],
      "name": "AccessControlBadConfirmation",
      "type": "error"
    },
    {
      "inputs": [
        {
          "internalType": "address",
          "name": "account",
          "type": "address"
        },
        {
          "internalType": "bytes32",
          "name": "neededRole",
          "type": "bytes32"
        }
      ],
      "name": "AccessControlUnauthorizedAccount",
      "type": "error"
    },
    {
      "inputs": [
        {
          "internalType": "address",
          "name": "target",
          "type": "address"
        }
      ],
      "name": "AddressEmptyCode",
      "type": "error"
    },
    {
      "inputs": [
        {
          "internalType": "address",
          "name": "implementation",
          "type": "address"
        }
      ],
      "name": "ERC1967InvalidImplementation",
      "type": "error"
    },
    {
      "inputs": [],
      "name": "ERC1967NonPayable",
      "type": "error"
    },
    {
      "inputs": [],
      "name": "FailedCall",
      "type": "error"
    },
    {
      "inputs": [],
      "name": "InvalidInitialization",
      "type": "error"
    },
    {
      "inputs": [],
      "name": "NotInitializing",
      "type": "error"
    },
    {
      "inputs": [],
      "name": "UUPSUnauthorizedCallContext",
      "type": "error"
    },
    {
      "inputs": [
        {
          "internalType": "bytes32",
          "name": "slot",
          "type": "bytes32"
        }
      ],
      "name": "UUPSUnsupportedProxiableUUID",
      "type": "error"
    },
    {
      "anonymous": false,
      "inputs": [
        {
          "indexed": false,
          "internalType": "uint64",
          "name": "version",
          "type": "uint64"
        }
      ],
      "name": "Initialized",
      "type": "event"
    },
    {
      "anonymous": false,
      "inputs": [
        {
          "indexed": true,
          "internalType": "address",
          "name": "member",
          "type": "address"
        },
        {
          "indexed": false,
          "internalType": "string",
          "name": "displayName",
          "type": "string"
        }
      ],
      "name": "MemberProfileUpdated",
      "type": "event"
    },
    {
      "anonymous": false,
      "inputs": [
        {
          "indexed": true,
          "internalType": "bytes32",
          "name": "role",
          "type": "bytes32"
        },
        {
          "indexed": true,
          "internalType": "bytes32",
          "name": "previousAdminRole",
          "type": "bytes32"
        },
        {
          "indexed": true,
          "internalType": "bytes32",
          "name": "newAdminRole",
          "type": "bytes32"
        }
      ],
      "name": "RoleAdminChanged",
      "type": "event"
    },
    {
      "anonymous": false,
      "inputs": [
        {
          "indexed": true,
          "internalType": "bytes32",
          "name": "role",
          "type": "bytes32"
        },
        {
          "indexed": true,
          "internalType": "address",
          "name": "account",
          "type": "address"
        },
        {
          "indexed": true,
          "internalType": "address",
          "name": "sender",
          "type": "address"
        }
      ],
      "name": "RoleGranted",
      "type": "event"
    },
    {
      "anonymous": false,
      "inputs": [
        {
          "indexed": true,
          "internalType": "bytes32",
          "name": "role",
          "type": "bytes32"
        },
        {
          "indexed": true,
          "internalType": "address",
          "name": "account",
          "type": "address"
        },
        {
          "indexed": true,
          "internalType": "address",
          "name": "sender",
          "type": "address"
        }
      ],
      "name": "RoleRevoked",
      "type": "event"
    },
    {
      "anonymous": false,
      "inputs": [
        {
          "indexed": true,
          "internalType": "bytes32",
          "name": "tripId",
          "type": "bytes32"
        },
        {
          "indexed": true,
          "internalType": "address",
          "name": "member",
          "type": "address"
        },
        {
          "indexed": true,
          "internalType": "uint16",
          "name": "boatId",
          "type": "uint16"
        },
        {
          "indexed": false,
          "internalType": "uint256",
          "name": "refundAmount",
          "type": "uint256"
        },
        {
          "indexed": false,
          "internalType": "bool",
          "name": "refunded",
          "type": "bool"
        }
      ],
      "name": "TripCancelled",
      "type": "event"
    },
    {
      "anonymous": false,
      "inputs": [
        {
          "indexed": true,
          "internalType": "bytes32",
          "name": "tripId",
          "type": "bytes32"
        },
        {
          "indexed": true,
          "internalType": "address",
          "name": "member",
          "type": "address"
        },
        {
          "indexed": true,
          "internalType": "uint16",
          "name": "boatId",
          "type": "uint16"
        },
        {
          "indexed": false,
          "internalType": "uint256",
          "name": "tokensBurned",
          "type": "uint256"
        },
        {
          "indexed": false,
          "internalType": "uint32",
          "name": "totalTenths",
          "type": "uint32"
        },
        {
          "indexed": false,
          "internalType": "uint64",
          "name": "startTs",
          "type": "uint64"
        },
        {
          "indexed": false,
          "internalType": "uint64",
          "name": "endTs",
          "type": "uint64"
        }
      ],
      "name": "TripSettled",
      "type": "event"
    },
    {
      "anonymous": false,
      "inputs": [
        {
          "indexed": true,
          "internalType": "address",
          "name": "implementation",
          "type": "address"
        }
      ],
      "name": "Upgraded",
      "type": "event"
    },
    {
      "inputs": [],
      "name": "DEFAULT_ADMIN_ROLE",
      "outputs": [
        {
          "internalType": "bytes32",
          "name": "",
          "type": "bytes32"
        }
      ],
      "stateMutability": "view",
      "type": "function"
    },
    {
      "inputs": [],
      "name": "OPERATOR_ROLE",
      "outputs": [
        {
          "internalType": "bytes32",
          "name": "",
          "type": "bytes32"
        }
      ],
      "stateMutability": "view",
      "type": "function"
    },
    {
      "inputs": [],
      "name": "UPGRADE_INTERFACE_VERSION",
      "outputs": [
        {
          "internalType": "string",
          "name": "",
          "type": "string"
        }
      ],
      "stateMutability": "view",
      "type": "function"
    },
    {
      "inputs": [
        {
          "internalType": "uint16",
          "name": "boatId",
          "type": "uint16"
        }
      ],
      "name": "boatTripCount",
      "outputs": [
        {
          "internalType": "uint256",
          "name": "",
          "type": "uint256"
        }
      ],
      "stateMutability": "view",
      "type": "function"
    },
    {
      "inputs": [
        {
          "internalType": "uint16",
          "name": "",
          "type": "uint16"
        },
        {
          "internalType": "uint256",
          "name": "",
          "type": "uint256"
        }
      ],
      "name": "boatTrips",
      "outputs": [
        {
          "internalType": "bytes32",
          "name": "",
          "type": "bytes32"
        }
      ],
      "stateMutability": "view",
      "type": "function"
    },
    {
      "inputs": [
        {
          "internalType": "bytes32",
          "name": "tripId",
          "type": "bytes32"
        }
      ],
      "name": "cancelTrip",
      "outputs": [],
      "stateMutability": "nonpayable",
      "type": "function"
    },
    {
      "inputs": [
        {
          "internalType": "uint256",
          "name": "",
          "type": "uint256"
        }
      ],
      "name": "competitiveMultiplierBps",
      "outputs": [
        {
          "internalType": "uint16",
          "name": "",
          "type": "uint16"
        }
      ],
      "stateMutability": "view",
      "type": "function"
    },
    {
      "inputs": [],
      "name": "getMemberCount",
      "outputs": [
        {
          "internalType": "uint256",
          "name": "",
          "type": "uint256"
        }
      ],
      "stateMutability": "view",
      "type": "function"
    },
    {
      "inputs": [
        {
          "internalType": "bytes32",
          "name": "role",
          "type": "bytes32"
        }
      ],
      "name": "getRoleAdmin",
      "outputs": [
        {
          "internalType": "bytes32",
          "name": "",
          "type": "bytes32"
        }
      ],
      "stateMutability": "view",
      "type": "function"
    },
    {
      "inputs": [
        {
          "internalType": "bytes32",
          "name": "role",
          "type": "bytes32"
        },
        {
          "internalType": "address",
          "name": "account",
          "type": "address"
        }
      ],
      "name": "grantRole",
      "outputs": [],
      "stateMutability": "nonpayable",
      "type": "function"
    },
    {
      "inputs": [
        {
          "internalType": "bytes32",
          "name": "role",
          "type": "bytes32"
        },
        {
          "internalType": "address",
          "name": "account",
          "type": "address"
        }
      ],
      "name": "hasRole",
      "outputs": [
        {
          "internalType": "bool",
          "name": "",
          "type": "bool"
        }
      ],
      "stateMutability": "view",
      "type": "function"
    },
    {
      "inputs": [
        {
          "internalType": "uint256",
          "name": "",
          "type": "uint256"
        }
      ],
      "name": "holidayMultiplierBps",
      "outputs": [
        {
          "internalType": "uint16",
          "name": "",
          "type": "uint16"
        }
      ],
      "stateMutability": "view",
      "type": "function"
    },
    {
      "inputs": [
        {
          "internalType": "address",
          "name": "admin",
          "type": "address"
        },
        {
          "internalType": "address",
          "name": "token",
          "type": "address"
        }
      ],
      "name": "initialize",
      "outputs": [],
      "stateMutability": "nonpayable",
      "type": "function"
    },
    {
      "inputs": [
        {
          "internalType": "uint16",
          "name": "boatId",
          "type": "uint16"
        },
        {
          "internalType": "uint64",
          "name": "startTs",
          "type": "uint64"
        },
        {
          "internalType": "uint64",
          "name": "endTs",
          "type": "uint64"
        }
      ],
      "name": "isAvailable",
      "outputs": [
        {
          "internalType": "bool",
          "name": "",
          "type": "bool"
        }
      ],
      "stateMutability": "view",
      "type": "function"
    },
    {
      "inputs": [],
      "name": "keelToken",
      "outputs": [
        {
          "internalType": "contract IKeelToken",
          "name": "",
          "type": "address"
        }
      ],
      "stateMutability": "view",
      "type": "function"
    },
    {
      "inputs": [
        {
          "internalType": "address",
          "name": "member",
          "type": "address"
        },
        {
          "internalType": "uint16",
          "name": "boatId",
          "type": "uint16"
        },
        {
          "internalType": "uint64",
          "name": "startTs",
          "type": "uint64"
        },
        {
          "internalType": "uint64",
          "name": "endTs",
          "type": "uint64"
        },
        {
          "internalType": "uint32[8]",
          "name": "h",
          "type": "uint32[8]"
        },
        {
          "internalType": "bool",
          "name": "competitive",
          "type": "bool"
        }
      ],
      "name": "logAndSettle",
      "outputs": [
        {
          "internalType": "bytes32",
          "name": "tripId",
          "type": "bytes32"
        }
      ],
      "stateMutability": "nonpayable",
      "type": "function"
    },
    {
      "inputs": [
        {
          "internalType": "uint256",
          "name": "",
          "type": "uint256"
        }
      ],
      "name": "memberList",
      "outputs": [
        {
          "internalType": "address",
          "name": "",
          "type": "address"
        }
      ],
      "stateMutability": "view",
      "type": "function"
    },
    {
      "inputs": [
        {
          "internalType": "address",
          "name": "",
          "type": "address"
        }
      ],
      "name": "memberProfiles",
      "outputs": [
        {
          "internalType": "string",
          "name": "displayName",
          "type": "string"
        },
        {
          "internalType": "string",
          "name": "experienceLevel",
          "type": "string"
        },
        {
          "internalType": "uint64",
          "name": "memberSince",
          "type": "uint64"
        }
      ],
      "stateMutability": "view",
      "type": "function"
    },
    {
      "inputs": [],
      "name": "proxiableUUID",
      "outputs": [
        {
          "internalType": "bytes32",
          "name": "",
          "type": "bytes32"
        }
      ],
      "stateMutability": "view",
      "type": "function"
    },
    {
      "inputs": [
        {
          "internalType": "uint32[8]",
          "name": "h",
          "type": "uint32[8]"
        },
        {
          "internalType": "bool",
          "name": "competitive",
          "type": "bool"
        }
      ],
      "name": "quoteHundredths",
      "outputs": [
        {
          "internalType": "uint256",
          "name": "burnHundredths",
          "type": "uint256"
        },
        {
          "internalType": "uint32",
          "name": "totalTenths",
          "type": "uint32"
        }
      ],
      "stateMutability": "view",
      "type": "function"
    },
    {
      "inputs": [
        {
          "internalType": "uint256",
          "name": "",
          "type": "uint256"
        },
        {
          "internalType": "uint256",
          "name": "",
          "type": "uint256"
        }
      ],
      "name": "rateGrid",
      "outputs": [
        {
          "internalType": "uint16",
          "name": "",
          "type": "uint16"
        }
      ],
      "stateMutability": "view",
      "type": "function"
    },
    {
      "inputs": [
        {
          "internalType": "bytes32",
          "name": "role",
          "type": "bytes32"
        },
        {
          "internalType": "address",
          "name": "callerConfirmation",
          "type": "address"
        }
      ],
      "name": "renounceRole",
      "outputs": [],
      "stateMutability": "nonpayable",
      "type": "function"
    },
    {
      "inputs": [
        {
          "internalType": "bytes32",
          "name": "role",
          "type": "bytes32"
        },
        {
          "internalType": "address",
          "name": "account",
          "type": "address"
        }
      ],
      "name": "revokeRole",
      "outputs": [],
      "stateMutability": "nonpayable",
      "type": "function"
    },
    {
      "inputs": [
        {
          "internalType": "uint8",
          "name": "slot",
          "type": "uint8"
        },
        {
          "internalType": "uint16",
          "name": "bps",
          "type": "uint16"
        }
      ],
      "name": "setCompetitiveMultiplier",
      "outputs": [],
      "stateMutability": "nonpayable",
      "type": "function"
    },
    {
      "inputs": [
        {
          "internalType": "uint8",
          "name": "slot",
          "type": "uint8"
        },
        {
          "internalType": "uint16",
          "name": "bps",
          "type": "uint16"
        }
      ],
      "name": "setHolidayMultiplier",
      "outputs": [],
      "stateMutability": "nonpayable",
      "type": "function"
    },
    {
      "inputs": [
        {
          "internalType": "address",
          "name": "member",
          "type": "address"
        },
        {
          "internalType": "string",
          "name": "displayName",
          "type": "string"
        },
        {
          "internalType": "string",
          "name": "experienceLevel",
          "type": "string"
        }
      ],
      "name": "setMemberProfile",
      "outputs": [],
      "stateMutability": "nonpayable",
      "type": "function"
    },
    {
      "inputs": [
        {
          "internalType": "uint8",
          "name": "period",
          "type": "uint8"
        },
        {
          "internalType": "uint16",
          "name": "dayRate",
          "type": "uint16"
        },
        {
          "internalType": "uint16",
          "name": "eveningRate",
          "type": "uint16"
        }
      ],
      "name": "setRate",
      "outputs": [],
      "stateMutability": "nonpayable",
      "type": "function"
    },
    {
      "inputs": [
        {
          "internalType": "bytes4",
          "name": "interfaceId",
          "type": "bytes4"
        }
      ],
      "name": "supportsInterface",
      "outputs": [
        {
          "internalType": "bool",
          "name": "",
          "type": "bool"
        }
      ],
      "stateMutability": "view",
      "type": "function"
    },
    {
      "inputs": [],
      "name": "tripCount",
      "outputs": [
        {
          "internalType": "uint256",
          "name": "",
          "type": "uint256"
        }
      ],
      "stateMutability": "view",
      "type": "function"
    },
    {
      "inputs": [
        {
          "internalType": "uint256",
          "name": "",
          "type": "uint256"
        }
      ],
      "name": "tripIds",
      "outputs": [
        {
          "internalType": "bytes32",
          "name": "",
          "type": "bytes32"
        }
      ],
      "stateMutability": "view",
      "type": "function"
    },
    {
      "inputs": [
        {
          "internalType": "bytes32",
          "name": "",
          "type": "bytes32"
        }
      ],
      "name": "trips",
      "outputs": [
        {
          "internalType": "address",
          "name": "member",
          "type": "address"
        },
        {
          "internalType": "uint64",
          "name": "startTs",
          "type": "uint64"
        },
        {
          "internalType": "uint64",
          "name": "endTs",
          "type": "uint64"
        },
        {
          "internalType": "uint32",
          "name": "totalTenths",
          "type": "uint32"
        },
        {
          "internalType": "bool",
          "name": "competitive",
          "type": "bool"
        },
        {
          "internalType": "bool",
          "name": "cancelled",
          "type": "bool"
        },
        {
          "internalType": "uint16",
          "name": "boatId",
          "type": "uint16"
        },
        {
          "internalType": "uint256",
          "name": "burnHundredths",
          "type": "uint256"
        },
        {
          "internalType": "uint256",
          "name": "tokensBurned",
          "type": "uint256"
        },
        {
          "internalType": "uint64",
          "name": "refundExpiresAt",
          "type": "uint64"
        }
      ],
      "stateMutability": "view",
      "type": "function"
    },
    {
      "inputs": [
        {
          "internalType": "address",
          "name": "newImplementation",
          "type": "address"
        },
        {
          "internalType": "bytes",
          "name": "data",
          "type": "bytes"
        }
      ],
      "name": "upgradeToAndCall",
      "outputs": [],
      "stateMutability": "payable",
      "type": "function"
    }
  ],
  "bytecode": "0x60a0604052306080523480156200001557600080fd5b506200002062000026565b620000da565b7ff0c57e16840df040f15088dc2f81fe391c3923bec73e23a9662efc9c229c6a00805468010000000000000000900460ff1615620000775760405163f92ee8a960e01b815260040160405180910390fd5b80546001600160401b0390811614620000d75780546001600160401b0319166001600160401b0390811782556040519081527fc7f505b2f371ae2175ee4913f4499e1f2633a7b5936321eed1cdaeb6115181d29060200160405180910390a15b50565b608051612a3f6200010460003960008181611c7401528181611c9d0152611de10152612a3f6000f3fe6080604052600436106101e35760003560e01c806390cdbaf811610102578063bf73bceb11610095578063d8f66fa911610064578063d8f66fa9146106a5578063f5b541a6146106c5578063f5ffe485146106e7578063fa6258ed1461070757600080fd5b8063bf73bceb1461053d578063cf6a019d1461055d578063d3bbcfbd1461057d578063d547741f1461068557600080fd5b8063ad3cb1cc116100d1578063ad3cb1cc1461047f578063b077f29f146104bd578063b307fc6d146104ee578063b6f2056c1461050e57600080fd5b806390cdbaf8146103fd57806391d1485414610435578063997072f714610455578063a217fddf1461046a57600080fd5b8063485cc9551161017a5780635f757bb2116101495780635f757bb21461038857806364773636146103a857806369fc6cbe146103c857806383b202d7146103dd57600080fd5b8063485cc955146103205780634f1ef2861461034057806352d1902d1461035357806355ef7f971461036857600080fd5b80632f2ff15d116101b65780632f2ff15d146102a057806330bc2875146102c057806336568abe146102e05780633747d9871461030057600080fd5b806301ffc9a7146101e8578063248a9ca31461021d57806326dadad91461024b5780632c81a3181461027e575b600080fd5b3480156101f457600080fd5b50610208610203366004612219565b610741565b60405190151581526020015b60405180910390f35b34801561022957600080fd5b5061023d610238366004612243565b610778565b604051908152602001610214565b34801561025757600080fd5b5061026b610266366004612243565b61079a565b60405161ffff9091168152602001610214565b34801561028a57600080fd5b5061029e610299366004612284565b6107c8565b005b3480156102ac57600080fd5b5061029e6102bb3660046122ce565b6108a0565b3480156102cc57600080fd5b5061029e6102db3660046122f1565b6108c2565b3480156102ec57600080fd5b5061029e6102fb3660046122ce565b610974565b34801561030c57600080fd5b5061023d61031b366004612334565b6109ac565b34801561032c57600080fd5b5061029e61033b36600461235e565b6109dd565b61029e61034e36600461239e565b610ba7565b34801561035f57600080fd5b5061023d610bc6565b34801561037457600080fd5b5061026b610383366004612243565b610be3565b34801561039457600080fd5b5061029e6103a33660046124a7565b610bf3565b3480156103b457600080fd5b5061023d6103c336600461255e565b610d59565b3480156103d457600080fd5b5060065461023d565b3480156103e957600080fd5b506102086103f83660046125d9565b6112e0565b34801561040957600080fd5b5060005461041d906001600160a01b031681565b6040516001600160a01b039091168152602001610214565b34801561044157600080fd5b506102086104503660046122ce565b6113aa565b34801561046157600080fd5b5060095461023d565b34801561047657600080fd5b5061023d600081565b34801561048b57600080fd5b506104b0604051806040016040528060058152602001640352e302e360dc1b81525081565b6040516102149190612668565b3480156104c957600080fd5b5061023d6104d836600461267b565b61ffff1660009081526007602052604090205490565b3480156104fa57600080fd5b5061041d610509366004612243565b6113e2565b34801561051a57600080fd5b5061052e610529366004612696565b61140c565b604051610214939291906126b1565b34801561054957600080fd5b5061029e610558366004612243565b611547565b34801561056957600080fd5b5061023d610578366004612243565b61177b565b34801561058957600080fd5b50610619610598366004612243565b600560205260009081526040902080546001820154600283015460038401546004909401546001600160a01b03841694600160a01b9094046001600160401b039081169481851694600160401b810463ffffffff1694600160601b820460ff90811695600160681b840490911694600160701b90930461ffff16939192168a565b604080516001600160a01b03909b168b526001600160401b03998a1660208c0152978916978a019790975263ffffffff9095166060890152921515608088015290151560a087015261ffff1660c086015260e08501526101008401521661012082015261014001610214565b34801561069157600080fd5b5061029e6106a03660046122ce565b61179c565b3480156106b157600080fd5b5061026b6106c03660046126f0565b6117b8565b3480156106d157600080fd5b5061023d6000805160206129ca83398151915281565b3480156106f357600080fd5b5061029e610702366004612284565b6117f8565b34801561071357600080fd5b50610727610722366004612712565b6118a1565b6040805192835263ffffffff909116602083015201610214565b60006001600160e01b03198216637965db0b60e01b148061077257506301ffc9a760e01b6001600160e01b03198316145b92915050565b60009081526000805160206129ea833981519152602052604090206001015490565b600481600281106107aa57600080fd5b60109182820401919006600202915054906101000a900461ffff1681565b60006107d381611b01565b60028360ff16106108165760405162461bcd60e51b8152602060048201526008602482015267189859081cdb1bdd60c21b60448201526064015b60405180910390fd5b6127108261ffff16101561085f5760405162461bcd60e51b815260206004820152601060248201526f0daeae6e840c4ca407c7a40625c6060f60831b604482015260640161080d565b8160038460ff16600281106108765761087661273f565b601091828204019190066002026101000a81548161ffff021916908361ffff160217905550505050565b6108a982610778565b6108b281611b01565b6108bc8383611b0e565b50505050565b60006108cd81611b01565b60028460ff161061090d5760405162461bcd60e51b815260206004820152600a602482015269189859081c195c9a5bd960b21b604482015260640161080d565b8260018560ff16600281106109245761092461273f565b01805461ffff191661ffff9290921691909117905581600160ff8616600281106109505761095061273f565b01805461ffff92909216620100000263ffff00001990921691909117905550505050565b6001600160a01b038116331461099d5760405163334bd91960e11b815260040160405180910390fd5b6109a78282611bba565b505050565b600760205281600052604060002081815481106109c857600080fd5b90600052602060002001600091509150505481565b60006109e7611c36565b805490915060ff600160401b82041615906001600160401b0316600081158015610a0e5750825b90506000826001600160401b03166001148015610a2a5750303b155b905081158015610a38575080155b15610a565760405163f92ee8a960e01b815260040160405180910390fd5b845467ffffffffffffffff191660011785558315610a8057845460ff60401b1916600160401b1785555b610a88611c5f565b610a93600088611b0e565b50610aac6000805160206129ca83398151915288611b0e565b50600080546001600160a01b0319166001600160a01b0388161790556040805160808101825260c881830181815260646060840152825282518084019093526101908352602080840191909152810191909152610b0d906001906002612115565b5060408051808201909152612cec8152612af86020820152610b3390600390600261215f565b5060408051808201909152612af88082526020820152610b5790600490600261215f565b508315610b9e57845460ff60401b19168555604051600181527fc7f505b2f371ae2175ee4913f4499e1f2633a7b5936321eed1cdaeb6115181d29060200160405180910390a15b50505050505050565b610baf611c69565b610bb882611d0e565b610bc28282611d19565b5050565b6000610bd0611dd6565b506000805160206129aa83398151915290565b600381600281106107aa57600080fd5b6001600160a01b038516331480610c1d5750610c1d6000805160206129ca833981519152336113aa565b610c575760405162461bcd60e51b815260206004820152600b60248201526a1b9bdd08185b1b1bddd95960aa1b604482015260640161080d565b6001600160a01b0385166000908152600860205260408120600281015490916001600160401b039091169003610cf15760028101805467ffffffffffffffff1916426001600160401b0316179055600980546001810182556000919091527f6e1540171b6c0c960b71a7020d9f60077f6af931a8bbf590da0223dacf75c7af0180546001600160a01b0319166001600160a01b0388161790555b80610cfd8587836127df565b5060018101610d0d8385836127df565b50856001600160a01b03167f7f2ba702ec91844c5877a1ef0d30c0928b2b2ebd6a93e70d85d591a17544d2078686604051610d4992919061289f565b60405180910390a2505050505050565b60006001600160a01b038716331480610d855750610d856000805160206129ca833981519152336113aa565b610dca5760405162461bcd60e51b81526020600482015260166024820152753737ba1036b2b6b132b91037b91037b832b930ba37b960511b604482015260640161080d565b846001600160401b0316846001600160401b031611610e1c5760405162461bcd60e51b815260206004820152600e60248201526d6261642074696d652072616e676560901b604482015260640161080d565b610e278686866112e0565b610e665760405162461bcd60e51b815260206004820152601060248201526f736c6f7420756e617661696c61626c6560801b604482015260640161080d565b600080610e7385856118a1565b9150915060008163ffffffff1611610eb85760405162461bcd60e51b81526020600482015260086024820152676e6f20686f75727360c01b604482015260640161080d565b6000610ecb83662386f26fc100006128e4565b6040516bffffffffffffffffffffffff1960608d901b1660208201526001600160f01b031960f08c901b1660348201526001600160c01b031960c08b811b821660368401528a901b16603e82015242604682015290915060660160408051601f198184030181529181528151602092830120600081815260059093529120549094506001600160a01b031615610f8e5760405162461bcd60e51b8152602060048201526008602482015267064757020747269760c41b604482015260640161080d565b6000805460405163e023b7e560e01b81526001600160a01b038d8116600483015260248201859052604482018890529091169063e023b7e5906064016020604051808303816000875af1158015610fe9573d6000803e3d6000fd5b505050506040513d601f19601f8201168201806040525081019061100d91906128fb565b90506040518061014001604052808c6001600160a01b031681526020018a6001600160401b03168152602001896001600160401b031681526020018463ffffffff16815260200187151581526020016000151581526020018b61ffff168152602001858152602001838152602001826001600160401b03168152506005600087815260200190815260200160002060008201518160000160006101000a8154816001600160a01b0302191690836001600160a01b0316021790555060208201518160000160146101000a8154816001600160401b0302191690836001600160401b0316021790555060408201518160010160006101000a8154816001600160401b0302191690836001600160401b0316021790555060608201518160010160086101000a81548163ffffffff021916908363ffffffff160217905550608082015181600101600c6101000a81548160ff02191690831515021790555060a082015181600101600d6101000a81548160ff02191690831515021790555060c082015181600101600e6101000a81548161ffff021916908361ffff16021790555060e0820151816002015561010082015181600301556101208201518160040160006101000a8154816001600160401b0302191690836001600160401b031602179055509050506006859080600181540180825580915050600190039060005260206000200160009091909190915055600760008b61ffff1661ffff1681526020019081526020016000208590806001815401808255809150506001900390600052602060002001600090919091909150558961ffff168b6001600160a01b0316867f072c19ae8e66cbeddcb6cb1bb44264be531a305de9739338948c0dfc01e3778385878e8e6040516112ca949392919093845263ffffffff9290921660208401526001600160401b03908116604084015216606082015260800190565b60405180910390a4505050509695505050505050565b61ffff83166000908152600760205260408120815b815481101561139c576000600560008484815481106113165761131661273f565b90600052602060002001548152602001908152602001600020905080600101600d9054906101000a900460ff161561134e5750611394565b60018101546001600160401b03908116908716108015611381575080546001600160401b03808716600160a01b90920416105b1561139257600093505050506113a3565b505b6001016112f5565b5060019150505b9392505050565b60009182526000805160206129ea833981519152602090815260408084206001600160a01b0393909316845291905290205460ff1690565b600981815481106113f257600080fd5b6000918252602090912001546001600160a01b0316905081565b60086020526000908152604090208054819061142790612755565b80601f016020809104026020016040519081016040528092919081815260200182805461145390612755565b80156114a05780601f10611475576101008083540402835291602001916114a0565b820191906000526020600020905b81548152906001019060200180831161148357829003601f168201915b5050505050908060010180546114b590612755565b80601f01602080910402602001604051908101604052809291908181526020018280546114e190612755565b801561152e5780601f106115035761010080835404028352916020019161152e565b820191906000526020600020905b81548152906001019060200180831161151157829003601f168201915b505050600290930154919250506001600160401b031683565b600081815260056020526040902080546001600160a01b031661159b5760405162461bcd60e51b815260206004820152600c60248201526b06e6f207375636820747269760a41b604482015260640161080d565b80546001600160a01b03163314806115c657506115c66000805160206129ca833981519152336113aa565b6116005760405162461bcd60e51b815260206004820152600b60248201526a1b9bdd08185b1b1bddd95960aa1b604482015260640161080d565b6001810154600160681b900460ff16156116505760405162461bcd60e51b8152602060048201526011602482015270185b1c9958591e4818d85b98d95b1b1959607a1b604482015260640161080d565b60018101805460ff60681b1916600160681b17905580546001600160401b03600160a01b909104164210801561170d5760005482546003840154600480860154604051630b2ad61360e11b81526001600160a01b03948516928101929092526024820192909252604481018790526001600160401b039091166064820152911690631655ac2690608401600060405180830381600087803b1580156116f457600080fd5b505af1158015611708573d6000803e3d6000fd5b505050505b60018201548254600160701b90910461ffff16906001600160a01b0316847f752cc8aebf0b6894e3cfe2a0d5464ab0561856e1142da75f3a783898d641cb938461175857600061175e565b85600301545b6040805191825286151560208301520160405180910390a4505050565b6006818154811061178b57600080fd5b600091825260209091200154905081565b6117a582610778565b6117ae81611b01565b6108bc8383611bba565b600182600281106117c857600080fd5b0181600281106117d757600080fd5b60109182820401919006600202915091509054906101000a900461ffff1681565b600061180381611b01565b60028360ff16106118415760405162461bcd60e51b8152602060048201526008602482015267189859081cdb1bdd60c21b604482015260640161080d565b6127108261ffff16101561188a5760405162461bcd60e51b815260206004820152601060248201526f0daeae6e840c4ca407c7a40625c6060f60831b604482015260640161080d565b8160048460ff16600281106108765761087661273f565b6000806118b5610100850160e08601612918565b6118c560e0860160c08701612918565b6118d560c0870160a08801612918565b6118e560a0880160808901612918565b6118f56080890160608a01612918565b61190560608a0160408b01612918565b61191560408b0160208c01612918565b61192260208c018c612918565b61192c919061293e565b611936919061293e565b611940919061293e565b61194a919061293e565b611954919061293e565b61195e919061293e565b611968919061293e565b9050600061199061197c6020870187612918565b600160005b015461ffff1660008088611e1f565b61199a908261295b565b90506119ca6119af6040870160208801612918565b600160005b015462010000900461ffff166001600088611e1f565b6119d4908261295b565b90506119f16119e96060870160408801612918565b600180611981565b6119fb908261295b565b9050611a18611a106080870160608801612918565b6001806119b4565b611a22908261295b565b9050611a4c611a3760a0870160808801612918565b600160005b015461ffff166000600188611e1f565b611a56908261295b565b9050611a85611a6b60c0870160a08801612918565b600160005b015462010000900461ffff1660018088611e1f565b611a8f908261295b565b9050611aac611aa460e0870160c08801612918565b600180611a3c565b611ab6908261295b565b9050611ad4611acc610100870160e08801612918565b600180611a70565b611ade908261295b565b9050600a611aed82600961295b565b611af7919061296e565b9250509250929050565b611b0b8133611eec565b50565b60006000805160206129ea833981519152611b2984846113aa565b611ba9576000848152602082815260408083206001600160a01b03871684529091529020805460ff19166001179055611b5f3390565b6001600160a01b0316836001600160a01b0316857f2f8788117e7eff1d82e926ec794901d17c78024a50270940304540a733656f0d60405160405180910390a46001915050610772565b6000915050610772565b5092915050565b60006000805160206129ea833981519152611bd584846113aa565b15611ba9576000848152602082815260408083206001600160a01b0387168085529252808320805460ff1916905551339287917ff6391f5c32d9c69d2a47ea670b442974b53935d1edc7fd64eb21e047a839171b9190a46001915050610772565b6000807ff0c57e16840df040f15088dc2f81fe391c3923bec73e23a9662efc9c229c6a00610772565b611c67611f25565b565b306001600160a01b037f0000000000000000000000000000000000000000000000000000000000000000161480611cf057507f00000000000000000000000000000000000000000000000000000000000000006001600160a01b0316611ce46000805160206129aa833981519152546001600160a01b031690565b6001600160a01b031614155b15611c675760405163703e46dd60e11b815260040160405180910390fd5b6000610bc281611b01565b816001600160a01b03166352d1902d6040518163ffffffff1660e01b8152600401602060405180830381865afa925050508015611d73575060408051601f3d908101601f19168201909252611d7091810190612990565b60015b611d9b57604051634c9c8ce360e01b81526001600160a01b038316600482015260240161080d565b6000805160206129aa8339815191528114611dcc57604051632a87526960e21b81526004810182905260240161080d565b6109a78383611f4a565b306001600160a01b037f00000000000000000000000000000000000000000000000000000000000000001614611c675760405163703e46dd60e11b815260040160405180910390fd5b600080611e3661ffff871663ffffffff89166128e4565b90508315611e8d5761271060038660ff1660028110611e5757611e5761273f565b601091828204019190066002029054906101000a900461ffff1661ffff1682611e8091906128e4565b611e8a919061296e565b90505b8215611ee25761271060048660ff1660028110611eac57611eac61273f565b601091828204019190066002029054906101000a900461ffff1661ffff1682611ed591906128e4565b611edf919061296e565b90505b9695505050505050565b611ef682826113aa565b610bc25760405163e2517d3f60e01b81526001600160a01b03821660048201526024810183905260440161080d565b611f2d611fa0565b611c6757604051631afcd79f60e31b815260040160405180910390fd5b611f5382611fba565b6040516001600160a01b038316907fbc7cd75a20ee27fd9adebab32041f755214dbc6bffa90cc0225b39da2e5c2d3b90600090a2805115611f98576109a7828261201f565b610bc26120bb565b6000611faa611c36565b54600160401b900460ff16919050565b806001600160a01b03163b600003611ff057604051634c9c8ce360e01b81526001600160a01b038216600482015260240161080d565b6000805160206129aa83398151915280546001600160a01b0319166001600160a01b0392909216919091179055565b6060600061202d84846120da565b9050808015612050575060003d118061205057506000846001600160a01b03163b115b156120655761205d6120ef565b915050610772565b801561208f57604051639996b31560e01b81526001600160a01b038516600482015260240161080d565b3d156120a25761209d612109565b611bb3565b60405163d6bda27560e01b815260040160405180910390fd5b3415611c675760405163b398979f60e01b815260040160405180910390fd5b6000806000835160208501865af49392505050565b6040513d81523d6000602083013e3d602001810160405290565b6040513d6000823e3d81fd5b826002810192821561214f579160200282015b8281111561214f57825161213f908390600261215f565b5091602001919060010190612128565b5061215b9291506121f1565b5090565b6001830191839082156121e55791602002820160005b838211156121b557835183826101000a81548161ffff021916908361ffff1602179055509260200192600201602081600101049283019260010302612175565b80156121e35782816101000a81549061ffff02191690556002016020816001010492830192600103026121b5565b505b5061215b929150612205565b8082111561215b57600081556001016121f1565b8082111561215b57600081556001016121f1565b60006020828403121561222b57600080fd5b81356001600160e01b0319811681146113a357600080fd5b60006020828403121561225557600080fd5b5035919050565b803560ff8116811461226d57600080fd5b919050565b803561ffff8116811461226d57600080fd5b6000806040838503121561229757600080fd5b6122a08361225c565b91506122ae60208401612272565b90509250929050565b80356001600160a01b038116811461226d57600080fd5b600080604083850312156122e157600080fd5b823591506122ae602084016122b7565b60008060006060848603121561230657600080fd5b61230f8461225c565b925061231d60208501612272565b915061232b60408501612272565b90509250925092565b6000806040838503121561234757600080fd5b61235083612272565b946020939093013593505050565b6000806040838503121561237157600080fd5b61237a836122b7565b91506122ae602084016122b7565b634e487b7160e01b600052604160045260246000fd5b600080604083850312156123b157600080fd5b6123ba836122b7565b915060208301356001600160401b03808211156123d657600080fd5b818501915085601f8301126123ea57600080fd5b8135818111156123fc576123fc612388565b604051601f8201601f19908116603f0116810190838211818310171561242457612424612388565b8160405282815288602084870101111561243d57600080fd5b8260208601602083013760006020848301015280955050505050509250929050565b60008083601f84011261247157600080fd5b5081356001600160401b0381111561248857600080fd5b6020830191508360208285010111156124a057600080fd5b9250929050565b6000806000806000606086880312156124bf57600080fd5b6124c8866122b7565b945060208601356001600160401b03808211156124e457600080fd5b6124f089838a0161245f565b9096509450604088013591508082111561250957600080fd5b506125168882890161245f565b969995985093965092949392505050565b6001600160401b0381168114611b0b57600080fd5b80610100810183101561077257600080fd5b8035801515811461226d57600080fd5b6000806000806000806101a0878903121561257857600080fd5b612581876122b7565b955061258f60208801612272565b9450604087013561259f81612527565b935060608701356125af81612527565b92506125be886080890161253c565b91506125cd610180880161254e565b90509295509295509295565b6000806000606084860312156125ee57600080fd5b6125f784612272565b9250602084013561260781612527565b9150604084013561261781612527565b809150509250925092565b6000815180845260005b818110156126485760208185018101518683018201520161262c565b506000602082860101526020601f19601f83011685010191505092915050565b6020815260006113a36020830184612622565b60006020828403121561268d57600080fd5b6113a382612272565b6000602082840312156126a857600080fd5b6113a3826122b7565b6060815260006126c46060830186612622565b82810360208401526126d68186612622565b9150506001600160401b0383166040830152949350505050565b6000806040838503121561270357600080fd5b50508035926020909101359150565b600080610120838503121561272657600080fd5b612730848461253c565b91506122ae610100840161254e565b634e487b7160e01b600052603260045260246000fd5b600181811c9082168061276957607f821691505b60208210810361278957634e487b7160e01b600052602260045260246000fd5b50919050565b601f8211156109a7576000816000526020600020601f850160051c810160208610156127b85750805b601f850160051c820191505b818110156127d7578281556001016127c4565b505050505050565b6001600160401b038311156127f6576127f6612388565b61280a836128048354612755565b8361278f565b6000601f84116001811461283e57600085156128265750838201355b600019600387901b1c1916600186901b178355612898565b600083815260209020601f19861690835b8281101561286f578685013582556020948501946001909201910161284f565b508682101561288c5760001960f88860031b161c19848701351681555b505060018560011b0183555b5050505050565b60208152816020820152818360408301376000818301604090810191909152601f909201601f19160101919050565b634e487b7160e01b600052601160045260246000fd5b8082028115828204841417610772576107726128ce565b60006020828403121561290d57600080fd5b81516113a381612527565b60006020828403121561292a57600080fd5b813563ffffffff811681146113a357600080fd5b63ffffffff818116838216019080821115611bb357611bb36128ce565b80820180821115610772576107726128ce565b60008261298b57634e487b7160e01b600052601260045260246000fd5b500490565b6000602082840312156129a257600080fd5b505191905056fe360894a13ba1a3210667c828492db98dca3e2076cc3735a920a3ca505d382bbc97667070c54ef182b0f5858b034beac1b6f3089aa2d3188bb1e8929f4fa9b92902dd7bc7dec4dceedda775e58dd541e08a116c6c53815c0bd028192f7b626800a2646970667358221220865aa9ebe6a6f369f98a7a72ef7d1c646296bfccb1545faea6377d922dcef45164736f6c63430008180033",
  "linkReferences": {},
  "deployedLinkReferences": {}
}