{
  "_format": "hh-sol-artifact-1",
  "contractName": "KeelToken",
  "sourceName": "contracts/KeelToken.sol",
  "abi": [
    {
      "inputs": [],
      "stateMutability": "nonpayable",
      "type": "constructor"
    },
    {
      "inputs": [],
      "name": "AccessControlBadConfirmation",
      "type": "error"
    },
    {
      "inputs": [
        {
          "internalType": "address",
          "name": "account",
          "type": "address"
        },
        {
          "internalType": "bytes32",
          "name": "neededRole",
          "type": "bytes32"
        }
      ],
      "name": "AccessControlUnauthorizedAccount",
      "type": "error"
    },
    {
      "inputs": [
        {
          "internalType": "address",
          "name": "target",
          "type": "address"
        }
      ],
      "name": "AddressEmptyCode",
      "type": "error"
    },
    {
      "inputs": [
        {
          "internalType": "address",
          "name": "implementation",
          "type": "address"
        }
      ],
      "name": "ERC1967InvalidImplementation",
      "type": "error"
    },
    {
      "inputs": [],
      "name": "ERC1967NonPayable",
      "type": "error"
    },
    {
      "inputs": [
        {
          "internalType": "address",
          "name": "spender",
          "type": "address"
        },
        {
          "internalType": "uint256",
          "name": "allowance",
          "type": "uint256"
        },
        {
          "internalType": "uint256",
          "name": "needed",
          "type": "uint256"
        }
      ],
      "name": "ERC20InsufficientAllowance",
      "type": "error"
    },
    {
      "inputs": [
        {
          "internalType": "address",
          "name": "sender",
          "type": "address"
        },
        {
          "internalType": "uint256",
          "name": "balance",
          "type": "uint256"
        },
        {
          "internalType": "uint256",
          "name": "needed",
          "type": "uint256"
        }
      ],
      "name": "ERC20InsufficientBalance",
      "type": "error"
    },
    {
      "inputs": [
        {
          "internalType": "address",
          "name": "approver",
          "type": "address"
        }
      ],
      "name": "ERC20InvalidApprover",
      "type": "error"
    },
    {
      "inputs": [
        {
          "internalType": "address",
          "name": "receiver",
          "type": "address"
        }
      ],
      "name": "ERC20InvalidReceiver",
      "type": "error"
    },
    {
      "inputs": [
        {
          "internalType": "address",
          "name": "sender",
          "type": "address"
        }
      ],
      "name": "ERC20InvalidSender",
      "type": "error"
    },
    {
      "inputs": [
        {
          "internalType": "address",
          "name": "spender",
          "type": "address"
        }
      ],
      "name": "ERC20InvalidSpender",
      "type": "error"
    },
    {
      "inputs": [],
      "name": "FailedCall",
      "type": "error"
    },
    {
      "inputs": [],
      "name": "InvalidInitialization",
      "type": "error"
    },
    {
      "inputs": [],
      "name": "NotInitializing",
      "type": "error"
    },
    {
      "inputs": [],
      "name": "UUPSUnauthorizedCallContext",
      "type": "error"
    },
    {
      "inputs": [
        {
          "internalType": "bytes32",
          "name": "slot",
          "type": "bytes32"
        }
      ],
      "name": "UUPSUnsupportedProxiableUUID",
      "type": "error"
    },
    {
      "anonymous": false,
      "inputs": [
        {
          "indexed": true,
          "internalType": "address",
          "name": "owner",
          "type": "address"
        },
        {
          "indexed": true,
          "internalType": "address",
          "name": "spender",
          "type": "address"
        },
        {
          "indexed": false,
          "internalType": "uint256",
          "name": "value",
          "type": "uint256"
        }
      ],
      "name": "Approval",
      "type": "event"
    },
    {
      "anonymous": false,
      "inputs": [
        {
          "indexed": false,
          "internalType": "uint256",
          "name": "newDuration",
          "type": "uint256"
        }
      ],
      "name": "ExpiryDurationUpdated",
      "type": "event"
    },
    {
      "anonymous": false,
      "inputs": [
        {
          "indexed": false,
          "internalType": "uint64",
          "name": "version",
          "type": "uint64"
        }
      ],
      "name": "Initialized",
      "type": "event"
    },
    {
      "anonymous": false,
      "inputs": [
        {
          "indexed": false,
          "internalType": "uint256",
          "name": "newAmount",
          "type": "uint256"
        }
      ],
      "name": "MonthlyAllocationUpdated",
      "type": "event"
    },
    {
      "anonymous": false,
      "inputs": [
        {
          "indexed": true,
          "internalType": "bytes32",
          "name": "role",
          "type": "bytes32"
        },
        {
          "indexed": true,
          "internalType": "bytes32",
          "name": "previousAdminRole",
          "type": "bytes32"
        },
        {
          "indexed": true,
          "internalType": "bytes32",
          "name": "newAdminRole",
          "type": "bytes32"
        }
      ],
      "name": "RoleAdminChanged",
      "type": "event"
    },
    {
      "anonymous": false,
      "inputs": [
        {
          "indexed": true,
          "internalType": "bytes32",
          "name": "role",
          "type": "bytes32"
        },
        {
          "indexed": true,
          "internalType": "address",
          "name": "account",
          "type": "address"
        },
        {
          "indexed": true,
          "internalType": "address",
          "name": "sender",
          "type": "address"
        }
      ],
      "name": "RoleGranted",
      "type": "event"
    },
    {
      "anonymous": false,
      "inputs": [
        {
          "indexed": true,
          "internalType": "bytes32",
          "name": "role",
          "type": "bytes32"
        },
        {
          "indexed": true,
          "internalType": "address",
          "name": "account",
          "type": "address"
        },
        {
          "indexed": true,
          "internalType": "address",
          "name": "sender",
          "type": "address"
        }
      ],
      "name": "RoleRevoked",
      "type": "event"
    },
    {
      "anonymous": false,
      "inputs": [
        {
          "indexed": true,
          "internalType": "address",
          "name": "member",
          "type": "address"
        },
        {
          "indexed": false,
          "internalType": "uint256",
          "name": "amount",
          "type": "uint256"
        },
        {
          "indexed": false,
          "internalType": "bytes32",
          "name": "tripId",
          "type": "bytes32"
        }
      ],
      "name": "TokensBurnedForUsage",
      "type": "event"
    },
    {
      "anonymous": false,
      "inputs": [
        {
          "indexed": true,
          "internalType": "address",
          "name": "member",
          "type": "address"
        },
        {
          "indexed": false,
          "internalType": "uint256",
          "name": "amount",
          "type": "uint256"
        }
      ],
      "name": "TokensExpired",
      "type": "event"
    },
    {
      "anonymous": false,
      "inputs": [
        {
          "indexed": true,
          "internalType": "address",
          "name": "to",
          "type": "address"
        },
        {
          "indexed": false,
          "internalType": "uint256",
          "name": "amount",
          "type": "uint256"
        },
        {
          "indexed": false,
          "internalType": "uint256",
          "name": "year",
          "type": "uint256"
        },
        {
          "indexed": false,
          "internalType": "uint256",
          "name": "month",
          "type": "uint256"
        }
      ],
      "name": "TokensMinted",
      "type": "event"
    },
    {
      "anonymous": false,
      "inputs": [
        {
          "indexed": true,
          "internalType": "address",
          "name": "member",
          "type": "address"
        },
        {
          "indexed": false,
          "internalType": "uint256",
          "name": "amount",
          "type": "uint256"
        },
        {
          "indexed": false,
          "internalType": "bytes32",
          "name": "tripId",
          "type": "bytes32"
        }
      ],
      "name": "TokensRefunded",
      "type": "event"
    },
    {
      "anonymous": false,
      "inputs": [
        {
          "indexed": true,
          "internalType": "address",
          "name": "from",
          "type": "address"
        },
        {
          "indexed": true,
          "internalType": "address",
          "name": "to",
          "type": "address"
        },
        {
          "indexed": false,
          "internalType": "uint256",
          "name": "value",
          "type": "uint256"
        }
      ],
      "name": "Transfer",
      "type": "event"
    },
    {
      "anonymous": false,
      "inputs": [
        {
          "indexed": true,
          "internalType": "address",
          "name": "implementation",
          "type": "address"
        }
      ],
      "name": "Upgraded",
      "type": "event"
    },
    {
      "anonymous": false,
      "inputs": [
        {
          "indexed": false,
          "internalType": "uint256",
          "name": "newCap",
          "type": "uint256"
        }
      ],
      "name": "WalletCapUpdated",
      "type": "event"
    },
    {
      "inputs": [],
      "name": "DEFAULT_ADMIN_ROLE",
      "outputs": [
        {
          "internalType": "bytes32",
          "name": "",
          "type": "bytes32"
        }
      ],
      "stateMutability": "view",
      "type": "function"
    },
    {
      "inputs": [],
      "name": "LEDGER_ROLE",
      "outputs": [
        {
          "internalType": "bytes32",
          "name": "",
          "type": "bytes32"
        }
      ],
      "stateMutability": "view",
      "type": "function"
    },
    {
      "inputs": [],
      "name": "MINTER_ROLE",
      "outputs": [
        {
          "internalType": "bytes32",
          "name": "",
          "type": "bytes32"
        }
      ],
      "stateMutability": "view",
      "type": "function"
    },
    {
      "inputs": [],
      "name": "UPGRADE_INTERFACE_VERSION",
      "outputs": [
        {
          "internalType": "string",
          "name": "",
          "type": "string"
        }
      ],
      "stateMutability": "view",
      "type": "function"
    },
    {
      "inputs": [
        {
          "internalType": "address",
          "name": "owner",
          "type": "address"
        },
        {
          "internalType": "address",
          "name": "spender",
          "type": "address"
        }
      ],
      "name": "allowance",
      "outputs": [
        {
          "internalType": "uint256",
          "name": "",
          "type": "uint256"
        }
      ],
      "stateMutability": "view",
      "type": "function"
    },
    {
      "inputs": [
        {
          "internalType": "address",
          "name": "spender",
          "type": "address"
        },
        {
          "internalType": "uint256",
          "name": "value",
          "type": "uint256"
        }
      ],
      "name": "approve",
      "outputs": [
        {
          "internalType": "bool",
          "name": "",
          "type": "bool"
        }
      ],
      "stateMutability": "nonpayable",
      "type": "function"
    },
    {
      "inputs": [
        {
          "internalType": "address",
          "name": "account",
          "type": "address"
        }
      ],
      "name": "balanceOf",
      "outputs": [
        {
          "internalType": "uint256",
          "name": "",
          "type": "uint256"
        }
      ],
      "stateMutability": "view",
      "type": "function"
    },
    {
      "inputs": [
        {
          "internalType": "uint256",
          "name": "amount",
          "type": "uint256"
        }
      ],
      "name": "burn",
      "outputs": [],
      "stateMutability": "nonpayable",
      "type": "function"
    },
    {
      "inputs": [
        {
          "internalType": "address",
          "name": "member",
          "type": "address"
        },
        {
          "internalType": "uint256",
          "name": "amount",
          "type": "uint256"
        },
        {
          "internalType": "bytes32",
          "name": "tripId",
          "type": "bytes32"
        }
      ],
      "name": "burnForUsage",
      "outputs": [],
      "stateMutability": "nonpayable",
      "type": "function"
    },
    {
      "inputs": [
        {
          "internalType": "address",
          "name": "account",
          "type": "address"
        },
        {
          "internalType": "uint256",
          "name": "amount",
          "type": "uint256"
        }
      ],
      "name": "burnFrom",
      "outputs": [],
      "stateMutability": "nonpayable",
      "type": "function"
    },
    {
      "inputs": [],
      "name": "decimals",
      "outputs": [
        {
          "internalType": "uint8",
          "name": "",
          "type": "uint8"
        }
      ],
      "stateMutability": "view",
      "type": "function"
    },
    {
      "inputs": [
        {
          "internalType": "address",
          "name": "member",
          "type": "address"
        },
        {
          "internalType": "uint256",
          "name": "window",
          "type": "uint256"
        }
      ],
      "name": "expiringWithin",
      "outputs": [
        {
          "internalType": "uint256",
          "name": "amount",
          "type": "uint256"
        }
      ],
      "stateMutability": "view",
      "type": "function"
    },
    {
      "inputs": [],
      "name": "expiryDuration",
      "outputs": [
        {
          "internalType": "uint256",
          "name": "",
          "type": "uint256"
        }
      ],
      "stateMutability": "view",
      "type": "function"
    },
    {
      "inputs": [
        {
          "internalType": "bytes32",
          "name": "role",
          "type": "bytes32"
        }
      ],
      "name": "getRoleAdmin",
      "outputs": [
        {
          "internalType": "bytes32",
          "name": "",
          "type": "bytes32"
        }
      ],
      "stateMutability": "view",
      "type": "function"
    },
    {
      "inputs": [
        {
          "internalType": "bytes32",
          "name": "role",
          "type": "bytes32"
        },
        {
          "internalType": "address",
          "name": "account",
          "type": "address"
        }
      ],
      "name": "grantRole",
      "outputs": [],
      "stateMutability": "nonpayable",
      "type": "function"
    },
    {
      "inputs": [
        {
          "internalType": "bytes32",
          "name": "role",
          "type": "bytes32"
        },
        {
          "internalType": "address",
          "name": "account",
          "type": "address"
        }
      ],
      "name": "hasRole",
      "outputs": [
        {
          "internalType": "bool",
          "name": "",
          "type": "bool"
        }
      ],
      "stateMutability": "view",
      "type": "function"
    },
    {
      "inputs": [
        {
          "internalType": "address",
          "name": "admin",
          "type": "address"
        }
      ],
      "name": "initialize",
      "outputs": [],
      "stateMutability": "nonpayable",
      "type": "function"
    },
    {
      "inputs": [
        {
          "internalType": "address",
          "name": "member",
          "type": "address"
        },
        {
          "internalType": "uint256",
          "name": "year",
          "type": "uint256"
        },
        {
          "internalType": "uint256",
          "name": "month",
          "type": "uint256"
        }
      ],
      "name": "issueMonthlyAllocation",
      "outputs": [
        {
          "internalType": "uint256",
          "name": "issued",
          "type": "uint256"
        }
      ],
      "stateMutability": "nonpayable",
      "type": "function"
    },
    {
      "inputs": [
        {
          "internalType": "address",
          "name": "member",
          "type": "address"
        },
        {
          "internalType": "uint256",
          "name": "amount",
          "type": "uint256"
        },
        {
          "internalType": "uint256",
          "name": "year",
          "type": "uint256"
        },
        {
          "internalType": "uint256",
          "name": "month",
          "type": "uint256"
        }
      ],
      "name": "mintMonthlyAllocation",
      "outputs": [],
      "stateMutability": "nonpayable",
      "type": "function"
    },
    {
      "inputs": [],
      "name": "monthlyAllocation",
      "outputs": [
        {
          "internalType": "uint256",
          "name": "",
          "type": "uint256"
        }
      ],
      "stateMutability": "view",
      "type": "function"
    },
    {
      "inputs": [],
      "name": "monthlyIssuanceCap",
      "outputs": [
        {
          "internalType": "uint256",
          "name": "",
          "type": "uint256"
        }
      ],
      "stateMutability": "view",
      "type": "function"
    },
    {
      "inputs": [
        {
          "internalType": "bytes32",
          "name": "",
          "type": "bytes32"
        }
      ],
      "name": "monthlyMinted",
      "outputs": [
        {
          "internalType": "uint256",
          "name": "",
          "type": "uint256"
        }
      ],
      "stateMutability": "view",
      "type": "function"
    },
    {
      "inputs": [],
      "name": "name",
      "outputs": [
        {
          "internalType": "string",
          "name": "",
          "type": "string"
        }
      ],
      "stateMutability": "view",
      "type": "function"
    },
    {
      "inputs": [
        {
          "internalType": "address",
          "name": "member",
          "type": "address"
        }
      ],
      "name": "nextExpiryAt",
      "outputs": [
        {
          "internalType": "uint64",
          "name": "",
          "type": "uint64"
        }
      ],
      "stateMutability": "view",
      "type": "function"
    },
    {
      "inputs": [
        {
          "internalType": "address",
          "name": "member",
          "type": "address"
        }
      ],
      "name": "pendingExpiry",
      "outputs": [
        {
          "internalType": "uint256",
          "name": "amount",
          "type": "uint256"
        }
      ],
      "stateMutability": "view",
      "type": "function"
    },
    {
      "inputs": [],
      "name": "proxiableUUID",
      "outputs": [
        {
          "internalType": "bytes32",
          "name": "",
          "type": "bytes32"
        }
      ],
      "stateMutability": "view",
      "type": "function"
    },
    {
      "inputs": [
        {
          "internalType": "address",
          "name": "member",
          "type": "address"
        },
        {
          "internalType": "uint256",
          "name": "amount",
          "type": "uint256"
        },
        {
          "internalType": "bytes32",
          "name": "tripId",
          "type": "bytes32"
        }
      ],
      "name": "refundCancellation",
      "outputs": [],
      "stateMutability": "nonpayable",
      "type": "function"
    },
    {
      "inputs": [
        {
          "internalType": "bytes32",
          "name": "role",
          "type": "bytes32"
        },
        {
          "internalType": "address",
          "name": "callerConfirmation",
          "type": "address"
        }
      ],
      "name": "renounceRole",
      "outputs": [],
      "stateMutability": "nonpayable",
      "type": "function"
    },
    {
      "inputs": [
        {
          "internalType": "bytes32",
          "name": "role",
          "type": "bytes32"
        },
        {
          "internalType": "address",
          "name": "account",
          "type": "address"
        }
      ],
      "name": "revokeRole",
      "outputs": [],
      "stateMutability": "nonpayable",
      "type": "function"
    },
    {
      "inputs": [
        {
          "internalType": "uint256",
          "name": "newDuration",
          "type": "uint256"
        }
      ],
      "name": "setExpiryDuration",
      "outputs": [],
      "stateMutability": "nonpayable",
      "type": "function"
    },
    {
      "inputs": [
        {
          "internalType": "uint256",
          "name": "newAmount",
          "type": "uint256"
        }
      ],
      "name": "setMonthlyAllocation",
      "outputs": [],
      "stateMutability": "nonpayable",
      "type": "function"
    },
    {
      "inputs": [
        {
          "internalType": "uint256",
          "name": "newCap",
          "type": "uint256"
        }
      ],
      "name": "setMonthlyIssuanceCap",
      "outputs": [],
      "stateMutability": "nonpayable",
      "type": "function"
    },
    {
      "inputs": [
        {
          "internalType": "uint256",
          "name": "newCap",
          "type": "uint256"
        }
      ],
      "name": "setWalletCap",
      "outputs": [],
      "stateMutability": "nonpayable",
      "type": "function"
    },
    {
      "inputs": [
        {
          "internalType": "bytes4",
          "name": "interfaceId",
          "type": "bytes4"
        }
      ],
      "name": "supportsInterface",
      "outputs": [
        {
          "internalType": "bool",
          "name": "",
          "type": "bool"
        }
      ],
      "stateMutability": "view",
      "type": "function"
    },
    {
      "inputs": [
        {
          "internalType": "address",
          "name": "member",
          "type": "address"
        }
      ],
      "name": "sweepExpired",
      "outputs": [
        {
          "internalType": "uint256",
          "name": "",
          "type": "uint256"
        }
      ],
      "stateMutability": "nonpayable",
      "type": "function"
    },
    {
      "inputs": [],
      "name": "symbol",
      "outputs": [
        {
          "internalType": "string",
          "name": "",
          "type": "string"
        }
      ],
      "stateMutability": "view",
      "type": "function"
    },
    {
      "inputs": [],
      "name": "totalSupply",
      "outputs": [
        {
          "internalType": "uint256",
          "name": "",
          "type": "uint256"
        }
      ],
      "stateMutability": "view",
      "type": "function"
    },
    {
      "inputs": [
        {
          "internalType": "address",
          "name": "member",
          "type": "address"
        }
      ],
      "name": "tranchesOf",
      "outputs": [
        {
          "internalType": "uint256[]",
          "name": "amounts",
          "type": "uint256[]"
        },
        {
          "internalType": "uint64[]",
          "name": "expiresAts",
          "type": "uint64[]"
        }
      ],
      "stateMutability": "view",
      "type": "function"
    },
    {
      "inputs": [
        {
          "internalType": "address",
          "name": "to",
          "type": "address"
        },
        {
          "internalType": "uint256",
          "name": "value",
          "type": "uint256"
        }
      ],
      "name": "transfer",
      "outputs": [
        {
          "internalType": "bool",
          "name": "",
          "type": "bool"
        }
      ],
      "stateMutability": "nonpayable",
      "type": "function"
    },
    {
      "inputs": [
        {
          "internalType": "address",
          "name": "from",
          "type": "address"
        },
        {
          "internalType": "address",
          "name": "to",
          "type": "address"
        },
        {
          "internalType": "uint256",
          "name": "value",
          "type": "uint256"
        }
      ],
      "name": "transferFrom",
      "outputs": [
        {
          "internalType": "bool",
          "name": "",
          "type": "bool"
        }
      ],
      "stateMutability": "nonpayable",
      "type": "function"
    },
    {
      "inputs": [
        {
          "internalType": "address",
          "name": "newImplementation",
          "type": "address"
        },
        {
          "internalType": "bytes",
          "name": "data",
          "type": "bytes"
        }
      ],
      "name": "upgradeToAndCall",
      "outputs": [],
      "stateMutability": "payable",
      "type": "function"
    },
    {
      "inputs": [],
      "name": "walletCap",
      "outputs": [
        {
          "internalType": "uint256",
          "name": "",
          "type": "uint256"
        }
      ],
      "stateMutability": "view",
      "type": "function"
    }
  ],
  "bytecode": "0x60a0604052306080523480156200001557600080fd5b506200002062000026565b620000da565b7ff0c57e16840df040f15088dc2f81fe391c3923bec73e23a9662efc9c229c6a00805468010000000000000000900460ff1615620000775760405163f92ee8a960e01b815260040160405180910390fd5b80546001600160401b0390811614620000d75780546001600160401b0319166001600160401b0390811782556040519081527fc7f505b2f371ae2175ee4913f4499e1f2633a7b5936321eed1cdaeb6115181d29060200160405180910390a15b50565b60805161293f6200010460003960008181611be701528181611c100152611d56015261293f6000f3fe6080604052600436106102505760003560e01c806358950c2211610139578063a9059cbb116100b6578063d53913931161007a578063d5391393146106d6578063d547741f146106f8578063dd62ed3e14610718578063e023b7e514610738578063e3da9f8f14610758578063f7f712ad1461078657600080fd5b8063a9059cbb14610622578063ad3cb1cc14610642578063b3ee142414610673578063c4d66de814610689578063cbd26daa146106a957600080fd5b806391d14854116100fd57806391d1485414610598578063959f96f1146105b857806395d89b41146105d85780639c20a0db146105ed578063a217fddf1461060d57600080fd5b806358950c221461050257806365a646681461051857806370a082311461053857806379cc6790146105585780638a059bee1461057857600080fd5b8063248a9ca3116101d257806336568abe1161019657806336568abe146104585780633b4e26461461047857806342966c681461049a5780634cf2d0bc146104ba5780634f1ef286146104da57806352d1902d146104ed57600080fd5b8063248a9ca3146103c657806326a39dd7146103e65780632f2ff15d146103fc578063313ce5671461041c57806334b6d6411461043857600080fd5b80631550284011610219578063155028401461031c57806318160ddd1461033c5780631e7b516914610370578063232c2b521461038657806323b872dd146103a657600080fd5b8062972f7f1461025557806301ffc9a71461027757806306fdde03146102ac578063095ea7b3146102ce5780630b09a1eb146102ee575b600080fd5b34801561026157600080fd5b5061027561027036600461236d565b6107be565b005b34801561028357600080fd5b506102976102923660046123a6565b61099c565b60405190151581526020015b60405180910390f35b3480156102b857600080fd5b506102c16109d3565b6040516102a391906123d7565b3480156102da57600080fd5b506102976102e9366004612426565b610a96565b3480156102fa57600080fd5b5061030e610309366004612450565b610aae565b6040519081526020016102a3565b34801561032857600080fd5b50610275610337366004612483565b610c12565b34801561034857600080fd5b507f52c63247e1f47db19d5ce0460030c497f067ca4cebf71ba98eeadabe20bace025461030e565b34801561037c57600080fd5b5061030e60035481565b34801561039257600080fd5b5061030e6103a136600461249c565b610caa565b3480156103b257600080fd5b506102976103c13660046124b7565b610d57565b3480156103d257600080fd5b5061030e6103e1366004612483565b610d7b565b3480156103f257600080fd5b5061030e60005481565b34801561040857600080fd5b506102756104173660046124f3565b610d9d565b34801561042857600080fd5b50604051601281526020016102a3565b34801561044457600080fd5b50610275610453366004612483565b610dbf565b34801561046457600080fd5b506102756104733660046124f3565b610e04565b34801561048457600080fd5b5061030e60008051602061286a83398151915281565b3480156104a657600080fd5b506102756104b5366004612483565b610e3c565b3480156104c657600080fd5b506102756104d5366004612450565b610e5c565b6102756104e8366004612535565b610f54565b3480156104f957600080fd5b5061030e610f73565b34801561050e57600080fd5b5061030e60025481565b34801561052457600080fd5b50610275610533366004612483565b610f90565b34801561054457600080fd5b5061030e61055336600461249c565b610fd0565b34801561056457600080fd5b50610275610573366004612426565b610ff8565b34801561058457600080fd5b50610275610593366004612483565b611016565b3480156105a457600080fd5b506102976105b33660046124f3565b61105b565b3480156105c457600080fd5b5061030e6105d3366004612426565b611093565b3480156105e457600080fd5b506102c161115e565b3480156105f957600080fd5b5061030e61060836600461249c565b61119d565b34801561061957600080fd5b5061030e600081565b34801561062e57600080fd5b5061029761063d366004612426565b6111a8565b34801561064e57600080fd5b506102c1604051806040016040528060058152602001640352e302e360dc1b81525081565b34801561067f57600080fd5b5061030e60065481565b34801561069557600080fd5b506102756106a436600461249c565b6111b6565b3480156106b557600080fd5b5061030e6106c4366004612483565b60016020526000908152604090205481565b3480156106e257600080fd5b5061030e6000805160206128ca83398151915281565b34801561070457600080fd5b506102756107133660046124f3565b611365565b34801561072457600080fd5b5061030e6107333660046125f6565b611381565b34801561074457600080fd5b50610275610753366004612450565b6113cb565b34801561076457600080fd5b5061077861077336600461249c565b611442565b6040516102a3929190612620565b34801561079257600080fd5b506107a66107a136600461249c565b6115d7565b6040516001600160401b0390911681526020016102a3565b6000805160206128ca8339815191526107d681611640565b6107df8561164a565b50600254846107ed87610fd0565b6107f791906126ba565b111561084a5760405162461bcd60e51b815260206004820152601d60248201527f4b65656c546f6b656e3a20657863656564732077616c6c65742063617000000060448201526064015b60405180910390fd5b6040516bffffffffffffffffffffffff19606087901b16602082015260348101849052605481018390526000906074016040516020818303038152906040528051906020012090506003548560016000848152602001908152602001600020546108b491906126ba565b11156109105760405162461bcd60e51b815260206004820152602560248201527f4b65656c546f6b656e3a2065786365656473206d6f6e74686c7920616c6c6f6360448201526430ba34b7b760d91b6064820152608401610841565b6000818152600160205260408120805487929061092e9084906126ba565b9091555061093e905086866117be565b61094886866117f4565b60408051868152602081018690529081018490526001600160a01b038716907f6155cfd0fd028b0ca77e8495a60cbe563e8bce8611f0aad6fedbdaafc05d44a29060600160405180910390a2505050505050565b60006001600160e01b03198216637965db0b60e01b14806109cd57506301ffc9a760e01b6001600160e01b03198316145b92915050565b7f52c63247e1f47db19d5ce0460030c497f067ca4cebf71ba98eeadabe20bace03805460609160008051602061288a83398151915291610a12906126cd565b80601f0160208091040260200160405190810160405280929190818152602001828054610a3e906126cd565b8015610a8b5780601f10610a6057610100808354040283529160200191610a8b565b820191906000526020600020905b815481529060010190602001808311610a6e57829003601f168201915b505050505091505090565b600033610aa481858561189c565b5060019392505050565b60006000805160206128ca833981519152610ac881611640565b6040516bffffffffffffffffffffffff19606087901b166020820152603481018590526054810184905260009060740160408051601f1981840301815291815281516020928301206000818152600190935291205490915015610b2f576000925050610c0a565b610b388661164a565b506000610b4487610fd0565b90506002548110610b5a57600093505050610c0a565b600081600254610b6a9190612707565b90508060035410610b7b5780610b7f565b6003545b945084600003610b955760009450505050610c0a565b6000838152600160205260409020859055610bb088866117be565b610bba88866117f4565b60408051868152602081018990529081018790526001600160a01b038916907f6155cfd0fd028b0ca77e8495a60cbe563e8bce8611f0aad6fedbdaafc05d44a29060600160405180910390a25050505b509392505050565b6000610c1d81611640565b60008211610c6d5760405162461bcd60e51b815260206004820152601860248201527f4b65656c546f6b656e3a207a65726f206475726174696f6e00000000000000006044820152606401610841565b60068290556040518281527ff378a0fd4ad3ffd9d7d50986f16b04acd2dc42691c4f412f34e8eefe883e6652906020015b60405180910390a15050565b6001600160a01b038116600090815260046020908152604080832060059092528220545b8154811015610d505742828281548110610cea57610cea61271a565b600091825260209091200154600160801b90046001600160401b031611610d4357818181548110610d1d57610d1d61271a565b600091825260209091200154610d3c906001600160801b0316846126ba565b9250610d48565b610d50565b600101610cce565b5050919050565b600033610d658582856118a9565b610d7085858561190a565b506001949350505050565b60009081526000805160206128ea833981519152602052604090206001015490565b610da682610d7b565b610daf81611640565b610db98383611969565b50505050565b6000610dca81611640565b600382905560008290556040518281527f76c5f6d0e58a17742fe2a921dc4c4ab1bc653b772d418b07e3fb907c72c5e3fa90602001610c9e565b6001600160a01b0381163314610e2d5760405163334bd91960e11b815260040160405180910390fd5b610e378282611a15565b505050565b610e453361164a565b50610e4f81611a91565b610e593382611a9b565b50565b60008051602061286a833981519152610e7481611640565b610e7d8461164a565b5060025483610e8b86610fd0565b610e9591906126ba565b1115610ef55760405162461bcd60e51b815260206004820152602960248201527f4b65656c546f6b656e3a20726566756e6420776f756c642065786365656420776044820152680616c6c6574206361760bc1b6064820152608401610841565b610eff84846117be565b610f0984846117f4565b60408051848152602081018490526001600160a01b038616917fdf6a2f82cba0d26d78bf1cec65a406255e9a6ded089697adda7ecf8e657e01fa91015b60405180910390a250505050565b610f5c611bdc565b610f6582611c83565b610f6f8282611c8e565b5050565b6000610f7d611d4b565b506000805160206128aa83398151915290565b6000610f9b81611640565b60028290556040518281527f4784309e6b1f1431c711eac5e572f9ba2d542ecb5428efc0e927b794f4e8e2c190602001610c9e565b6001600160a01b0316600090815260008051602061288a833981519152602052604090205490565b6110018261164a565b5061100c8282611d94565b610f6f8282611a9b565b600061102181611640565b600082905560038290556040518281527f76c5f6d0e58a17742fe2a921dc4c4ab1bc653b772d418b07e3fb907c72c5e3fa90602001610c9e565b60009182526000805160206128ea833981519152602090815260408084206001600160a01b0393909316845291905290205460ff1690565b6001600160a01b0382166000908152600460205260408120816110b684426126ba565b6001600160a01b0386166000908152600560205260409020549091505b825481101561115557818382815481106110ef576110ef61271a565b600091825260209091200154600160801b90046001600160401b031611611148578281815481106111225761112261271a565b600091825260209091200154611141906001600160801b0316856126ba565b935061114d565b611155565b6001016110d3565b50505092915050565b7f52c63247e1f47db19d5ce0460030c497f067ca4cebf71ba98eeadabe20bace04805460609160008051602061288a83398151915291610a12906126cd565b60006109cd8261164a565b600033610aa481858561190a565b60006111c0611da9565b805490915060ff600160401b82041615906001600160401b03166000811580156111e75750825b90506000826001600160401b031660011480156112035750303b155b905081158015611211575080155b1561122f5760405163f92ee8a960e01b815260040160405180910390fd5b845467ffffffffffffffff19166001178555831561125957845460ff60401b1916600160401b1785555b6112a16040518060400160405280600a81526020016925b2b2b6102a37b5b2b760b11b8152506040518060400160405280600481526020016312d1515360e21b815250611dd2565b6112a9611de4565b6112b1611de4565b68056bc75e2d631000006000818155681043561a88293000006002556003919091556276a7006006556112e49087611969565b506112fd6000805160206128ca83398151915287611969565b5061131660008051602061286a83398151915287611969565b50831561135d57845460ff60401b19168555604051600181527fc7f505b2f371ae2175ee4913f4499e1f2633a7b5936321eed1cdaeb6115181d29060200160405180910390a15b505050505050565b61136e82610d7b565b61137781611640565b610db98383611a15565b6001600160a01b0391821660009081527f52c63247e1f47db19d5ce0460030c497f067ca4cebf71ba98eeadabe20bace016020908152604080832093909416825291909152205490565b60008051602061286a8339815191526113e381611640565b6113ec8461164a565b506113f78484611dec565b6114018484611a9b565b60408051848152602081018490526001600160a01b038616917f91092d853d5aee7e7f449f0a7ce64c055e863f2cf9c9c594aa080aec40fea7209101610f46565b6001600160a01b03811660009081526004602090815260408083206005909252822054815460609384939291611479908390612707565b9050806001600160401b038111156114935761149361251f565b6040519080825280602002602001820160405280156114bc578160200160208202803683370190505b509450806001600160401b038111156114d7576114d761251f565b604051908082528060200260200182016040528015611500578160200160208202803683370190505b50935060005b818110156115ce578361151982856126ba565b815481106115295761152961271a565b60009182526020909120015486516001600160801b03909116908790839081106115555761155561271a565b60209081029190910101528361156b82856126ba565b8154811061157b5761157b61271a565b9060005260206000200160000160109054906101000a90046001600160401b03168582815181106115ae576115ae61271a565b6001600160401b0390921660209283029190910190910152600101611506565b50505050915091565b6001600160a01b0381166000908152600460209081526040808320600590925282205481548110611609576000611638565b81818154811061161b5761161b61271a565b600091825260209091200154600160801b90046001600160401b03165b949350505050565b610e598133611e22565b6001600160a01b038116600090815260046020908152604080832060059092528220545b8154811080156116ab57504282828154811061168c5761168c61271a565b600091825260209091200154600160801b90046001600160401b031611155b15611720578181815481106116c2576116c261271a565b6000918252602090912001546116e1906001600160801b0316846126ba565b92508181815481106116f5576116f561271a565b600091825260209091200180546001600160c01b03191690558061171881612730565b91505061166e565b6001600160a01b03841660009081526005602052604090208190558215610d5057600061174c85610fd0565b9050600081851161175d578461175f565b815b905080156117b5576117718682611dec565b856001600160a01b03167fb6760691439212c96c82de5a8c06d20538b67c05b36ad9df36823b6c19e121c9826040516117ac91815260200190565b60405180910390a25b50505050919050565b6001600160a01b0382166117e85760405163ec442f0560e01b815260006004820152602401610841565b610f6f60008383611e5b565b60046000836001600160a01b03166001600160a01b031681526020019081526020016000206040518060400160405280836001600160801b0316815260200161183b611ecf565b61184590426126ba565b6001600160401b03908116909152825460018101845560009384526020938490208351910180549490930151909116600160801b026001600160c01b03199093166001600160801b03909116179190911790555050565b610e378383836001611eea565b60006118b58484611381565b9050600019811015610db957818110156118fb57604051637dc7a0d960e11b81526001600160a01b03841660048201526024810182905260448101839052606401610841565b610db984848484036000611eea565b6001600160a01b03831661193457604051634b637e8f60e11b815260006004820152602401610841565b6001600160a01b03821661195e5760405163ec442f0560e01b815260006004820152602401610841565b610e37838383611e5b565b60006000805160206128ea833981519152611984848461105b565b611a04576000848152602082815260408083206001600160a01b03871684529091529020805460ff191660011790556119ba3390565b6001600160a01b0316836001600160a01b0316857f2f8788117e7eff1d82e926ec794901d17c78024a50270940304540a733656f0d60405160405180910390a460019150506109cd565b60009150506109cd565b5092915050565b60006000805160206128ea833981519152611a30848461105b565b15611a04576000848152602082815260408083206001600160a01b0387168085529252808320805460ff1916905551339287917ff6391f5c32d9c69d2a47ea670b442974b53935d1edc7fd64eb21e047a839171b9190a460019150506109cd565b610e593382611dec565b6001600160a01b0382166000908152600460209081526040808320600590925290912054825b600081118015611ad15750825482105b15611bba576000838381548110611aea57611aea61271a565b6000918252602090912001546001600160801b03169050818111611b5a57611b1b6001600160801b03821683612707565b9150838381548110611b2f57611b2f61271a565b600091825260209091200180546001600160c01b031916905582611b5281612730565b935050611bb4565b611b6d826001600160801b038316612707565b848481548110611b7f57611b7f61271a565b6000918252602082200180546fffffffffffffffffffffffffffffffff19166001600160801b03939093169290921790915591505b50611ac1565b506001600160a01b039093166000908152600560205260409020929092555050565b306001600160a01b037f0000000000000000000000000000000000000000000000000000000000000000161480611c6357507f00000000000000000000000000000000000000000000000000000000000000006001600160a01b0316611c576000805160206128aa833981519152546001600160a01b031690565b6001600160a01b031614155b15611c815760405163703e46dd60e11b815260040160405180910390fd5b565b6000610f6f81611640565b816001600160a01b03166352d1902d6040518163ffffffff1660e01b8152600401602060405180830381865afa925050508015611ce8575060408051601f3d908101601f19168201909252611ce591810190612749565b60015b611d1057604051634c9c8ce360e01b81526001600160a01b0383166004820152602401610841565b6000805160206128aa8339815191528114611d4157604051632a87526960e21b815260048101829052602401610841565b610e378383611fd2565b306001600160a01b037f00000000000000000000000000000000000000000000000000000000000000001614611c815760405163703e46dd60e11b815260040160405180910390fd5b611d9f8233836118a9565b610f6f8282611dec565b6000807ff0c57e16840df040f15088dc2f81fe391c3923bec73e23a9662efc9c229c6a006109cd565b611dda612028565b610f6f828261204d565b611c81612028565b6001600160a01b038216611e1657604051634b637e8f60e11b815260006004820152602401610841565b610f6f82600083611e5b565b611e2c828261105b565b610f6f5760405163e2517d3f60e01b81526001600160a01b038216600482015260248101839052604401610841565b6001600160a01b0383161580611e7857506001600160a01b038216155b611ec45760405162461bcd60e51b815260206004820152601b60248201527f4b65656c546f6b656e3a206e6f6e2d7472616e7366657261626c6500000000006044820152606401610841565b610e3783838361209e565b6000600654600014611ee2575060065490565b506276a70090565b60008051602061288a8339815191526001600160a01b038516611f235760405163e602df0560e01b815260006004820152602401610841565b6001600160a01b038416611f4d57604051634a1406b160e11b815260006004820152602401610841565b6001600160a01b03808616600090815260018301602090815260408083209388168352929052208390558115611fcb57836001600160a01b0316856001600160a01b03167f8c5be1e5ebec7d5bd14f71427d1e84f3dd0314c0f7b2291e5b200ac8c7c3b92585604051611fc291815260200190565b60405180910390a35b5050505050565b611fdb826121dc565b6040516001600160a01b038316907fbc7cd75a20ee27fd9adebab32041f755214dbc6bffa90cc0225b39da2e5c2d3b90600090a280511561202057610e378282612241565b610f6f6122dd565b6120306122fc565b611c8157604051631afcd79f60e31b815260040160405180910390fd5b612055612028565b60008051602061288a8339815191527f52c63247e1f47db19d5ce0460030c497f067ca4cebf71ba98eeadabe20bace0361208f84826127aa565b5060048101610db983826127aa565b60008051602061288a8339815191526001600160a01b0384166120da57818160020160008282546120cf91906126ba565b9091555061214c9050565b6001600160a01b0384166000908152602082905260409020548281101561212d5760405163391434e360e21b81526001600160a01b03861660048201526024810182905260448101849052606401610841565b6001600160a01b03851660009081526020839052604090209083900390555b6001600160a01b03831661216a576002810180548390039055612189565b6001600160a01b03831660009081526020829052604090208054830190555b826001600160a01b0316846001600160a01b03167fddf252ad1be2c89b69c2b068fc378daa952ba7f163c4a11628f55a4df523b3ef846040516121ce91815260200190565b60405180910390a350505050565b806001600160a01b03163b60000361221257604051634c9c8ce360e01b81526001600160a01b0382166004820152602401610841565b6000805160206128aa83398151915280546001600160a01b0319166001600160a01b0392909216919091179055565b6060600061224f8484612316565b9050808015612272575060003d118061227257506000846001600160a01b03163b115b156122875761227f61232b565b9150506109cd565b80156122b157604051639996b31560e01b81526001600160a01b0385166004820152602401610841565b3d156122c4576122bf612345565b611a0e565b60405163d6bda27560e01b815260040160405180910390fd5b3415611c815760405163b398979f60e01b815260040160405180910390fd5b6000612306611da9565b54600160401b900460ff16919050565b6000806000835160208501865af49392505050565b6040513d81523d6000602083013e3d602001810160405290565b6040513d6000823e3d81fd5b80356001600160a01b038116811461236857600080fd5b919050565b6000806000806080858703121561238357600080fd5b61238c85612351565b966020860135965060408601359560600135945092505050565b6000602082840312156123b857600080fd5b81356001600160e01b0319811681146123d057600080fd5b9392505050565b60006020808352835180602085015260005b81811015612405578581018301518582016040015282016123e9565b506000604082860101526040601f19601f8301168501019250505092915050565b6000806040838503121561243957600080fd5b61244283612351565b946020939093013593505050565b60008060006060848603121561246557600080fd5b61246e84612351565b95602085013595506040909401359392505050565b60006020828403121561249557600080fd5b5035919050565b6000602082840312156124ae57600080fd5b6123d082612351565b6000806000606084860312156124cc57600080fd5b6124d584612351565b92506124e360208501612351565b9150604084013590509250925092565b6000806040838503121561250657600080fd5b8235915061251660208401612351565b90509250929050565b634e487b7160e01b600052604160045260246000fd5b6000806040838503121561254857600080fd5b61255183612351565b915060208301356001600160401b038082111561256d57600080fd5b818501915085601f83011261258157600080fd5b8135818111156125935761259361251f565b604051601f8201601f19908116603f011681019083821181831017156125bb576125bb61251f565b816040528281528860208487010111156125d457600080fd5b8260208601602083013760006020848301015280955050505050509250929050565b6000806040838503121561260957600080fd5b61261283612351565b915061251660208401612351565b604080825283519082018190526000906020906060840190828701845b828110156126595781518452928401929084019060010161263d565b5050508381038285015284518082528583019183019060005b818110156126975783516001600160401b031683529284019291840191600101612672565b5090979650505050505050565b634e487b7160e01b600052601160045260246000fd5b808201808211156109cd576109cd6126a4565b600181811c908216806126e157607f821691505b60208210810361270157634e487b7160e01b600052602260045260246000fd5b50919050565b818103818111156109cd576109cd6126a4565b634e487b7160e01b600052603260045260246000fd5b600060018201612742576127426126a4565b5060010190565b60006020828403121561275b57600080fd5b5051919050565b601f821115610e37576000816000526020600020601f850160051c8101602086101561278b5750805b601f850160051c820191505b8181101561135d57828155600101612797565b81516001600160401b038111156127c3576127c361251f565b6127d7816127d184546126cd565b84612762565b602080601f83116001811461280c57600084156127f45750858301515b600019600386901b1c1916600185901b17855561135d565b600085815260208120601f198616915b8281101561283b5788860151825594840194600190910190840161281c565b50858210156128595787850151600019600388901b60f8161c191681555b5050505050600190811b0190555056fed9ec6f45433bd3741734a224ab231970b6c603c2b3bfc8f78bb4db5db683ea8452c63247e1f47db19d5ce0460030c497f067ca4cebf71ba98eeadabe20bace00360894a13ba1a3210667c828492db98dca3e2076cc3735a920a3ca505d382bbc9f2df0fed2c77648de5860a4cc508cd0818c85b8b8a1ab4ceeef8d981c8956a602dd7bc7dec4dceedda775e58dd541e08a116c6c53815c0bd028192f7b626800a2646970667358221220c6ac28b04942588691770cd7761ccaa3880a548b5d022492025b66467324c69a64736f6c63430008180033",
  "linkReferences": {},
  "deployedLinkReferences": {}
}