{
  "_format": "hh-sol-artifact-1",
  "contractName": "KeelToken",
  "sourceName": "contracts/KeelToken.sol",
  "abi": [
    {
      "inputs": [],
      "stateMutability": "nonpayable",
      "type": "constructor"
    },
    {
      "inputs": [],
      "name": "AccessControlBadConfirmation",
      "type": "error"
    },
    {
      "inputs": [
        {
          "internalType": "address",
          "name": "account",
          "type": "address"
        },
        {
          "internalType": "bytes32",
          "name": "neededRole",
          "type": "bytes32"
        }
      ],
      "name": "AccessControlUnauthorizedAccount",
      "type": "error"
    },
    {
      "inputs": [
        {
          "internalType": "address",
          "name": "target",
          "type": "address"
        }
      ],
      "name": "AddressEmptyCode",
      "type": "error"
    },
    {
      "inputs": [
        {
          "internalType": "address",
          "name": "implementation",
          "type": "address"
        }
      ],
      "name": "ERC1967InvalidImplementation",
      "type": "error"
    },
    {
      "inputs": [],
      "name": "ERC1967NonPayable",
      "type": "error"
    },
    {
      "inputs": [
        {
          "internalType": "address",
          "name": "spender",
          "type": "address"
        },
        {
          "internalType": "uint256",
          "name": "allowance",
          "type": "uint256"
        },
        {
          "internalType": "uint256",
          "name": "needed",
          "type": "uint256"
        }
      ],
      "name": "ERC20InsufficientAllowance",
      "type": "error"
    },
    {
      "inputs": [
        {
          "internalType": "address",
          "name": "sender",
          "type": "address"
        },
        {
          "internalType": "uint256",
          "name": "balance",
          "type": "uint256"
        },
        {
          "internalType": "uint256",
          "name": "needed",
          "type": "uint256"
        }
      ],
      "name": "ERC20InsufficientBalance",
      "type": "error"
    },
    {
      "inputs": [
        {
          "internalType": "address",
          "name": "approver",
          "type": "address"
        }
      ],
      "name": "ERC20InvalidApprover",
      "type": "error"
    },
    {
      "inputs": [
        {
          "internalType": "address",
          "name": "receiver",
          "type": "address"
        }
      ],
      "name": "ERC20InvalidReceiver",
      "type": "error"
    },
    {
      "inputs": [
        {
          "internalType": "address",
          "name": "sender",
          "type": "address"
        }
      ],
      "name": "ERC20InvalidSender",
      "type": "error"
    },
    {
      "inputs": [
        {
          "internalType": "address",
          "name": "spender",
          "type": "address"
        }
      ],
      "name": "ERC20InvalidSpender",
      "type": "error"
    },
    {
      "inputs": [],
      "name": "FailedCall",
      "type": "error"
    },
    {
      "inputs": [],
      "name": "InvalidInitialization",
      "type": "error"
    },
    {
      "inputs": [],
      "name": "NotInitializing",
      "type": "error"
    },
    {
      "inputs": [],
      "name": "UUPSUnauthorizedCallContext",
      "type": "error"
    },
    {
      "inputs": [
        {
          "internalType": "bytes32",
          "name": "slot",
          "type": "bytes32"
        }
      ],
      "name": "UUPSUnsupportedProxiableUUID",
      "type": "error"
    },
    {
      "anonymous": false,
      "inputs": [
        {
          "indexed": true,
          "internalType": "address",
          "name": "owner",
          "type": "address"
        },
        {
          "indexed": true,
          "internalType": "address",
          "name": "spender",
          "type": "address"
        },
        {
          "indexed": false,
          "internalType": "uint256",
          "name": "value",
          "type": "uint256"
        }
      ],
      "name": "Approval",
      "type": "event"
    },
    {
      "anonymous": false,
      "inputs": [
        {
          "indexed": false,
          "internalType": "uint64",
          "name": "version",
          "type": "uint64"
        }
      ],
      "name": "Initialized",
      "type": "event"
    },
    {
      "anonymous": false,
      "inputs": [
        {
          "indexed": false,
          "internalType": "uint256",
          "name": "newAmount",
          "type": "uint256"
        }
      ],
      "name": "MonthlyAllocationUpdated",
      "type": "event"
    },
    {
      "anonymous": false,
      "inputs": [
        {
          "indexed": true,
          "internalType": "bytes32",
          "name": "role",
          "type": "bytes32"
        },
        {
          "indexed": true,
          "internalType": "bytes32",
          "name": "previousAdminRole",
          "type": "bytes32"
        },
        {
          "indexed": true,
          "internalType": "bytes32",
          "name": "newAdminRole",
          "type": "bytes32"
        }
      ],
      "name": "RoleAdminChanged",
      "type": "event"
    },
    {
      "anonymous": false,
      "inputs": [
        {
          "indexed": true,
          "internalType": "bytes32",
          "name": "role",
          "type": "bytes32"
        },
        {
          "indexed": true,
          "internalType": "address",
          "name": "account",
          "type": "address"
        },
        {
          "indexed": true,
          "internalType": "address",
          "name": "sender",
          "type": "address"
        }
      ],
      "name": "RoleGranted",
      "type": "event"
    },
    {
      "anonymous": false,
      "inputs": [
        {
          "indexed": true,
          "internalType": "bytes32",
          "name": "role",
          "type": "bytes32"
        },
        {
          "indexed": true,
          "internalType": "address",
          "name": "account",
          "type": "address"
        },
        {
          "indexed": true,
          "internalType": "address",
          "name": "sender",
          "type": "address"
        }
      ],
      "name": "RoleRevoked",
      "type": "event"
    },
    {
      "anonymous": false,
      "inputs": [
        {
          "indexed": true,
          "internalType": "address",
          "name": "member",
          "type": "address"
        },
        {
          "indexed": false,
          "internalType": "uint256",
          "name": "amount",
          "type": "uint256"
        },
        {
          "indexed": false,
          "internalType": "bytes32",
          "name": "tripId",
          "type": "bytes32"
        }
      ],
      "name": "TokensBurnedForUsage",
      "type": "event"
    },
    {
      "anonymous": false,
      "inputs": [
        {
          "indexed": true,
          "internalType": "address",
          "name": "to",
          "type": "address"
        },
        {
          "indexed": false,
          "internalType": "uint256",
          "name": "amount",
          "type": "uint256"
        },
        {
          "indexed": false,
          "internalType": "uint256",
          "name": "year",
          "type": "uint256"
        },
        {
          "indexed": false,
          "internalType": "uint256",
          "name": "month",
          "type": "uint256"
        }
      ],
      "name": "TokensMinted",
      "type": "event"
    },
    {
      "anonymous": false,
      "inputs": [
        {
          "indexed": true,
          "internalType": "address",
          "name": "member",
          "type": "address"
        },
        {
          "indexed": false,
          "internalType": "uint256",
          "name": "amount",
          "type": "uint256"
        },
        {
          "indexed": false,
          "internalType": "bytes32",
          "name": "tripId",
          "type": "bytes32"
        }
      ],
      "name": "TokensRefunded",
      "type": "event"
    },
    {
      "anonymous": false,
      "inputs": [
        {
          "indexed": true,
          "internalType": "address",
          "name": "from",
          "type": "address"
        },
        {
          "indexed": true,
          "internalType": "address",
          "name": "to",
          "type": "address"
        },
        {
          "indexed": false,
          "internalType": "uint256",
          "name": "value",
          "type": "uint256"
        }
      ],
      "name": "Transfer",
      "type": "event"
    },
    {
      "anonymous": false,
      "inputs": [
        {
          "indexed": true,
          "internalType": "address",
          "name": "implementation",
          "type": "address"
        }
      ],
      "name": "Upgraded",
      "type": "event"
    },
    {
      "anonymous": false,
      "inputs": [
        {
          "indexed": false,
          "internalType": "uint256",
          "name": "newCap",
          "type": "uint256"
        }
      ],
      "name": "WalletCapUpdated",
      "type": "event"
    },
    {
      "inputs": [],
      "name": "DEFAULT_ADMIN_ROLE",
      "outputs": [
        {
          "internalType": "bytes32",
          "name": "",
          "type": "bytes32"
        }
      ],
      "stateMutability": "view",
      "type": "function"
    },
    {
      "inputs": [],
      "name": "LEDGER_ROLE",
      "outputs": [
        {
          "internalType": "bytes32",
          "name": "",
          "type": "bytes32"
        }
      ],
      "stateMutability": "view",
      "type": "function"
    },
    {
      "inputs": [],
      "name": "MINTER_ROLE",
      "outputs": [
        {
          "internalType": "bytes32",
          "name": "",
          "type": "bytes32"
        }
      ],
      "stateMutability": "view",
      "type": "function"
    },
    {
      "inputs": [],
      "name": "UPGRADE_INTERFACE_VERSION",
      "outputs": [
        {
          "internalType": "string",
          "name": "",
          "type": "string"
        }
      ],
      "stateMutability": "view",
      "type": "function"
    },
    {
      "inputs": [
        {
          "internalType": "address",
          "name": "owner",
          "type": "address"
        },
        {
          "internalType": "address",
          "name": "spender",
          "type": "address"
        }
      ],
      "name": "allowance",
      "outputs": [
        {
          "internalType": "uint256",
          "name": "",
          "type": "uint256"
        }
      ],
      "stateMutability": "view",
      "type": "function"
    },
    {
      "inputs": [
        {
          "internalType": "address",
          "name": "spender",
          "type": "address"
        },
        {
          "internalType": "uint256",
          "name": "value",
          "type": "uint256"
        }
      ],
      "name": "approve",
      "outputs": [
        {
          "internalType": "bool",
          "name": "",
          "type": "bool"
        }
      ],
      "stateMutability": "nonpayable",
      "type": "function"
    },
    {
      "inputs": [
        {
          "internalType": "address",
          "name": "account",
          "type": "address"
        }
      ],
      "name": "balanceOf",
      "outputs": [
        {
          "internalType": "uint256",
          "name": "",
          "type": "uint256"
        }
      ],
      "stateMutability": "view",
      "type": "function"
    },
    {
      "inputs": [
        {
          "internalType": "uint256",
          "name": "value",
          "type": "uint256"
        }
      ],
      "name": "burn",
      "outputs": [],
      "stateMutability": "nonpayable",
      "type": "function"
    },
    {
      "inputs": [
        {
          "internalType": "address",
          "name": "member",
          "type": "address"
        },
        {
          "internalType": "uint256",
          "name": "amount",
          "type": "uint256"
        },
        {
          "internalType": "bytes32",
          "name": "tripId",
          "type": "bytes32"
        }
      ],
      "name": "burnForUsage",
      "outputs": [],
      "stateMutability": "nonpayable",
      "type": "function"
    },
    {
      "inputs": [
        {
          "internalType": "address",
          "name": "account",
          "type": "address"
        },
        {
          "internalType": "uint256",
          "name": "value",
          "type": "uint256"
        }
      ],
      "name": "burnFrom",
      "outputs": [],
      "stateMutability": "nonpayable",
      "type": "function"
    },
    {
      "inputs": [],
      "name": "decimals",
      "outputs": [
        {
          "internalType": "uint8",
          "name": "",
          "type": "uint8"
        }
      ],
      "stateMutability": "view",
      "type": "function"
    },
    {
      "inputs": [
        {
          "internalType": "bytes32",
          "name": "role",
          "type": "bytes32"
        }
      ],
      "name": "getRoleAdmin",
      "outputs": [
        {
          "internalType": "bytes32",
          "name": "",
          "type": "bytes32"
        }
      ],
      "stateMutability": "view",
      "type": "function"
    },
    {
      "inputs": [
        {
          "internalType": "bytes32",
          "name": "role",
          "type": "bytes32"
        },
        {
          "internalType": "address",
          "name": "account",
          "type": "address"
        }
      ],
      "name": "grantRole",
      "outputs": [],
      "stateMutability": "nonpayable",
      "type": "function"
    },
    {
      "inputs": [
        {
          "internalType": "bytes32",
          "name": "role",
          "type": "bytes32"
        },
        {
          "internalType": "address",
          "name": "account",
          "type": "address"
        }
      ],
      "name": "hasRole",
      "outputs": [
        {
          "internalType": "bool",
          "name": "",
          "type": "bool"
        }
      ],
      "stateMutability": "view",
      "type": "function"
    },
    {
      "inputs": [
        {
          "internalType": "address",
          "name": "admin",
          "type": "address"
        }
      ],
      "name": "initialize",
      "outputs": [],
      "stateMutability": "nonpayable",
      "type": "function"
    },
    {
      "inputs": [
        {
          "internalType": "address",
          "name": "member",
          "type": "address"
        },
        {
          "internalType": "uint256",
          "name": "year",
          "type": "uint256"
        },
        {
          "internalType": "uint256",
          "name": "month",
          "type": "uint256"
        }
      ],
      "name": "issueMonthlyAllocation",
      "outputs": [
        {
          "internalType": "uint256",
          "name": "issued",
          "type": "uint256"
        }
      ],
      "stateMutability": "nonpayable",
      "type": "function"
    },
    {
      "inputs": [
        {
          "internalType": "address",
          "name": "member",
          "type": "address"
        },
        {
          "internalType": "uint256",
          "name": "amount",
          "type": "uint256"
        },
        {
          "internalType": "uint256",
          "name": "year",
          "type": "uint256"
        },
        {
          "internalType": "uint256",
          "name": "month",
          "type": "uint256"
        }
      ],
      "name": "mintMonthlyAllocation",
      "outputs": [],
      "stateMutability": "nonpayable",
      "type": "function"
    },
    {
      "inputs": [],
      "name": "monthlyAllocation",
      "outputs": [
        {
          "internalType": "uint256",
          "name": "",
          "type": "uint256"
        }
      ],
      "stateMutability": "view",
      "type": "function"
    },
    {
      "inputs": [],
      "name": "monthlyIssuanceCap",
      "outputs": [
        {
          "internalType": "uint256",
          "name": "",
          "type": "uint256"
        }
      ],
      "stateMutability": "view",
      "type": "function"
    },
    {
      "inputs": [
        {
          "internalType": "bytes32",
          "name": "",
          "type": "bytes32"
        }
      ],
      "name": "monthlyMinted",
      "outputs": [
        {
          "internalType": "uint256",
          "name": "",
          "type": "uint256"
        }
      ],
      "stateMutability": "view",
      "type": "function"
    },
    {
      "inputs": [],
      "name": "name",
      "outputs": [
        {
          "internalType": "string",
          "name": "",
          "type": "string"
        }
      ],
      "stateMutability": "view",
      "type": "function"
    },
    {
      "inputs": [],
      "name": "proxiableUUID",
      "outputs": [
        {
          "internalType": "bytes32",
          "name": "",
          "type": "bytes32"
        }
      ],
      "stateMutability": "view",
      "type": "function"
    },
    {
      "inputs": [
        {
          "internalType": "address",
          "name": "member",
          "type": "address"
        },
        {
          "internalType": "uint256",
          "name": "amount",
          "type": "uint256"
        },
        {
          "internalType": "bytes32",
          "name": "tripId",
          "type": "bytes32"
        }
      ],
      "name": "refundCancellation",
      "outputs": [],
      "stateMutability": "nonpayable",
      "type": "function"
    },
    {
      "inputs": [
        {
          "internalType": "bytes32",
          "name": "role",
          "type": "bytes32"
        },
        {
          "internalType": "address",
          "name": "callerConfirmation",
          "type": "address"
        }
      ],
      "name": "renounceRole",
      "outputs": [],
      "stateMutability": "nonpayable",
      "type": "function"
    },
    {
      "inputs": [
        {
          "internalType": "bytes32",
          "name": "role",
          "type": "bytes32"
        },
        {
          "internalType": "address",
          "name": "account",
          "type": "address"
        }
      ],
      "name": "revokeRole",
      "outputs": [],
      "stateMutability": "nonpayable",
      "type": "function"
    },
    {
      "inputs": [
        {
          "internalType": "uint256",
          "name": "newAmount",
          "type": "uint256"
        }
      ],
      "name": "setMonthlyAllocation",
      "outputs": [],
      "stateMutability": "nonpayable",
      "type": "function"
    },
    {
      "inputs": [
        {
          "internalType": "uint256",
          "name": "newCap",
          "type": "uint256"
        }
      ],
      "name": "setMonthlyIssuanceCap",
      "outputs": [],
      "stateMutability": "nonpayable",
      "type": "function"
    },
    {
      "inputs": [
        {
          "internalType": "uint256",
          "name": "newCap",
          "type": "uint256"
        }
      ],
      "name": "setWalletCap",
      "outputs": [],
      "stateMutability": "nonpayable",
      "type": "function"
    },
    {
      "inputs": [
        {
          "internalType": "bytes4",
          "name": "interfaceId",
          "type": "bytes4"
        }
      ],
      "name": "supportsInterface",
      "outputs": [
        {
          "internalType": "bool",
          "name": "",
          "type": "bool"
        }
      ],
      "stateMutability": "view",
      "type": "function"
    },
    {
      "inputs": [],
      "name": "symbol",
      "outputs": [
        {
          "internalType": "string",
          "name": "",
          "type": "string"
        }
      ],
      "stateMutability": "view",
      "type": "function"
    },
    {
      "inputs": [],
      "name": "totalSupply",
      "outputs": [
        {
          "internalType": "uint256",
          "name": "",
          "type": "uint256"
        }
      ],
      "stateMutability": "view",
      "type": "function"
    },
    {
      "inputs": [
        {
          "internalType": "address",
          "name": "to",
          "type": "address"
        },
        {
          "internalType": "uint256",
          "name": "value",
          "type": "uint256"
        }
      ],
      "name": "transfer",
      "outputs": [
        {
          "internalType": "bool",
          "name": "",
          "type": "bool"
        }
      ],
      "stateMutability": "nonpayable",
      "type": "function"
    },
    {
      "inputs": [
        {
          "internalType": "address",
          "name": "from",
          "type": "address"
        },
        {
          "internalType": "address",
          "name": "to",
          "type": "address"
        },
        {
          "internalType": "uint256",
          "name": "value",
          "type": "uint256"
        }
      ],
      "name": "transferFrom",
      "outputs": [
        {
          "internalType": "bool",
          "name": "",
          "type": "bool"
        }
      ],
      "stateMutability": "nonpayable",
      "type": "function"
    },
    {
      "inputs": [
        {
          "internalType": "address",
          "name": "newImplementation",
          "type": "address"
        },
        {
          "internalType": "bytes",
          "name": "data",
          "type": "bytes"
        }
      ],
      "name": "upgradeToAndCall",
      "outputs": [],
      "stateMutability": "payable",
      "type": "function"
    },
    {
      "inputs": [],
      "name": "walletCap",
      "outputs": [
        {
          "internalType": "uint256",
          "name": "",
          "type": "uint256"
        }
      ],
      "stateMutability": "view",
      "type": "function"
    }
  ],
  "bytecode": "0x60a06040523060805234801561001457600080fd5b5061001d610022565b6100d4565b7ff0c57e16840df040f15088dc2f81fe391c3923bec73e23a9662efc9c229c6a00805468010000000000000000900460ff16156100725760405163f92ee8a960e01b815260040160405180910390fd5b80546001600160401b03908116146100d15780546001600160401b0319166001600160401b0390811782556040519081527fc7f505b2f371ae2175ee4913f4499e1f2633a7b5936321eed1cdaeb6115181d29060200160405180910390a15b50565b608051611eb86100fd600039600081816112eb01528181611314015261145a0152611eb86000f3fe6080604052600436106102035760003560e01c80634f1ef28611610118578063a217fddf116100a0578063cbd26daa1161006f578063cbd26daa146105c6578063d5391393146105f3578063d547741f14610615578063dd62ed3e14610635578063e023b7e51461065557600080fd5b8063a217fddf14610540578063a9059cbb14610555578063ad3cb1cc14610575578063c4d66de8146105a657600080fd5b806370a08231116100e757806370a08231146104ab57806379cc6790146104cb5780638a059bee146104eb57806391d148541461050b57806395d89b411461052b57600080fd5b80634f1ef2861461044d57806352d1902d1461046057806358950c221461047557806365a646681461048b57600080fd5b8063248a9ca31161019b57806334b6d6411161016a57806334b6d641146103ab57806336568abe146103cb5780633b4e2646146103eb57806342966c681461040d5780634cf2d0bc1461042d57600080fd5b8063248a9ca31461033957806326a39dd7146103595780632f2ff15d1461036f578063313ce5671461038f57600080fd5b80630b09a1eb116101d75780630b09a1eb146102a157806318160ddd146102cf5780631e7b51691461030357806323b872dd1461031957600080fd5b8062972f7f1461020857806301ffc9a71461022a57806306fdde031461025f578063095ea7b314610281575b600080fd5b34801561021457600080fd5b50610228610223366004611997565b610675565b005b34801561023657600080fd5b5061024a6102453660046119d0565b61083f565b60405190151581526020015b60405180910390f35b34801561026b57600080fd5b50610274610876565b6040516102569190611a01565b34801561028d57600080fd5b5061024a61029c366004611a50565b610939565b3480156102ad57600080fd5b506102c16102bc366004611a7a565b610951565b604051908152602001610256565b3480156102db57600080fd5b507f52c63247e1f47db19d5ce0460030c497f067ca4cebf71ba98eeadabe20bace02546102c1565b34801561030f57600080fd5b506102c160035481565b34801561032557600080fd5b5061024a610334366004611aad565b610aa1565b34801561034557600080fd5b506102c1610354366004611ae9565b610ac5565b34801561036557600080fd5b506102c160005481565b34801561037b57600080fd5b5061022861038a366004611b02565b610ae7565b34801561039b57600080fd5b5060405160128152602001610256565b3480156103b757600080fd5b506102286103c6366004611ae9565b610b09565b3480156103d757600080fd5b506102286103e6366004611b02565b610b56565b3480156103f757600080fd5b506102c1600080516020611de383398151915281565b34801561041957600080fd5b50610228610428366004611ae9565b610b8e565b34801561043957600080fd5b50610228610448366004611a7a565b610b9b565b61022861045b366004611b44565b610c7f565b34801561046c57600080fd5b506102c1610c9e565b34801561048157600080fd5b506102c160025481565b34801561049757600080fd5b506102286104a6366004611ae9565b610cbb565b3480156104b757600080fd5b506102c16104c6366004611c06565b610cfb565b3480156104d757600080fd5b506102286104e6366004611a50565b610d23565b3480156104f757600080fd5b50610228610506366004611ae9565b610d38565b34801561051757600080fd5b5061024a610526366004611b02565b610d7d565b34801561053757600080fd5b50610274610db5565b34801561054c57600080fd5b506102c1600081565b34801561056157600080fd5b5061024a610570366004611a50565b610df4565b34801561058157600080fd5b50610274604051806040016040528060058152602001640352e302e360dc1b81525081565b3480156105b257600080fd5b506102286105c1366004611c06565b610e02565b3480156105d257600080fd5b506102c16105e1366004611ae9565b60016020526000908152604090205481565b3480156105ff57600080fd5b506102c1600080516020611e4383398151915281565b34801561062157600080fd5b50610228610630366004611b02565b610fac565b34801561064157600080fd5b506102c1610650366004611c21565b610fc8565b34801561066157600080fd5b50610228610670366004611a7a565b611012565b600080516020611e4383398151915261068d81611075565b6002548461069a87610cfb565b6106a49190611c61565b11156106f75760405162461bcd60e51b815260206004820152601d60248201527f4b65656c546f6b656e3a20657863656564732077616c6c65742063617000000060448201526064015b60405180910390fd5b6040516bffffffffffffffffffffffff19606087901b16602082015260348101849052605481018390526000906074016040516020818303038152906040528051906020012090506003548560016000848152602001908152602001600020546107619190611c61565b11156107bd5760405162461bcd60e51b815260206004820152602560248201527f4b65656c546f6b656e3a2065786365656473206d6f6e74686c7920616c6c6f6360448201526430ba34b7b760d91b60648201526084016106ee565b600081815260016020526040812080548792906107db908490611c61565b909155506107eb9050868661107f565b60408051868152602081018690529081018490526001600160a01b038716907f6155cfd0fd028b0ca77e8495a60cbe563e8bce8611f0aad6fedbdaafc05d44a29060600160405180910390a2505050505050565b60006001600160e01b03198216637965db0b60e01b148061087057506301ffc9a760e01b6001600160e01b03198316145b92915050565b7f52c63247e1f47db19d5ce0460030c497f067ca4cebf71ba98eeadabe20bace038054606091600080516020611e03833981519152916108b590611c74565b80601f01602080910402602001604051908101604052809291908181526020018280546108e190611c74565b801561092e5780601f106109035761010080835404028352916020019161092e565b820191906000526020600020905b81548152906001019060200180831161091157829003601f168201915b505050505091505090565b6000336109478185856110b5565b5060019392505050565b6000600080516020611e4383398151915261096b81611075565b6040516bffffffffffffffffffffffff19606087901b166020820152603481018590526054810184905260009060740160408051601f19818403018152918152815160209283012060008181526001909352912054909150156109d2576000925050610a99565b60006109dd87610cfb565b905060025481106109f357600093505050610a99565b600081600254610a039190611cae565b90508060035410610a145780610a18565b6003545b945084600003610a2e5760009450505050610a99565b6000838152600160205260409020859055610a49888661107f565b60408051868152602081018990529081018790526001600160a01b038916907f6155cfd0fd028b0ca77e8495a60cbe563e8bce8611f0aad6fedbdaafc05d44a29060600160405180910390a25050505b509392505050565b600033610aaf8582856110c2565b610aba858585611123565b506001949350505050565b6000908152600080516020611e63833981519152602052604090206001015490565b610af082610ac5565b610af981611075565b610b038383611182565b50505050565b6000610b1481611075565b600382905560008290556040518281527f76c5f6d0e58a17742fe2a921dc4c4ab1bc653b772d418b07e3fb907c72c5e3fa906020015b60405180910390a15050565b6001600160a01b0381163314610b7f5760405163334bd91960e11b815260040160405180910390fd5b610b89828261122e565b505050565b610b9833826112aa565b50565b600080516020611de3833981519152610bb381611075565b60025483610bc086610cfb565b610bca9190611c61565b1115610c2a5760405162461bcd60e51b815260206004820152602960248201527f4b65656c546f6b656e3a20726566756e6420776f756c642065786365656420776044820152680616c6c6574206361760bc1b60648201526084016106ee565b610c34848461107f565b60408051848152602081018490526001600160a01b038616917fdf6a2f82cba0d26d78bf1cec65a406255e9a6ded089697adda7ecf8e657e01fa91015b60405180910390a250505050565b610c876112e0565b610c9082611387565b610c9a8282611392565b5050565b6000610ca861144f565b50600080516020611e2383398151915290565b6000610cc681611075565b60028290556040518281527f4784309e6b1f1431c711eac5e572f9ba2d542ecb5428efc0e927b794f4e8e2c190602001610b4a565b6001600160a01b03166000908152600080516020611e03833981519152602052604090205490565b610d2e8233836110c2565b610c9a82826112aa565b6000610d4381611075565b600082905560038290556040518281527f76c5f6d0e58a17742fe2a921dc4c4ab1bc653b772d418b07e3fb907c72c5e3fa90602001610b4a565b6000918252600080516020611e63833981519152602090815260408084206001600160a01b0393909316845291905290205460ff1690565b7f52c63247e1f47db19d5ce0460030c497f067ca4cebf71ba98eeadabe20bace048054606091600080516020611e03833981519152916108b590611c74565b600033610947818585611123565b6000610e0c611498565b805490915060ff600160401b820416159067ffffffffffffffff16600081158015610e345750825b905060008267ffffffffffffffff166001148015610e515750303b155b905081158015610e5f575080155b15610e7d5760405163f92ee8a960e01b815260040160405180910390fd5b845467ffffffffffffffff191660011785558315610ea757845460ff60401b1916600160401b1785555b610eef6040518060400160405280600a81526020016925b2b2b6102a37b5b2b760b11b8152506040518060400160405280600481526020016312d1515360e21b8152506114c1565b610ef76114d3565b610eff6114d3565b68056bc75e2d631000006000818155681043561a8829300000600255600391909155610f2b9087611182565b50610f44600080516020611e4383398151915287611182565b50610f5d600080516020611de383398151915287611182565b508315610fa457845460ff60401b19168555604051600181527fc7f505b2f371ae2175ee4913f4499e1f2633a7b5936321eed1cdaeb6115181d29060200160405180910390a15b505050505050565b610fb582610ac5565b610fbe81611075565b610b03838361122e565b6001600160a01b0391821660009081527f52c63247e1f47db19d5ce0460030c497f067ca4cebf71ba98eeadabe20bace016020908152604080832093909416825291909152205490565b600080516020611de383398151915261102a81611075565b61103484846112aa565b60408051848152602081018490526001600160a01b038616917f91092d853d5aee7e7f449f0a7ce64c055e863f2cf9c9c594aa080aec40fea7209101610c71565b610b9881336114db565b6001600160a01b0382166110a95760405163ec442f0560e01b8152600060048201526024016106ee565b610c9a60008383611514565b610b898383836001611652565b60006110ce8484610fc8565b9050600019811015610b03578181101561111457604051637dc7a0d960e11b81526001600160a01b038416600482015260248101829052604481018390526064016106ee565b610b0384848484036000611652565b6001600160a01b03831661114d57604051634b637e8f60e11b8152600060048201526024016106ee565b6001600160a01b0382166111775760405163ec442f0560e01b8152600060048201526024016106ee565b610b89838383611514565b6000600080516020611e6383398151915261119d8484610d7d565b61121d576000848152602082815260408083206001600160a01b03871684529091529020805460ff191660011790556111d33390565b6001600160a01b0316836001600160a01b0316857f2f8788117e7eff1d82e926ec794901d17c78024a50270940304540a733656f0d60405160405180910390a46001915050610870565b6000915050610870565b5092915050565b6000600080516020611e638339815191526112498484610d7d565b1561121d576000848152602082815260408083206001600160a01b0387168085529252808320805460ff1916905551339287917ff6391f5c32d9c69d2a47ea670b442974b53935d1edc7fd64eb21e047a839171b9190a46001915050610870565b6001600160a01b0382166112d457604051634b637e8f60e11b8152600060048201526024016106ee565b610c9a82600083611514565b306001600160a01b037f000000000000000000000000000000000000000000000000000000000000000016148061136757507f00000000000000000000000000000000000000000000000000000000000000006001600160a01b031661135b600080516020611e23833981519152546001600160a01b031690565b6001600160a01b031614155b156113855760405163703e46dd60e11b815260040160405180910390fd5b565b6000610c9a81611075565b816001600160a01b03166352d1902d6040518163ffffffff1660e01b8152600401602060405180830381865afa9250505080156113ec575060408051601f3d908101601f191682019092526113e991810190611cc1565b60015b61141457604051634c9c8ce360e01b81526001600160a01b03831660048201526024016106ee565b600080516020611e23833981519152811461144557604051632a87526960e21b8152600481018290526024016106ee565b610b89838361173a565b306001600160a01b037f000000000000000000000000000000000000000000000000000000000000000016146113855760405163703e46dd60e11b815260040160405180910390fd5b6000807ff0c57e16840df040f15088dc2f81fe391c3923bec73e23a9662efc9c229c6a00610870565b6114c9611790565b610c9a82826117b5565b611385611790565b6114e58282610d7d565b610c9a5760405163e2517d3f60e01b81526001600160a01b0382166004820152602481018390526044016106ee565b600080516020611e038339815191526001600160a01b03841661155057818160020160008282546115459190611c61565b909155506115c29050565b6001600160a01b038416600090815260208290526040902054828110156115a35760405163391434e360e21b81526001600160a01b038616600482015260248101829052604481018490526064016106ee565b6001600160a01b03851660009081526020839052604090209083900390555b6001600160a01b0383166115e05760028101805483900390556115ff565b6001600160a01b03831660009081526020829052604090208054830190555b826001600160a01b0316846001600160a01b03167fddf252ad1be2c89b69c2b068fc378daa952ba7f163c4a11628f55a4df523b3ef8460405161164491815260200190565b60405180910390a350505050565b600080516020611e038339815191526001600160a01b03851661168b5760405163e602df0560e01b8152600060048201526024016106ee565b6001600160a01b0384166116b557604051634a1406b160e11b8152600060048201526024016106ee565b6001600160a01b0380861660009081526001830160209081526040808320938816835292905220839055811561173357836001600160a01b0316856001600160a01b03167f8c5be1e5ebec7d5bd14f71427d1e84f3dd0314c0f7b2291e5b200ac8c7c3b9258560405161172a91815260200190565b60405180910390a35b5050505050565b61174382611806565b6040516001600160a01b038316907fbc7cd75a20ee27fd9adebab32041f755214dbc6bffa90cc0225b39da2e5c2d3b90600090a280511561178857610b89828261186b565b610c9a611907565b611798611926565b61138557604051631afcd79f60e31b815260040160405180910390fd5b6117bd611790565b600080516020611e038339815191527f52c63247e1f47db19d5ce0460030c497f067ca4cebf71ba98eeadabe20bace036117f78482611d22565b5060048101610b038382611d22565b806001600160a01b03163b60000361183c57604051634c9c8ce360e01b81526001600160a01b03821660048201526024016106ee565b600080516020611e2383398151915280546001600160a01b0319166001600160a01b0392909216919091179055565b606060006118798484611940565b905080801561189c575060003d118061189c57506000846001600160a01b03163b115b156118b1576118a9611955565b915050610870565b80156118db57604051639996b31560e01b81526001600160a01b03851660048201526024016106ee565b3d156118ee576118e961196f565b611227565b60405163d6bda27560e01b815260040160405180910390fd5b34156113855760405163b398979f60e01b815260040160405180910390fd5b6000611930611498565b54600160401b900460ff16919050565b6000806000835160208501865af49392505050565b6040513d81523d6000602083013e3d602001810160405290565b6040513d6000823e3d81fd5b80356001600160a01b038116811461199257600080fd5b919050565b600080600080608085870312156119ad57600080fd5b6119b68561197b565b966020860135965060408601359560600135945092505050565b6000602082840312156119e257600080fd5b81356001600160e01b0319811681146119fa57600080fd5b9392505050565b60006020808352835180602085015260005b81811015611a2f57858101830151858201604001528201611a13565b506000604082860101526040601f19601f8301168501019250505092915050565b60008060408385031215611a6357600080fd5b611a6c8361197b565b946020939093013593505050565b600080600060608486031215611a8f57600080fd5b611a988461197b565b95602085013595506040909401359392505050565b600080600060608486031215611ac257600080fd5b611acb8461197b565b9250611ad96020850161197b565b9150604084013590509250925092565b600060208284031215611afb57600080fd5b5035919050565b60008060408385031215611b1557600080fd5b82359150611b256020840161197b565b90509250929050565b634e487b7160e01b600052604160045260246000fd5b60008060408385031215611b5757600080fd5b611b608361197b565b9150602083013567ffffffffffffffff80821115611b7d57600080fd5b818501915085601f830112611b9157600080fd5b813581811115611ba357611ba3611b2e565b604051601f8201601f19908116603f01168101908382118183101715611bcb57611bcb611b2e565b81604052828152886020848701011115611be457600080fd5b8260208601602083013760006020848301015280955050505050509250929050565b600060208284031215611c1857600080fd5b6119fa8261197b565b60008060408385031215611c3457600080fd5b611c3d8361197b565b9150611b256020840161197b565b634e487b7160e01b600052601160045260246000fd5b8082018082111561087057610870611c4b565b600181811c90821680611c8857607f821691505b602082108103611ca857634e487b7160e01b600052602260045260246000fd5b50919050565b8181038181111561087057610870611c4b565b600060208284031215611cd357600080fd5b5051919050565b601f821115610b89576000816000526020600020601f850160051c81016020861015611d035750805b601f850160051c820191505b81811015610fa457828155600101611d0f565b815167ffffffffffffffff811115611d3c57611d3c611b2e565b611d5081611d4a8454611c74565b84611cda565b602080601f831160018114611d855760008415611d6d5750858301515b600019600386901b1c1916600185901b178555610fa4565b600085815260208120601f198616915b82811015611db457888601518255948401946001909101908401611d95565b5085821015611dd25787850151600019600388901b60f8161c191681555b5050505050600190811b0190555056fed9ec6f45433bd3741734a224ab231970b6c603c2b3bfc8f78bb4db5db683ea8452c63247e1f47db19d5ce0460030c497f067ca4cebf71ba98eeadabe20bace00360894a13ba1a3210667c828492db98dca3e2076cc3735a920a3ca505d382bbc9f2df0fed2c77648de5860a4cc508cd0818c85b8b8a1ab4ceeef8d981c8956a602dd7bc7dec4dceedda775e58dd541e08a116c6c53815c0bd028192f7b626800a26469706673582212207a03c58a1491a66165d17d8e390845d8e3c9e8b6e405d570a3b0543209f8af1664736f6c63430008180033",
  "linkReferences": {},
  "deployedLinkReferences": {}
}