{
  "_format": "hh-sol-artifact-1",
  "contractName": "KeelToken",
  "sourceName": "contracts/KeelToken.sol",
  "abi": [
    {
      "inputs": [],
      "stateMutability": "nonpayable",
      "type": "constructor"
    },
    {
      "inputs": [],
      "name": "AccessControlBadConfirmation",
      "type": "error"
    },
    {
      "inputs": [
        {
          "internalType": "address",
          "name": "account",
          "type": "address"
        },
        {
          "internalType": "bytes32",
          "name": "neededRole",
          "type": "bytes32"
        }
      ],
      "name": "AccessControlUnauthorizedAccount",
      "type": "error"
    },
    {
      "inputs": [
        {
          "internalType": "address",
          "name": "target",
          "type": "address"
        }
      ],
      "name": "AddressEmptyCode",
      "type": "error"
    },
    {
      "inputs": [
        {
          "internalType": "address",
          "name": "implementation",
          "type": "address"
        }
      ],
      "name": "ERC1967InvalidImplementation",
      "type": "error"
    },
    {
      "inputs": [],
      "name": "ERC1967NonPayable",
      "type": "error"
    },
    {
      "inputs": [
        {
          "internalType": "address",
          "name": "spender",
          "type": "address"
        },
        {
          "internalType": "uint256",
          "name": "allowance",
          "type": "uint256"
        },
        {
          "internalType": "uint256",
          "name": "needed",
          "type": "uint256"
        }
      ],
      "name": "ERC20InsufficientAllowance",
      "type": "error"
    },
    {
      "inputs": [
        {
          "internalType": "address",
          "name": "sender",
          "type": "address"
        },
        {
          "internalType": "uint256",
          "name": "balance",
          "type": "uint256"
        },
        {
          "internalType": "uint256",
          "name": "needed",
          "type": "uint256"
        }
      ],
      "name": "ERC20InsufficientBalance",
      "type": "error"
    },
    {
      "inputs": [
        {
          "internalType": "address",
          "name": "approver",
          "type": "address"
        }
      ],
      "name": "ERC20InvalidApprover",
      "type": "error"
    },
    {
      "inputs": [
        {
          "internalType": "address",
          "name": "receiver",
          "type": "address"
        }
      ],
      "name": "ERC20InvalidReceiver",
      "type": "error"
    },
    {
      "inputs": [
        {
          "internalType": "address",
          "name": "sender",
          "type": "address"
        }
      ],
      "name": "ERC20InvalidSender",
      "type": "error"
    },
    {
      "inputs": [
        {
          "internalType": "address",
          "name": "spender",
          "type": "address"
        }
      ],
      "name": "ERC20InvalidSpender",
      "type": "error"
    },
    {
      "inputs": [],
      "name": "FailedCall",
      "type": "error"
    },
    {
      "inputs": [],
      "name": "InvalidInitialization",
      "type": "error"
    },
    {
      "inputs": [],
      "name": "NotInitializing",
      "type": "error"
    },
    {
      "inputs": [],
      "name": "UUPSUnauthorizedCallContext",
      "type": "error"
    },
    {
      "inputs": [
        {
          "internalType": "bytes32",
          "name": "slot",
          "type": "bytes32"
        }
      ],
      "name": "UUPSUnsupportedProxiableUUID",
      "type": "error"
    },
    {
      "anonymous": false,
      "inputs": [
        {
          "indexed": true,
          "internalType": "address",
          "name": "owner",
          "type": "address"
        },
        {
          "indexed": true,
          "internalType": "address",
          "name": "spender",
          "type": "address"
        },
        {
          "indexed": false,
          "internalType": "uint256",
          "name": "value",
          "type": "uint256"
        }
      ],
      "name": "Approval",
      "type": "event"
    },
    {
      "anonymous": false,
      "inputs": [
        {
          "indexed": false,
          "internalType": "uint256",
          "name": "newDuration",
          "type": "uint256"
        }
      ],
      "name": "ExpiryDurationUpdated",
      "type": "event"
    },
    {
      "anonymous": false,
      "inputs": [
        {
          "indexed": false,
          "internalType": "uint64",
          "name": "version",
          "type": "uint64"
        }
      ],
      "name": "Initialized",
      "type": "event"
    },
    {
      "anonymous": false,
      "inputs": [
        {
          "indexed": false,
          "internalType": "uint256",
          "name": "newAmount",
          "type": "uint256"
        }
      ],
      "name": "MonthlyAllocationUpdated",
      "type": "event"
    },
    {
      "anonymous": false,
      "inputs": [
        {
          "indexed": true,
          "internalType": "bytes32",
          "name": "role",
          "type": "bytes32"
        },
        {
          "indexed": true,
          "internalType": "bytes32",
          "name": "previousAdminRole",
          "type": "bytes32"
        },
        {
          "indexed": true,
          "internalType": "bytes32",
          "name": "newAdminRole",
          "type": "bytes32"
        }
      ],
      "name": "RoleAdminChanged",
      "type": "event"
    },
    {
      "anonymous": false,
      "inputs": [
        {
          "indexed": true,
          "internalType": "bytes32",
          "name": "role",
          "type": "bytes32"
        },
        {
          "indexed": true,
          "internalType": "address",
          "name": "account",
          "type": "address"
        },
        {
          "indexed": true,
          "internalType": "address",
          "name": "sender",
          "type": "address"
        }
      ],
      "name": "RoleGranted",
      "type": "event"
    },
    {
      "anonymous": false,
      "inputs": [
        {
          "indexed": true,
          "internalType": "bytes32",
          "name": "role",
          "type": "bytes32"
        },
        {
          "indexed": true,
          "internalType": "address",
          "name": "account",
          "type": "address"
        },
        {
          "indexed": true,
          "internalType": "address",
          "name": "sender",
          "type": "address"
        }
      ],
      "name": "RoleRevoked",
      "type": "event"
    },
    {
      "anonymous": false,
      "inputs": [
        {
          "indexed": true,
          "internalType": "address",
          "name": "member",
          "type": "address"
        },
        {
          "indexed": false,
          "internalType": "uint256",
          "name": "amount",
          "type": "uint256"
        },
        {
          "indexed": false,
          "internalType": "bytes32",
          "name": "tripId",
          "type": "bytes32"
        }
      ],
      "name": "TokensBurnedForUsage",
      "type": "event"
    },
    {
      "anonymous": false,
      "inputs": [
        {
          "indexed": true,
          "internalType": "address",
          "name": "member",
          "type": "address"
        },
        {
          "indexed": false,
          "internalType": "uint256",
          "name": "amount",
          "type": "uint256"
        }
      ],
      "name": "TokensExpired",
      "type": "event"
    },
    {
      "anonymous": false,
      "inputs": [
        {
          "indexed": true,
          "internalType": "address",
          "name": "to",
          "type": "address"
        },
        {
          "indexed": false,
          "internalType": "uint256",
          "name": "amount",
          "type": "uint256"
        },
        {
          "indexed": false,
          "internalType": "uint256",
          "name": "year",
          "type": "uint256"
        },
        {
          "indexed": false,
          "internalType": "uint256",
          "name": "month",
          "type": "uint256"
        }
      ],
      "name": "TokensMinted",
      "type": "event"
    },
    {
      "anonymous": false,
      "inputs": [
        {
          "indexed": true,
          "internalType": "address",
          "name": "member",
          "type": "address"
        },
        {
          "indexed": false,
          "internalType": "uint256",
          "name": "amount",
          "type": "uint256"
        },
        {
          "indexed": false,
          "internalType": "bytes32",
          "name": "tripId",
          "type": "bytes32"
        }
      ],
      "name": "TokensRefunded",
      "type": "event"
    },
    {
      "anonymous": false,
      "inputs": [
        {
          "indexed": true,
          "internalType": "address",
          "name": "from",
          "type": "address"
        },
        {
          "indexed": true,
          "internalType": "address",
          "name": "to",
          "type": "address"
        },
        {
          "indexed": false,
          "internalType": "uint256",
          "name": "value",
          "type": "uint256"
        }
      ],
      "name": "Transfer",
      "type": "event"
    },
    {
      "anonymous": false,
      "inputs": [
        {
          "indexed": true,
          "internalType": "address",
          "name": "implementation",
          "type": "address"
        }
      ],
      "name": "Upgraded",
      "type": "event"
    },
    {
      "anonymous": false,
      "inputs": [
        {
          "indexed": false,
          "internalType": "uint256",
          "name": "newCap",
          "type": "uint256"
        }
      ],
      "name": "WalletCapUpdated",
      "type": "event"
    },
    {
      "inputs": [],
      "name": "DEFAULT_ADMIN_ROLE",
      "outputs": [
        {
          "internalType": "bytes32",
          "name": "",
          "type": "bytes32"
        }
      ],
      "stateMutability": "view",
      "type": "function"
    },
    {
      "inputs": [],
      "name": "LEDGER_ROLE",
      "outputs": [
        {
          "internalType": "bytes32",
          "name": "",
          "type": "bytes32"
        }
      ],
      "stateMutability": "view",
      "type": "function"
    },
    {
      "inputs": [],
      "name": "MINTER_ROLE",
      "outputs": [
        {
          "internalType": "bytes32",
          "name": "",
          "type": "bytes32"
        }
      ],
      "stateMutability": "view",
      "type": "function"
    },
    {
      "inputs": [],
      "name": "UPGRADE_INTERFACE_VERSION",
      "outputs": [
        {
          "internalType": "string",
          "name": "",
          "type": "string"
        }
      ],
      "stateMutability": "view",
      "type": "function"
    },
    {
      "inputs": [
        {
          "internalType": "address",
          "name": "owner",
          "type": "address"
        },
        {
          "internalType": "address",
          "name": "spender",
          "type": "address"
        }
      ],
      "name": "allowance",
      "outputs": [
        {
          "internalType": "uint256",
          "name": "",
          "type": "uint256"
        }
      ],
      "stateMutability": "view",
      "type": "function"
    },
    {
      "inputs": [
        {
          "internalType": "address",
          "name": "spender",
          "type": "address"
        },
        {
          "internalType": "uint256",
          "name": "value",
          "type": "uint256"
        }
      ],
      "name": "approve",
      "outputs": [
        {
          "internalType": "bool",
          "name": "",
          "type": "bool"
        }
      ],
      "stateMutability": "nonpayable",
      "type": "function"
    },
    {
      "inputs": [
        {
          "internalType": "address",
          "name": "account",
          "type": "address"
        }
      ],
      "name": "balanceOf",
      "outputs": [
        {
          "internalType": "uint256",
          "name": "",
          "type": "uint256"
        }
      ],
      "stateMutability": "view",
      "type": "function"
    },
    {
      "inputs": [
        {
          "internalType": "uint256",
          "name": "amount",
          "type": "uint256"
        }
      ],
      "name": "burn",
      "outputs": [],
      "stateMutability": "nonpayable",
      "type": "function"
    },
    {
      "inputs": [
        {
          "internalType": "address",
          "name": "member",
          "type": "address"
        },
        {
          "internalType": "uint256",
          "name": "amount",
          "type": "uint256"
        },
        {
          "internalType": "bytes32",
          "name": "tripId",
          "type": "bytes32"
        }
      ],
      "name": "burnForUsage",
      "outputs": [],
      "stateMutability": "nonpayable",
      "type": "function"
    },
    {
      "inputs": [
        {
          "internalType": "address",
          "name": "account",
          "type": "address"
        },
        {
          "internalType": "uint256",
          "name": "amount",
          "type": "uint256"
        }
      ],
      "name": "burnFrom",
      "outputs": [],
      "stateMutability": "nonpayable",
      "type": "function"
    },
    {
      "inputs": [],
      "name": "decimals",
      "outputs": [
        {
          "internalType": "uint8",
          "name": "",
          "type": "uint8"
        }
      ],
      "stateMutability": "view",
      "type": "function"
    },
    {
      "inputs": [
        {
          "internalType": "address",
          "name": "member",
          "type": "address"
        },
        {
          "internalType": "uint256",
          "name": "window",
          "type": "uint256"
        }
      ],
      "name": "expiringWithin",
      "outputs": [
        {
          "internalType": "uint256",
          "name": "amount",
          "type": "uint256"
        }
      ],
      "stateMutability": "view",
      "type": "function"
    },
    {
      "inputs": [],
      "name": "expiryDuration",
      "outputs": [
        {
          "internalType": "uint256",
          "name": "",
          "type": "uint256"
        }
      ],
      "stateMutability": "view",
      "type": "function"
    },
    {
      "inputs": [
        {
          "internalType": "bytes32",
          "name": "role",
          "type": "bytes32"
        }
      ],
      "name": "getRoleAdmin",
      "outputs": [
        {
          "internalType": "bytes32",
          "name": "",
          "type": "bytes32"
        }
      ],
      "stateMutability": "view",
      "type": "function"
    },
    {
      "inputs": [
        {
          "internalType": "bytes32",
          "name": "role",
          "type": "bytes32"
        },
        {
          "internalType": "address",
          "name": "account",
          "type": "address"
        }
      ],
      "name": "grantRole",
      "outputs": [],
      "stateMutability": "nonpayable",
      "type": "function"
    },
    {
      "inputs": [
        {
          "internalType": "bytes32",
          "name": "role",
          "type": "bytes32"
        },
        {
          "internalType": "address",
          "name": "account",
          "type": "address"
        }
      ],
      "name": "hasRole",
      "outputs": [
        {
          "internalType": "bool",
          "name": "",
          "type": "bool"
        }
      ],
      "stateMutability": "view",
      "type": "function"
    },
    {
      "inputs": [
        {
          "internalType": "address",
          "name": "admin",
          "type": "address"
        }
      ],
      "name": "initialize",
      "outputs": [],
      "stateMutability": "nonpayable",
      "type": "function"
    },
    {
      "inputs": [
        {
          "internalType": "address",
          "name": "member",
          "type": "address"
        },
        {
          "internalType": "uint256",
          "name": "year",
          "type": "uint256"
        },
        {
          "internalType": "uint256",
          "name": "month",
          "type": "uint256"
        }
      ],
      "name": "issueMonthlyAllocation",
      "outputs": [
        {
          "internalType": "uint256",
          "name": "issued",
          "type": "uint256"
        }
      ],
      "stateMutability": "nonpayable",
      "type": "function"
    },
    {
      "inputs": [
        {
          "internalType": "address",
          "name": "member",
          "type": "address"
        },
        {
          "internalType": "uint256",
          "name": "amount",
          "type": "uint256"
        },
        {
          "internalType": "uint256",
          "name": "year",
          "type": "uint256"
        },
        {
          "internalType": "uint256",
          "name": "month",
          "type": "uint256"
        }
      ],
      "name": "mintMonthlyAllocation",
      "outputs": [],
      "stateMutability": "nonpayable",
      "type": "function"
    },
    {
      "inputs": [],
      "name": "monthlyAllocation",
      "outputs": [
        {
          "internalType": "uint256",
          "name": "",
          "type": "uint256"
        }
      ],
      "stateMutability": "view",
      "type": "function"
    },
    {
      "inputs": [],
      "name": "monthlyIssuanceCap",
      "outputs": [
        {
          "internalType": "uint256",
          "name": "",
          "type": "uint256"
        }
      ],
      "stateMutability": "view",
      "type": "function"
    },
    {
      "inputs": [
        {
          "internalType": "bytes32",
          "name": "",
          "type": "bytes32"
        }
      ],
      "name": "monthlyMinted",
      "outputs": [
        {
          "internalType": "uint256",
          "name": "",
          "type": "uint256"
        }
      ],
      "stateMutability": "view",
      "type": "function"
    },
    {
      "inputs": [],
      "name": "name",
      "outputs": [
        {
          "internalType": "string",
          "name": "",
          "type": "string"
        }
      ],
      "stateMutability": "view",
      "type": "function"
    },
    {
      "inputs": [
        {
          "internalType": "address",
          "name": "member",
          "type": "address"
        }
      ],
      "name": "nextExpiryAt",
      "outputs": [
        {
          "internalType": "uint64",
          "name": "",
          "type": "uint64"
        }
      ],
      "stateMutability": "view",
      "type": "function"
    },
    {
      "inputs": [
        {
          "internalType": "address",
          "name": "member",
          "type": "address"
        }
      ],
      "name": "pendingExpiry",
      "outputs": [
        {
          "internalType": "uint256",
          "name": "amount",
          "type": "uint256"
        }
      ],
      "stateMutability": "view",
      "type": "function"
    },
    {
      "inputs": [],
      "name": "proxiableUUID",
      "outputs": [
        {
          "internalType": "bytes32",
          "name": "",
          "type": "bytes32"
        }
      ],
      "stateMutability": "view",
      "type": "function"
    },
    {
      "inputs": [
        {
          "internalType": "address",
          "name": "member",
          "type": "address"
        },
        {
          "internalType": "uint256",
          "name": "amount",
          "type": "uint256"
        },
        {
          "internalType": "bytes32",
          "name": "tripId",
          "type": "bytes32"
        }
      ],
      "name": "refundCancellation",
      "outputs": [],
      "stateMutability": "nonpayable",
      "type": "function"
    },
    {
      "inputs": [
        {
          "internalType": "bytes32",
          "name": "role",
          "type": "bytes32"
        },
        {
          "internalType": "address",
          "name": "callerConfirmation",
          "type": "address"
        }
      ],
      "name": "renounceRole",
      "outputs": [],
      "stateMutability": "nonpayable",
      "type": "function"
    },
    {
      "inputs": [
        {
          "internalType": "bytes32",
          "name": "role",
          "type": "bytes32"
        },
        {
          "internalType": "address",
          "name": "account",
          "type": "address"
        }
      ],
      "name": "revokeRole",
      "outputs": [],
      "stateMutability": "nonpayable",
      "type": "function"
    },
    {
      "inputs": [
        {
          "internalType": "uint256",
          "name": "newDuration",
          "type": "uint256"
        }
      ],
      "name": "setExpiryDuration",
      "outputs": [],
      "stateMutability": "nonpayable",
      "type": "function"
    },
    {
      "inputs": [
        {
          "internalType": "uint256",
          "name": "newAmount",
          "type": "uint256"
        }
      ],
      "name": "setMonthlyAllocation",
      "outputs": [],
      "stateMutability": "nonpayable",
      "type": "function"
    },
    {
      "inputs": [
        {
          "internalType": "uint256",
          "name": "newCap",
          "type": "uint256"
        }
      ],
      "name": "setMonthlyIssuanceCap",
      "outputs": [],
      "stateMutability": "nonpayable",
      "type": "function"
    },
    {
      "inputs": [
        {
          "internalType": "uint256",
          "name": "newCap",
          "type": "uint256"
        }
      ],
      "name": "setWalletCap",
      "outputs": [],
      "stateMutability": "nonpayable",
      "type": "function"
    },
    {
      "inputs": [
        {
          "internalType": "bytes4",
          "name": "interfaceId",
          "type": "bytes4"
        }
      ],
      "name": "supportsInterface",
      "outputs": [
        {
          "internalType": "bool",
          "name": "",
          "type": "bool"
        }
      ],
      "stateMutability": "view",
      "type": "function"
    },
    {
      "inputs": [
        {
          "internalType": "address",
          "name": "member",
          "type": "address"
        }
      ],
      "name": "sweepExpired",
      "outputs": [
        {
          "internalType": "uint256",
          "name": "",
          "type": "uint256"
        }
      ],
      "stateMutability": "nonpayable",
      "type": "function"
    },
    {
      "inputs": [],
      "name": "symbol",
      "outputs": [
        {
          "internalType": "string",
          "name": "",
          "type": "string"
        }
      ],
      "stateMutability": "view",
      "type": "function"
    },
    {
      "inputs": [],
      "name": "totalSupply",
      "outputs": [
        {
          "internalType": "uint256",
          "name": "",
          "type": "uint256"
        }
      ],
      "stateMutability": "view",
      "type": "function"
    },
    {
      "inputs": [
        {
          "internalType": "address",
          "name": "to",
          "type": "address"
        },
        {
          "internalType": "uint256",
          "name": "value",
          "type": "uint256"
        }
      ],
      "name": "transfer",
      "outputs": [
        {
          "internalType": "bool",
          "name": "",
          "type": "bool"
        }
      ],
      "stateMutability": "nonpayable",
      "type": "function"
    },
    {
      "inputs": [
        {
          "internalType": "address",
          "name": "from",
          "type": "address"
        },
        {
          "internalType": "address",
          "name": "to",
          "type": "address"
        },
        {
          "internalType": "uint256",
          "name": "value",
          "type": "uint256"
        }
      ],
      "name": "transferFrom",
      "outputs": [
        {
          "internalType": "bool",
          "name": "",
          "type": "bool"
        }
      ],
      "stateMutability": "nonpayable",
      "type": "function"
    },
    {
      "inputs": [
        {
          "internalType": "address",
          "name": "newImplementation",
          "type": "address"
        },
        {
          "internalType": "bytes",
          "name": "data",
          "type": "bytes"
        }
      ],
      "name": "upgradeToAndCall",
      "outputs": [],
      "stateMutability": "payable",
      "type": "function"
    },
    {
      "inputs": [],
      "name": "walletCap",
      "outputs": [
        {
          "internalType": "uint256",
          "name": "",
          "type": "uint256"
        }
      ],
      "stateMutability": "view",
      "type": "function"
    }
  ],
  "bytecode": "0x60a0604052306080523480156200001557600080fd5b506200002062000026565b620000da565b7ff0c57e16840df040f15088dc2f81fe391c3923bec73e23a9662efc9c229c6a00805468010000000000000000900460ff1615620000775760405163f92ee8a960e01b815260040160405180910390fd5b80546001600160401b0390811614620000d75780546001600160401b0319166001600160401b0390811782556040519081527fc7f505b2f371ae2175ee4913f4499e1f2633a7b5936321eed1cdaeb6115181d29060200160405180910390a15b50565b6080516126f76200010460003960008181611a2101528181611a4a0152611b9001526126f76000f3fe6080604052600436106102455760003560e01c806352d1902d11610139578063a217fddf116100b6578063cbd26daa1161007a578063cbd26daa1461069e578063d5391393146106cb578063d547741f146106ed578063dd62ed3e1461070d578063e023b7e51461072d578063f7f712ad1461074d57600080fd5b8063a217fddf14610602578063a9059cbb14610617578063ad3cb1cc14610637578063b3ee142414610668578063c4d66de81461067e57600080fd5b80638a059bee116100fd5780638a059bee1461056d57806391d148541461058d578063959f96f1146105ad57806395d89b41146105cd5780639c20a0db146105e257600080fd5b806352d1902d146104e257806358950c22146104f757806365a646681461050d57806370a082311461052d57806379cc67901461054d57600080fd5b8063248a9ca3116101c757806336568abe1161018b57806336568abe1461044d5780633b4e26461461046d57806342966c681461048f5780634cf2d0bc146104af5780634f1ef286146104cf57600080fd5b8063248a9ca3146103bb57806326a39dd7146103db5780632f2ff15d146103f1578063313ce5671461041157806334b6d6411461042d57600080fd5b8063155028401161020e578063155028401461031157806318160ddd146103315780631e7b516914610365578063232c2b521461037b57806323b872dd1461039b57600080fd5b8062972f7f1461024a57806301ffc9a71461026c57806306fdde03146102a1578063095ea7b3146102c35780630b09a1eb146102e3575b600080fd5b34801561025657600080fd5b5061026a6102653660046121a7565b610786565b005b34801561027857600080fd5b5061028c6102873660046121e0565b610964565b60405190151581526020015b60405180910390f35b3480156102ad57600080fd5b506102b661099b565b6040516102989190612211565b3480156102cf57600080fd5b5061028c6102de366004612260565b610a5e565b3480156102ef57600080fd5b506103036102fe36600461228a565b610a76565b604051908152602001610298565b34801561031d57600080fd5b5061026a61032c3660046122bd565b610bda565b34801561033d57600080fd5b507f52c63247e1f47db19d5ce0460030c497f067ca4cebf71ba98eeadabe20bace0254610303565b34801561037157600080fd5b5061030360035481565b34801561038757600080fd5b506103036103963660046122d6565b610c72565b3480156103a757600080fd5b5061028c6103b63660046122f1565b610d20565b3480156103c757600080fd5b506103036103d63660046122bd565b610d44565b3480156103e757600080fd5b5061030360005481565b3480156103fd57600080fd5b5061026a61040c36600461232d565b610d66565b34801561041d57600080fd5b5060405160128152602001610298565b34801561043957600080fd5b5061026a6104483660046122bd565b610d88565b34801561045957600080fd5b5061026a61046836600461232d565b610dcd565b34801561047957600080fd5b5061030360008051602061262283398151915281565b34801561049b57600080fd5b5061026a6104aa3660046122bd565b610e05565b3480156104bb57600080fd5b5061026a6104ca36600461228a565b610e25565b61026a6104dd36600461236f565b610f1d565b3480156104ee57600080fd5b50610303610f3c565b34801561050357600080fd5b5061030360025481565b34801561051957600080fd5b5061026a6105283660046122bd565b610f59565b34801561053957600080fd5b506103036105483660046122d6565b610f99565b34801561055957600080fd5b5061026a610568366004612260565b610fc1565b34801561057957600080fd5b5061026a6105883660046122bd565b610fdf565b34801561059957600080fd5b5061028c6105a836600461232d565b611024565b3480156105b957600080fd5b506103036105c8366004612260565b61105c565b3480156105d957600080fd5b506102b6611128565b3480156105ee57600080fd5b506103036105fd3660046122d6565b611167565b34801561060e57600080fd5b50610303600081565b34801561062357600080fd5b5061028c610632366004612260565b611172565b34801561064357600080fd5b506102b6604051806040016040528060058152602001640352e302e360dc1b81525081565b34801561067457600080fd5b5061030360065481565b34801561068a57600080fd5b5061026a6106993660046122d6565b611180565b3480156106aa57600080fd5b506103036106b93660046122bd565b60016020526000908152604090205481565b3480156106d757600080fd5b5061030360008051602061268283398151915281565b3480156106f957600080fd5b5061026a61070836600461232d565b611331565b34801561071957600080fd5b50610303610728366004612431565b61134d565b34801561073957600080fd5b5061026a61074836600461228a565b611397565b34801561075957600080fd5b5061076d6107683660046122d6565b61140e565b60405167ffffffffffffffff9091168152602001610298565b60008051602061268283398151915261079e81611478565b6107a785611482565b50600254846107b587610f99565b6107bf9190612471565b11156108125760405162461bcd60e51b815260206004820152601d60248201527f4b65656c546f6b656e3a20657863656564732077616c6c65742063617000000060448201526064015b60405180910390fd5b6040516bffffffffffffffffffffffff19606087901b166020820152603481018490526054810183905260009060740160405160208183030381529060405280519060200120905060035485600160008481526020019081526020016000205461087c9190612471565b11156108d85760405162461bcd60e51b815260206004820152602560248201527f4b65656c546f6b656e3a2065786365656473206d6f6e74686c7920616c6c6f6360448201526430ba34b7b760d91b6064820152608401610809565b600081815260016020526040812080548792906108f6908490612471565b90915550610906905086866115f7565b610910868661162d565b60408051868152602081018690529081018490526001600160a01b038716907f6155cfd0fd028b0ca77e8495a60cbe563e8bce8611f0aad6fedbdaafc05d44a29060600160405180910390a2505050505050565b60006001600160e01b03198216637965db0b60e01b148061099557506301ffc9a760e01b6001600160e01b03198316145b92915050565b7f52c63247e1f47db19d5ce0460030c497f067ca4cebf71ba98eeadabe20bace038054606091600080516020612642833981519152916109da90612484565b80601f0160208091040260200160405190810160405280929190818152602001828054610a0690612484565b8015610a535780601f10610a2857610100808354040283529160200191610a53565b820191906000526020600020905b815481529060010190602001808311610a3657829003601f168201915b505050505091505090565b600033610a6c8185856116d6565b5060019392505050565b6000600080516020612682833981519152610a9081611478565b6040516bffffffffffffffffffffffff19606087901b166020820152603481018590526054810184905260009060740160408051601f1981840301815291815281516020928301206000818152600190935291205490915015610af7576000925050610bd2565b610b0086611482565b506000610b0c87610f99565b90506002548110610b2257600093505050610bd2565b600081600254610b3291906124be565b90508060035410610b435780610b47565b6003545b945084600003610b5d5760009450505050610bd2565b6000838152600160205260409020859055610b7888866115f7565b610b82888661162d565b60408051868152602081018990529081018790526001600160a01b038916907f6155cfd0fd028b0ca77e8495a60cbe563e8bce8611f0aad6fedbdaafc05d44a29060600160405180910390a25050505b509392505050565b6000610be581611478565b60008211610c355760405162461bcd60e51b815260206004820152601860248201527f4b65656c546f6b656e3a207a65726f206475726174696f6e00000000000000006044820152606401610809565b60068290556040518281527ff378a0fd4ad3ffd9d7d50986f16b04acd2dc42691c4f412f34e8eefe883e6652906020015b60405180910390a15050565b6001600160a01b038116600090815260046020908152604080832060059092528220545b8154811015610d195742828281548110610cb257610cb26124d1565b600091825260209091200154600160801b900467ffffffffffffffff1611610d0c57818181548110610ce657610ce66124d1565b600091825260209091200154610d05906001600160801b031684612471565b9250610d11565b610d19565b600101610c96565b5050919050565b600033610d2e8582856116e3565b610d39858585611744565b506001949350505050565b60009081526000805160206126a2833981519152602052604090206001015490565b610d6f82610d44565b610d7881611478565b610d8283836117a3565b50505050565b6000610d9381611478565b600382905560008290556040518281527f76c5f6d0e58a17742fe2a921dc4c4ab1bc653b772d418b07e3fb907c72c5e3fa90602001610c66565b6001600160a01b0381163314610df65760405163334bd91960e11b815260040160405180910390fd5b610e00828261184f565b505050565b610e0e33611482565b50610e18816118cb565b610e2233826118d5565b50565b600080516020612622833981519152610e3d81611478565b610e4684611482565b5060025483610e5486610f99565b610e5e9190612471565b1115610ebe5760405162461bcd60e51b815260206004820152602960248201527f4b65656c546f6b656e3a20726566756e6420776f756c642065786365656420776044820152680616c6c6574206361760bc1b6064820152608401610809565b610ec884846115f7565b610ed2848461162d565b60408051848152602081018490526001600160a01b038616917fdf6a2f82cba0d26d78bf1cec65a406255e9a6ded089697adda7ecf8e657e01fa91015b60405180910390a250505050565b610f25611a16565b610f2e82611abd565b610f388282611ac8565b5050565b6000610f46611b85565b5060008051602061266283398151915290565b6000610f6481611478565b60028290556040518281527f4784309e6b1f1431c711eac5e572f9ba2d542ecb5428efc0e927b794f4e8e2c190602001610c66565b6001600160a01b03166000908152600080516020612642833981519152602052604090205490565b610fca82611482565b50610fd58282611bce565b610f3882826118d5565b6000610fea81611478565b600082905560038290556040518281527f76c5f6d0e58a17742fe2a921dc4c4ab1bc653b772d418b07e3fb907c72c5e3fa90602001610c66565b60009182526000805160206126a2833981519152602090815260408084206001600160a01b0393909316845291905290205460ff1690565b6001600160a01b03821660009081526004602052604081208161107f8442612471565b6001600160a01b0386166000908152600560205260409020549091505b825481101561111f57818382815481106110b8576110b86124d1565b600091825260209091200154600160801b900467ffffffffffffffff1611611112578281815481106110ec576110ec6124d1565b60009182526020909120015461110b906001600160801b031685612471565b9350611117565b61111f565b60010161109c565b50505092915050565b7f52c63247e1f47db19d5ce0460030c497f067ca4cebf71ba98eeadabe20bace048054606091600080516020612642833981519152916109da90612484565b600061099582611482565b600033610a6c818585611744565b600061118a611be3565b805490915060ff600160401b820416159067ffffffffffffffff166000811580156111b25750825b905060008267ffffffffffffffff1660011480156111cf5750303b155b9050811580156111dd575080155b156111fb5760405163f92ee8a960e01b815260040160405180910390fd5b845467ffffffffffffffff19166001178555831561122557845460ff60401b1916600160401b1785555b61126d6040518060400160405280600a81526020016925b2b2b6102a37b5b2b760b11b8152506040518060400160405280600481526020016312d1515360e21b815250611c0c565b611275611c1e565b61127d611c1e565b68056bc75e2d631000006000818155681043561a88293000006002556003919091556276a7006006556112b090876117a3565b506112c9600080516020612682833981519152876117a3565b506112e2600080516020612622833981519152876117a3565b50831561132957845460ff60401b19168555604051600181527fc7f505b2f371ae2175ee4913f4499e1f2633a7b5936321eed1cdaeb6115181d29060200160405180910390a15b505050505050565b61133a82610d44565b61134381611478565b610d82838361184f565b6001600160a01b0391821660009081527f52c63247e1f47db19d5ce0460030c497f067ca4cebf71ba98eeadabe20bace016020908152604080832093909416825291909152205490565b6000805160206126228339815191526113af81611478565b6113b884611482565b506113c38484611c26565b6113cd84846118d5565b60408051848152602081018490526001600160a01b038616917f91092d853d5aee7e7f449f0a7ce64c055e863f2cf9c9c594aa080aec40fea7209101610f0f565b6001600160a01b0381166000908152600460209081526040808320600590925282205481548110611440576000611470565b818181548110611452576114526124d1565b600091825260209091200154600160801b900467ffffffffffffffff165b949350505050565b610e228133611c5c565b6001600160a01b038116600090815260046020908152604080832060059092528220545b8154811080156114e45750428282815481106114c4576114c46124d1565b600091825260209091200154600160801b900467ffffffffffffffff1611155b15611559578181815481106114fb576114fb6124d1565b60009182526020909120015461151a906001600160801b031684612471565b925081818154811061152e5761152e6124d1565b600091825260209091200180546001600160c01b031916905580611551816124e7565b9150506114a6565b6001600160a01b03841660009081526005602052604090208190558215610d1957600061158585610f99565b905060008185116115965784611598565b815b905080156115ee576115aa8682611c26565b856001600160a01b03167fb6760691439212c96c82de5a8c06d20538b67c05b36ad9df36823b6c19e121c9826040516115e591815260200190565b60405180910390a25b50505050919050565b6001600160a01b0382166116215760405163ec442f0560e01b815260006004820152602401610809565b610f3860008383611c95565b60046000836001600160a01b03166001600160a01b031681526020019081526020016000206040518060400160405280836001600160801b03168152602001611674611d09565b61167e9042612471565b67ffffffffffffffff908116909152825460018101845560009384526020938490208351910180549490930151909116600160801b026001600160c01b03199093166001600160801b03909116179190911790555050565b610e008383836001611d24565b60006116ef848461134d565b9050600019811015610d82578181101561173557604051637dc7a0d960e11b81526001600160a01b03841660048201526024810182905260448101839052606401610809565b610d8284848484036000611d24565b6001600160a01b03831661176e57604051634b637e8f60e11b815260006004820152602401610809565b6001600160a01b0382166117985760405163ec442f0560e01b815260006004820152602401610809565b610e00838383611c95565b60006000805160206126a28339815191526117be8484611024565b61183e576000848152602082815260408083206001600160a01b03871684529091529020805460ff191660011790556117f43390565b6001600160a01b0316836001600160a01b0316857f2f8788117e7eff1d82e926ec794901d17c78024a50270940304540a733656f0d60405160405180910390a46001915050610995565b6000915050610995565b5092915050565b60006000805160206126a283398151915261186a8484611024565b1561183e576000848152602082815260408083206001600160a01b0387168085529252808320805460ff1916905551339287917ff6391f5c32d9c69d2a47ea670b442974b53935d1edc7fd64eb21e047a839171b9190a46001915050610995565b610e223382611c26565b6001600160a01b0382166000908152600460209081526040808320600590925290912054825b60008111801561190b5750825482105b156119f4576000838381548110611924576119246124d1565b6000918252602090912001546001600160801b03169050818111611994576119556001600160801b038216836124be565b9150838381548110611969576119696124d1565b600091825260209091200180546001600160c01b03191690558261198c816124e7565b9350506119ee565b6119a7826001600160801b0383166124be565b8484815481106119b9576119b96124d1565b6000918252602082200180546fffffffffffffffffffffffffffffffff19166001600160801b03939093169290921790915591505b506118fb565b506001600160a01b039093166000908152600560205260409020929092555050565b306001600160a01b037f0000000000000000000000000000000000000000000000000000000000000000161480611a9d57507f00000000000000000000000000000000000000000000000000000000000000006001600160a01b0316611a91600080516020612662833981519152546001600160a01b031690565b6001600160a01b031614155b15611abb5760405163703e46dd60e11b815260040160405180910390fd5b565b6000610f3881611478565b816001600160a01b03166352d1902d6040518163ffffffff1660e01b8152600401602060405180830381865afa925050508015611b22575060408051601f3d908101601f19168201909252611b1f91810190612500565b60015b611b4a57604051634c9c8ce360e01b81526001600160a01b0383166004820152602401610809565b6000805160206126628339815191528114611b7b57604051632a87526960e21b815260048101829052602401610809565b610e008383611e0c565b306001600160a01b037f00000000000000000000000000000000000000000000000000000000000000001614611abb5760405163703e46dd60e11b815260040160405180910390fd5b611bd98233836116e3565b610f388282611c26565b6000807ff0c57e16840df040f15088dc2f81fe391c3923bec73e23a9662efc9c229c6a00610995565b611c14611e62565b610f388282611e87565b611abb611e62565b6001600160a01b038216611c5057604051634b637e8f60e11b815260006004820152602401610809565b610f3882600083611c95565b611c668282611024565b610f385760405163e2517d3f60e01b81526001600160a01b038216600482015260248101839052604401610809565b6001600160a01b0383161580611cb257506001600160a01b038216155b611cfe5760405162461bcd60e51b815260206004820152601b60248201527f4b65656c546f6b656e3a206e6f6e2d7472616e7366657261626c6500000000006044820152606401610809565b610e00838383611ed8565b6000600654600014611d1c575060065490565b506276a70090565b6000805160206126428339815191526001600160a01b038516611d5d5760405163e602df0560e01b815260006004820152602401610809565b6001600160a01b038416611d8757604051634a1406b160e11b815260006004820152602401610809565b6001600160a01b03808616600090815260018301602090815260408083209388168352929052208390558115611e0557836001600160a01b0316856001600160a01b03167f8c5be1e5ebec7d5bd14f71427d1e84f3dd0314c0f7b2291e5b200ac8c7c3b92585604051611dfc91815260200190565b60405180910390a35b5050505050565b611e1582612016565b6040516001600160a01b038316907fbc7cd75a20ee27fd9adebab32041f755214dbc6bffa90cc0225b39da2e5c2d3b90600090a2805115611e5a57610e00828261207b565b610f38612117565b611e6a612136565b611abb57604051631afcd79f60e31b815260040160405180910390fd5b611e8f611e62565b6000805160206126428339815191527f52c63247e1f47db19d5ce0460030c497f067ca4cebf71ba98eeadabe20bace03611ec98482612561565b5060048101610d828382612561565b6000805160206126428339815191526001600160a01b038416611f145781816002016000828254611f099190612471565b90915550611f869050565b6001600160a01b03841660009081526020829052604090205482811015611f675760405163391434e360e21b81526001600160a01b03861660048201526024810182905260448101849052606401610809565b6001600160a01b03851660009081526020839052604090209083900390555b6001600160a01b038316611fa4576002810180548390039055611fc3565b6001600160a01b03831660009081526020829052604090208054830190555b826001600160a01b0316846001600160a01b03167fddf252ad1be2c89b69c2b068fc378daa952ba7f163c4a11628f55a4df523b3ef8460405161200891815260200190565b60405180910390a350505050565b806001600160a01b03163b60000361204c57604051634c9c8ce360e01b81526001600160a01b0382166004820152602401610809565b60008051602061266283398151915280546001600160a01b0319166001600160a01b0392909216919091179055565b606060006120898484612150565b90508080156120ac575060003d11806120ac57506000846001600160a01b03163b115b156120c1576120b9612165565b915050610995565b80156120eb57604051639996b31560e01b81526001600160a01b0385166004820152602401610809565b3d156120fe576120f961217f565b611848565b60405163d6bda27560e01b815260040160405180910390fd5b3415611abb5760405163b398979f60e01b815260040160405180910390fd5b6000612140611be3565b54600160401b900460ff16919050565b6000806000835160208501865af49392505050565b6040513d81523d6000602083013e3d602001810160405290565b6040513d6000823e3d81fd5b80356001600160a01b03811681146121a257600080fd5b919050565b600080600080608085870312156121bd57600080fd5b6121c68561218b565b966020860135965060408601359560600135945092505050565b6000602082840312156121f257600080fd5b81356001600160e01b03198116811461220a57600080fd5b9392505050565b60006020808352835180602085015260005b8181101561223f57858101830151858201604001528201612223565b506000604082860101526040601f19601f8301168501019250505092915050565b6000806040838503121561227357600080fd5b61227c8361218b565b946020939093013593505050565b60008060006060848603121561229f57600080fd5b6122a88461218b565b95602085013595506040909401359392505050565b6000602082840312156122cf57600080fd5b5035919050565b6000602082840312156122e857600080fd5b61220a8261218b565b60008060006060848603121561230657600080fd5b61230f8461218b565b925061231d6020850161218b565b9150604084013590509250925092565b6000806040838503121561234057600080fd5b823591506123506020840161218b565b90509250929050565b634e487b7160e01b600052604160045260246000fd5b6000806040838503121561238257600080fd5b61238b8361218b565b9150602083013567ffffffffffffffff808211156123a857600080fd5b818501915085601f8301126123bc57600080fd5b8135818111156123ce576123ce612359565b604051601f8201601f19908116603f011681019083821181831017156123f6576123f6612359565b8160405282815288602084870101111561240f57600080fd5b8260208601602083013760006020848301015280955050505050509250929050565b6000806040838503121561244457600080fd5b61244d8361218b565b91506123506020840161218b565b634e487b7160e01b600052601160045260246000fd5b808201808211156109955761099561245b565b600181811c9082168061249857607f821691505b6020821081036124b857634e487b7160e01b600052602260045260246000fd5b50919050565b818103818111156109955761099561245b565b634e487b7160e01b600052603260045260246000fd5b6000600182016124f9576124f961245b565b5060010190565b60006020828403121561251257600080fd5b5051919050565b601f821115610e00576000816000526020600020601f850160051c810160208610156125425750805b601f850160051c820191505b818110156113295782815560010161254e565b815167ffffffffffffffff81111561257b5761257b612359565b61258f816125898454612484565b84612519565b602080601f8311600181146125c457600084156125ac5750858301515b600019600386901b1c1916600185901b178555611329565b600085815260208120601f198616915b828110156125f3578886015182559484019460019091019084016125d4565b50858210156126115787850151600019600388901b60f8161c191681555b5050505050600190811b0190555056fed9ec6f45433bd3741734a224ab231970b6c603c2b3bfc8f78bb4db5db683ea8452c63247e1f47db19d5ce0460030c497f067ca4cebf71ba98eeadabe20bace00360894a13ba1a3210667c828492db98dca3e2076cc3735a920a3ca505d382bbc9f2df0fed2c77648de5860a4cc508cd0818c85b8b8a1ab4ceeef8d981c8956a602dd7bc7dec4dceedda775e58dd541e08a116c6c53815c0bd028192f7b626800a26469706673582212202dc6562aada9d33ef5bd114b4334826500d755df3fff1e081fa766041e7720c564736f6c63430008180033",
  "linkReferences": {},
  "deployedLinkReferences": {}
}